{"contracts/VotableERC20.sol":{"VotableERC20":{"abi":[{"inputs":[{"internalType":"string","name":"_name","type":"string"},{"internalType":"string","name":"_symbol","type":"string"},{"internalType":"uint256","name":"_tokenPrice","type":"uint256"},{"internalType":"uint256","name":"_maxTokenSupply","type":"uint256"},{"internalType":"uint256","name":"_timeToVote","type":"uint256"},{"internalType":"uint256","name":"_feePercent","type":"uint256"}],"stateMutability":"nonpayable","type":"constructor"},{"anonymous":false,"inputs":[{"indexed":true,"internalType":"address","name":"owner","type":"address"},{"indexed":true,"internalType":"address","name":"spender","type":"address"},{"indexed":false,"internalType":"uint256","name":"value","type":"uint256"}],"name":"Approval","type":"event"},{"anonymous":false,"inputs":[{"indexed":false,"internalType":"uint256","name":"newPrice","type":"uint256"}],"name":"PriceChanged","type":"event"},{"anonymous":false,"inputs":[{"indexed":true,"internalType":"address","name":"from","type":"address"},{"indexed":true,"internalType":"address","name":"to","type":"address"},{"indexed":false,"internalType":"uint256","name":"value","type":"uint256"}],"name":"Transfer","type":"event"},{"anonymous":false,"inputs":[{"indexed":false,"internalType":"uint256","name":"endTime","type":"uint256"}],"name":"VoteStarted","type":"event"},{"anonymous":false,"inputs":[{"indexed":true,"internalType":"address","name":"voter","type":"address"},{"indexed":false,"internalType":"uint256","name":"proposedPrice","type":"uint256"}],"name":"Voted","type":"event"},{"inputs":[{"internalType":"uint256","name":"_proposedPrice","type":"uint256"}],"name":"addVotePrice","outputs":[],"stateMutability":"nonpayable","type":"function"},{"inputs":[{"internalType":"address","name":"_owner","type":"address"},{"internalType":"address","name":"_spender","type":"address"}],"name":"allowance","outputs":[{"internalType":"uint256","name":"","type":"uint256"}],"stateMutability":"view","type":"function"},{"inputs":[{"internalType":"address","name":"_spender","type":"address"},{"internalType":"uint256","name":"_amount","type":"uint256"}],"name":"approve","outputs":[{"internalType":"bool","name":"","type":"bool"}],"stateMutability":"nonpayable","type":"function"},{"inputs":[{"internalType":"address","name":"_account","type":"address"}],"name":"balanceOf","outputs":[{"internalType":"uint256","name":"","type":"uint256"}],"stateMutability":"view","type":"function"},{"inputs":[],"name":"buy","outputs":[{"internalType":"bool","name":"","type":"bool"}],"stateMutability":"payable","type":"function"},{"inputs":[],"name":"currentVoteId","outputs":[{"internalType":"uint256","name":"","type":"uint256"}],"stateMutability":"view","type":"function"},{"inputs":[],"name":"decimals","outputs":[{"internalType":"uint8","name":"","type":"uint8"}],"stateMutability":"view","type":"function"},{"inputs":[],"name":"endVote","outputs":[],"stateMutability":"nonpayable","type":"function"},{"inputs":[],"name":"feeDecimals","outputs":[{"internalType":"uint16","name":"","type":"uint16"}],"stateMutability":"view","type":"function"},{"inputs":[],"name":"feePercent","outputs":[{"internalType":"uint256","name":"","type":"uint256"}],"stateMutability":"view","type":"function"},{"inputs":[],"name":"isVoting","outputs":[{"internalType":"bool","name":"","type":"bool"}],"stateMutability":"view","type":"function"},{"inputs":[],"name":"leadingVote","outputs":[{"internalType":"uint256","name":"votesTotal","type":"uint256"},{"internalType":"uint256","name":"proposedPrice","type":"uint256"}],"stateMutability":"view","type":"function"},{"inputs":[],"name":"maxTokenSupply","outputs":[{"internalType":"uint256","name":"","type":"uint256"}],"stateMutability":"view","type":"function"},{"inputs":[],"name":"minTokenAmountForAddVotePrice","outputs":[{"internalType":"uint256","name":"","type":"uint256"}],"stateMutability":"view","type":"function"},{"inputs":[],"name":"minTokenAmountForVoting","outputs":[{"internalType":"uint256","name":"","type":"uint256"}],"stateMutability":"view","type":"function"},{"inputs":[],"name":"name","outputs":[{"internalType":"string","name":"","type":"string"}],"stateMutability":"view","type":"function"},{"inputs":[],"name":"owner","outputs":[{"internalType":"address payable","name":"","type":"address"}],"stateMutability":"view","type":"function"},{"inputs":[{"internalType":"uint256","name":"","type":"uint256"}],"name":"proposedPrices","outputs":[{"internalType":"uint256","name":"","type":"uint256"}],"stateMutability":"view","type":"function"},{"inputs":[{"internalType":"uint256","name":"tokensToSell","type":"uint256"}],"name":"sell","outputs":[{"internalType":"bool","name":"","type":"bool"}],"stateMutability":"nonpayable","type":"function"},{"inputs":[{"internalType":"uint256","name":"_newFeePercent","type":"uint256"}],"name":"setFeePercent","outputs":[],"stateMutability":"nonpayable","type":"function"},{"inputs":[],"name":"startVote","outputs":[],"stateMutability":"nonpayable","type":"function"},{"inputs":[],"name":"symbol","outputs":[{"internalType":"string","name":"","type":"string"}],"stateMutability":"view","type":"function"},{"inputs":[],"name":"timeToVote","outputs":[{"internalType":"uint256","name":"","type":"uint256"}],"stateMutability":"view","type":"function"},{"inputs":[],"name":"tokenPrice","outputs":[{"internalType":"uint256","name":"","type":"uint256"}],"stateMutability":"view","type":"function"},{"inputs":[{"internalType":"uint256","name":"_price","type":"uint256"}],"name":"totalOfPrice","outputs":[{"internalType":"uint256","name":"","type":"uint256"}],"stateMutability":"view","type":"function"},{"inputs":[],"name":"totalSupply","outputs":[{"internalType":"uint256","name":"","type":"uint256"}],"stateMutability":"view","type":"function"},{"inputs":[],"name":"totalTokenSupply","outputs":[{"internalType":"uint256","name":"","type":"uint256"}],"stateMutability":"view","type":"function"},{"inputs":[{"internalType":"address","name":"_to","type":"address"},{"internalType":"uint256","name":"_amount","type":"uint256"}],"name":"transfer","outputs":[{"internalType":"bool","name":"","type":"bool"}],"stateMutability":"nonpayable","type":"function"},{"inputs":[{"internalType":"address","name":"_from","type":"address"},{"internalType":"address","name":"_to","type":"address"},{"internalType":"uint256","name":"_amount","type":"uint256"}],"name":"transferFrom","outputs":[{"internalType":"bool","name":"","type":"bool"}],"stateMutability":"nonpayable","type":"function"},{"inputs":[{"internalType":"uint256","name":"_proposedPrice","type":"uint256"}],"name":"vote","outputs":[],"stateMutability":"nonpayable","type":"function"},{"inputs":[],"name":"voteCountdown","outputs":[{"internalType":"uint256","name":"","type":"uint256"}],"stateMutability":"view","type":"function"},{"inputs":[],"name":"winningPrice","outputs":[{"internalType":"uint256","name":"","type":"uint256"}],"stateMutability":"view","type":"function"}],"evm":{"bytecode":{"linkReferences":{},"object":"60806040526000600460006101000a81548160ff021916908315150217905550601260016200002f91906200041d565b600a556000600e553480156200004457600080fd5b50604051620038323803806200383283398181016040528101906200006a919062000263565b8560029080519060200190620000829291906200012a565b5084600390805190602001906200009b9291906200012a565b50836007819055508260058190555033600960006101000a81548173ffffffffffffffffffffffffffffffffffffffff021916908373ffffffffffffffffffffffffffffffffffffffff16021790555081600c81905550612710600580546200010591906200055a565b6200011191906200038a565b600b819055508060088190555050505050505062000768565b828054620001389062000608565b90600052602060002090601f0160209004810192826200015c5760008555620001a8565b82601f106200017757805160ff1916838001178555620001a8565b82800160010185558215620001a8579182015b82811115620001a75782518255916020019190600101906200018a565b5b509050620001b79190620001bb565b5090565b5b80821115620001d6576000816000905550600101620001bc565b5090565b6000620001f1620001eb8462000354565b6200032b565b9050828152602081018484840111156200020a57600080fd5b62000217848285620005d2565b509392505050565b600082601f8301126200023157600080fd5b815162000243848260208601620001da565b91505092915050565b6000815190506200025d816200074e565b92915050565b60008060008060008060c087890312156200027d57600080fd5b600087015167ffffffffffffffff8111156200029857600080fd5b620002a689828a016200021f565b965050602087015167ffffffffffffffff811115620002c457600080fd5b620002d289828a016200021f565b9550506040620002e589828a016200024c565b9450506060620002f889828a016200024c565b93505060806200030b89828a016200024c565b92505060a06200031e89828a016200024c565b9150509295509295509295565b6000620003376200034a565b90506200034582826200063e565b919050565b6000604051905090565b600067ffffffffffffffff82111562000372576200037162000701565b5b6200037d8262000730565b9050602081019050919050565b60006200039782620005bb565b9150620003a483620005bb565b925082620003b757620003b6620006a3565b5b828204905092915050565b6000808291508390505b60018511156200041457808604811115620003ec57620003eb62000674565b5b6001851615620003fc5780820291505b80810290506200040c8562000741565b9450620003cc565b94509492505050565b60006200042a82620005bb565b91506200043783620005c5565b9250620004667fffffffffffffffffffffffffffffffffffffffffffffffffffffffffffffffff84846200046e565b905092915050565b60008262000480576001905062000553565b8162000490576000905062000553565b8160018114620004a95760028114620004b457620004ea565b600191505062000553565b60ff841115620004c957620004c862000674565b5b8360020a915084821115620004e357620004e262000674565b5b5062000553565b5060208310610133831016604e8410600b8410161715620005245782820a9050838111156200051e576200051d62000674565b5b62000553565b620005338484846001620003c2565b925090508184048111156200054d576200054c62000674565b5b81810290505b9392505050565b60006200056782620005bb565b91506200057483620005bb565b9250817fffffffffffffffffffffffffffffffffffffffffffffffffffffffffffffffff0483118215151615620005b057620005af62000674565b5b828202905092915050565b6000819050919050565b600060ff82169050919050565b60005b83811015620005f2578082015181840152602081019050620005d5565b8381111562000602576000848401525b50505050565b600060028204905060018216806200062157607f821691505b60208210811415620006385762000637620006d2565b5b50919050565b620006498262000730565b810181811067ffffffffffffffff821117156200066b576200066a62000701565b5b80604052505050565b7f4e487b7100000000000000000000000000000000000000000000000000000000600052601160045260246000fd5b7f4e487b7100000000000000000000000000000000000000000000000000000000600052601260045260246000fd5b7f4e487b7100000000000000000000000000000000000000000000000000000000600052602260045260246000fd5b7f4e487b7100000000000000000000000000000000000000000000000000000000600052604160045260246000fd5b6000601f19601f8301169050919050565b60008160011c9050919050565b6200075981620005bb565b81146200076557600080fd5b50565b6130ba80620007786000396000f3fe6080604052600436106101e35760003560e01c806388edb92911610102578063a9059cbb11610095578063c745907a11610064578063c745907a146106bc578063cc0f1786146106f9578063dd62ed3e14610724578063e4849b3214610761576101e3565b8063a9059cbb14610612578063ace682ba1461064f578063b92239461461067a578063c1f5260414610691576101e3565b8063945837e2116100d1578063945837e21461056157806395d89b411461058c5780639a57c2fc146105b7578063a6f2ae3a146105f4576101e3565b806388edb929146104b45780638da5cb5b146104df57806390a6a56a1461050a5780639100b5dd14610536576101e3565b80634693d70b1161017a57806370a082311161014957806370a08231146103f85780637ce3489b146104355780637fd6f15c1461045e5780637ff9b59614610489576101e3565b80634693d70b146103625780634c0a6af01461038d57806350f7c204146103a457806359d634b0146103cf576101e3565b80631bbef399116101b65780631bbef399146102a45780631ca8b6cb146102cf57806323b872dd146102fa578063313ce56714610337576101e3565b80630121b93f146101e857806306fdde0314610211578063095ea7b31461023c57806318160ddd14610279575b600080fd5b3480156101f457600080fd5b5061020f600480360381019061020a9190612316565b61079e565b005b34801561021d57600080fd5b50610226610b0c565b60405161023391906126c2565b60405180910390f35b34801561024857600080fd5b50610263600480360381019061025e91906122da565b610b9a565b60405161027091906126a7565b60405180910390f35b34801561028557600080fd5b5061028e610c8c565b60405161029b919061293f565b60405180910390f35b3480156102b057600080fd5b506102b9610c96565b6040516102c691906126a7565b60405180910390f35b3480156102db57600080fd5b506102e4610ca9565b6040516102f1919061293f565b60405180910390f35b34801561030657600080fd5b50610321600480360381019061031c919061228b565b610caf565b60405161032e91906126a7565b60405180910390f35b34801561034357600080fd5b5061034c610e17565b6040516103599190612983565b60405180910390f35b34801561036e57600080fd5b50610377610e1c565b604051610384919061293f565b60405180910390f35b34801561039957600080fd5b506103a2610e22565b005b3480156103b057600080fd5b506103b9610f78565b6040516103c6919061293f565b60405180910390f35b3480156103db57600080fd5b506103f660048036038101906103f19190612316565b610f7e565b005b34801561040457600080fd5b5061041f600480360381019061041a9190612226565b611314565b60405161042c919061293f565b60405180910390f35b34801561044157600080fd5b5061045c60048036038101906104579190612316565b61135d565b005b34801561046a57600080fd5b5061047361143f565b604051610480919061293f565b60405180910390f35b34801561049557600080fd5b5061049e611445565b6040516104ab919061293f565b60405180910390f35b3480156104c057600080fd5b506104c961144b565b6040516104d6919061293f565b60405180910390f35b3480156104eb57600080fd5b506104f4611451565b604051610501919061268c565b60405180910390f35b34801561051657600080fd5b5061051f611477565b60405161052d92919061295a565b60405180910390f35b34801561054257600080fd5b5061054b611489565b604051610558919061293f565b60405180910390f35b34801561056d57600080fd5b5061057661148f565b604051610583919061293f565b60405180910390f35b34801561059857600080fd5b506105a1611495565b6040516105ae91906126c2565b60405180910390f35b3480156105c357600080fd5b506105de60048036038101906105d99190612316565b611523565b6040516105eb919061293f565b60405180910390f35b6105fc611547565b60405161060991906126a7565b60405180910390f35b34801561061e57600080fd5b50610639600480360381019061063491906122da565b611746565b60405161064691906126a7565b60405180910390f35b34801561065b57600080fd5b5061066461175d565b604051610671919061293f565b60405180910390f35b34801561068657600080fd5b5061068f611763565b005b34801561069d57600080fd5b506106a661181e565b6040516106b3919061293f565b60405180910390f35b3480156106c857600080fd5b506106e360048036038101906106de9190612316565b611824565b6040516106f0919061293f565b60405180910390f35b34801561070557600080fd5b5061070e611841565b60405161071b9190612924565b60405180910390f35b34801561073057600080fd5b5061074b6004803603810190610746919061224f565b611847565b604051610758919061293f565b60405180910390f35b34801561076d57600080fd5b5061078860048036038101906107839190612316565b6118ce565b60405161079591906126a7565b60405180910390f35b600d544211156107e3576040517f08c379a00000000000000000000000000000000000000000000000000000000081526004016107da90612904565b60405180910390fd5b6000601260003373ffffffffffffffffffffffffffffffffffffffff1673ffffffffffffffffffffffffffffffffffffffff168152602001908152602001600020600001541480156108795750600e54601260003373ffffffffffffffffffffffffffffffffffffffff1673ffffffffffffffffffffffffffffffffffffffff1681526020019081526020016000206001015414155b6108b8576040517f08c379a00000000000000000000000000000000000000000000000000000000081526004016108af90612844565b60405180910390fd5b60006011600083815260200190815260200160002054141561090f576040517f08c379a000000000000000000000000000000000000000000000000000000000815260040161090690612784565b60405180910390fd5b600a54600f60003373ffffffffffffffffffffffffffffffffffffffff1673ffffffffffffffffffffffffffffffffffffffff168152602001908152602001600020541015610993576040517f08c379a000000000000000000000000000000000000000000000000000000000815260040161098a906128c4565b60405180910390fd5b6040518060400160405280828152602001600e54815250601260003373ffffffffffffffffffffffffffffffffffffffff1673ffffffffffffffffffffffffffffffffffffffff16815260200190815260200160002060008201518160000155602082015181600101559050503073ffffffffffffffffffffffffffffffffffffffff166370a08231336040518263ffffffff1660e01b8152600401610a399190612671565b60206040518083038186803b158015610a5157600080fd5b505afa158015610a65573d6000803e3d6000fd5b505050506040513d601f19601f82011682018060405250810190610a89919061233f565b601160008381526020019081526020016000206000828254610aab91906129ba565b92505081905550610abb81611a92565b3373ffffffffffffffffffffffffffffffffffffffff167f4d99b957a2bc29a30ebd96a7be8e68fe50a3c701db28a91436490b7d53870ca482604051610b01919061293f565b60405180910390a250565b60028054610b1990612b77565b80601f0160208091040260200160405190810160405280929190818152602001828054610b4590612b77565b8015610b925780601f10610b6757610100808354040283529160200191610b92565b820191906000526020600020905b815481529060010190602001808311610b7557829003601f168201915b505050505081565b600081601060003373ffffffffffffffffffffffffffffffffffffffff1673ffffffffffffffffffffffffffffffffffffffff16815260200190815260200160002060008573ffffffffffffffffffffffffffffffffffffffff1673ffffffffffffffffffffffffffffffffffffffff168152602001908152602001600020819055508273ffffffffffffffffffffffffffffffffffffffff163373ffffffffffffffffffffffffffffffffffffffff167f8c5be1e5ebec7d5bd14f71427d1e84f3dd0314c0f7b2291e5b200ac8c7c3b92584604051610c7a919061293f565b60405180910390a36001905092915050565b6000600654905090565b600460009054906101000a900460ff1681565b60065481565b600080601060008673ffffffffffffffffffffffffffffffffffffffff1673ffffffffffffffffffffffffffffffffffffffff16815260200190815260200160002060003373ffffffffffffffffffffffffffffffffffffffff1673ffffffffffffffffffffffffffffffffffffffff16815260200190815260200160002054905082811015610d74576040517f08c379a0000000000000000000000000000000000000000000000000000000008152600401610d6b90612764565b60405180910390fd5b610d7f858585611adb565b8281610d8b9190612a9b565b601060008773ffffffffffffffffffffffffffffffffffffffff1673ffffffffffffffffffffffffffffffffffffffff16815260200190815260200160002060003373ffffffffffffffffffffffffffffffffffffffff1673ffffffffffffffffffffffffffffffffffffffff1681526020019081526020016000208190555060019150509392505050565b601281565b600d5481565b600460009054906101000a900460ff1615610e72576040517f08c379a0000000000000000000000000000000000000000000000000000000008152600401610e6990612744565b60405180910390fd5b600b54600f60003373ffffffffffffffffffffffffffffffffffffffff1673ffffffffffffffffffffffffffffffffffffffff168152602001908152602001600020541015610ef6576040517f08c379a0000000000000000000000000000000000000000000000000000000008152600401610eed90612884565b60405180910390fd5b6001600460006101000a81548160ff021916908315150217905550600c5442610f1f91906129ba565b600d81905550600e6000815480929190610f3890612ba9565b91905055507fa80808a30283fc2c95db95a081ef4462dd38bb7854e6569e34c0b501eed90f4e600d54604051610f6e919061293f565b60405180910390a1565b60055481565b600d54421115610fc3576040517f08c379a0000000000000000000000000000000000000000000000000000000008152600401610fba90612904565b60405180910390fd5b6000601260003373ffffffffffffffffffffffffffffffffffffffff1673ffffffffffffffffffffffffffffffffffffffff168152602001908152602001600020600001541480156110595750600e54601260003373ffffffffffffffffffffffffffffffffffffffff1673ffffffffffffffffffffffffffffffffffffffff1681526020019081526020016000206001015414155b611098576040517f08c379a000000000000000000000000000000000000000000000000000000000815260040161108f90612844565b60405180910390fd5b60006011600083815260200190815260200160002054146110ee576040517f08c379a00000000000000000000000000000000000000000000000000000000081526004016110e5906127c4565b60405180910390fd5b600b54600f60003373ffffffffffffffffffffffffffffffffffffffff1673ffffffffffffffffffffffffffffffffffffffff168152602001908152602001600020541015611172576040517f08c379a000000000000000000000000000000000000000000000000000000000815260040161116990612704565b60405180910390fd5b3073ffffffffffffffffffffffffffffffffffffffff166370a08231336040518263ffffffff1660e01b81526004016111ab9190612671565b60206040518083038186803b1580156111c357600080fd5b505afa1580156111d7573d6000803e3d6000fd5b505050506040513d601f19601f820116820180604052508101906111fb919061233f565b60116000838152602001908152602001600020600082825461121d91906129ba565b925050819055506040518060400160405280828152602001600e54815250601260003373ffffffffffffffffffffffffffffffffffffffff1673ffffffffffffffffffffffffffffffffffffffff168152602001908152602001600020600082015181600001556020820151816001015590505060138190806001815401808255809150506001900390600052602060002001600090919091909150556112c381611a92565b3373ffffffffffffffffffffffffffffffffffffffff167f4d99b957a2bc29a30ebd96a7be8e68fe50a3c701db28a91436490b7d53870ca482604051611309919061293f565b60405180910390a250565b6000600f60008373ffffffffffffffffffffffffffffffffffffffff1673ffffffffffffffffffffffffffffffffffffffff168152602001908152602001600020549050919050565b600960009054906101000a900473ffffffffffffffffffffffffffffffffffffffff1673ffffffffffffffffffffffffffffffffffffffff163373ffffffffffffffffffffffffffffffffffffffff16146113ed576040517f08c379a00000000000000000000000000000000000000000000000000000000081526004016113e490612724565b60405180910390fd5b61271061ffff168110611435576040517f08c379a000000000000000000000000000000000000000000000000000000000815260040161142c906128a4565b60405180910390fd5b8060088190555050565b60085481565b60075481565b600b5481565b600960009054906101000a900473ffffffffffffffffffffffffffffffffffffffff1681565b60008060000154908060010154905082565b600e5481565b600c5481565b600380546114a290612b77565b80601f01602080910402602001604051908101604052809291908181526020018280546114ce90612b77565b801561151b5780601f106114f05761010080835404028352916020019161151b565b820191906000526020600020905b8154815290600101906020018083116114fe57829003601f168201915b505050505081565b6013818154811061153357600080fd5b906000526020600020016000915090505481565b600080341161158b576040517f08c379a000000000000000000000000000000000000000000000000000000000815260040161158290612864565b60405180910390fd5b600061271061ffff16600854346115a29190612a41565b6115ac9190612a10565b9050600081346115bc9190612a9b565b90506000600754826115ce9190612a10565b90506006546005546115e09190612a9b565b811115611622576040517f08c379a0000000000000000000000000000000000000000000000000000000008152600401611619906127a4565b60405180910390fd5b61162c3382611d65565b6000601260003373ffffffffffffffffffffffffffffffffffffffff1673ffffffffffffffffffffffffffffffffffffffff16815260200190815260200160002060000154141580156116c25750600e54601260003373ffffffffffffffffffffffffffffffffffffffff1673ffffffffffffffffffffffffffffffffffffffff16815260200190815260200160002060010154145b15611734578060116000601260003373ffffffffffffffffffffffffffffffffffffffff1673ffffffffffffffffffffffffffffffffffffffff168152602001908152602001600020600001548152602001908152602001600020600082825461172c91906129ba565b925050819055505b61173c611dd8565b6001935050505090565b6000611753338484611adb565b6001905092915050565b600a5481565b600d5442116117a7576040517f08c379a000000000000000000000000000000000000000000000000000000000815260040161179e906127e4565b60405180910390fd5b6000600101546007819055506000600460006101000a81548160ff0219169083151502179055506000806000820160009055600182016000905550507fa6dc15bdb68da224c66db4b3838d9a2b205138e8cff6774e57d0af91e196d622600754604051611814919061293f565b60405180910390a1565b60145481565b600060116000838152602001908152602001600020549050919050565b61271081565b6000601060008473ffffffffffffffffffffffffffffffffffffffff1673ffffffffffffffffffffffffffffffffffffffff16815260200190815260200160002060008373ffffffffffffffffffffffffffffffffffffffff1673ffffffffffffffffffffffffffffffffffffffff16815260200190815260200160002054905092915050565b6000813073ffffffffffffffffffffffffffffffffffffffff166370a08231336040518263ffffffff1660e01b815260040161190a9190612671565b60206040518083038186803b15801561192257600080fd5b505afa158015611936573d6000803e3d6000fd5b505050506040513d601f19601f8201168201806040525081019061195a919061233f565b101561199b576040517f08c379a0000000000000000000000000000000000000000000000000000000008152600401611992906128e4565b60405180910390fd5b6000600754836119ab9190612a41565b9050600061271061ffff16600854836119c49190612a41565b6119ce9190612a10565b9050600081836119de9190612a9b565b905080471015611a23576040517f08c379a0000000000000000000000000000000000000000000000000000000008152600401611a1a90612804565b60405180910390fd5b611a2d3386611ed1565b611a373386611f44565b611a3f611dd8565b3373ffffffffffffffffffffffffffffffffffffffff166108fc829081150290604051600060405180830381858888f19350505050158015611a85573d6000803e3d6000fd5b5060019350505050919050565b600080015460116000838152602001908152602001600020541115611ad85760116000828152602001908152602001600020546000800181905550806000600101819055505b50565b600073ffffffffffffffffffffffffffffffffffffffff168373ffffffffffffffffffffffffffffffffffffffff161415611b4b576040517f08c379a0000000000000000000000000000000000000000000000000000000008152600401611b42906126e4565b60405180910390fd5b600073ffffffffffffffffffffffffffffffffffffffff168273ffffffffffffffffffffffffffffffffffffffff161415611bbb576040517f08c379a0000000000000000000000000000000000000000000000000000000008152600401611bb290612824565b60405180910390fd5b80600f60008573ffffffffffffffffffffffffffffffffffffffff1673ffffffffffffffffffffffffffffffffffffffff168152602001908152602001600020541015611c3d576040517f08c379a0000000000000000000000000000000000000000000000000000000008152600401611c34906128e4565b60405180910390fd5b80600f60008573ffffffffffffffffffffffffffffffffffffffff1673ffffffffffffffffffffffffffffffffffffffff1681526020019081526020016000206000828254611c8c9190612a9b565b9250508190555080600f60008473ffffffffffffffffffffffffffffffffffffffff1673ffffffffffffffffffffffffffffffffffffffff1681526020019081526020016000206000828254611ce291906129ba565b92505081905550611cf38382611f44565b611cfb611dd8565b8173ffffffffffffffffffffffffffffffffffffffff168373ffffffffffffffffffffffffffffffffffffffff167fddf252ad1be2c89b69c2b068fc378daa952ba7f163c4a11628f55a4df523b3ef83604051611d58919061293f565b60405180910390a3505050565b80600f60008473ffffffffffffffffffffffffffffffffffffffff1673ffffffffffffffffffffffffffffffffffffffff1681526020019081526020016000206000828254611db491906129ba565b925050819055508060066000828254611dcd91906129ba565b925050819055505050565b6000805b601380549050811015611ea75760008001546011600060138481548110611e2c577f4e487b7100000000000000000000000000000000000000000000000000000000600052603260045260246000fd5b90600052602060002001548152602001908152602001600020541115611e945760138181548110611e86577f4e487b7100000000000000000000000000000000000000000000000000000000600052603260045260246000fd5b906000526020600020015491505b8080611e9f90612ba9565b915050611ddc565b50806000600101819055506011600082815260200190815260200160002054600080018190555050565b80600f60008473ffffffffffffffffffffffffffffffffffffffff1673ffffffffffffffffffffffffffffffffffffffff1681526020019081526020016000206000828254611f209190612a9b565b925050819055508060066000828254611f399190612a9b565b925050819055505050565b6000601260008473ffffffffffffffffffffffffffffffffffffffff1673ffffffffffffffffffffffffffffffffffffffff1681526020019081526020016000206000015414158015611fda5750600e54601260008473ffffffffffffffffffffffffffffffffffffffff1673ffffffffffffffffffffffffffffffffffffffff16815260200190815260200160002060010154145b156121e357600a543073ffffffffffffffffffffffffffffffffffffffff166370a08231846040518263ffffffff1660e01b815260040161201b9190612671565b60206040518083038186803b15801561203357600080fd5b505afa158015612047573d6000803e3d6000fd5b505050506040513d601f19601f8201168201806040525081019061206b919061233f565b1015612175573073ffffffffffffffffffffffffffffffffffffffff166370a08231836040518263ffffffff1660e01b81526004016120aa9190612671565b60206040518083038186803b1580156120c257600080fd5b505afa1580156120d6573d6000803e3d6000fd5b505050506040513d601f19601f820116820180604052508101906120fa919061233f565b8161210591906129ba565b60116000601260008673ffffffffffffffffffffffffffffffffffffffff1673ffffffffffffffffffffffffffffffffffffffff16815260200190815260200160002060000154815260200190815260200160002060008282546121699190612a9b565b925050819055506121e2565b8060116000601260008673ffffffffffffffffffffffffffffffffffffffff1673ffffffffffffffffffffffffffffffffffffffff16815260200190815260200160002060000154815260200190815260200160002060008282546121da9190612a9b565b925050819055505b5b5050565b6000813590506121f681613056565b92915050565b60008135905061220b8161306d565b92915050565b6000815190506122208161306d565b92915050565b60006020828403121561223857600080fd5b6000612246848285016121e7565b91505092915050565b6000806040838503121561226257600080fd5b6000612270858286016121e7565b9250506020612281858286016121e7565b9150509250929050565b6000806000606084860312156122a057600080fd5b60006122ae868287016121e7565b93505060206122bf868287016121e7565b92505060406122d0868287016121fc565b9150509250925092565b600080604083850312156122ed57600080fd5b60006122fb858286016121e7565b925050602061230c858286016121fc565b9150509250929050565b60006020828403121561232857600080fd5b6000612336848285016121fc565b91505092915050565b60006020828403121561235157600080fd5b600061235f84828501612211565b91505092915050565b61237181612ae1565b82525050565b61238081612acf565b82525050565b61238f81612af3565b82525050565b60006123a08261299e565b6123aa81856129a9565b93506123ba818560208601612b44565b6123c381612c7f565b840191505092915050565b60006123db6021836129a9565b91506123e682612c90565b604082019050919050565b60006123fe6024836129a9565b915061240982612cdf565b604082019050919050565b60006124216013836129a9565b915061242c82612d2e565b602082019050919050565b6000612444601f836129a9565b915061244f82612d57565b602082019050919050565b60006124676021836129a9565b915061247282612d80565b604082019050919050565b600061248a601e836129a9565b915061249582612dcf565b602082019050919050565b60006124ad6020836129a9565b91506124b882612df8565b602082019050919050565b60006124d0603f836129a9565b91506124db82612e21565b604082019050919050565b60006124f36016836129a9565b91506124fe82612e70565b602082019050919050565b60006125166029836129a9565b915061252182612e99565b604082019050919050565b6000612539601f836129a9565b915061254482612ee8565b602082019050919050565b600061255c6012836129a9565b915061256782612f11565b602082019050919050565b600061257f601e836129a9565b915061258a82612f3a565b602082019050919050565b60006125a26026836129a9565b91506125ad82612f63565b604082019050919050565b60006125c5601e836129a9565b91506125d082612fb2565b602082019050919050565b60006125e8601c836129a9565b91506125f382612fdb565b602082019050919050565b600061260b6011836129a9565b915061261682613004565b602082019050919050565b600061262e6013836129a9565b91506126398261302d565b602082019050919050565b61264d81612aff565b82525050565b61265c81612b2d565b82525050565b61266b81612b37565b82525050565b60006020820190506126866000830184612377565b92915050565b60006020820190506126a16000830184612368565b92915050565b60006020820190506126bc6000830184612386565b92915050565b600060208201905081810360008301526126dc8184612395565b905092915050565b600060208201905081810360008301526126fd816123ce565b9050919050565b6000602082019050818103600083015261271d816123f1565b9050919050565b6000602082019050818103600083015261273d81612414565b9050919050565b6000602082019050818103600083015261275d81612437565b9050919050565b6000602082019050818103600083015261277d8161245a565b9050919050565b6000602082019050818103600083015261279d8161247d565b9050919050565b600060208201905081810360008301526127bd816124a0565b9050919050565b600060208201905081810360008301526127dd816124c3565b9050919050565b600060208201905081810360008301526127fd816124e6565b9050919050565b6000602082019050818103600083015261281d81612509565b9050919050565b6000602082019050818103600083015261283d8161252c565b9050919050565b6000602082019050818103600083015261285d8161254f565b9050919050565b6000602082019050818103600083015261287d81612572565b9050919050565b6000602082019050818103600083015261289d81612595565b9050919050565b600060208201905081810360008301526128bd816125b8565b9050919050565b600060208201905081810360008301526128dd816125db565b9050919050565b600060208201905081810360008301526128fd816125fe565b9050919050565b6000602082019050818103600083015261291d81612621565b9050919050565b60006020820190506129396000830184612644565b92915050565b60006020820190506129546000830184612653565b92915050565b600060408201905061296f6000830185612653565b61297c6020830184612653565b9392505050565b60006020820190506129986000830184612662565b92915050565b600081519050919050565b600082825260208201905092915050565b60006129c582612b2d565b91506129d083612b2d565b9250827fffffffffffffffffffffffffffffffffffffffffffffffffffffffffffffffff03821115612a0557612a04612bf2565b5b828201905092915050565b6000612a1b82612b2d565b9150612a2683612b2d565b925082612a3657612a35612c21565b5b828204905092915050565b6000612a4c82612b2d565b9150612a5783612b2d565b9250817fffffffffffffffffffffffffffffffffffffffffffffffffffffffffffffffff0483118215151615612a9057612a8f612bf2565b5b828202905092915050565b6000612aa682612b2d565b9150612ab183612b2d565b925082821015612ac457612ac3612bf2565b5b828203905092915050565b6000612ada82612b0d565b9050919050565b6000612aec82612b0d565b9050919050565b60008115159050919050565b600061ffff82169050919050565b600073ffffffffffffffffffffffffffffffffffffffff82169050919050565b6000819050919050565b600060ff82169050919050565b60005b83811015612b62578082015181840152602081019050612b47565b83811115612b71576000848401525b50505050565b60006002820490506001821680612b8f57607f821691505b60208210811415612ba357612ba2612c50565b5b50919050565b6000612bb482612b2d565b91507fffffffffffffffffffffffffffffffffffffffffffffffffffffffffffffffff821415612be757612be6612bf2565b5b600182019050919050565b7f4e487b7100000000000000000000000000000000000000000000000000000000600052601160045260246000fd5b7f4e487b7100000000000000000000000000000000000000000000000000000000600052601260045260246000fd5b7f4e487b7100000000000000000000000000000000000000000000000000000000600052602260045260246000fd5b6000601f19601f8301169050919050565b7f43616e6e6f74207472616e736665722066726f6d207a65726f2061646472657360008201527f7300000000000000000000000000000000000000000000000000000000000000602082015250565b7f4e6f7420656e6f75676820746f6b656e7320666f722061646420766f7465207060008201527f7269636500000000000000000000000000000000000000000000000000000000602082015250565b7f43616c6c6572206973206e6f74206f776e657200000000000000000000000000600082015250565b7f5072657669757320766f74696e67206973206e6f74206f766572207965742100600082015250565b7f5472616e7366657220616d6f756e74206578636565647320616c6c6f77616e6360008201527f6500000000000000000000000000000000000000000000000000000000000000602082015250565b7f5468657265206973206e6f2073756368207072696365206c6f74207965740000600082015250565b7f4d617820737570706c79206f6620746f6b656e7320697320746f75636865642e600082015250565b7f536f6d656f6e6520616c7265616479206164646564207468617420707269636560008201527f2c20796f752063616e20766f746520666f72207468617420696e737465616400602082015250565b7f566f74696e67206973206e6f74206f7665722079657400000000000000000000600082015250565b7f436f6e747261637420646f65736e2774206861766520656e6f7567682065746860008201527f657220746f207061790000000000000000000000000000000000000000000000602082015250565b7f43616e6e6f74207472616e7366657220746f207a65726f206164647265737300600082015250565b7f596f7520616c726561647920766f746564210000000000000000000000000000600082015250565b7f53656e6420736f6d6520657468657220746f2062757920746f6b656e732e0000600082015250565b7f4e6f7420656e6f75676820746f6b656e7320666f72207374617274696e67206160008201527f20766f7465210000000000000000000000000000000000000000000000000000602082015250565b7f596f752063616e27742073657420666565206f662077686f6c652073756d0000600082015250565b7f4e6f7420656e6f75676820746f6b656e7320666f7220766f74696e6700000000600082015250565b7f4e6f7420656e6f75676820746f6b656e73000000000000000000000000000000600082015250565b7f566f74696e672074696d65206973206f76657200000000000000000000000000600082015250565b61305f81612acf565b811461306a57600080fd5b50565b61307681612b2d565b811461308157600080fd5b5056fea26469706673582212209b7f6ddb21aa414d91e410f5aaf156b9966f11bf9f54f63397e4ce3422cb1a2764736f6c63430008040033","opcodes":"PUSH1 0x80 PUSH1 0x40 MSTORE PUSH1 0x0 PUSH1 0x4 PUSH1 0x0 PUSH2 0x100 EXP DUP2 SLOAD DUP2 PUSH1 0xFF MUL NOT AND SWAP1 DUP4 ISZERO ISZERO MUL OR SWAP1 SSTORE POP PUSH1 0x12 PUSH1 0x1 PUSH3 0x2F SWAP2 SWAP1 PUSH3 0x41D JUMP JUMPDEST PUSH1 0xA SSTORE PUSH1 0x0 PUSH1 0xE SSTORE CALLVALUE DUP1 ISZERO PUSH3 0x44 JUMPI PUSH1 0x0 DUP1 REVERT JUMPDEST POP PUSH1 0x40 MLOAD PUSH3 0x3832 CODESIZE SUB DUP1 PUSH3 0x3832 DUP4 CODECOPY DUP2 DUP2 ADD PUSH1 0x40 MSTORE DUP2 ADD SWAP1 PUSH3 0x6A SWAP2 SWAP1 PUSH3 0x263 JUMP JUMPDEST DUP6 PUSH1 0x2 SWAP1 DUP1 MLOAD SWAP1 PUSH1 0x20 ADD SWAP1 PUSH3 0x82 SWAP3 SWAP2 SWAP1 PUSH3 0x12A JUMP JUMPDEST POP DUP5 PUSH1 0x3 SWAP1 DUP1 MLOAD SWAP1 PUSH1 0x20 ADD SWAP1 PUSH3 0x9B SWAP3 SWAP2 SWAP1 PUSH3 0x12A JUMP JUMPDEST POP DUP4 PUSH1 0x7 DUP2 SWAP1 SSTORE POP DUP3 PUSH1 0x5 DUP2 SWAP1 SSTORE POP CALLER PUSH1 0x9 PUSH1 0x0 PUSH2 0x100 EXP DUP2 SLOAD DUP2 PUSH20 0xFFFFFFFFFFFFFFFFFFFFFFFFFFFFFFFFFFFFFFFF MUL NOT AND SWAP1 DUP4 PUSH20 0xFFFFFFFFFFFFFFFFFFFFFFFFFFFFFFFFFFFFFFFF AND MUL OR SWAP1 SSTORE POP DUP2 PUSH1 0xC DUP2 SWAP1 SSTORE POP PUSH2 0x2710 PUSH1 0x5 DUP1 SLOAD PUSH3 0x105 SWAP2 SWAP1 PUSH3 0x55A JUMP JUMPDEST PUSH3 0x111 SWAP2 SWAP1 PUSH3 0x38A JUMP JUMPDEST PUSH1 0xB DUP2 SWAP1 SSTORE POP DUP1 PUSH1 0x8 DUP2 SWAP1 SSTORE POP POP POP POP POP POP POP PUSH3 0x768 JUMP JUMPDEST DUP3 DUP1 SLOAD PUSH3 0x138 SWAP1 PUSH3 0x608 JUMP JUMPDEST SWAP1 PUSH1 0x0 MSTORE PUSH1 0x20 PUSH1 0x0 KECCAK256 SWAP1 PUSH1 0x1F ADD PUSH1 0x20 SWAP1 DIV DUP2 ADD SWAP3 DUP3 PUSH3 0x15C JUMPI PUSH1 0x0 DUP6 SSTORE PUSH3 0x1A8 JUMP JUMPDEST DUP3 PUSH1 0x1F LT PUSH3 0x177 JUMPI DUP1 MLOAD PUSH1 0xFF NOT AND DUP4 DUP1 ADD OR DUP6 SSTORE PUSH3 0x1A8 JUMP JUMPDEST DUP3 DUP1 ADD PUSH1 0x1 ADD DUP6 SSTORE DUP3 ISZERO PUSH3 0x1A8 JUMPI SWAP2 DUP3 ADD JUMPDEST DUP3 DUP2 GT ISZERO PUSH3 0x1A7 JUMPI DUP3 MLOAD DUP3 SSTORE SWAP2 PUSH1 0x20 ADD SWAP2 SWAP1 PUSH1 0x1 ADD SWAP1 PUSH3 0x18A JUMP JUMPDEST JUMPDEST POP SWAP1 POP PUSH3 0x1B7 SWAP2 SWAP1 PUSH3 0x1BB JUMP JUMPDEST POP SWAP1 JUMP JUMPDEST JUMPDEST DUP1 DUP3 GT ISZERO PUSH3 0x1D6 JUMPI PUSH1 0x0 DUP2 PUSH1 0x0 SWAP1 SSTORE POP PUSH1 0x1 ADD PUSH3 0x1BC JUMP JUMPDEST POP SWAP1 JUMP JUMPDEST PUSH1 0x0 PUSH3 0x1F1 PUSH3 0x1EB DUP5 PUSH3 0x354 JUMP JUMPDEST PUSH3 0x32B JUMP JUMPDEST SWAP1 POP DUP3 DUP2 MSTORE PUSH1 0x20 DUP2 ADD DUP5 DUP5 DUP5 ADD GT ISZERO PUSH3 0x20A JUMPI PUSH1 0x0 DUP1 REVERT JUMPDEST PUSH3 0x217 DUP5 DUP3 DUP6 PUSH3 0x5D2 JUMP JUMPDEST POP SWAP4 SWAP3 POP POP POP JUMP JUMPDEST PUSH1 0x0 DUP3 PUSH1 0x1F DUP4 ADD SLT PUSH3 0x231 JUMPI PUSH1 0x0 DUP1 REVERT JUMPDEST DUP2 MLOAD PUSH3 0x243 DUP5 DUP3 PUSH1 0x20 DUP7 ADD PUSH3 0x1DA JUMP JUMPDEST SWAP2 POP POP SWAP3 SWAP2 POP POP JUMP JUMPDEST PUSH1 0x0 DUP2 MLOAD SWAP1 POP PUSH3 0x25D DUP2 PUSH3 0x74E JUMP JUMPDEST SWAP3 SWAP2 POP POP JUMP JUMPDEST PUSH1 0x0 DUP1 PUSH1 0x0 DUP1 PUSH1 0x0 DUP1 PUSH1 0xC0 DUP8 DUP10 SUB SLT ISZERO PUSH3 0x27D JUMPI PUSH1 0x0 DUP1 REVERT JUMPDEST PUSH1 0x0 DUP8 ADD MLOAD PUSH8 0xFFFFFFFFFFFFFFFF DUP2 GT ISZERO PUSH3 0x298 JUMPI PUSH1 0x0 DUP1 REVERT JUMPDEST PUSH3 0x2A6 DUP10 DUP3 DUP11 ADD PUSH3 0x21F JUMP JUMPDEST SWAP7 POP POP PUSH1 0x20 DUP8 ADD MLOAD PUSH8 0xFFFFFFFFFFFFFFFF DUP2 GT ISZERO PUSH3 0x2C4 JUMPI PUSH1 0x0 DUP1 REVERT JUMPDEST PUSH3 0x2D2 DUP10 DUP3 DUP11 ADD PUSH3 0x21F JUMP JUMPDEST SWAP6 POP POP PUSH1 0x40 PUSH3 0x2E5 DUP10 DUP3 DUP11 ADD PUSH3 0x24C JUMP JUMPDEST SWAP5 POP POP PUSH1 0x60 PUSH3 0x2F8 DUP10 DUP3 DUP11 ADD PUSH3 0x24C JUMP JUMPDEST SWAP4 POP POP PUSH1 0x80 PUSH3 0x30B DUP10 DUP3 DUP11 ADD PUSH3 0x24C JUMP JUMPDEST SWAP3 POP POP PUSH1 0xA0 PUSH3 0x31E DUP10 DUP3 DUP11 ADD PUSH3 0x24C JUMP JUMPDEST SWAP2 POP POP SWAP3 SWAP6 POP SWAP3 SWAP6 POP SWAP3 SWAP6 JUMP JUMPDEST PUSH1 0x0 PUSH3 0x337 PUSH3 0x34A JUMP JUMPDEST SWAP1 POP PUSH3 0x345 DUP3 DUP3 PUSH3 0x63E JUMP JUMPDEST SWAP2 SWAP1 POP JUMP JUMPDEST PUSH1 0x0 PUSH1 0x40 MLOAD SWAP1 POP SWAP1 JUMP JUMPDEST PUSH1 0x0 PUSH8 0xFFFFFFFFFFFFFFFF DUP3 GT ISZERO PUSH3 0x372 JUMPI PUSH3 0x371 PUSH3 0x701 JUMP JUMPDEST JUMPDEST PUSH3 0x37D DUP3 PUSH3 0x730 JUMP JUMPDEST SWAP1 POP PUSH1 0x20 DUP2 ADD SWAP1 POP SWAP2 SWAP1 POP JUMP JUMPDEST PUSH1 0x0 PUSH3 0x397 DUP3 PUSH3 0x5BB JUMP JUMPDEST SWAP2 POP PUSH3 0x3A4 DUP4 PUSH3 0x5BB JUMP JUMPDEST SWAP3 POP DUP3 PUSH3 0x3B7 JUMPI PUSH3 0x3B6 PUSH3 0x6A3 JUMP JUMPDEST JUMPDEST DUP3 DUP3 DIV SWAP1 POP SWAP3 SWAP2 POP POP JUMP JUMPDEST PUSH1 0x0 DUP1 DUP3 SWAP2 POP DUP4 SWAP1 POP JUMPDEST PUSH1 0x1 DUP6 GT ISZERO PUSH3 0x414 JUMPI DUP1 DUP7 DIV DUP2 GT ISZERO PUSH3 0x3EC JUMPI PUSH3 0x3EB PUSH3 0x674 JUMP JUMPDEST JUMPDEST PUSH1 0x1 DUP6 AND ISZERO PUSH3 0x3FC JUMPI DUP1 DUP3 MUL SWAP2 POP JUMPDEST DUP1 DUP2 MUL SWAP1 POP PUSH3 0x40C DUP6 PUSH3 0x741 JUMP JUMPDEST SWAP5 POP PUSH3 0x3CC JUMP JUMPDEST SWAP5 POP SWAP5 SWAP3 POP POP POP JUMP JUMPDEST PUSH1 0x0 PUSH3 0x42A DUP3 PUSH3 0x5BB JUMP JUMPDEST SWAP2 POP PUSH3 0x437 DUP4 PUSH3 0x5C5 JUMP JUMPDEST SWAP3 POP PUSH3 0x466 PUSH32 0xFFFFFFFFFFFFFFFFFFFFFFFFFFFFFFFFFFFFFFFFFFFFFFFFFFFFFFFFFFFFFFFF DUP5 DUP5 PUSH3 0x46E JUMP JUMPDEST SWAP1 POP SWAP3 SWAP2 POP POP JUMP JUMPDEST PUSH1 0x0 DUP3 PUSH3 0x480 JUMPI PUSH1 0x1 SWAP1 POP PUSH3 0x553 JUMP JUMPDEST DUP2 PUSH3 0x490 JUMPI PUSH1 0x0 SWAP1 POP PUSH3 0x553 JUMP JUMPDEST DUP2 PUSH1 0x1 DUP2 EQ PUSH3 0x4A9 JUMPI PUSH1 0x2 DUP2 EQ PUSH3 0x4B4 JUMPI PUSH3 0x4EA JUMP JUMPDEST PUSH1 0x1 SWAP2 POP POP PUSH3 0x553 JUMP JUMPDEST PUSH1 0xFF DUP5 GT ISZERO PUSH3 0x4C9 JUMPI PUSH3 0x4C8 PUSH3 0x674 JUMP JUMPDEST JUMPDEST DUP4 PUSH1 0x2 EXP SWAP2 POP DUP5 DUP3 GT ISZERO PUSH3 0x4E3 JUMPI PUSH3 0x4E2 PUSH3 0x674 JUMP JUMPDEST JUMPDEST POP PUSH3 0x553 JUMP JUMPDEST POP PUSH1 0x20 DUP4 LT PUSH2 0x133 DUP4 LT AND PUSH1 0x4E DUP5 LT PUSH1 0xB DUP5 LT AND OR ISZERO PUSH3 0x524 JUMPI DUP3 DUP3 EXP SWAP1 POP DUP4 DUP2 GT ISZERO PUSH3 0x51E JUMPI PUSH3 0x51D PUSH3 0x674 JUMP JUMPDEST JUMPDEST PUSH3 0x553 JUMP JUMPDEST PUSH3 0x533 DUP5 DUP5 DUP5 PUSH1 0x1 PUSH3 0x3C2 JUMP JUMPDEST SWAP3 POP SWAP1 POP DUP2 DUP5 DIV DUP2 GT ISZERO PUSH3 0x54D JUMPI PUSH3 0x54C PUSH3 0x674 JUMP JUMPDEST JUMPDEST DUP2 DUP2 MUL SWAP1 POP JUMPDEST SWAP4 SWAP3 POP POP POP JUMP JUMPDEST PUSH1 0x0 PUSH3 0x567 DUP3 PUSH3 0x5BB JUMP JUMPDEST SWAP2 POP PUSH3 0x574 DUP4 PUSH3 0x5BB JUMP JUMPDEST SWAP3 POP DUP2 PUSH32 0xFFFFFFFFFFFFFFFFFFFFFFFFFFFFFFFFFFFFFFFFFFFFFFFFFFFFFFFFFFFFFFFF DIV DUP4 GT DUP3 ISZERO ISZERO AND ISZERO PUSH3 0x5B0 JUMPI PUSH3 0x5AF PUSH3 0x674 JUMP JUMPDEST JUMPDEST DUP3 DUP3 MUL SWAP1 POP SWAP3 SWAP2 POP POP JUMP JUMPDEST PUSH1 0x0 DUP2 SWAP1 POP SWAP2 SWAP1 POP JUMP JUMPDEST PUSH1 0x0 PUSH1 0xFF DUP3 AND SWAP1 POP SWAP2 SWAP1 POP JUMP JUMPDEST PUSH1 0x0 JUMPDEST DUP4 DUP2 LT ISZERO PUSH3 0x5F2 JUMPI DUP1 DUP3 ADD MLOAD DUP2 DUP5 ADD MSTORE PUSH1 0x20 DUP2 ADD SWAP1 POP PUSH3 0x5D5 JUMP JUMPDEST DUP4 DUP2 GT ISZERO PUSH3 0x602 JUMPI PUSH1 0x0 DUP5 DUP5 ADD MSTORE JUMPDEST POP POP POP POP JUMP JUMPDEST PUSH1 0x0 PUSH1 0x2 DUP3 DIV SWAP1 POP PUSH1 0x1 DUP3 AND DUP1 PUSH3 0x621 JUMPI PUSH1 0x7F DUP3 AND SWAP2 POP JUMPDEST PUSH1 0x20 DUP3 LT DUP2 EQ ISZERO PUSH3 0x638 JUMPI PUSH3 0x637 PUSH3 0x6D2 JUMP JUMPDEST JUMPDEST POP SWAP2 SWAP1 POP JUMP JUMPDEST PUSH3 0x649 DUP3 PUSH3 0x730 JUMP JUMPDEST DUP2 ADD DUP2 DUP2 LT PUSH8 0xFFFFFFFFFFFFFFFF DUP3 GT OR ISZERO PUSH3 0x66B JUMPI PUSH3 0x66A PUSH3 0x701 JUMP JUMPDEST JUMPDEST DUP1 PUSH1 0x40 MSTORE POP POP POP JUMP JUMPDEST PUSH32 0x4E487B7100000000000000000000000000000000000000000000000000000000 PUSH1 0x0 MSTORE PUSH1 0x11 PUSH1 0x4 MSTORE PUSH1 0x24 PUSH1 0x0 REVERT JUMPDEST PUSH32 0x4E487B7100000000000000000000000000000000000000000000000000000000 PUSH1 0x0 MSTORE PUSH1 0x12 PUSH1 0x4 MSTORE PUSH1 0x24 PUSH1 0x0 REVERT JUMPDEST PUSH32 0x4E487B7100000000000000000000000000000000000000000000000000000000 PUSH1 0x0 MSTORE PUSH1 0x22 PUSH1 0x4 MSTORE PUSH1 0x24 PUSH1 0x0 REVERT JUMPDEST PUSH32 0x4E487B7100000000000000000000000000000000000000000000000000000000 PUSH1 0x0 MSTORE PUSH1 0x41 PUSH1 0x4 MSTORE PUSH1 0x24 PUSH1 0x0 REVERT JUMPDEST PUSH1 0x0 PUSH1 0x1F NOT PUSH1 0x1F DUP4 ADD AND SWAP1 POP SWAP2 SWAP1 POP JUMP JUMPDEST PUSH1 0x0 DUP2 PUSH1 0x1 SHR SWAP1 POP SWAP2 SWAP1 POP JUMP JUMPDEST PUSH3 0x759 DUP2 PUSH3 0x5BB JUMP JUMPDEST DUP2 EQ PUSH3 0x765 JUMPI PUSH1 0x0 DUP1 REVERT JUMPDEST POP JUMP JUMPDEST PUSH2 0x30BA DUP1 PUSH3 0x778 PUSH1 0x0 CODECOPY PUSH1 0x0 RETURN INVALID PUSH1 0x80 PUSH1 0x40 MSTORE PUSH1 0x4 CALLDATASIZE LT PUSH2 0x1E3 JUMPI PUSH1 0x0 CALLDATALOAD PUSH1 0xE0 SHR DUP1 PUSH4 0x88EDB929 GT PUSH2 0x102 JUMPI DUP1 PUSH4 0xA9059CBB GT PUSH2 0x95 JUMPI DUP1 PUSH4 0xC745907A GT PUSH2 0x64 JUMPI DUP1 PUSH4 0xC745907A EQ PUSH2 0x6BC JUMPI DUP1 PUSH4 0xCC0F1786 EQ PUSH2 0x6F9 JUMPI DUP1 PUSH4 0xDD62ED3E EQ PUSH2 0x724 JUMPI DUP1 PUSH4 0xE4849B32 EQ PUSH2 0x761 JUMPI PUSH2 0x1E3 JUMP JUMPDEST DUP1 PUSH4 0xA9059CBB EQ PUSH2 0x612 JUMPI DUP1 PUSH4 0xACE682BA EQ PUSH2 0x64F JUMPI DUP1 PUSH4 0xB9223946 EQ PUSH2 0x67A JUMPI DUP1 PUSH4 0xC1F52604 EQ PUSH2 0x691 JUMPI PUSH2 0x1E3 JUMP JUMPDEST DUP1 PUSH4 0x945837E2 GT PUSH2 0xD1 JUMPI DUP1 PUSH4 0x945837E2 EQ PUSH2 0x561 JUMPI DUP1 PUSH4 0x95D89B41 EQ PUSH2 0x58C JUMPI DUP1 PUSH4 0x9A57C2FC EQ PUSH2 0x5B7 JUMPI DUP1 PUSH4 0xA6F2AE3A EQ PUSH2 0x5F4 JUMPI PUSH2 0x1E3 JUMP JUMPDEST DUP1 PUSH4 0x88EDB929 EQ PUSH2 0x4B4 JUMPI DUP1 PUSH4 0x8DA5CB5B EQ PUSH2 0x4DF JUMPI DUP1 PUSH4 0x90A6A56A EQ PUSH2 0x50A JUMPI DUP1 PUSH4 0x9100B5DD EQ PUSH2 0x536 JUMPI PUSH2 0x1E3 JUMP JUMPDEST DUP1 PUSH4 0x4693D70B GT PUSH2 0x17A JUMPI DUP1 PUSH4 0x70A08231 GT PUSH2 0x149 JUMPI DUP1 PUSH4 0x70A08231 EQ PUSH2 0x3F8 JUMPI DUP1 PUSH4 0x7CE3489B EQ PUSH2 0x435 JUMPI DUP1 PUSH4 0x7FD6F15C EQ PUSH2 0x45E JUMPI DUP1 PUSH4 0x7FF9B596 EQ PUSH2 0x489 JUMPI PUSH2 0x1E3 JUMP JUMPDEST DUP1 PUSH4 0x4693D70B EQ PUSH2 0x362 JUMPI DUP1 PUSH4 0x4C0A6AF0 EQ PUSH2 0x38D JUMPI DUP1 PUSH4 0x50F7C204 EQ PUSH2 0x3A4 JUMPI DUP1 PUSH4 0x59D634B0 EQ PUSH2 0x3CF JUMPI PUSH2 0x1E3 JUMP JUMPDEST DUP1 PUSH4 0x1BBEF399 GT PUSH2 0x1B6 JUMPI DUP1 PUSH4 0x1BBEF399 EQ PUSH2 0x2A4 JUMPI DUP1 PUSH4 0x1CA8B6CB EQ PUSH2 0x2CF JUMPI DUP1 PUSH4 0x23B872DD EQ PUSH2 0x2FA JUMPI DUP1 PUSH4 0x313CE567 EQ PUSH2 0x337 JUMPI PUSH2 0x1E3 JUMP JUMPDEST DUP1 PUSH4 0x121B93F EQ PUSH2 0x1E8 JUMPI DUP1 PUSH4 0x6FDDE03 EQ PUSH2 0x211 JUMPI DUP1 PUSH4 0x95EA7B3 EQ PUSH2 0x23C JUMPI DUP1 PUSH4 0x18160DDD EQ PUSH2 0x279 JUMPI JUMPDEST PUSH1 0x0 DUP1 REVERT JUMPDEST CALLVALUE DUP1 ISZERO PUSH2 0x1F4 JUMPI PUSH1 0x0 DUP1 REVERT JUMPDEST POP PUSH2 0x20F PUSH1 0x4 DUP1 CALLDATASIZE SUB DUP2 ADD SWAP1 PUSH2 0x20A SWAP2 SWAP1 PUSH2 0x2316 JUMP JUMPDEST PUSH2 0x79E JUMP JUMPDEST STOP JUMPDEST CALLVALUE DUP1 ISZERO PUSH2 0x21D JUMPI PUSH1 0x0 DUP1 REVERT JUMPDEST POP PUSH2 0x226 PUSH2 0xB0C JUMP JUMPDEST PUSH1 0x40 MLOAD PUSH2 0x233 SWAP2 SWAP1 PUSH2 0x26C2 JUMP JUMPDEST PUSH1 0x40 MLOAD DUP1 SWAP2 SUB SWAP1 RETURN JUMPDEST CALLVALUE DUP1 ISZERO PUSH2 0x248 JUMPI PUSH1 0x0 DUP1 REVERT JUMPDEST POP PUSH2 0x263 PUSH1 0x4 DUP1 CALLDATASIZE SUB DUP2 ADD SWAP1 PUSH2 0x25E SWAP2 SWAP1 PUSH2 0x22DA JUMP JUMPDEST PUSH2 0xB9A JUMP JUMPDEST PUSH1 0x40 MLOAD PUSH2 0x270 SWAP2 SWAP1 PUSH2 0x26A7 JUMP JUMPDEST PUSH1 0x40 MLOAD DUP1 SWAP2 SUB SWAP1 RETURN JUMPDEST CALLVALUE DUP1 ISZERO PUSH2 0x285 JUMPI PUSH1 0x0 DUP1 REVERT JUMPDEST POP PUSH2 0x28E PUSH2 0xC8C JUMP JUMPDEST PUSH1 0x40 MLOAD PUSH2 0x29B SWAP2 SWAP1 PUSH2 0x293F JUMP JUMPDEST PUSH1 0x40 MLOAD DUP1 SWAP2 SUB SWAP1 RETURN JUMPDEST CALLVALUE DUP1 ISZERO PUSH2 0x2B0 JUMPI PUSH1 0x0 DUP1 REVERT JUMPDEST POP PUSH2 0x2B9 PUSH2 0xC96 JUMP JUMPDEST PUSH1 0x40 MLOAD PUSH2 0x2C6 SWAP2 SWAP1 PUSH2 0x26A7 JUMP JUMPDEST PUSH1 0x40 MLOAD DUP1 SWAP2 SUB SWAP1 RETURN JUMPDEST CALLVALUE DUP1 ISZERO PUSH2 0x2DB JUMPI PUSH1 0x0 DUP1 REVERT JUMPDEST POP PUSH2 0x2E4 PUSH2 0xCA9 JUMP JUMPDEST PUSH1 0x40 MLOAD PUSH2 0x2F1 SWAP2 SWAP1 PUSH2 0x293F JUMP JUMPDEST PUSH1 0x40 MLOAD DUP1 SWAP2 SUB SWAP1 RETURN JUMPDEST CALLVALUE DUP1 ISZERO PUSH2 0x306 JUMPI PUSH1 0x0 DUP1 REVERT JUMPDEST POP PUSH2 0x321 PUSH1 0x4 DUP1 CALLDATASIZE SUB DUP2 ADD SWAP1 PUSH2 0x31C SWAP2 SWAP1 PUSH2 0x228B JUMP JUMPDEST PUSH2 0xCAF JUMP JUMPDEST PUSH1 0x40 MLOAD PUSH2 0x32E SWAP2 SWAP1 PUSH2 0x26A7 JUMP JUMPDEST PUSH1 0x40 MLOAD DUP1 SWAP2 SUB SWAP1 RETURN JUMPDEST CALLVALUE DUP1 ISZERO PUSH2 0x343 JUMPI PUSH1 0x0 DUP1 REVERT JUMPDEST POP PUSH2 0x34C PUSH2 0xE17 JUMP JUMPDEST PUSH1 0x40 MLOAD PUSH2 0x359 SWAP2 SWAP1 PUSH2 0x2983 JUMP JUMPDEST PUSH1 0x40 MLOAD DUP1 SWAP2 SUB SWAP1 RETURN JUMPDEST CALLVALUE DUP1 ISZERO PUSH2 0x36E JUMPI PUSH1 0x0 DUP1 REVERT JUMPDEST POP PUSH2 0x377 PUSH2 0xE1C JUMP JUMPDEST PUSH1 0x40 MLOAD PUSH2 0x384 SWAP2 SWAP1 PUSH2 0x293F JUMP JUMPDEST PUSH1 0x40 MLOAD DUP1 SWAP2 SUB SWAP1 RETURN JUMPDEST CALLVALUE DUP1 ISZERO PUSH2 0x399 JUMPI PUSH1 0x0 DUP1 REVERT JUMPDEST POP PUSH2 0x3A2 PUSH2 0xE22 JUMP JUMPDEST STOP JUMPDEST CALLVALUE DUP1 ISZERO PUSH2 0x3B0 JUMPI PUSH1 0x0 DUP1 REVERT JUMPDEST POP PUSH2 0x3B9 PUSH2 0xF78 JUMP JUMPDEST PUSH1 0x40 MLOAD PUSH2 0x3C6 SWAP2 SWAP1 PUSH2 0x293F JUMP JUMPDEST PUSH1 0x40 MLOAD DUP1 SWAP2 SUB SWAP1 RETURN JUMPDEST CALLVALUE DUP1 ISZERO PUSH2 0x3DB JUMPI PUSH1 0x0 DUP1 REVERT JUMPDEST POP PUSH2 0x3F6 PUSH1 0x4 DUP1 CALLDATASIZE SUB DUP2 ADD SWAP1 PUSH2 0x3F1 SWAP2 SWAP1 PUSH2 0x2316 JUMP JUMPDEST PUSH2 0xF7E JUMP JUMPDEST STOP JUMPDEST CALLVALUE DUP1 ISZERO PUSH2 0x404 JUMPI PUSH1 0x0 DUP1 REVERT JUMPDEST POP PUSH2 0x41F PUSH1 0x4 DUP1 CALLDATASIZE SUB DUP2 ADD SWAP1 PUSH2 0x41A SWAP2 SWAP1 PUSH2 0x2226 JUMP JUMPDEST PUSH2 0x1314 JUMP JUMPDEST PUSH1 0x40 MLOAD PUSH2 0x42C SWAP2 SWAP1 PUSH2 0x293F JUMP JUMPDEST PUSH1 0x40 MLOAD DUP1 SWAP2 SUB SWAP1 RETURN JUMPDEST CALLVALUE DUP1 ISZERO PUSH2 0x441 JUMPI PUSH1 0x0 DUP1 REVERT JUMPDEST POP PUSH2 0x45C PUSH1 0x4 DUP1 CALLDATASIZE SUB DUP2 ADD SWAP1 PUSH2 0x457 SWAP2 SWAP1 PUSH2 0x2316 JUMP JUMPDEST PUSH2 0x135D JUMP JUMPDEST STOP JUMPDEST CALLVALUE DUP1 ISZERO PUSH2 0x46A JUMPI PUSH1 0x0 DUP1 REVERT JUMPDEST POP PUSH2 0x473 PUSH2 0x143F JUMP JUMPDEST PUSH1 0x40 MLOAD PUSH2 0x480 SWAP2 SWAP1 PUSH2 0x293F JUMP JUMPDEST PUSH1 0x40 MLOAD DUP1 SWAP2 SUB SWAP1 RETURN JUMPDEST CALLVALUE DUP1 ISZERO PUSH2 0x495 JUMPI PUSH1 0x0 DUP1 REVERT JUMPDEST POP PUSH2 0x49E PUSH2 0x1445 JUMP JUMPDEST PUSH1 0x40 MLOAD PUSH2 0x4AB SWAP2 SWAP1 PUSH2 0x293F JUMP JUMPDEST PUSH1 0x40 MLOAD DUP1 SWAP2 SUB SWAP1 RETURN JUMPDEST CALLVALUE DUP1 ISZERO PUSH2 0x4C0 JUMPI PUSH1 0x0 DUP1 REVERT JUMPDEST POP PUSH2 0x4C9 PUSH2 0x144B JUMP JUMPDEST PUSH1 0x40 MLOAD PUSH2 0x4D6 SWAP2 SWAP1 PUSH2 0x293F JUMP JUMPDEST PUSH1 0x40 MLOAD DUP1 SWAP2 SUB SWAP1 RETURN JUMPDEST CALLVALUE DUP1 ISZERO PUSH2 0x4EB JUMPI PUSH1 0x0 DUP1 REVERT JUMPDEST POP PUSH2 0x4F4 PUSH2 0x1451 JUMP JUMPDEST PUSH1 0x40 MLOAD PUSH2 0x501 SWAP2 SWAP1 PUSH2 0x268C JUMP JUMPDEST PUSH1 0x40 MLOAD DUP1 SWAP2 SUB SWAP1 RETURN JUMPDEST CALLVALUE DUP1 ISZERO PUSH2 0x516 JUMPI PUSH1 0x0 DUP1 REVERT JUMPDEST POP PUSH2 0x51F PUSH2 0x1477 JUMP JUMPDEST PUSH1 0x40 MLOAD PUSH2 0x52D SWAP3 SWAP2 SWAP1 PUSH2 0x295A JUMP JUMPDEST PUSH1 0x40 MLOAD DUP1 SWAP2 SUB SWAP1 RETURN JUMPDEST CALLVALUE DUP1 ISZERO PUSH2 0x542 JUMPI PUSH1 0x0 DUP1 REVERT JUMPDEST POP PUSH2 0x54B PUSH2 0x1489 JUMP JUMPDEST PUSH1 0x40 MLOAD PUSH2 0x558 SWAP2 SWAP1 PUSH2 0x293F JUMP JUMPDEST PUSH1 0x40 MLOAD DUP1 SWAP2 SUB SWAP1 RETURN JUMPDEST CALLVALUE DUP1 ISZERO PUSH2 0x56D JUMPI PUSH1 0x0 DUP1 REVERT JUMPDEST POP PUSH2 0x576 PUSH2 0x148F JUMP JUMPDEST PUSH1 0x40 MLOAD PUSH2 0x583 SWAP2 SWAP1 PUSH2 0x293F JUMP JUMPDEST PUSH1 0x40 MLOAD DUP1 SWAP2 SUB SWAP1 RETURN JUMPDEST CALLVALUE DUP1 ISZERO PUSH2 0x598 JUMPI PUSH1 0x0 DUP1 REVERT JUMPDEST POP PUSH2 0x5A1 PUSH2 0x1495 JUMP JUMPDEST PUSH1 0x40 MLOAD PUSH2 0x5AE SWAP2 SWAP1 PUSH2 0x26C2 JUMP JUMPDEST PUSH1 0x40 MLOAD DUP1 SWAP2 SUB SWAP1 RETURN JUMPDEST CALLVALUE DUP1 ISZERO PUSH2 0x5C3 JUMPI PUSH1 0x0 DUP1 REVERT JUMPDEST POP PUSH2 0x5DE PUSH1 0x4 DUP1 CALLDATASIZE SUB DUP2 ADD SWAP1 PUSH2 0x5D9 SWAP2 SWAP1 PUSH2 0x2316 JUMP JUMPDEST PUSH2 0x1523 JUMP JUMPDEST PUSH1 0x40 MLOAD PUSH2 0x5EB SWAP2 SWAP1 PUSH2 0x293F JUMP JUMPDEST PUSH1 0x40 MLOAD DUP1 SWAP2 SUB SWAP1 RETURN JUMPDEST PUSH2 0x5FC PUSH2 0x1547 JUMP JUMPDEST PUSH1 0x40 MLOAD PUSH2 0x609 SWAP2 SWAP1 PUSH2 0x26A7 JUMP JUMPDEST PUSH1 0x40 MLOAD DUP1 SWAP2 SUB SWAP1 RETURN JUMPDEST CALLVALUE DUP1 ISZERO PUSH2 0x61E JUMPI PUSH1 0x0 DUP1 REVERT JUMPDEST POP PUSH2 0x639 PUSH1 0x4 DUP1 CALLDATASIZE SUB DUP2 ADD SWAP1 PUSH2 0x634 SWAP2 SWAP1 PUSH2 0x22DA JUMP JUMPDEST PUSH2 0x1746 JUMP JUMPDEST PUSH1 0x40 MLOAD PUSH2 0x646 SWAP2 SWAP1 PUSH2 0x26A7 JUMP JUMPDEST PUSH1 0x40 MLOAD DUP1 SWAP2 SUB SWAP1 RETURN JUMPDEST CALLVALUE DUP1 ISZERO PUSH2 0x65B JUMPI PUSH1 0x0 DUP1 REVERT JUMPDEST POP PUSH2 0x664 PUSH2 0x175D JUMP JUMPDEST PUSH1 0x40 MLOAD PUSH2 0x671 SWAP2 SWAP1 PUSH2 0x293F JUMP JUMPDEST PUSH1 0x40 MLOAD DUP1 SWAP2 SUB SWAP1 RETURN JUMPDEST CALLVALUE DUP1 ISZERO PUSH2 0x686 JUMPI PUSH1 0x0 DUP1 REVERT JUMPDEST POP PUSH2 0x68F PUSH2 0x1763 JUMP JUMPDEST STOP JUMPDEST CALLVALUE DUP1 ISZERO PUSH2 0x69D JUMPI PUSH1 0x0 DUP1 REVERT JUMPDEST POP PUSH2 0x6A6 PUSH2 0x181E JUMP JUMPDEST PUSH1 0x40 MLOAD PUSH2 0x6B3 SWAP2 SWAP1 PUSH2 0x293F JUMP JUMPDEST PUSH1 0x40 MLOAD DUP1 SWAP2 SUB SWAP1 RETURN JUMPDEST CALLVALUE DUP1 ISZERO PUSH2 0x6C8 JUMPI PUSH1 0x0 DUP1 REVERT JUMPDEST POP PUSH2 0x6E3 PUSH1 0x4 DUP1 CALLDATASIZE SUB DUP2 ADD SWAP1 PUSH2 0x6DE SWAP2 SWAP1 PUSH2 0x2316 JUMP JUMPDEST PUSH2 0x1824 JUMP JUMPDEST PUSH1 0x40 MLOAD PUSH2 0x6F0 SWAP2 SWAP1 PUSH2 0x293F JUMP JUMPDEST PUSH1 0x40 MLOAD DUP1 SWAP2 SUB SWAP1 RETURN JUMPDEST CALLVALUE DUP1 ISZERO PUSH2 0x705 JUMPI PUSH1 0x0 DUP1 REVERT JUMPDEST POP PUSH2 0x70E PUSH2 0x1841 JUMP JUMPDEST PUSH1 0x40 MLOAD PUSH2 0x71B SWAP2 SWAP1 PUSH2 0x2924 JUMP JUMPDEST PUSH1 0x40 MLOAD DUP1 SWAP2 SUB SWAP1 RETURN JUMPDEST CALLVALUE DUP1 ISZERO PUSH2 0x730 JUMPI PUSH1 0x0 DUP1 REVERT JUMPDEST POP PUSH2 0x74B PUSH1 0x4 DUP1 CALLDATASIZE SUB DUP2 ADD SWAP1 PUSH2 0x746 SWAP2 SWAP1 PUSH2 0x224F JUMP JUMPDEST PUSH2 0x1847 JUMP JUMPDEST PUSH1 0x40 MLOAD PUSH2 0x758 SWAP2 SWAP1 PUSH2 0x293F JUMP JUMPDEST PUSH1 0x40 MLOAD DUP1 SWAP2 SUB SWAP1 RETURN JUMPDEST CALLVALUE DUP1 ISZERO PUSH2 0x76D JUMPI PUSH1 0x0 DUP1 REVERT JUMPDEST POP PUSH2 0x788 PUSH1 0x4 DUP1 CALLDATASIZE SUB DUP2 ADD SWAP1 PUSH2 0x783 SWAP2 SWAP1 PUSH2 0x2316 JUMP JUMPDEST PUSH2 0x18CE JUMP JUMPDEST PUSH1 0x40 MLOAD PUSH2 0x795 SWAP2 SWAP1 PUSH2 0x26A7 JUMP JUMPDEST PUSH1 0x40 MLOAD DUP1 SWAP2 SUB SWAP1 RETURN JUMPDEST PUSH1 0xD SLOAD TIMESTAMP GT ISZERO PUSH2 0x7E3 JUMPI PUSH1 0x40 MLOAD PUSH32 0x8C379A000000000000000000000000000000000000000000000000000000000 DUP2 MSTORE PUSH1 0x4 ADD PUSH2 0x7DA SWAP1 PUSH2 0x2904 JUMP JUMPDEST PUSH1 0x40 MLOAD DUP1 SWAP2 SUB SWAP1 REVERT JUMPDEST PUSH1 0x0 PUSH1 0x12 PUSH1 0x0 CALLER PUSH20 0xFFFFFFFFFFFFFFFFFFFFFFFFFFFFFFFFFFFFFFFF AND PUSH20 0xFFFFFFFFFFFFFFFFFFFFFFFFFFFFFFFFFFFFFFFF AND DUP2 MSTORE PUSH1 0x20 ADD SWAP1 DUP2 MSTORE PUSH1 0x20 ADD PUSH1 0x0 KECCAK256 PUSH1 0x0 ADD SLOAD EQ DUP1 ISZERO PUSH2 0x879 JUMPI POP PUSH1 0xE SLOAD PUSH1 0x12 PUSH1 0x0 CALLER PUSH20 0xFFFFFFFFFFFFFFFFFFFFFFFFFFFFFFFFFFFFFFFF AND PUSH20 0xFFFFFFFFFFFFFFFFFFFFFFFFFFFFFFFFFFFFFFFF AND DUP2 MSTORE PUSH1 0x20 ADD SWAP1 DUP2 MSTORE PUSH1 0x20 ADD PUSH1 0x0 KECCAK256 PUSH1 0x1 ADD SLOAD EQ ISZERO JUMPDEST PUSH2 0x8B8 JUMPI PUSH1 0x40 MLOAD PUSH32 0x8C379A000000000000000000000000000000000000000000000000000000000 DUP2 MSTORE PUSH1 0x4 ADD PUSH2 0x8AF SWAP1 PUSH2 0x2844 JUMP JUMPDEST PUSH1 0x40 MLOAD DUP1 SWAP2 SUB SWAP1 REVERT JUMPDEST PUSH1 0x0 PUSH1 0x11 PUSH1 0x0 DUP4 DUP2 MSTORE PUSH1 0x20 ADD SWAP1 DUP2 MSTORE PUSH1 0x20 ADD PUSH1 0x0 KECCAK256 SLOAD EQ ISZERO PUSH2 0x90F JUMPI PUSH1 0x40 MLOAD PUSH32 0x8C379A000000000000000000000000000000000000000000000000000000000 DUP2 MSTORE PUSH1 0x4 ADD PUSH2 0x906 SWAP1 PUSH2 0x2784 JUMP JUMPDEST PUSH1 0x40 MLOAD DUP1 SWAP2 SUB SWAP1 REVERT JUMPDEST PUSH1 0xA SLOAD PUSH1 0xF PUSH1 0x0 CALLER PUSH20 0xFFFFFFFFFFFFFFFFFFFFFFFFFFFFFFFFFFFFFFFF AND PUSH20 0xFFFFFFFFFFFFFFFFFFFFFFFFFFFFFFFFFFFFFFFF AND DUP2 MSTORE PUSH1 0x20 ADD SWAP1 DUP2 MSTORE PUSH1 0x20 ADD PUSH1 0x0 KECCAK256 SLOAD LT ISZERO PUSH2 0x993 JUMPI PUSH1 0x40 MLOAD PUSH32 0x8C379A000000000000000000000000000000000000000000000000000000000 DUP2 MSTORE PUSH1 0x4 ADD PUSH2 0x98A SWAP1 PUSH2 0x28C4 JUMP JUMPDEST PUSH1 0x40 MLOAD DUP1 SWAP2 SUB SWAP1 REVERT JUMPDEST PUSH1 0x40 MLOAD DUP1 PUSH1 0x40 ADD PUSH1 0x40 MSTORE DUP1 DUP3 DUP2 MSTORE PUSH1 0x20 ADD PUSH1 0xE SLOAD DUP2 MSTORE POP PUSH1 0x12 PUSH1 0x0 CALLER PUSH20 0xFFFFFFFFFFFFFFFFFFFFFFFFFFFFFFFFFFFFFFFF AND PUSH20 0xFFFFFFFFFFFFFFFFFFFFFFFFFFFFFFFFFFFFFFFF AND DUP2 MSTORE PUSH1 0x20 ADD SWAP1 DUP2 MSTORE PUSH1 0x20 ADD PUSH1 0x0 KECCAK256 PUSH1 0x0 DUP3 ADD MLOAD DUP2 PUSH1 0x0 ADD SSTORE PUSH1 0x20 DUP3 ADD MLOAD DUP2 PUSH1 0x1 ADD SSTORE SWAP1 POP POP ADDRESS PUSH20 0xFFFFFFFFFFFFFFFFFFFFFFFFFFFFFFFFFFFFFFFF AND PUSH4 0x70A08231 CALLER PUSH1 0x40 MLOAD DUP3 PUSH4 0xFFFFFFFF AND PUSH1 0xE0 SHL DUP2 MSTORE PUSH1 0x4 ADD PUSH2 0xA39 SWAP2 SWAP1 PUSH2 0x2671 JUMP JUMPDEST PUSH1 0x20 PUSH1 0x40 MLOAD DUP1 DUP4 SUB DUP2 DUP7 DUP1 EXTCODESIZE ISZERO DUP1 ISZERO PUSH2 0xA51 JUMPI PUSH1 0x0 DUP1 REVERT JUMPDEST POP GAS STATICCALL ISZERO DUP1 ISZERO PUSH2 0xA65 JUMPI RETURNDATASIZE PUSH1 0x0 DUP1 RETURNDATACOPY RETURNDATASIZE PUSH1 0x0 REVERT JUMPDEST POP POP POP POP PUSH1 0x40 MLOAD RETURNDATASIZE PUSH1 0x1F NOT PUSH1 0x1F DUP3 ADD AND DUP3 ADD DUP1 PUSH1 0x40 MSTORE POP DUP2 ADD SWAP1 PUSH2 0xA89 SWAP2 SWAP1 PUSH2 0x233F JUMP JUMPDEST PUSH1 0x11 PUSH1 0x0 DUP4 DUP2 MSTORE PUSH1 0x20 ADD SWAP1 DUP2 MSTORE PUSH1 0x20 ADD PUSH1 0x0 KECCAK256 PUSH1 0x0 DUP3 DUP3 SLOAD PUSH2 0xAAB SWAP2 SWAP1 PUSH2 0x29BA JUMP JUMPDEST SWAP3 POP POP DUP2 SWAP1 SSTORE POP PUSH2 0xABB DUP2 PUSH2 0x1A92 JUMP JUMPDEST CALLER PUSH20 0xFFFFFFFFFFFFFFFFFFFFFFFFFFFFFFFFFFFFFFFF AND PUSH32 0x4D99B957A2BC29A30EBD96A7BE8E68FE50A3C701DB28A91436490B7D53870CA4 DUP3 PUSH1 0x40 MLOAD PUSH2 0xB01 SWAP2 SWAP1 PUSH2 0x293F JUMP JUMPDEST PUSH1 0x40 MLOAD DUP1 SWAP2 SUB SWAP1 LOG2 POP JUMP JUMPDEST PUSH1 0x2 DUP1 SLOAD PUSH2 0xB19 SWAP1 PUSH2 0x2B77 JUMP JUMPDEST DUP1 PUSH1 0x1F ADD PUSH1 0x20 DUP1 SWAP2 DIV MUL PUSH1 0x20 ADD PUSH1 0x40 MLOAD SWAP1 DUP2 ADD PUSH1 0x40 MSTORE DUP1 SWAP3 SWAP2 SWAP1 DUP2 DUP2 MSTORE PUSH1 0x20 ADD DUP3 DUP1 SLOAD PUSH2 0xB45 SWAP1 PUSH2 0x2B77 JUMP JUMPDEST DUP1 ISZERO PUSH2 0xB92 JUMPI DUP1 PUSH1 0x1F LT PUSH2 0xB67 JUMPI PUSH2 0x100 DUP1 DUP4 SLOAD DIV MUL DUP4 MSTORE SWAP2 PUSH1 0x20 ADD SWAP2 PUSH2 0xB92 JUMP JUMPDEST DUP3 ADD SWAP2 SWAP1 PUSH1 0x0 MSTORE PUSH1 0x20 PUSH1 0x0 KECCAK256 SWAP1 JUMPDEST DUP2 SLOAD DUP2 MSTORE SWAP1 PUSH1 0x1 ADD SWAP1 PUSH1 0x20 ADD DUP1 DUP4 GT PUSH2 0xB75 JUMPI DUP3 SWAP1 SUB PUSH1 0x1F AND DUP3 ADD SWAP2 JUMPDEST POP POP POP POP POP DUP2 JUMP JUMPDEST PUSH1 0x0 DUP2 PUSH1 0x10 PUSH1 0x0 CALLER PUSH20 0xFFFFFFFFFFFFFFFFFFFFFFFFFFFFFFFFFFFFFFFF AND PUSH20 0xFFFFFFFFFFFFFFFFFFFFFFFFFFFFFFFFFFFFFFFF AND DUP2 MSTORE PUSH1 0x20 ADD SWAP1 DUP2 MSTORE PUSH1 0x20 ADD PUSH1 0x0 KECCAK256 PUSH1 0x0 DUP6 PUSH20 0xFFFFFFFFFFFFFFFFFFFFFFFFFFFFFFFFFFFFFFFF AND PUSH20 0xFFFFFFFFFFFFFFFFFFFFFFFFFFFFFFFFFFFFFFFF AND DUP2 MSTORE PUSH1 0x20 ADD SWAP1 DUP2 MSTORE PUSH1 0x20 ADD PUSH1 0x0 KECCAK256 DUP2 SWAP1 SSTORE POP DUP3 PUSH20 0xFFFFFFFFFFFFFFFFFFFFFFFFFFFFFFFFFFFFFFFF AND CALLER PUSH20 0xFFFFFFFFFFFFFFFFFFFFFFFFFFFFFFFFFFFFFFFF AND PUSH32 0x8C5BE1E5EBEC7D5BD14F71427D1E84F3DD0314C0F7B2291E5B200AC8C7C3B925 DUP5 PUSH1 0x40 MLOAD PUSH2 0xC7A SWAP2 SWAP1 PUSH2 0x293F JUMP JUMPDEST PUSH1 0x40 MLOAD DUP1 SWAP2 SUB SWAP1 LOG3 PUSH1 0x1 SWAP1 POP SWAP3 SWAP2 POP POP JUMP JUMPDEST PUSH1 0x0 PUSH1 0x6 SLOAD SWAP1 POP SWAP1 JUMP JUMPDEST PUSH1 0x4 PUSH1 0x0 SWAP1 SLOAD SWAP1 PUSH2 0x100 EXP SWAP1 DIV PUSH1 0xFF AND DUP2 JUMP JUMPDEST PUSH1 0x6 SLOAD DUP2 JUMP JUMPDEST PUSH1 0x0 DUP1 PUSH1 0x10 PUSH1 0x0 DUP7 PUSH20 0xFFFFFFFFFFFFFFFFFFFFFFFFFFFFFFFFFFFFFFFF AND PUSH20 0xFFFFFFFFFFFFFFFFFFFFFFFFFFFFFFFFFFFFFFFF AND DUP2 MSTORE PUSH1 0x20 ADD SWAP1 DUP2 MSTORE PUSH1 0x20 ADD PUSH1 0x0 KECCAK256 PUSH1 0x0 CALLER PUSH20 0xFFFFFFFFFFFFFFFFFFFFFFFFFFFFFFFFFFFFFFFF AND PUSH20 0xFFFFFFFFFFFFFFFFFFFFFFFFFFFFFFFFFFFFFFFF AND DUP2 MSTORE PUSH1 0x20 ADD SWAP1 DUP2 MSTORE PUSH1 0x20 ADD PUSH1 0x0 KECCAK256 SLOAD SWAP1 POP DUP3 DUP2 LT ISZERO PUSH2 0xD74 JUMPI PUSH1 0x40 MLOAD PUSH32 0x8C379A000000000000000000000000000000000000000000000000000000000 DUP2 MSTORE PUSH1 0x4 ADD PUSH2 0xD6B SWAP1 PUSH2 0x2764 JUMP JUMPDEST PUSH1 0x40 MLOAD DUP1 SWAP2 SUB SWAP1 REVERT JUMPDEST PUSH2 0xD7F DUP6 DUP6 DUP6 PUSH2 0x1ADB JUMP JUMPDEST DUP3 DUP2 PUSH2 0xD8B SWAP2 SWAP1 PUSH2 0x2A9B JUMP JUMPDEST PUSH1 0x10 PUSH1 0x0 DUP8 PUSH20 0xFFFFFFFFFFFFFFFFFFFFFFFFFFFFFFFFFFFFFFFF AND PUSH20 0xFFFFFFFFFFFFFFFFFFFFFFFFFFFFFFFFFFFFFFFF AND DUP2 MSTORE PUSH1 0x20 ADD SWAP1 DUP2 MSTORE PUSH1 0x20 ADD PUSH1 0x0 KECCAK256 PUSH1 0x0 CALLER PUSH20 0xFFFFFFFFFFFFFFFFFFFFFFFFFFFFFFFFFFFFFFFF AND PUSH20 0xFFFFFFFFFFFFFFFFFFFFFFFFFFFFFFFFFFFFFFFF AND DUP2 MSTORE PUSH1 0x20 ADD SWAP1 DUP2 MSTORE PUSH1 0x20 ADD PUSH1 0x0 KECCAK256 DUP2 SWAP1 SSTORE POP PUSH1 0x1 SWAP2 POP POP SWAP4 SWAP3 POP POP POP JUMP JUMPDEST PUSH1 0x12 DUP2 JUMP JUMPDEST PUSH1 0xD SLOAD DUP2 JUMP JUMPDEST PUSH1 0x4 PUSH1 0x0 SWAP1 SLOAD SWAP1 PUSH2 0x100 EXP SWAP1 DIV PUSH1 0xFF AND ISZERO PUSH2 0xE72 JUMPI PUSH1 0x40 MLOAD PUSH32 0x8C379A000000000000000000000000000000000000000000000000000000000 DUP2 MSTORE PUSH1 0x4 ADD PUSH2 0xE69 SWAP1 PUSH2 0x2744 JUMP JUMPDEST PUSH1 0x40 MLOAD DUP1 SWAP2 SUB SWAP1 REVERT JUMPDEST PUSH1 0xB SLOAD PUSH1 0xF PUSH1 0x0 CALLER PUSH20 0xFFFFFFFFFFFFFFFFFFFFFFFFFFFFFFFFFFFFFFFF AND PUSH20 0xFFFFFFFFFFFFFFFFFFFFFFFFFFFFFFFFFFFFFFFF AND DUP2 MSTORE PUSH1 0x20 ADD SWAP1 DUP2 MSTORE PUSH1 0x20 ADD PUSH1 0x0 KECCAK256 SLOAD LT ISZERO PUSH2 0xEF6 JUMPI PUSH1 0x40 MLOAD PUSH32 0x8C379A000000000000000000000000000000000000000000000000000000000 DUP2 MSTORE PUSH1 0x4 ADD PUSH2 0xEED SWAP1 PUSH2 0x2884 JUMP JUMPDEST PUSH1 0x40 MLOAD DUP1 SWAP2 SUB SWAP1 REVERT JUMPDEST PUSH1 0x1 PUSH1 0x4 PUSH1 0x0 PUSH2 0x100 EXP DUP2 SLOAD DUP2 PUSH1 0xFF MUL NOT AND SWAP1 DUP4 ISZERO ISZERO MUL OR SWAP1 SSTORE POP PUSH1 0xC SLOAD TIMESTAMP PUSH2 0xF1F SWAP2 SWAP1 PUSH2 0x29BA JUMP JUMPDEST PUSH1 0xD DUP2 SWAP1 SSTORE POP PUSH1 0xE PUSH1 0x0 DUP2 SLOAD DUP1 SWAP3 SWAP2 SWAP1 PUSH2 0xF38 SWAP1 PUSH2 0x2BA9 JUMP JUMPDEST SWAP2 SWAP1 POP SSTORE POP PUSH32 0xA80808A30283FC2C95DB95A081EF4462DD38BB7854E6569E34C0B501EED90F4E PUSH1 0xD SLOAD PUSH1 0x40 MLOAD PUSH2 0xF6E SWAP2 SWAP1 PUSH2 0x293F JUMP JUMPDEST PUSH1 0x40 MLOAD DUP1 SWAP2 SUB SWAP1 LOG1 JUMP JUMPDEST PUSH1 0x5 SLOAD DUP2 JUMP JUMPDEST PUSH1 0xD SLOAD TIMESTAMP GT ISZERO PUSH2 0xFC3 JUMPI PUSH1 0x40 MLOAD PUSH32 0x8C379A000000000000000000000000000000000000000000000000000000000 DUP2 MSTORE PUSH1 0x4 ADD PUSH2 0xFBA SWAP1 PUSH2 0x2904 JUMP JUMPDEST PUSH1 0x40 MLOAD DUP1 SWAP2 SUB SWAP1 REVERT JUMPDEST PUSH1 0x0 PUSH1 0x12 PUSH1 0x0 CALLER PUSH20 0xFFFFFFFFFFFFFFFFFFFFFFFFFFFFFFFFFFFFFFFF AND PUSH20 0xFFFFFFFFFFFFFFFFFFFFFFFFFFFFFFFFFFFFFFFF AND DUP2 MSTORE PUSH1 0x20 ADD SWAP1 DUP2 MSTORE PUSH1 0x20 ADD PUSH1 0x0 KECCAK256 PUSH1 0x0 ADD SLOAD EQ DUP1 ISZERO PUSH2 0x1059 JUMPI POP PUSH1 0xE SLOAD PUSH1 0x12 PUSH1 0x0 CALLER PUSH20 0xFFFFFFFFFFFFFFFFFFFFFFFFFFFFFFFFFFFFFFFF AND PUSH20 0xFFFFFFFFFFFFFFFFFFFFFFFFFFFFFFFFFFFFFFFF AND DUP2 MSTORE PUSH1 0x20 ADD SWAP1 DUP2 MSTORE PUSH1 0x20 ADD PUSH1 0x0 KECCAK256 PUSH1 0x1 ADD SLOAD EQ ISZERO JUMPDEST PUSH2 0x1098 JUMPI PUSH1 0x40 MLOAD PUSH32 0x8C379A000000000000000000000000000000000000000000000000000000000 DUP2 MSTORE PUSH1 0x4 ADD PUSH2 0x108F SWAP1 PUSH2 0x2844 JUMP JUMPDEST PUSH1 0x40 MLOAD DUP1 SWAP2 SUB SWAP1 REVERT JUMPDEST PUSH1 0x0 PUSH1 0x11 PUSH1 0x0 DUP4 DUP2 MSTORE PUSH1 0x20 ADD SWAP1 DUP2 MSTORE PUSH1 0x20 ADD PUSH1 0x0 KECCAK256 SLOAD EQ PUSH2 0x10EE JUMPI PUSH1 0x40 MLOAD PUSH32 0x8C379A000000000000000000000000000000000000000000000000000000000 DUP2 MSTORE PUSH1 0x4 ADD PUSH2 0x10E5 SWAP1 PUSH2 0x27C4 JUMP JUMPDEST PUSH1 0x40 MLOAD DUP1 SWAP2 SUB SWAP1 REVERT JUMPDEST PUSH1 0xB SLOAD PUSH1 0xF PUSH1 0x0 CALLER PUSH20 0xFFFFFFFFFFFFFFFFFFFFFFFFFFFFFFFFFFFFFFFF AND PUSH20 0xFFFFFFFFFFFFFFFFFFFFFFFFFFFFFFFFFFFFFFFF AND DUP2 MSTORE PUSH1 0x20 ADD SWAP1 DUP2 MSTORE PUSH1 0x20 ADD PUSH1 0x0 KECCAK256 SLOAD LT ISZERO PUSH2 0x1172 JUMPI PUSH1 0x40 MLOAD PUSH32 0x8C379A000000000000000000000000000000000000000000000000000000000 DUP2 MSTORE PUSH1 0x4 ADD PUSH2 0x1169 SWAP1 PUSH2 0x2704 JUMP JUMPDEST PUSH1 0x40 MLOAD DUP1 SWAP2 SUB SWAP1 REVERT JUMPDEST ADDRESS PUSH20 0xFFFFFFFFFFFFFFFFFFFFFFFFFFFFFFFFFFFFFFFF AND PUSH4 0x70A08231 CALLER PUSH1 0x40 MLOAD DUP3 PUSH4 0xFFFFFFFF AND PUSH1 0xE0 SHL DUP2 MSTORE PUSH1 0x4 ADD PUSH2 0x11AB SWAP2 SWAP1 PUSH2 0x2671 JUMP JUMPDEST PUSH1 0x20 PUSH1 0x40 MLOAD DUP1 DUP4 SUB DUP2 DUP7 DUP1 EXTCODESIZE ISZERO DUP1 ISZERO PUSH2 0x11C3 JUMPI PUSH1 0x0 DUP1 REVERT JUMPDEST POP GAS STATICCALL ISZERO DUP1 ISZERO PUSH2 0x11D7 JUMPI RETURNDATASIZE PUSH1 0x0 DUP1 RETURNDATACOPY RETURNDATASIZE PUSH1 0x0 REVERT JUMPDEST POP POP POP POP PUSH1 0x40 MLOAD RETURNDATASIZE PUSH1 0x1F NOT PUSH1 0x1F DUP3 ADD AND DUP3 ADD DUP1 PUSH1 0x40 MSTORE POP DUP2 ADD SWAP1 PUSH2 0x11FB SWAP2 SWAP1 PUSH2 0x233F JUMP JUMPDEST PUSH1 0x11 PUSH1 0x0 DUP4 DUP2 MSTORE PUSH1 0x20 ADD SWAP1 DUP2 MSTORE PUSH1 0x20 ADD PUSH1 0x0 KECCAK256 PUSH1 0x0 DUP3 DUP3 SLOAD PUSH2 0x121D SWAP2 SWAP1 PUSH2 0x29BA JUMP JUMPDEST SWAP3 POP POP DUP2 SWAP1 SSTORE POP PUSH1 0x40 MLOAD DUP1 PUSH1 0x40 ADD PUSH1 0x40 MSTORE DUP1 DUP3 DUP2 MSTORE PUSH1 0x20 ADD PUSH1 0xE SLOAD DUP2 MSTORE POP PUSH1 0x12 PUSH1 0x0 CALLER PUSH20 0xFFFFFFFFFFFFFFFFFFFFFFFFFFFFFFFFFFFFFFFF AND PUSH20 0xFFFFFFFFFFFFFFFFFFFFFFFFFFFFFFFFFFFFFFFF AND DUP2 MSTORE PUSH1 0x20 ADD SWAP1 DUP2 MSTORE PUSH1 0x20 ADD PUSH1 0x0 KECCAK256 PUSH1 0x0 DUP3 ADD MLOAD DUP2 PUSH1 0x0 ADD SSTORE PUSH1 0x20 DUP3 ADD MLOAD DUP2 PUSH1 0x1 ADD SSTORE SWAP1 POP POP PUSH1 0x13 DUP2 SWAP1 DUP1 PUSH1 0x1 DUP2 SLOAD ADD DUP1 DUP3 SSTORE DUP1 SWAP2 POP POP PUSH1 0x1 SWAP1 SUB SWAP1 PUSH1 0x0 MSTORE PUSH1 0x20 PUSH1 0x0 KECCAK256 ADD PUSH1 0x0 SWAP1 SWAP2 SWAP1 SWAP2 SWAP1 SWAP2 POP SSTORE PUSH2 0x12C3 DUP2 PUSH2 0x1A92 JUMP JUMPDEST CALLER PUSH20 0xFFFFFFFFFFFFFFFFFFFFFFFFFFFFFFFFFFFFFFFF AND PUSH32 0x4D99B957A2BC29A30EBD96A7BE8E68FE50A3C701DB28A91436490B7D53870CA4 DUP3 PUSH1 0x40 MLOAD PUSH2 0x1309 SWAP2 SWAP1 PUSH2 0x293F JUMP JUMPDEST PUSH1 0x40 MLOAD DUP1 SWAP2 SUB SWAP1 LOG2 POP JUMP JUMPDEST PUSH1 0x0 PUSH1 0xF PUSH1 0x0 DUP4 PUSH20 0xFFFFFFFFFFFFFFFFFFFFFFFFFFFFFFFFFFFFFFFF AND PUSH20 0xFFFFFFFFFFFFFFFFFFFFFFFFFFFFFFFFFFFFFFFF AND DUP2 MSTORE PUSH1 0x20 ADD SWAP1 DUP2 MSTORE PUSH1 0x20 ADD PUSH1 0x0 KECCAK256 SLOAD SWAP1 POP SWAP2 SWAP1 POP JUMP JUMPDEST PUSH1 0x9 PUSH1 0x0 SWAP1 SLOAD SWAP1 PUSH2 0x100 EXP SWAP1 DIV PUSH20 0xFFFFFFFFFFFFFFFFFFFFFFFFFFFFFFFFFFFFFFFF AND PUSH20 0xFFFFFFFFFFFFFFFFFFFFFFFFFFFFFFFFFFFFFFFF AND CALLER PUSH20 0xFFFFFFFFFFFFFFFFFFFFFFFFFFFFFFFFFFFFFFFF AND EQ PUSH2 0x13ED JUMPI PUSH1 0x40 MLOAD PUSH32 0x8C379A000000000000000000000000000000000000000000000000000000000 DUP2 MSTORE PUSH1 0x4 ADD PUSH2 0x13E4 SWAP1 PUSH2 0x2724 JUMP JUMPDEST PUSH1 0x40 MLOAD DUP1 SWAP2 SUB SWAP1 REVERT JUMPDEST PUSH2 0x2710 PUSH2 0xFFFF AND DUP2 LT PUSH2 0x1435 JUMPI PUSH1 0x40 MLOAD PUSH32 0x8C379A000000000000000000000000000000000000000000000000000000000 DUP2 MSTORE PUSH1 0x4 ADD PUSH2 0x142C SWAP1 PUSH2 0x28A4 JUMP JUMPDEST PUSH1 0x40 MLOAD DUP1 SWAP2 SUB SWAP1 REVERT JUMPDEST DUP1 PUSH1 0x8 DUP2 SWAP1 SSTORE POP POP JUMP JUMPDEST PUSH1 0x8 SLOAD DUP2 JUMP JUMPDEST PUSH1 0x7 SLOAD DUP2 JUMP JUMPDEST PUSH1 0xB SLOAD DUP2 JUMP JUMPDEST PUSH1 0x9 PUSH1 0x0 SWAP1 SLOAD SWAP1 PUSH2 0x100 EXP SWAP1 DIV PUSH20 0xFFFFFFFFFFFFFFFFFFFFFFFFFFFFFFFFFFFFFFFF AND DUP2 JUMP JUMPDEST PUSH1 0x0 DUP1 PUSH1 0x0 ADD SLOAD SWAP1 DUP1 PUSH1 0x1 ADD SLOAD SWAP1 POP DUP3 JUMP JUMPDEST PUSH1 0xE SLOAD DUP2 JUMP JUMPDEST PUSH1 0xC SLOAD DUP2 JUMP JUMPDEST PUSH1 0x3 DUP1 SLOAD PUSH2 0x14A2 SWAP1 PUSH2 0x2B77 JUMP JUMPDEST DUP1 PUSH1 0x1F ADD PUSH1 0x20 DUP1 SWAP2 DIV MUL PUSH1 0x20 ADD PUSH1 0x40 MLOAD SWAP1 DUP2 ADD PUSH1 0x40 MSTORE DUP1 SWAP3 SWAP2 SWAP1 DUP2 DUP2 MSTORE PUSH1 0x20 ADD DUP3 DUP1 SLOAD PUSH2 0x14CE SWAP1 PUSH2 0x2B77 JUMP JUMPDEST DUP1 ISZERO PUSH2 0x151B JUMPI DUP1 PUSH1 0x1F LT PUSH2 0x14F0 JUMPI PUSH2 0x100 DUP1 DUP4 SLOAD DIV MUL DUP4 MSTORE SWAP2 PUSH1 0x20 ADD SWAP2 PUSH2 0x151B JUMP JUMPDEST DUP3 ADD SWAP2 SWAP1 PUSH1 0x0 MSTORE PUSH1 0x20 PUSH1 0x0 KECCAK256 SWAP1 JUMPDEST DUP2 SLOAD DUP2 MSTORE SWAP1 PUSH1 0x1 ADD SWAP1 PUSH1 0x20 ADD DUP1 DUP4 GT PUSH2 0x14FE JUMPI DUP3 SWAP1 SUB PUSH1 0x1F AND DUP3 ADD SWAP2 JUMPDEST POP POP POP POP POP DUP2 JUMP JUMPDEST PUSH1 0x13 DUP2 DUP2 SLOAD DUP2 LT PUSH2 0x1533 JUMPI PUSH1 0x0 DUP1 REVERT JUMPDEST SWAP1 PUSH1 0x0 MSTORE PUSH1 0x20 PUSH1 0x0 KECCAK256 ADD PUSH1 0x0 SWAP2 POP SWAP1 POP SLOAD DUP2 JUMP JUMPDEST PUSH1 0x0 DUP1 CALLVALUE GT PUSH2 0x158B JUMPI PUSH1 0x40 MLOAD PUSH32 0x8C379A000000000000000000000000000000000000000000000000000000000 DUP2 MSTORE PUSH1 0x4 ADD PUSH2 0x1582 SWAP1 PUSH2 0x2864 JUMP JUMPDEST PUSH1 0x40 MLOAD DUP1 SWAP2 SUB SWAP1 REVERT JUMPDEST PUSH1 0x0 PUSH2 0x2710 PUSH2 0xFFFF AND PUSH1 0x8 SLOAD CALLVALUE PUSH2 0x15A2 SWAP2 SWAP1 PUSH2 0x2A41 JUMP JUMPDEST PUSH2 0x15AC SWAP2 SWAP1 PUSH2 0x2A10 JUMP JUMPDEST SWAP1 POP PUSH1 0x0 DUP2 CALLVALUE PUSH2 0x15BC SWAP2 SWAP1 PUSH2 0x2A9B JUMP JUMPDEST SWAP1 POP PUSH1 0x0 PUSH1 0x7 SLOAD DUP3 PUSH2 0x15CE SWAP2 SWAP1 PUSH2 0x2A10 JUMP JUMPDEST SWAP1 POP PUSH1 0x6 SLOAD PUSH1 0x5 SLOAD PUSH2 0x15E0 SWAP2 SWAP1 PUSH2 0x2A9B JUMP JUMPDEST DUP2 GT ISZERO PUSH2 0x1622 JUMPI PUSH1 0x40 MLOAD PUSH32 0x8C379A000000000000000000000000000000000000000000000000000000000 DUP2 MSTORE PUSH1 0x4 ADD PUSH2 0x1619 SWAP1 PUSH2 0x27A4 JUMP JUMPDEST PUSH1 0x40 MLOAD DUP1 SWAP2 SUB SWAP1 REVERT JUMPDEST PUSH2 0x162C CALLER DUP3 PUSH2 0x1D65 JUMP JUMPDEST PUSH1 0x0 PUSH1 0x12 PUSH1 0x0 CALLER PUSH20 0xFFFFFFFFFFFFFFFFFFFFFFFFFFFFFFFFFFFFFFFF AND PUSH20 0xFFFFFFFFFFFFFFFFFFFFFFFFFFFFFFFFFFFFFFFF AND DUP2 MSTORE PUSH1 0x20 ADD SWAP1 DUP2 MSTORE PUSH1 0x20 ADD PUSH1 0x0 KECCAK256 PUSH1 0x0 ADD SLOAD EQ ISZERO DUP1 ISZERO PUSH2 0x16C2 JUMPI POP PUSH1 0xE SLOAD PUSH1 0x12 PUSH1 0x0 CALLER PUSH20 0xFFFFFFFFFFFFFFFFFFFFFFFFFFFFFFFFFFFFFFFF AND PUSH20 0xFFFFFFFFFFFFFFFFFFFFFFFFFFFFFFFFFFFFFFFF AND DUP2 MSTORE PUSH1 0x20 ADD SWAP1 DUP2 MSTORE PUSH1 0x20 ADD PUSH1 0x0 KECCAK256 PUSH1 0x1 ADD SLOAD EQ JUMPDEST ISZERO PUSH2 0x1734 JUMPI DUP1 PUSH1 0x11 PUSH1 0x0 PUSH1 0x12 PUSH1 0x0 CALLER PUSH20 0xFFFFFFFFFFFFFFFFFFFFFFFFFFFFFFFFFFFFFFFF AND PUSH20 0xFFFFFFFFFFFFFFFFFFFFFFFFFFFFFFFFFFFFFFFF AND DUP2 MSTORE PUSH1 0x20 ADD SWAP1 DUP2 MSTORE PUSH1 0x20 ADD PUSH1 0x0 KECCAK256 PUSH1 0x0 ADD SLOAD DUP2 MSTORE PUSH1 0x20 ADD SWAP1 DUP2 MSTORE PUSH1 0x20 ADD PUSH1 0x0 KECCAK256 PUSH1 0x0 DUP3 DUP3 SLOAD PUSH2 0x172C SWAP2 SWAP1 PUSH2 0x29BA JUMP JUMPDEST SWAP3 POP POP DUP2 SWAP1 SSTORE POP JUMPDEST PUSH2 0x173C PUSH2 0x1DD8 JUMP JUMPDEST PUSH1 0x1 SWAP4 POP POP POP POP SWAP1 JUMP JUMPDEST PUSH1 0x0 PUSH2 0x1753 CALLER DUP5 DUP5 PUSH2 0x1ADB JUMP JUMPDEST PUSH1 0x1 SWAP1 POP SWAP3 SWAP2 POP POP JUMP JUMPDEST PUSH1 0xA SLOAD DUP2 JUMP JUMPDEST PUSH1 0xD SLOAD TIMESTAMP GT PUSH2 0x17A7 JUMPI PUSH1 0x40 MLOAD PUSH32 0x8C379A000000000000000000000000000000000000000000000000000000000 DUP2 MSTORE PUSH1 0x4 ADD PUSH2 0x179E SWAP1 PUSH2 0x27E4 JUMP JUMPDEST PUSH1 0x40 MLOAD DUP1 SWAP2 SUB SWAP1 REVERT JUMPDEST PUSH1 0x0 PUSH1 0x1 ADD SLOAD PUSH1 0x7 DUP2 SWAP1 SSTORE POP PUSH1 0x0 PUSH1 0x4 PUSH1 0x0 PUSH2 0x100 EXP DUP2 SLOAD DUP2 PUSH1 0xFF MUL NOT AND SWAP1 DUP4 ISZERO ISZERO MUL OR SWAP1 SSTORE POP PUSH1 0x0 DUP1 PUSH1 0x0 DUP3 ADD PUSH1 0x0 SWAP1 SSTORE PUSH1 0x1 DUP3 ADD PUSH1 0x0 SWAP1 SSTORE POP POP PUSH32 0xA6DC15BDB68DA224C66DB4B3838D9A2B205138E8CFF6774E57D0AF91E196D622 PUSH1 0x7 SLOAD PUSH1 0x40 MLOAD PUSH2 0x1814 SWAP2 SWAP1 PUSH2 0x293F JUMP JUMPDEST PUSH1 0x40 MLOAD DUP1 SWAP2 SUB SWAP1 LOG1 JUMP JUMPDEST PUSH1 0x14 SLOAD DUP2 JUMP JUMPDEST PUSH1 0x0 PUSH1 0x11 PUSH1 0x0 DUP4 DUP2 MSTORE PUSH1 0x20 ADD SWAP1 DUP2 MSTORE PUSH1 0x20 ADD PUSH1 0x0 KECCAK256 SLOAD SWAP1 POP SWAP2 SWAP1 POP JUMP JUMPDEST PUSH2 0x2710 DUP2 JUMP JUMPDEST PUSH1 0x0 PUSH1 0x10 PUSH1 0x0 DUP5 PUSH20 0xFFFFFFFFFFFFFFFFFFFFFFFFFFFFFFFFFFFFFFFF AND PUSH20 0xFFFFFFFFFFFFFFFFFFFFFFFFFFFFFFFFFFFFFFFF AND DUP2 MSTORE PUSH1 0x20 ADD SWAP1 DUP2 MSTORE PUSH1 0x20 ADD PUSH1 0x0 KECCAK256 PUSH1 0x0 DUP4 PUSH20 0xFFFFFFFFFFFFFFFFFFFFFFFFFFFFFFFFFFFFFFFF AND PUSH20 0xFFFFFFFFFFFFFFFFFFFFFFFFFFFFFFFFFFFFFFFF AND DUP2 MSTORE PUSH1 0x20 ADD SWAP1 DUP2 MSTORE PUSH1 0x20 ADD PUSH1 0x0 KECCAK256 SLOAD SWAP1 POP SWAP3 SWAP2 POP POP JUMP JUMPDEST PUSH1 0x0 DUP2 ADDRESS PUSH20 0xFFFFFFFFFFFFFFFFFFFFFFFFFFFFFFFFFFFFFFFF AND PUSH4 0x70A08231 CALLER PUSH1 0x40 MLOAD DUP3 PUSH4 0xFFFFFFFF AND PUSH1 0xE0 SHL DUP2 MSTORE PUSH1 0x4 ADD PUSH2 0x190A SWAP2 SWAP1 PUSH2 0x2671 JUMP JUMPDEST PUSH1 0x20 PUSH1 0x40 MLOAD DUP1 DUP4 SUB DUP2 DUP7 DUP1 EXTCODESIZE ISZERO DUP1 ISZERO PUSH2 0x1922 JUMPI PUSH1 0x0 DUP1 REVERT JUMPDEST POP GAS STATICCALL ISZERO DUP1 ISZERO PUSH2 0x1936 JUMPI RETURNDATASIZE PUSH1 0x0 DUP1 RETURNDATACOPY RETURNDATASIZE PUSH1 0x0 REVERT JUMPDEST POP POP POP POP PUSH1 0x40 MLOAD RETURNDATASIZE PUSH1 0x1F NOT PUSH1 0x1F DUP3 ADD AND DUP3 ADD DUP1 PUSH1 0x40 MSTORE POP DUP2 ADD SWAP1 PUSH2 0x195A SWAP2 SWAP1 PUSH2 0x233F JUMP JUMPDEST LT ISZERO PUSH2 0x199B JUMPI PUSH1 0x40 MLOAD PUSH32 0x8C379A000000000000000000000000000000000000000000000000000000000 DUP2 MSTORE PUSH1 0x4 ADD PUSH2 0x1992 SWAP1 PUSH2 0x28E4 JUMP JUMPDEST PUSH1 0x40 MLOAD DUP1 SWAP2 SUB SWAP1 REVERT JUMPDEST PUSH1 0x0 PUSH1 0x7 SLOAD DUP4 PUSH2 0x19AB SWAP2 SWAP1 PUSH2 0x2A41 JUMP JUMPDEST SWAP1 POP PUSH1 0x0 PUSH2 0x2710 PUSH2 0xFFFF AND PUSH1 0x8 SLOAD DUP4 PUSH2 0x19C4 SWAP2 SWAP1 PUSH2 0x2A41 JUMP JUMPDEST PUSH2 0x19CE SWAP2 SWAP1 PUSH2 0x2A10 JUMP JUMPDEST SWAP1 POP PUSH1 0x0 DUP2 DUP4 PUSH2 0x19DE SWAP2 SWAP1 PUSH2 0x2A9B JUMP JUMPDEST SWAP1 POP DUP1 SELFBALANCE LT ISZERO PUSH2 0x1A23 JUMPI PUSH1 0x40 MLOAD PUSH32 0x8C379A000000000000000000000000000000000000000000000000000000000 DUP2 MSTORE PUSH1 0x4 ADD PUSH2 0x1A1A SWAP1 PUSH2 0x2804 JUMP JUMPDEST PUSH1 0x40 MLOAD DUP1 SWAP2 SUB SWAP1 REVERT JUMPDEST PUSH2 0x1A2D CALLER DUP7 PUSH2 0x1ED1 JUMP JUMPDEST PUSH2 0x1A37 CALLER DUP7 PUSH2 0x1F44 JUMP JUMPDEST PUSH2 0x1A3F PUSH2 0x1DD8 JUMP JUMPDEST CALLER PUSH20 0xFFFFFFFFFFFFFFFFFFFFFFFFFFFFFFFFFFFFFFFF AND PUSH2 0x8FC DUP3 SWAP1 DUP2 ISZERO MUL SWAP1 PUSH1 0x40 MLOAD PUSH1 0x0 PUSH1 0x40 MLOAD DUP1 DUP4 SUB DUP2 DUP6 DUP9 DUP9 CALL SWAP4 POP POP POP POP ISZERO DUP1 ISZERO PUSH2 0x1A85 JUMPI RETURNDATASIZE PUSH1 0x0 DUP1 RETURNDATACOPY RETURNDATASIZE PUSH1 0x0 REVERT JUMPDEST POP PUSH1 0x1 SWAP4 POP POP POP POP SWAP2 SWAP1 POP JUMP JUMPDEST PUSH1 0x0 DUP1 ADD SLOAD PUSH1 0x11 PUSH1 0x0 DUP4 DUP2 MSTORE PUSH1 0x20 ADD SWAP1 DUP2 MSTORE PUSH1 0x20 ADD PUSH1 0x0 KECCAK256 SLOAD GT ISZERO PUSH2 0x1AD8 JUMPI PUSH1 0x11 PUSH1 0x0 DUP3 DUP2 MSTORE PUSH1 0x20 ADD SWAP1 DUP2 MSTORE PUSH1 0x20 ADD PUSH1 0x0 KECCAK256 SLOAD PUSH1 0x0 DUP1 ADD DUP2 SWAP1 SSTORE POP DUP1 PUSH1 0x0 PUSH1 0x1 ADD DUP2 SWAP1 SSTORE POP JUMPDEST POP JUMP JUMPDEST PUSH1 0x0 PUSH20 0xFFFFFFFFFFFFFFFFFFFFFFFFFFFFFFFFFFFFFFFF AND DUP4 PUSH20 0xFFFFFFFFFFFFFFFFFFFFFFFFFFFFFFFFFFFFFFFF AND EQ ISZERO PUSH2 0x1B4B JUMPI PUSH1 0x40 MLOAD PUSH32 0x8C379A000000000000000000000000000000000000000000000000000000000 DUP2 MSTORE PUSH1 0x4 ADD PUSH2 0x1B42 SWAP1 PUSH2 0x26E4 JUMP JUMPDEST PUSH1 0x40 MLOAD DUP1 SWAP2 SUB SWAP1 REVERT JUMPDEST PUSH1 0x0 PUSH20 0xFFFFFFFFFFFFFFFFFFFFFFFFFFFFFFFFFFFFFFFF AND DUP3 PUSH20 0xFFFFFFFFFFFFFFFFFFFFFFFFFFFFFFFFFFFFFFFF AND EQ ISZERO PUSH2 0x1BBB JUMPI PUSH1 0x40 MLOAD PUSH32 0x8C379A000000000000000000000000000000000000000000000000000000000 DUP2 MSTORE PUSH1 0x4 ADD PUSH2 0x1BB2 SWAP1 PUSH2 0x2824 JUMP JUMPDEST PUSH1 0x40 MLOAD DUP1 SWAP2 SUB SWAP1 REVERT JUMPDEST DUP1 PUSH1 0xF PUSH1 0x0 DUP6 PUSH20 0xFFFFFFFFFFFFFFFFFFFFFFFFFFFFFFFFFFFFFFFF AND PUSH20 0xFFFFFFFFFFFFFFFFFFFFFFFFFFFFFFFFFFFFFFFF AND DUP2 MSTORE PUSH1 0x20 ADD SWAP1 DUP2 MSTORE PUSH1 0x20 ADD PUSH1 0x0 KECCAK256 SLOAD LT ISZERO PUSH2 0x1C3D JUMPI PUSH1 0x40 MLOAD PUSH32 0x8C379A000000000000000000000000000000000000000000000000000000000 DUP2 MSTORE PUSH1 0x4 ADD PUSH2 0x1C34 SWAP1 PUSH2 0x28E4 JUMP JUMPDEST PUSH1 0x40 MLOAD DUP1 SWAP2 SUB SWAP1 REVERT JUMPDEST DUP1 PUSH1 0xF PUSH1 0x0 DUP6 PUSH20 0xFFFFFFFFFFFFFFFFFFFFFFFFFFFFFFFFFFFFFFFF AND PUSH20 0xFFFFFFFFFFFFFFFFFFFFFFFFFFFFFFFFFFFFFFFF AND DUP2 MSTORE PUSH1 0x20 ADD SWAP1 DUP2 MSTORE PUSH1 0x20 ADD PUSH1 0x0 KECCAK256 PUSH1 0x0 DUP3 DUP3 SLOAD PUSH2 0x1C8C SWAP2 SWAP1 PUSH2 0x2A9B JUMP JUMPDEST SWAP3 POP POP DUP2 SWAP1 SSTORE POP DUP1 PUSH1 0xF PUSH1 0x0 DUP5 PUSH20 0xFFFFFFFFFFFFFFFFFFFFFFFFFFFFFFFFFFFFFFFF AND PUSH20 0xFFFFFFFFFFFFFFFFFFFFFFFFFFFFFFFFFFFFFFFF AND DUP2 MSTORE PUSH1 0x20 ADD SWAP1 DUP2 MSTORE PUSH1 0x20 ADD PUSH1 0x0 KECCAK256 PUSH1 0x0 DUP3 DUP3 SLOAD PUSH2 0x1CE2 SWAP2 SWAP1 PUSH2 0x29BA JUMP JUMPDEST SWAP3 POP POP DUP2 SWAP1 SSTORE POP PUSH2 0x1CF3 DUP4 DUP3 PUSH2 0x1F44 JUMP JUMPDEST PUSH2 0x1CFB PUSH2 0x1DD8 JUMP JUMPDEST DUP2 PUSH20 0xFFFFFFFFFFFFFFFFFFFFFFFFFFFFFFFFFFFFFFFF AND DUP4 PUSH20 0xFFFFFFFFFFFFFFFFFFFFFFFFFFFFFFFFFFFFFFFF AND PUSH32 0xDDF252AD1BE2C89B69C2B068FC378DAA952BA7F163C4A11628F55A4DF523B3EF DUP4 PUSH1 0x40 MLOAD PUSH2 0x1D58 SWAP2 SWAP1 PUSH2 0x293F JUMP JUMPDEST PUSH1 0x40 MLOAD DUP1 SWAP2 SUB SWAP1 LOG3 POP POP POP JUMP JUMPDEST DUP1 PUSH1 0xF PUSH1 0x0 DUP5 PUSH20 0xFFFFFFFFFFFFFFFFFFFFFFFFFFFFFFFFFFFFFFFF AND PUSH20 0xFFFFFFFFFFFFFFFFFFFFFFFFFFFFFFFFFFFFFFFF AND DUP2 MSTORE PUSH1 0x20 ADD SWAP1 DUP2 MSTORE PUSH1 0x20 ADD PUSH1 0x0 KECCAK256 PUSH1 0x0 DUP3 DUP3 SLOAD PUSH2 0x1DB4 SWAP2 SWAP1 PUSH2 0x29BA JUMP JUMPDEST SWAP3 POP POP DUP2 SWAP1 SSTORE POP DUP1 PUSH1 0x6 PUSH1 0x0 DUP3 DUP3 SLOAD PUSH2 0x1DCD SWAP2 SWAP1 PUSH2 0x29BA JUMP JUMPDEST SWAP3 POP POP DUP2 SWAP1 SSTORE POP POP POP JUMP JUMPDEST PUSH1 0x0 DUP1 JUMPDEST PUSH1 0x13 DUP1 SLOAD SWAP1 POP DUP2 LT ISZERO PUSH2 0x1EA7 JUMPI PUSH1 0x0 DUP1 ADD SLOAD PUSH1 0x11 PUSH1 0x0 PUSH1 0x13 DUP5 DUP2 SLOAD DUP2 LT PUSH2 0x1E2C JUMPI PUSH32 0x4E487B7100000000000000000000000000000000000000000000000000000000 PUSH1 0x0 MSTORE PUSH1 0x32 PUSH1 0x4 MSTORE PUSH1 0x24 PUSH1 0x0 REVERT JUMPDEST SWAP1 PUSH1 0x0 MSTORE PUSH1 0x20 PUSH1 0x0 KECCAK256 ADD SLOAD DUP2 MSTORE PUSH1 0x20 ADD SWAP1 DUP2 MSTORE PUSH1 0x20 ADD PUSH1 0x0 KECCAK256 SLOAD GT ISZERO PUSH2 0x1E94 JUMPI PUSH1 0x13 DUP2 DUP2 SLOAD DUP2 LT PUSH2 0x1E86 JUMPI PUSH32 0x4E487B7100000000000000000000000000000000000000000000000000000000 PUSH1 0x0 MSTORE PUSH1 0x32 PUSH1 0x4 MSTORE PUSH1 0x24 PUSH1 0x0 REVERT JUMPDEST SWAP1 PUSH1 0x0 MSTORE PUSH1 0x20 PUSH1 0x0 KECCAK256 ADD SLOAD SWAP2 POP JUMPDEST DUP1 DUP1 PUSH2 0x1E9F SWAP1 PUSH2 0x2BA9 JUMP JUMPDEST SWAP2 POP POP PUSH2 0x1DDC JUMP JUMPDEST POP DUP1 PUSH1 0x0 PUSH1 0x1 ADD DUP2 SWAP1 SSTORE POP PUSH1 0x11 PUSH1 0x0 DUP3 DUP2 MSTORE PUSH1 0x20 ADD SWAP1 DUP2 MSTORE PUSH1 0x20 ADD PUSH1 0x0 KECCAK256 SLOAD PUSH1 0x0 DUP1 ADD DUP2 SWAP1 SSTORE POP POP JUMP JUMPDEST DUP1 PUSH1 0xF PUSH1 0x0 DUP5 PUSH20 0xFFFFFFFFFFFFFFFFFFFFFFFFFFFFFFFFFFFFFFFF AND PUSH20 0xFFFFFFFFFFFFFFFFFFFFFFFFFFFFFFFFFFFFFFFF AND DUP2 MSTORE PUSH1 0x20 ADD SWAP1 DUP2 MSTORE PUSH1 0x20 ADD PUSH1 0x0 KECCAK256 PUSH1 0x0 DUP3 DUP3 SLOAD PUSH2 0x1F20 SWAP2 SWAP1 PUSH2 0x2A9B JUMP JUMPDEST SWAP3 POP POP DUP2 SWAP1 SSTORE POP DUP1 PUSH1 0x6 PUSH1 0x0 DUP3 DUP3 SLOAD PUSH2 0x1F39 SWAP2 SWAP1 PUSH2 0x2A9B JUMP JUMPDEST SWAP3 POP POP DUP2 SWAP1 SSTORE POP POP POP JUMP JUMPDEST PUSH1 0x0 PUSH1 0x12 PUSH1 0x0 DUP5 PUSH20 0xFFFFFFFFFFFFFFFFFFFFFFFFFFFFFFFFFFFFFFFF AND PUSH20 0xFFFFFFFFFFFFFFFFFFFFFFFFFFFFFFFFFFFFFFFF AND DUP2 MSTORE PUSH1 0x20 ADD SWAP1 DUP2 MSTORE PUSH1 0x20 ADD PUSH1 0x0 KECCAK256 PUSH1 0x0 ADD SLOAD EQ ISZERO DUP1 ISZERO PUSH2 0x1FDA JUMPI POP PUSH1 0xE SLOAD PUSH1 0x12 PUSH1 0x0 DUP5 PUSH20 0xFFFFFFFFFFFFFFFFFFFFFFFFFFFFFFFFFFFFFFFF AND PUSH20 0xFFFFFFFFFFFFFFFFFFFFFFFFFFFFFFFFFFFFFFFF AND DUP2 MSTORE PUSH1 0x20 ADD SWAP1 DUP2 MSTORE PUSH1 0x20 ADD PUSH1 0x0 KECCAK256 PUSH1 0x1 ADD SLOAD EQ JUMPDEST ISZERO PUSH2 0x21E3 JUMPI PUSH1 0xA SLOAD ADDRESS PUSH20 0xFFFFFFFFFFFFFFFFFFFFFFFFFFFFFFFFFFFFFFFF AND PUSH4 0x70A08231 DUP5 PUSH1 0x40 MLOAD DUP3 PUSH4 0xFFFFFFFF AND PUSH1 0xE0 SHL DUP2 MSTORE PUSH1 0x4 ADD PUSH2 0x201B SWAP2 SWAP1 PUSH2 0x2671 JUMP JUMPDEST PUSH1 0x20 PUSH1 0x40 MLOAD DUP1 DUP4 SUB DUP2 DUP7 DUP1 EXTCODESIZE ISZERO DUP1 ISZERO PUSH2 0x2033 JUMPI PUSH1 0x0 DUP1 REVERT JUMPDEST POP GAS STATICCALL ISZERO DUP1 ISZERO PUSH2 0x2047 JUMPI RETURNDATASIZE PUSH1 0x0 DUP1 RETURNDATACOPY RETURNDATASIZE PUSH1 0x0 REVERT JUMPDEST POP POP POP POP PUSH1 0x40 MLOAD RETURNDATASIZE PUSH1 0x1F NOT PUSH1 0x1F DUP3 ADD AND DUP3 ADD DUP1 PUSH1 0x40 MSTORE POP DUP2 ADD SWAP1 PUSH2 0x206B SWAP2 SWAP1 PUSH2 0x233F JUMP JUMPDEST LT ISZERO PUSH2 0x2175 JUMPI ADDRESS PUSH20 0xFFFFFFFFFFFFFFFFFFFFFFFFFFFFFFFFFFFFFFFF AND PUSH4 0x70A08231 DUP4 PUSH1 0x40 MLOAD DUP3 PUSH4 0xFFFFFFFF AND PUSH1 0xE0 SHL DUP2 MSTORE PUSH1 0x4 ADD PUSH2 0x20AA SWAP2 SWAP1 PUSH2 0x2671 JUMP JUMPDEST PUSH1 0x20 PUSH1 0x40 MLOAD DUP1 DUP4 SUB DUP2 DUP7 DUP1 EXTCODESIZE ISZERO DUP1 ISZERO PUSH2 0x20C2 JUMPI PUSH1 0x0 DUP1 REVERT JUMPDEST POP GAS STATICCALL ISZERO DUP1 ISZERO PUSH2 0x20D6 JUMPI RETURNDATASIZE PUSH1 0x0 DUP1 RETURNDATACOPY RETURNDATASIZE PUSH1 0x0 REVERT JUMPDEST POP POP POP POP PUSH1 0x40 MLOAD RETURNDATASIZE PUSH1 0x1F NOT PUSH1 0x1F DUP3 ADD AND DUP3 ADD DUP1 PUSH1 0x40 MSTORE POP DUP2 ADD SWAP1 PUSH2 0x20FA SWAP2 SWAP1 PUSH2 0x233F JUMP JUMPDEST DUP2 PUSH2 0x2105 SWAP2 SWAP1 PUSH2 0x29BA JUMP JUMPDEST PUSH1 0x11 PUSH1 0x0 PUSH1 0x12 PUSH1 0x0 DUP7 PUSH20 0xFFFFFFFFFFFFFFFFFFFFFFFFFFFFFFFFFFFFFFFF AND PUSH20 0xFFFFFFFFFFFFFFFFFFFFFFFFFFFFFFFFFFFFFFFF AND DUP2 MSTORE PUSH1 0x20 ADD SWAP1 DUP2 MSTORE PUSH1 0x20 ADD PUSH1 0x0 KECCAK256 PUSH1 0x0 ADD SLOAD DUP2 MSTORE PUSH1 0x20 ADD SWAP1 DUP2 MSTORE PUSH1 0x20 ADD PUSH1 0x0 KECCAK256 PUSH1 0x0 DUP3 DUP3 SLOAD PUSH2 0x2169 SWAP2 SWAP1 PUSH2 0x2A9B JUMP JUMPDEST SWAP3 POP POP DUP2 SWAP1 SSTORE POP PUSH2 0x21E2 JUMP JUMPDEST DUP1 PUSH1 0x11 PUSH1 0x0 PUSH1 0x12 PUSH1 0x0 DUP7 PUSH20 0xFFFFFFFFFFFFFFFFFFFFFFFFFFFFFFFFFFFFFFFF AND PUSH20 0xFFFFFFFFFFFFFFFFFFFFFFFFFFFFFFFFFFFFFFFF AND DUP2 MSTORE PUSH1 0x20 ADD SWAP1 DUP2 MSTORE PUSH1 0x20 ADD PUSH1 0x0 KECCAK256 PUSH1 0x0 ADD SLOAD DUP2 MSTORE PUSH1 0x20 ADD SWAP1 DUP2 MSTORE PUSH1 0x20 ADD PUSH1 0x0 KECCAK256 PUSH1 0x0 DUP3 DUP3 SLOAD PUSH2 0x21DA SWAP2 SWAP1 PUSH2 0x2A9B JUMP JUMPDEST SWAP3 POP POP DUP2 SWAP1 SSTORE POP JUMPDEST JUMPDEST POP POP JUMP JUMPDEST PUSH1 0x0 DUP2 CALLDATALOAD SWAP1 POP PUSH2 0x21F6 DUP2 PUSH2 0x3056 JUMP JUMPDEST SWAP3 SWAP2 POP POP JUMP JUMPDEST PUSH1 0x0 DUP2 CALLDATALOAD SWAP1 POP PUSH2 0x220B DUP2 PUSH2 0x306D JUMP JUMPDEST SWAP3 SWAP2 POP POP JUMP JUMPDEST PUSH1 0x0 DUP2 MLOAD SWAP1 POP PUSH2 0x2220 DUP2 PUSH2 0x306D JUMP JUMPDEST SWAP3 SWAP2 POP POP JUMP JUMPDEST PUSH1 0x0 PUSH1 0x20 DUP3 DUP5 SUB SLT ISZERO PUSH2 0x2238 JUMPI PUSH1 0x0 DUP1 REVERT JUMPDEST PUSH1 0x0 PUSH2 0x2246 DUP5 DUP3 DUP6 ADD PUSH2 0x21E7 JUMP JUMPDEST SWAP2 POP POP SWAP3 SWAP2 POP POP JUMP JUMPDEST PUSH1 0x0 DUP1 PUSH1 0x40 DUP4 DUP6 SUB SLT ISZERO PUSH2 0x2262 JUMPI PUSH1 0x0 DUP1 REVERT JUMPDEST PUSH1 0x0 PUSH2 0x2270 DUP6 DUP3 DUP7 ADD PUSH2 0x21E7 JUMP JUMPDEST SWAP3 POP POP PUSH1 0x20 PUSH2 0x2281 DUP6 DUP3 DUP7 ADD PUSH2 0x21E7 JUMP JUMPDEST SWAP2 POP POP SWAP3 POP SWAP3 SWAP1 POP JUMP JUMPDEST PUSH1 0x0 DUP1 PUSH1 0x0 PUSH1 0x60 DUP5 DUP7 SUB SLT ISZERO PUSH2 0x22A0 JUMPI PUSH1 0x0 DUP1 REVERT JUMPDEST PUSH1 0x0 PUSH2 0x22AE DUP7 DUP3 DUP8 ADD PUSH2 0x21E7 JUMP JUMPDEST SWAP4 POP POP PUSH1 0x20 PUSH2 0x22BF DUP7 DUP3 DUP8 ADD PUSH2 0x21E7 JUMP JUMPDEST SWAP3 POP POP PUSH1 0x40 PUSH2 0x22D0 DUP7 DUP3 DUP8 ADD PUSH2 0x21FC JUMP JUMPDEST SWAP2 POP POP SWAP3 POP SWAP3 POP SWAP3 JUMP JUMPDEST PUSH1 0x0 DUP1 PUSH1 0x40 DUP4 DUP6 SUB SLT ISZERO PUSH2 0x22ED JUMPI PUSH1 0x0 DUP1 REVERT JUMPDEST PUSH1 0x0 PUSH2 0x22FB DUP6 DUP3 DUP7 ADD PUSH2 0x21E7 JUMP JUMPDEST SWAP3 POP POP PUSH1 0x20 PUSH2 0x230C DUP6 DUP3 DUP7 ADD PUSH2 0x21FC JUMP JUMPDEST SWAP2 POP POP SWAP3 POP SWAP3 SWAP1 POP JUMP JUMPDEST PUSH1 0x0 PUSH1 0x20 DUP3 DUP5 SUB SLT ISZERO PUSH2 0x2328 JUMPI PUSH1 0x0 DUP1 REVERT JUMPDEST PUSH1 0x0 PUSH2 0x2336 DUP5 DUP3 DUP6 ADD PUSH2 0x21FC JUMP JUMPDEST SWAP2 POP POP SWAP3 SWAP2 POP POP JUMP JUMPDEST PUSH1 0x0 PUSH1 0x20 DUP3 DUP5 SUB SLT ISZERO PUSH2 0x2351 JUMPI PUSH1 0x0 DUP1 REVERT JUMPDEST PUSH1 0x0 PUSH2 0x235F DUP5 DUP3 DUP6 ADD PUSH2 0x2211 JUMP JUMPDEST SWAP2 POP POP SWAP3 SWAP2 POP POP JUMP JUMPDEST PUSH2 0x2371 DUP2 PUSH2 0x2AE1 JUMP JUMPDEST DUP3 MSTORE POP POP JUMP JUMPDEST PUSH2 0x2380 DUP2 PUSH2 0x2ACF JUMP JUMPDEST DUP3 MSTORE POP POP JUMP JUMPDEST PUSH2 0x238F DUP2 PUSH2 0x2AF3 JUMP JUMPDEST DUP3 MSTORE POP POP JUMP JUMPDEST PUSH1 0x0 PUSH2 0x23A0 DUP3 PUSH2 0x299E JUMP JUMPDEST PUSH2 0x23AA DUP2 DUP6 PUSH2 0x29A9 JUMP JUMPDEST SWAP4 POP PUSH2 0x23BA DUP2 DUP6 PUSH1 0x20 DUP7 ADD PUSH2 0x2B44 JUMP JUMPDEST PUSH2 0x23C3 DUP2 PUSH2 0x2C7F JUMP JUMPDEST DUP5 ADD SWAP2 POP POP SWAP3 SWAP2 POP POP JUMP JUMPDEST PUSH1 0x0 PUSH2 0x23DB PUSH1 0x21 DUP4 PUSH2 0x29A9 JUMP JUMPDEST SWAP2 POP PUSH2 0x23E6 DUP3 PUSH2 0x2C90 JUMP JUMPDEST PUSH1 0x40 DUP3 ADD SWAP1 POP SWAP2 SWAP1 POP JUMP JUMPDEST PUSH1 0x0 PUSH2 0x23FE PUSH1 0x24 DUP4 PUSH2 0x29A9 JUMP JUMPDEST SWAP2 POP PUSH2 0x2409 DUP3 PUSH2 0x2CDF JUMP JUMPDEST PUSH1 0x40 DUP3 ADD SWAP1 POP SWAP2 SWAP1 POP JUMP JUMPDEST PUSH1 0x0 PUSH2 0x2421 PUSH1 0x13 DUP4 PUSH2 0x29A9 JUMP JUMPDEST SWAP2 POP PUSH2 0x242C DUP3 PUSH2 0x2D2E JUMP JUMPDEST PUSH1 0x20 DUP3 ADD SWAP1 POP SWAP2 SWAP1 POP JUMP JUMPDEST PUSH1 0x0 PUSH2 0x2444 PUSH1 0x1F DUP4 PUSH2 0x29A9 JUMP JUMPDEST SWAP2 POP PUSH2 0x244F DUP3 PUSH2 0x2D57 JUMP JUMPDEST PUSH1 0x20 DUP3 ADD SWAP1 POP SWAP2 SWAP1 POP JUMP JUMPDEST PUSH1 0x0 PUSH2 0x2467 PUSH1 0x21 DUP4 PUSH2 0x29A9 JUMP JUMPDEST SWAP2 POP PUSH2 0x2472 DUP3 PUSH2 0x2D80 JUMP JUMPDEST PUSH1 0x40 DUP3 ADD SWAP1 POP SWAP2 SWAP1 POP JUMP JUMPDEST PUSH1 0x0 PUSH2 0x248A PUSH1 0x1E DUP4 PUSH2 0x29A9 JUMP JUMPDEST SWAP2 POP PUSH2 0x2495 DUP3 PUSH2 0x2DCF JUMP JUMPDEST PUSH1 0x20 DUP3 ADD SWAP1 POP SWAP2 SWAP1 POP JUMP JUMPDEST PUSH1 0x0 PUSH2 0x24AD PUSH1 0x20 DUP4 PUSH2 0x29A9 JUMP JUMPDEST SWAP2 POP PUSH2 0x24B8 DUP3 PUSH2 0x2DF8 JUMP JUMPDEST PUSH1 0x20 DUP3 ADD SWAP1 POP SWAP2 SWAP1 POP JUMP JUMPDEST PUSH1 0x0 PUSH2 0x24D0 PUSH1 0x3F DUP4 PUSH2 0x29A9 JUMP JUMPDEST SWAP2 POP PUSH2 0x24DB DUP3 PUSH2 0x2E21 JUMP JUMPDEST PUSH1 0x40 DUP3 ADD SWAP1 POP SWAP2 SWAP1 POP JUMP JUMPDEST PUSH1 0x0 PUSH2 0x24F3 PUSH1 0x16 DUP4 PUSH2 0x29A9 JUMP JUMPDEST SWAP2 POP PUSH2 0x24FE DUP3 PUSH2 0x2E70 JUMP JUMPDEST PUSH1 0x20 DUP3 ADD SWAP1 POP SWAP2 SWAP1 POP JUMP JUMPDEST PUSH1 0x0 PUSH2 0x2516 PUSH1 0x29 DUP4 PUSH2 0x29A9 JUMP JUMPDEST SWAP2 POP PUSH2 0x2521 DUP3 PUSH2 0x2E99 JUMP JUMPDEST PUSH1 0x40 DUP3 ADD SWAP1 POP SWAP2 SWAP1 POP JUMP JUMPDEST PUSH1 0x0 PUSH2 0x2539 PUSH1 0x1F DUP4 PUSH2 0x29A9 JUMP JUMPDEST SWAP2 POP PUSH2 0x2544 DUP3 PUSH2 0x2EE8 JUMP JUMPDEST PUSH1 0x20 DUP3 ADD SWAP1 POP SWAP2 SWAP1 POP JUMP JUMPDEST PUSH1 0x0 PUSH2 0x255C PUSH1 0x12 DUP4 PUSH2 0x29A9 JUMP JUMPDEST SWAP2 POP PUSH2 0x2567 DUP3 PUSH2 0x2F11 JUMP JUMPDEST PUSH1 0x20 DUP3 ADD SWAP1 POP SWAP2 SWAP1 POP JUMP JUMPDEST PUSH1 0x0 PUSH2 0x257F PUSH1 0x1E DUP4 PUSH2 0x29A9 JUMP JUMPDEST SWAP2 POP PUSH2 0x258A DUP3 PUSH2 0x2F3A JUMP JUMPDEST PUSH1 0x20 DUP3 ADD SWAP1 POP SWAP2 SWAP1 POP JUMP JUMPDEST PUSH1 0x0 PUSH2 0x25A2 PUSH1 0x26 DUP4 PUSH2 0x29A9 JUMP JUMPDEST SWAP2 POP PUSH2 0x25AD DUP3 PUSH2 0x2F63 JUMP JUMPDEST PUSH1 0x40 DUP3 ADD SWAP1 POP SWAP2 SWAP1 POP JUMP JUMPDEST PUSH1 0x0 PUSH2 0x25C5 PUSH1 0x1E DUP4 PUSH2 0x29A9 JUMP JUMPDEST SWAP2 POP PUSH2 0x25D0 DUP3 PUSH2 0x2FB2 JUMP JUMPDEST PUSH1 0x20 DUP3 ADD SWAP1 POP SWAP2 SWAP1 POP JUMP JUMPDEST PUSH1 0x0 PUSH2 0x25E8 PUSH1 0x1C DUP4 PUSH2 0x29A9 JUMP JUMPDEST SWAP2 POP PUSH2 0x25F3 DUP3 PUSH2 0x2FDB JUMP JUMPDEST PUSH1 0x20 DUP3 ADD SWAP1 POP SWAP2 SWAP1 POP JUMP JUMPDEST PUSH1 0x0 PUSH2 0x260B PUSH1 0x11 DUP4 PUSH2 0x29A9 JUMP JUMPDEST SWAP2 POP PUSH2 0x2616 DUP3 PUSH2 0x3004 JUMP JUMPDEST PUSH1 0x20 DUP3 ADD SWAP1 POP SWAP2 SWAP1 POP JUMP JUMPDEST PUSH1 0x0 PUSH2 0x262E PUSH1 0x13 DUP4 PUSH2 0x29A9 JUMP JUMPDEST SWAP2 POP PUSH2 0x2639 DUP3 PUSH2 0x302D JUMP JUMPDEST PUSH1 0x20 DUP3 ADD SWAP1 POP SWAP2 SWAP1 POP JUMP JUMPDEST PUSH2 0x264D DUP2 PUSH2 0x2AFF JUMP JUMPDEST DUP3 MSTORE POP POP JUMP JUMPDEST PUSH2 0x265C DUP2 PUSH2 0x2B2D JUMP JUMPDEST DUP3 MSTORE POP POP JUMP JUMPDEST PUSH2 0x266B DUP2 PUSH2 0x2B37 JUMP JUMPDEST DUP3 MSTORE POP POP JUMP JUMPDEST PUSH1 0x0 PUSH1 0x20 DUP3 ADD SWAP1 POP PUSH2 0x2686 PUSH1 0x0 DUP4 ADD DUP5 PUSH2 0x2377 JUMP JUMPDEST SWAP3 SWAP2 POP POP JUMP JUMPDEST PUSH1 0x0 PUSH1 0x20 DUP3 ADD SWAP1 POP PUSH2 0x26A1 PUSH1 0x0 DUP4 ADD DUP5 PUSH2 0x2368 JUMP JUMPDEST SWAP3 SWAP2 POP POP JUMP JUMPDEST PUSH1 0x0 PUSH1 0x20 DUP3 ADD SWAP1 POP PUSH2 0x26BC PUSH1 0x0 DUP4 ADD DUP5 PUSH2 0x2386 JUMP JUMPDEST SWAP3 SWAP2 POP POP JUMP JUMPDEST PUSH1 0x0 PUSH1 0x20 DUP3 ADD SWAP1 POP DUP2 DUP2 SUB PUSH1 0x0 DUP4 ADD MSTORE PUSH2 0x26DC DUP2 DUP5 PUSH2 0x2395 JUMP JUMPDEST SWAP1 POP SWAP3 SWAP2 POP POP JUMP JUMPDEST PUSH1 0x0 PUSH1 0x20 DUP3 ADD SWAP1 POP DUP2 DUP2 SUB PUSH1 0x0 DUP4 ADD MSTORE PUSH2 0x26FD DUP2 PUSH2 0x23CE JUMP JUMPDEST SWAP1 POP SWAP2 SWAP1 POP JUMP JUMPDEST PUSH1 0x0 PUSH1 0x20 DUP3 ADD SWAP1 POP DUP2 DUP2 SUB PUSH1 0x0 DUP4 ADD MSTORE PUSH2 0x271D DUP2 PUSH2 0x23F1 JUMP JUMPDEST SWAP1 POP SWAP2 SWAP1 POP JUMP JUMPDEST PUSH1 0x0 PUSH1 0x20 DUP3 ADD SWAP1 POP DUP2 DUP2 SUB PUSH1 0x0 DUP4 ADD MSTORE PUSH2 0x273D DUP2 PUSH2 0x2414 JUMP JUMPDEST SWAP1 POP SWAP2 SWAP1 POP JUMP JUMPDEST PUSH1 0x0 PUSH1 0x20 DUP3 ADD SWAP1 POP DUP2 DUP2 SUB PUSH1 0x0 DUP4 ADD MSTORE PUSH2 0x275D DUP2 PUSH2 0x2437 JUMP JUMPDEST SWAP1 POP SWAP2 SWAP1 POP JUMP JUMPDEST PUSH1 0x0 PUSH1 0x20 DUP3 ADD SWAP1 POP DUP2 DUP2 SUB PUSH1 0x0 DUP4 ADD MSTORE PUSH2 0x277D DUP2 PUSH2 0x245A JUMP JUMPDEST SWAP1 POP SWAP2 SWAP1 POP JUMP JUMPDEST PUSH1 0x0 PUSH1 0x20 DUP3 ADD SWAP1 POP DUP2 DUP2 SUB PUSH1 0x0 DUP4 ADD MSTORE PUSH2 0x279D DUP2 PUSH2 0x247D JUMP JUMPDEST SWAP1 POP SWAP2 SWAP1 POP JUMP JUMPDEST PUSH1 0x0 PUSH1 0x20 DUP3 ADD SWAP1 POP DUP2 DUP2 SUB PUSH1 0x0 DUP4 ADD MSTORE PUSH2 0x27BD DUP2 PUSH2 0x24A0 JUMP JUMPDEST SWAP1 POP SWAP2 SWAP1 POP JUMP JUMPDEST PUSH1 0x0 PUSH1 0x20 DUP3 ADD SWAP1 POP DUP2 DUP2 SUB PUSH1 0x0 DUP4 ADD MSTORE PUSH2 0x27DD DUP2 PUSH2 0x24C3 JUMP JUMPDEST SWAP1 POP SWAP2 SWAP1 POP JUMP JUMPDEST PUSH1 0x0 PUSH1 0x20 DUP3 ADD SWAP1 POP DUP2 DUP2 SUB PUSH1 0x0 DUP4 ADD MSTORE PUSH2 0x27FD DUP2 PUSH2 0x24E6 JUMP JUMPDEST SWAP1 POP SWAP2 SWAP1 POP JUMP JUMPDEST PUSH1 0x0 PUSH1 0x20 DUP3 ADD SWAP1 POP DUP2 DUP2 SUB PUSH1 0x0 DUP4 ADD MSTORE PUSH2 0x281D DUP2 PUSH2 0x2509 JUMP JUMPDEST SWAP1 POP SWAP2 SWAP1 POP JUMP JUMPDEST PUSH1 0x0 PUSH1 0x20 DUP3 ADD SWAP1 POP DUP2 DUP2 SUB PUSH1 0x0 DUP4 ADD MSTORE PUSH2 0x283D DUP2 PUSH2 0x252C JUMP JUMPDEST SWAP1 POP SWAP2 SWAP1 POP JUMP JUMPDEST PUSH1 0x0 PUSH1 0x20 DUP3 ADD SWAP1 POP DUP2 DUP2 SUB PUSH1 0x0 DUP4 ADD MSTORE PUSH2 0x285D DUP2 PUSH2 0x254F JUMP JUMPDEST SWAP1 POP SWAP2 SWAP1 POP JUMP JUMPDEST PUSH1 0x0 PUSH1 0x20 DUP3 ADD SWAP1 POP DUP2 DUP2 SUB PUSH1 0x0 DUP4 ADD MSTORE PUSH2 0x287D DUP2 PUSH2 0x2572 JUMP JUMPDEST SWAP1 POP SWAP2 SWAP1 POP JUMP JUMPDEST PUSH1 0x0 PUSH1 0x20 DUP3 ADD SWAP1 POP DUP2 DUP2 SUB PUSH1 0x0 DUP4 ADD MSTORE PUSH2 0x289D DUP2 PUSH2 0x2595 JUMP JUMPDEST SWAP1 POP SWAP2 SWAP1 POP JUMP JUMPDEST PUSH1 0x0 PUSH1 0x20 DUP3 ADD SWAP1 POP DUP2 DUP2 SUB PUSH1 0x0 DUP4 ADD MSTORE PUSH2 0x28BD DUP2 PUSH2 0x25B8 JUMP JUMPDEST SWAP1 POP SWAP2 SWAP1 POP JUMP JUMPDEST PUSH1 0x0 PUSH1 0x20 DUP3 ADD SWAP1 POP DUP2 DUP2 SUB PUSH1 0x0 DUP4 ADD MSTORE PUSH2 0x28DD DUP2 PUSH2 0x25DB JUMP JUMPDEST SWAP1 POP SWAP2 SWAP1 POP JUMP JUMPDEST PUSH1 0x0 PUSH1 0x20 DUP3 ADD SWAP1 POP DUP2 DUP2 SUB PUSH1 0x0 DUP4 ADD MSTORE PUSH2 0x28FD DUP2 PUSH2 0x25FE JUMP JUMPDEST SWAP1 POP SWAP2 SWAP1 POP JUMP JUMPDEST PUSH1 0x0 PUSH1 0x20 DUP3 ADD SWAP1 POP DUP2 DUP2 SUB PUSH1 0x0 DUP4 ADD MSTORE PUSH2 0x291D DUP2 PUSH2 0x2621 JUMP JUMPDEST SWAP1 POP SWAP2 SWAP1 POP JUMP JUMPDEST PUSH1 0x0 PUSH1 0x20 DUP3 ADD SWAP1 POP PUSH2 0x2939 PUSH1 0x0 DUP4 ADD DUP5 PUSH2 0x2644 JUMP JUMPDEST SWAP3 SWAP2 POP POP JUMP JUMPDEST PUSH1 0x0 PUSH1 0x20 DUP3 ADD SWAP1 POP PUSH2 0x2954 PUSH1 0x0 DUP4 ADD DUP5 PUSH2 0x2653 JUMP JUMPDEST SWAP3 SWAP2 POP POP JUMP JUMPDEST PUSH1 0x0 PUSH1 0x40 DUP3 ADD SWAP1 POP PUSH2 0x296F PUSH1 0x0 DUP4 ADD DUP6 PUSH2 0x2653 JUMP JUMPDEST PUSH2 0x297C PUSH1 0x20 DUP4 ADD DUP5 PUSH2 0x2653 JUMP JUMPDEST SWAP4 SWAP3 POP POP POP JUMP JUMPDEST PUSH1 0x0 PUSH1 0x20 DUP3 ADD SWAP1 POP PUSH2 0x2998 PUSH1 0x0 DUP4 ADD DUP5 PUSH2 0x2662 JUMP JUMPDEST SWAP3 SWAP2 POP POP JUMP JUMPDEST PUSH1 0x0 DUP2 MLOAD SWAP1 POP SWAP2 SWAP1 POP JUMP JUMPDEST PUSH1 0x0 DUP3 DUP3 MSTORE PUSH1 0x20 DUP3 ADD SWAP1 POP SWAP3 SWAP2 POP POP JUMP JUMPDEST PUSH1 0x0 PUSH2 0x29C5 DUP3 PUSH2 0x2B2D JUMP JUMPDEST SWAP2 POP PUSH2 0x29D0 DUP4 PUSH2 0x2B2D JUMP JUMPDEST SWAP3 POP DUP3 PUSH32 0xFFFFFFFFFFFFFFFFFFFFFFFFFFFFFFFFFFFFFFFFFFFFFFFFFFFFFFFFFFFFFFFF SUB DUP3 GT ISZERO PUSH2 0x2A05 JUMPI PUSH2 0x2A04 PUSH2 0x2BF2 JUMP JUMPDEST JUMPDEST DUP3 DUP3 ADD SWAP1 POP SWAP3 SWAP2 POP POP JUMP JUMPDEST PUSH1 0x0 PUSH2 0x2A1B DUP3 PUSH2 0x2B2D JUMP JUMPDEST SWAP2 POP PUSH2 0x2A26 DUP4 PUSH2 0x2B2D JUMP JUMPDEST SWAP3 POP DUP3 PUSH2 0x2A36 JUMPI PUSH2 0x2A35 PUSH2 0x2C21 JUMP JUMPDEST JUMPDEST DUP3 DUP3 DIV SWAP1 POP SWAP3 SWAP2 POP POP JUMP JUMPDEST PUSH1 0x0 PUSH2 0x2A4C DUP3 PUSH2 0x2B2D JUMP JUMPDEST SWAP2 POP PUSH2 0x2A57 DUP4 PUSH2 0x2B2D JUMP JUMPDEST SWAP3 POP DUP2 PUSH32 0xFFFFFFFFFFFFFFFFFFFFFFFFFFFFFFFFFFFFFFFFFFFFFFFFFFFFFFFFFFFFFFFF DIV DUP4 GT DUP3 ISZERO ISZERO AND ISZERO PUSH2 0x2A90 JUMPI PUSH2 0x2A8F PUSH2 0x2BF2 JUMP JUMPDEST JUMPDEST DUP3 DUP3 MUL SWAP1 POP SWAP3 SWAP2 POP POP JUMP JUMPDEST PUSH1 0x0 PUSH2 0x2AA6 DUP3 PUSH2 0x2B2D JUMP JUMPDEST SWAP2 POP PUSH2 0x2AB1 DUP4 PUSH2 0x2B2D JUMP JUMPDEST SWAP3 POP DUP3 DUP3 LT ISZERO PUSH2 0x2AC4 JUMPI PUSH2 0x2AC3 PUSH2 0x2BF2 JUMP JUMPDEST JUMPDEST DUP3 DUP3 SUB SWAP1 POP SWAP3 SWAP2 POP POP JUMP JUMPDEST PUSH1 0x0 PUSH2 0x2ADA DUP3 PUSH2 0x2B0D JUMP JUMPDEST SWAP1 POP SWAP2 SWAP1 POP JUMP JUMPDEST PUSH1 0x0 PUSH2 0x2AEC DUP3 PUSH2 0x2B0D JUMP JUMPDEST SWAP1 POP SWAP2 SWAP1 POP JUMP JUMPDEST PUSH1 0x0 DUP2 ISZERO ISZERO SWAP1 POP SWAP2 SWAP1 POP JUMP JUMPDEST PUSH1 0x0 PUSH2 0xFFFF DUP3 AND SWAP1 POP SWAP2 SWAP1 POP JUMP JUMPDEST PUSH1 0x0 PUSH20 0xFFFFFFFFFFFFFFFFFFFFFFFFFFFFFFFFFFFFFFFF DUP3 AND SWAP1 POP SWAP2 SWAP1 POP JUMP JUMPDEST PUSH1 0x0 DUP2 SWAP1 POP SWAP2 SWAP1 POP JUMP JUMPDEST PUSH1 0x0 PUSH1 0xFF DUP3 AND SWAP1 POP SWAP2 SWAP1 POP JUMP JUMPDEST PUSH1 0x0 JUMPDEST DUP4 DUP2 LT ISZERO PUSH2 0x2B62 JUMPI DUP1 DUP3 ADD MLOAD DUP2 DUP5 ADD MSTORE PUSH1 0x20 DUP2 ADD SWAP1 POP PUSH2 0x2B47 JUMP JUMPDEST DUP4 DUP2 GT ISZERO PUSH2 0x2B71 JUMPI PUSH1 0x0 DUP5 DUP5 ADD MSTORE JUMPDEST POP POP POP POP JUMP JUMPDEST PUSH1 0x0 PUSH1 0x2 DUP3 DIV SWAP1 POP PUSH1 0x1 DUP3 AND DUP1 PUSH2 0x2B8F JUMPI PUSH1 0x7F DUP3 AND SWAP2 POP JUMPDEST PUSH1 0x20 DUP3 LT DUP2 EQ ISZERO PUSH2 0x2BA3 JUMPI PUSH2 0x2BA2 PUSH2 0x2C50 JUMP JUMPDEST JUMPDEST POP SWAP2 SWAP1 POP JUMP JUMPDEST PUSH1 0x0 PUSH2 0x2BB4 DUP3 PUSH2 0x2B2D JUMP JUMPDEST SWAP2 POP PUSH32 0xFFFFFFFFFFFFFFFFFFFFFFFFFFFFFFFFFFFFFFFFFFFFFFFFFFFFFFFFFFFFFFFF DUP3 EQ ISZERO PUSH2 0x2BE7 JUMPI PUSH2 0x2BE6 PUSH2 0x2BF2 JUMP JUMPDEST JUMPDEST PUSH1 0x1 DUP3 ADD SWAP1 POP SWAP2 SWAP1 POP JUMP JUMPDEST PUSH32 0x4E487B7100000000000000000000000000000000000000000000000000000000 PUSH1 0x0 MSTORE PUSH1 0x11 PUSH1 0x4 MSTORE PUSH1 0x24 PUSH1 0x0 REVERT JUMPDEST PUSH32 0x4E487B7100000000000000000000000000000000000000000000000000000000 PUSH1 0x0 MSTORE PUSH1 0x12 PUSH1 0x4 MSTORE PUSH1 0x24 PUSH1 0x0 REVERT JUMPDEST PUSH32 0x4E487B7100000000000000000000000000000000000000000000000000000000 PUSH1 0x0 MSTORE PUSH1 0x22 PUSH1 0x4 MSTORE PUSH1 0x24 PUSH1 0x0 REVERT JUMPDEST PUSH1 0x0 PUSH1 0x1F NOT PUSH1 0x1F DUP4 ADD AND SWAP1 POP SWAP2 SWAP1 POP JUMP JUMPDEST PUSH32 0x43616E6E6F74207472616E736665722066726F6D207A65726F20616464726573 PUSH1 0x0 DUP3 ADD MSTORE PUSH32 0x7300000000000000000000000000000000000000000000000000000000000000 PUSH1 0x20 DUP3 ADD MSTORE POP JUMP JUMPDEST PUSH32 0x4E6F7420656E6F75676820746F6B656E7320666F722061646420766F74652070 PUSH1 0x0 DUP3 ADD MSTORE PUSH32 0x7269636500000000000000000000000000000000000000000000000000000000 PUSH1 0x20 DUP3 ADD MSTORE POP JUMP JUMPDEST PUSH32 0x43616C6C6572206973206E6F74206F776E657200000000000000000000000000 PUSH1 0x0 DUP3 ADD MSTORE POP JUMP JUMPDEST PUSH32 0x5072657669757320766F74696E67206973206E6F74206F766572207965742100 PUSH1 0x0 DUP3 ADD MSTORE POP JUMP JUMPDEST PUSH32 0x5472616E7366657220616D6F756E74206578636565647320616C6C6F77616E63 PUSH1 0x0 DUP3 ADD MSTORE PUSH32 0x6500000000000000000000000000000000000000000000000000000000000000 PUSH1 0x20 DUP3 ADD MSTORE POP JUMP JUMPDEST PUSH32 0x5468657265206973206E6F2073756368207072696365206C6F74207965740000 PUSH1 0x0 DUP3 ADD MSTORE POP JUMP JUMPDEST PUSH32 0x4D617820737570706C79206F6620746F6B656E7320697320746F75636865642E PUSH1 0x0 DUP3 ADD MSTORE POP JUMP JUMPDEST PUSH32 0x536F6D656F6E6520616C72656164792061646465642074686174207072696365 PUSH1 0x0 DUP3 ADD MSTORE PUSH32 0x2C20796F752063616E20766F746520666F72207468617420696E737465616400 PUSH1 0x20 DUP3 ADD MSTORE POP JUMP JUMPDEST PUSH32 0x566F74696E67206973206E6F74206F7665722079657400000000000000000000 PUSH1 0x0 DUP3 ADD MSTORE POP JUMP JUMPDEST PUSH32 0x436F6E747261637420646F65736E2774206861766520656E6F75676820657468 PUSH1 0x0 DUP3 ADD MSTORE PUSH32 0x657220746F207061790000000000000000000000000000000000000000000000 PUSH1 0x20 DUP3 ADD MSTORE POP JUMP JUMPDEST PUSH32 0x43616E6E6F74207472616E7366657220746F207A65726F206164647265737300 PUSH1 0x0 DUP3 ADD MSTORE POP JUMP JUMPDEST PUSH32 0x596F7520616C726561647920766F746564210000000000000000000000000000 PUSH1 0x0 DUP3 ADD MSTORE POP JUMP JUMPDEST PUSH32 0x53656E6420736F6D6520657468657220746F2062757920746F6B656E732E0000 PUSH1 0x0 DUP3 ADD MSTORE POP JUMP JUMPDEST PUSH32 0x4E6F7420656E6F75676820746F6B656E7320666F72207374617274696E672061 PUSH1 0x0 DUP3 ADD MSTORE PUSH32 0x20766F7465210000000000000000000000000000000000000000000000000000 PUSH1 0x20 DUP3 ADD MSTORE POP JUMP JUMPDEST PUSH32 0x596F752063616E27742073657420666565206F662077686F6C652073756D0000 PUSH1 0x0 DUP3 ADD MSTORE POP JUMP JUMPDEST PUSH32 0x4E6F7420656E6F75676820746F6B656E7320666F7220766F74696E6700000000 PUSH1 0x0 DUP3 ADD MSTORE POP JUMP JUMPDEST PUSH32 0x4E6F7420656E6F75676820746F6B656E73000000000000000000000000000000 PUSH1 0x0 DUP3 ADD MSTORE POP JUMP JUMPDEST PUSH32 0x566F74696E672074696D65206973206F76657200000000000000000000000000 PUSH1 0x0 DUP3 ADD MSTORE POP JUMP JUMPDEST PUSH2 0x305F DUP2 PUSH2 0x2ACF JUMP JUMPDEST DUP2 EQ PUSH2 0x306A JUMPI PUSH1 0x0 DUP1 REVERT JUMPDEST POP JUMP JUMPDEST PUSH2 0x3076 DUP2 PUSH2 0x2B2D JUMP JUMPDEST DUP2 EQ PUSH2 0x3081 JUMPI PUSH1 0x0 DUP1 REVERT JUMPDEST POP JUMP INVALID LOG2 PUSH5 0x6970667358 0x22 SLT KECCAK256 SWAP12 PUSH32 0x6DDB21AA414D91E410F5AAF156B9966F11BF9F54F63397E4CE3422CB1A276473 PUSH16 0x6C634300080400330000000000000000 "},"methodIdentifiers":{"addVotePrice(uint256)":"59d634b0","allowance(address,address)":"dd62ed3e","approve(address,uint256)":"095ea7b3","balanceOf(address)":"70a08231","buy()":"a6f2ae3a","currentVoteId()":"9100b5dd","decimals()":"313ce567","endVote()":"b9223946","feeDecimals()":"cc0f1786","feePercent()":"7fd6f15c","isVoting()":"1bbef399","leadingVote()":"90a6a56a","maxTokenSupply()":"50f7c204","minTokenAmountForAddVotePrice()":"88edb929","minTokenAmountForVoting()":"ace682ba","name()":"06fdde03","owner()":"8da5cb5b","proposedPrices(uint256)":"9a57c2fc","sell(uint256)":"e4849b32","setFeePercent(uint256)":"7ce3489b","startVote()":"4c0a6af0","symbol()":"95d89b41","timeToVote()":"945837e2","tokenPrice()":"7ff9b596","totalOfPrice(uint256)":"c745907a","totalSupply()":"18160ddd","totalTokenSupply()":"1ca8b6cb","transfer(address,uint256)":"a9059cbb","transferFrom(address,address,uint256)":"23b872dd","vote(uint256)":"0121b93f","voteCountdown()":"4693d70b","winningPrice()":"c1f52604"}}}}}