{"contracts/VotableERC20.sol":{"VotableERC20":{"abi":[{"inputs":[{"internalType":"string","name":"_name","type":"string"},{"internalType":"string","name":"_symbol","type":"string"},{"internalType":"uint256","name":"_tokenPrice","type":"uint256"},{"internalType":"uint256","name":"_maxTokenSupply","type":"uint256"},{"internalType":"uint256","name":"_timeToVote","type":"uint256"},{"internalType":"uint256","name":"_feePercent","type":"uint256"}],"stateMutability":"nonpayable","type":"constructor"},{"anonymous":false,"inputs":[{"indexed":true,"internalType":"address","name":"owner","type":"address"},{"indexed":true,"internalType":"address","name":"spender","type":"address"},{"indexed":false,"internalType":"uint256","name":"value","type":"uint256"}],"name":"Approval","type":"event"},{"anonymous":false,"inputs":[{"indexed":false,"internalType":"uint256","name":"newPrice","type":"uint256"}],"name":"PriceChanged","type":"event"},{"anonymous":false,"inputs":[{"indexed":true,"internalType":"address","name":"from","type":"address"},{"indexed":true,"internalType":"address","name":"to","type":"address"},{"indexed":false,"internalType":"uint256","name":"value","type":"uint256"}],"name":"Transfer","type":"event"},{"anonymous":false,"inputs":[{"indexed":false,"internalType":"uint256","name":"endTime","type":"uint256"}],"name":"VoteStarted","type":"event"},{"anonymous":false,"inputs":[{"indexed":true,"internalType":"address","name":"voter","type":"address"},{"indexed":false,"internalType":"uint256","name":"proposedPrice","type":"uint256"}],"name":"Voted","type":"event"},{"inputs":[{"internalType":"uint256","name":"_proposedPrice","type":"uint256"}],"name":"addVotePrice","outputs":[],"stateMutability":"nonpayable","type":"function"},{"inputs":[{"internalType":"address","name":"_owner","type":"address"},{"internalType":"address","name":"_spender","type":"address"}],"name":"allowance","outputs":[{"internalType":"uint256","name":"","type":"uint256"}],"stateMutability":"view","type":"function"},{"inputs":[{"internalType":"address","name":"_spender","type":"address"},{"internalType":"uint256","name":"_amount","type":"uint256"}],"name":"approve","outputs":[{"internalType":"bool","name":"","type":"bool"}],"stateMutability":"nonpayable","type":"function"},{"inputs":[{"internalType":"address","name":"_account","type":"address"}],"name":"balanceOf","outputs":[{"internalType":"uint256","name":"","type":"uint256"}],"stateMutability":"view","type":"function"},{"inputs":[],"name":"buy","outputs":[{"internalType":"bool","name":"","type":"bool"}],"stateMutability":"payable","type":"function"},{"inputs":[],"name":"currentVoteId","outputs":[{"internalType":"uint256","name":"","type":"uint256"}],"stateMutability":"view","type":"function"},{"inputs":[],"name":"decimals","outputs":[{"internalType":"uint8","name":"","type":"uint8"}],"stateMutability":"view","type":"function"},{"inputs":[],"name":"endVote","outputs":[],"stateMutability":"nonpayable","type":"function"},{"inputs":[],"name":"feeDecimals","outputs":[{"internalType":"uint16","name":"","type":"uint16"}],"stateMutability":"view","type":"function"},{"inputs":[],"name":"feePercent","outputs":[{"internalType":"uint256","name":"","type":"uint256"}],"stateMutability":"view","type":"function"},{"inputs":[],"name":"isVoting","outputs":[{"internalType":"bool","name":"","type":"bool"}],"stateMutability":"view","type":"function"},{"inputs":[],"name":"maxTokenSupply","outputs":[{"internalType":"uint256","name":"","type":"uint256"}],"stateMutability":"view","type":"function"},{"inputs":[],"name":"minTokenAmountForAddVotePrice","outputs":[{"internalType":"uint256","name":"","type":"uint256"}],"stateMutability":"view","type":"function"},{"inputs":[],"name":"minTokenAmountForVoting","outputs":[{"internalType":"uint256","name":"","type":"uint256"}],"stateMutability":"view","type":"function"},{"inputs":[],"name":"name","outputs":[{"internalType":"string","name":"","type":"string"}],"stateMutability":"view","type":"function"},{"inputs":[],"name":"owner","outputs":[{"internalType":"address payable","name":"","type":"address"}],"stateMutability":"view","type":"function"},{"inputs":[{"internalType":"uint256","name":"","type":"uint256"}],"name":"proposedPrices","outputs":[{"internalType":"uint256","name":"","type":"uint256"}],"stateMutability":"view","type":"function"},{"inputs":[{"internalType":"uint256","name":"tokensToSell","type":"uint256"}],"name":"sell","outputs":[{"internalType":"bool","name":"","type":"bool"}],"stateMutability":"nonpayable","type":"function"},{"inputs":[{"internalType":"uint256","name":"_newFeePercent","type":"uint256"}],"name":"setFeePercent","outputs":[],"stateMutability":"nonpayable","type":"function"},{"inputs":[],"name":"startVote","outputs":[],"stateMutability":"nonpayable","type":"function"},{"inputs":[],"name":"symbol","outputs":[{"internalType":"string","name":"","type":"string"}],"stateMutability":"view","type":"function"},{"inputs":[],"name":"timeToVote","outputs":[{"internalType":"uint256","name":"","type":"uint256"}],"stateMutability":"view","type":"function"},{"inputs":[],"name":"tokenPrice","outputs":[{"internalType":"uint256","name":"","type":"uint256"}],"stateMutability":"view","type":"function"},{"inputs":[{"internalType":"uint256","name":"_price","type":"uint256"}],"name":"totalOfPrice","outputs":[{"internalType":"uint256","name":"","type":"uint256"}],"stateMutability":"view","type":"function"},{"inputs":[],"name":"totalSupply","outputs":[{"internalType":"uint256","name":"","type":"uint256"}],"stateMutability":"view","type":"function"},{"inputs":[],"name":"totalTokenSupply","outputs":[{"internalType":"uint256","name":"","type":"uint256"}],"stateMutability":"view","type":"function"},{"inputs":[{"internalType":"address","name":"_to","type":"address"},{"internalType":"uint256","name":"_amount","type":"uint256"}],"name":"transfer","outputs":[{"internalType":"bool","name":"","type":"bool"}],"stateMutability":"nonpayable","type":"function"},{"inputs":[{"internalType":"address","name":"_from","type":"address"},{"internalType":"address","name":"_to","type":"address"},{"internalType":"uint256","name":"_amount","type":"uint256"}],"name":"transferFrom","outputs":[{"internalType":"bool","name":"","type":"bool"}],"stateMutability":"nonpayable","type":"function"},{"inputs":[{"internalType":"uint256","name":"_proposedPrice","type":"uint256"}],"name":"vote","outputs":[],"stateMutability":"nonpayable","type":"function"},{"inputs":[],"name":"voteCountdown","outputs":[{"internalType":"uint256","name":"","type":"uint256"}],"stateMutability":"view","type":"function"},{"inputs":[],"name":"winningPrice","outputs":[{"internalType":"uint256","name":"","type":"uint256"}],"stateMutability":"view","type":"function"}],"evm":{"bytecode":{"linkReferences":{},"object":"60806040526000600260006101000a81548160ff021916908315150217905550601260016200002f91906200051d565b6008556000600c553480156200004457600080fd5b5060405162004a4d38038062004a4d83398181016040528101906200006a919062000363565b620000866702852ff1431e3bd460c01b6200022760201b60201c565b620000a267ccd92715247b42ce60c01b6200022760201b60201c565b8560009080519060200190620000ba9291906200022a565b50620000d767738dd2934fedc37260c01b6200022760201b60201c565b8460019080519060200190620000ef9291906200022a565b506200010c67611062c4cc1080e860c01b6200022760201b60201c565b836005819055506200012f67cdd6c07e5f0f5fc860c01b6200022760201b60201c565b826003819055506200015267cea804e82882f1e260c01b6200022760201b60201c565b33600760006101000a81548173ffffffffffffffffffffffffffffffffffffffff021916908373ffffffffffffffffffffffffffffffffffffffff160217905550620001af67b4b50d2f4772653360c01b6200022760201b60201c565b81600a81905550620001d267a7fc59f438f7589b60c01b6200022760201b60201c565b6127106005600354620001e691906200065a565b620001f291906200048a565b6009819055506200021467ac633df9295ac48d60c01b6200022760201b60201c565b8060068190555050505050505062000868565b50565b828054620002389062000708565b90600052602060002090601f0160209004810192826200025c5760008555620002a8565b82601f106200027757805160ff1916838001178555620002a8565b82800160010185558215620002a8579182015b82811115620002a75782518255916020019190600101906200028a565b5b509050620002b79190620002bb565b5090565b5b80821115620002d6576000816000905550600101620002bc565b5090565b6000620002f1620002eb8462000454565b6200042b565b9050828152602081018484840111156200030a57600080fd5b62000317848285620006d2565b509392505050565b600082601f8301126200033157600080fd5b815162000343848260208601620002da565b91505092915050565b6000815190506200035d816200084e565b92915050565b60008060008060008060c087890312156200037d57600080fd5b600087015167ffffffffffffffff8111156200039857600080fd5b620003a689828a016200031f565b965050602087015167ffffffffffffffff811115620003c457600080fd5b620003d289828a016200031f565b9550506040620003e589828a016200034c565b9450506060620003f889828a016200034c565b93505060806200040b89828a016200034c565b92505060a06200041e89828a016200034c565b9150509295509295509295565b6000620004376200044a565b90506200044582826200073e565b919050565b6000604051905090565b600067ffffffffffffffff82111562000472576200047162000801565b5b6200047d8262000830565b9050602081019050919050565b60006200049782620006bb565b9150620004a483620006bb565b925082620004b757620004b6620007a3565b5b828204905092915050565b6000808291508390505b60018511156200051457808604811115620004ec57620004eb62000774565b5b6001851615620004fc5780820291505b80810290506200050c8562000841565b9450620004cc565b94509492505050565b60006200052a82620006bb565b91506200053783620006c5565b9250620005667fffffffffffffffffffffffffffffffffffffffffffffffffffffffffffffffff84846200056e565b905092915050565b60008262000580576001905062000653565b8162000590576000905062000653565b8160018114620005a95760028114620005b457620005ea565b600191505062000653565b60ff841115620005c957620005c862000774565b5b8360020a915084821115620005e357620005e262000774565b5b5062000653565b5060208310610133831016604e8410600b8410161715620006245782820a9050838111156200061e576200061d62000774565b5b62000653565b620006338484846001620004c2565b925090508184048111156200064d576200064c62000774565b5b81810290505b9392505050565b60006200066782620006bb565b91506200067483620006bb565b9250817fffffffffffffffffffffffffffffffffffffffffffffffffffffffffffffffff0483118215151615620006b057620006af62000774565b5b828202905092915050565b6000819050919050565b600060ff82169050919050565b60005b83811015620006f2578082015181840152602081019050620006d5565b8381111562000702576000848401525b50505050565b600060028204905060018216806200072157607f821691505b60208210811415620007385762000737620007d2565b5b50919050565b620007498262000830565b810181811067ffffffffffffffff821117156200076b576200076a62000801565b5b80604052505050565b7f4e487b7100000000000000000000000000000000000000000000000000000000600052601160045260246000fd5b7f4e487b7100000000000000000000000000000000000000000000000000000000600052601260045260246000fd5b7f4e487b7100000000000000000000000000000000000000000000000000000000600052602260045260246000fd5b7f4e487b7100000000000000000000000000000000000000000000000000000000600052604160045260246000fd5b6000601f19601f8301169050919050565b60008160011c9050919050565b6200085981620006bb565b81146200086557600080fd5b50565b6141d580620008786000396000f3fe6080604052600436106101d85760003560e01c80637ff9b59611610102578063a9059cbb11610095578063c745907a11610064578063c745907a14610685578063cc0f1786146106c2578063dd62ed3e146106ed578063e4849b321461072a576101d8565b8063a9059cbb146105db578063ace682ba14610618578063b922394614610643578063c1f526041461065a576101d8565b8063945837e2116100d1578063945837e21461052a57806395d89b41146105555780639a57c2fc14610580578063a6f2ae3a146105bd576101d8565b80637ff9b5961461047e57806388edb929146104a95780638da5cb5b146104d45780639100b5dd146104ff576101d8565b8063313ce5671161017a57806359d634b01161014957806359d634b0146103c457806370a08231146103ed5780637ce3489b1461042a5780637fd6f15c14610453576101d8565b8063313ce5671461032c5780634693d70b146103575780634c0a6af01461038257806350f7c20414610399576101d8565b806318160ddd116101b657806318160ddd1461026e5780631bbef399146102995780631ca8b6cb146102c457806323b872dd146102ef576101d8565b80630121b93f146101dd57806306fdde0314610206578063095ea7b314610231575b600080fd5b3480156101e957600080fd5b5061020460048036038101906101ff919061345a565b610767565b005b34801561021257600080fd5b5061021b610cc0565b6040516102289190613806565b60405180910390f35b34801561023d57600080fd5b506102586004803603810190610253919061341e565b610d4e565b60405161026591906137eb565b60405180910390f35b34801561027a57600080fd5b50610283610eb8565b6040516102909190613a83565b60405180910390f35b3480156102a557600080fd5b506102ae610efe565b6040516102bb91906137eb565b60405180910390f35b3480156102d057600080fd5b506102d9610f11565b6040516102e69190613a83565b60405180910390f35b3480156102fb57600080fd5b50610316600480360381019061031191906133cf565b610f17565b60405161032391906137eb565b60405180910390f35b34801561033857600080fd5b50610341611170565b60405161034e9190613a9e565b60405180910390f35b34801561036357600080fd5b5061036c611175565b6040516103799190613a83565b60405180910390f35b34801561038e57600080fd5b5061039761117b565b005b3480156103a557600080fd5b506103ae6113e9565b6040516103bb9190613a83565b60405180910390f35b3480156103d057600080fd5b506103eb60048036038101906103e6919061345a565b6113ef565b005b3480156103f957600080fd5b50610414600480360381019061040f919061336a565b611998565b6040516104219190613a83565b60405180910390f35b34801561043657600080fd5b50610451600480360381019061044c919061345a565b611a1d565b005b34801561045f57600080fd5b50610468611c17565b6040516104759190613a83565b60405180910390f35b34801561048a57600080fd5b50610493611c1d565b6040516104a09190613a83565b60405180910390f35b3480156104b557600080fd5b506104be611c23565b6040516104cb9190613a83565b60405180910390f35b3480156104e057600080fd5b506104e9611c29565b6040516104f691906137d0565b60405180910390f35b34801561050b57600080fd5b50610514611c4f565b6040516105219190613a83565b60405180910390f35b34801561053657600080fd5b5061053f611c55565b60405161054c9190613a83565b60405180910390f35b34801561056157600080fd5b5061056a611c5b565b6040516105779190613806565b60405180910390f35b34801561058c57600080fd5b506105a760048036038101906105a2919061345a565b611ce9565b6040516105b49190613a83565b60405180910390f35b6105c5611d0d565b6040516105d291906137eb565b60405180910390f35b3480156105e757600080fd5b5061060260048036038101906105fd919061341e565b6120ea565b60405161060f91906137eb565b60405180910390f35b34801561062457600080fd5b5061062d612165565b60405161063a9190613a83565b60405180910390f35b34801561064f57600080fd5b5061065861216b565b005b34801561066657600080fd5b5061066f612598565b60405161067c9190613a83565b60405180910390f35b34801561069157600080fd5b506106ac60048036038101906106a7919061345a565b61259e565b6040516106b99190613a83565b60405180910390f35b3480156106ce57600080fd5b506106d76125f7565b6040516106e49190613a68565b60405180910390f35b3480156106f957600080fd5b50610714600480360381019061070f9190613393565b6125fd565b6040516107219190613a83565b60405180910390f35b34801561073657600080fd5b50610751600480360381019061074c919061345a565b6126c0565b60405161075e91906137eb565b60405180910390f35b61077b671d3e399a7a9bcac160c01b612a48565b61078f673ea4377272e64e3860c01b612a48565b6107a3670e5d85a142783a9e60c01b612a48565b6107b76716b626f5f059880460c01b612a48565b6107cb67fe8a12d77d8e522f60c01b612a48565b600b54421115610810576040517f08c379a000000000000000000000000000000000000000000000000000000000815260040161080790613a48565b60405180910390fd5b610824674099d406890003ea60c01b612a48565b610838678d8e7d0d918a1ee460c01b612a48565b61084c679fd4beb0fd3b7a7a60c01b612a48565b610860673b4db6f9c28f1f7460c01b612a48565b6000601060003373ffffffffffffffffffffffffffffffffffffffff1673ffffffffffffffffffffffffffffffffffffffff168152602001908152602001600020600001541480156108f65750600c54601060003373ffffffffffffffffffffffffffffffffffffffff1673ffffffffffffffffffffffffffffffffffffffff1681526020019081526020016000206001015414155b610935576040517f08c379a000000000000000000000000000000000000000000000000000000000815260040161092c90613988565b60405180910390fd5b6109496759a16d8ed131be8c60c01b612a48565b61095d677e2db054f319c3ad60c01b612a48565b61097167c1ca41abfc90305760c01b612a48565b610985678c02b0dd87ae262b60c01b612a48565b61099967b62b98081903216d60c01b612a48565b6109ad679aaae741f7b2d6b860c01b612a48565b6109c16744673d44be37494a60c01b612a48565b6000600f6000838152602001908152602001600020541415610a18576040517f08c379a0000000000000000000000000000000000000000000000000000000008152600401610a0f906138c8565b60405180910390fd5b610a2c6783fad071562b4a1660c01b612a48565b610a4067496048afe1a94a7b60c01b612a48565b610a54678ab3034a8efde82560c01b612a48565b610a6867421d3d4eacbe6bd460c01b612a48565b600854600d60003373ffffffffffffffffffffffffffffffffffffffff1673ffffffffffffffffffffffffffffffffffffffff168152602001908152602001600020541015610aec576040517f08c379a0000000000000000000000000000000000000000000000000000000008152600401610ae390613a08565b60405180910390fd5b610b006730a5f92359ee8ec660c01b612a48565b610b14674228b471d2575cdc60c01b612a48565b6040518060400160405280828152602001600c54815250601060003373ffffffffffffffffffffffffffffffffffffffff1673ffffffffffffffffffffffffffffffffffffffff1681526020019081526020016000206000820151816000015560208201518160010155905050610b9567f120a7fc164e74c860c01b612a48565b3073ffffffffffffffffffffffffffffffffffffffff166370a08231336040518263ffffffff1660e01b8152600401610bce91906137b5565b60206040518083038186803b158015610be657600080fd5b505afa158015610bfa573d6000803e3d6000fd5b505050506040513d601f19601f82011682018060405250810190610c1e9190613483565b600f60008381526020019081526020016000206000828254610c409190613ad5565b92505081905550610c5b67ea5476d6eadf899060c01b612a48565b610c6f67e2219f198d9787cb60c01b612a48565b3373ffffffffffffffffffffffffffffffffffffffff167f4d99b957a2bc29a30ebd96a7be8e68fe50a3c701db28a91436490b7d53870ca482604051610cb59190613a83565b60405180910390a250565b60008054610ccd90613c92565b80601f0160208091040260200160405190810160405280929190818152602001828054610cf990613c92565b8015610d465780601f10610d1b57610100808354040283529160200191610d46565b820191906000526020600020905b815481529060010190602001808311610d2957829003601f168201915b505050505081565b6000610d6467308ef5e8c0cca15f60c01b612a48565b610d78675a8cf6e7d27b96d060c01b612a48565b81600e60003373ffffffffffffffffffffffffffffffffffffffff1673ffffffffffffffffffffffffffffffffffffffff16815260200190815260200160002060008573ffffffffffffffffffffffffffffffffffffffff1673ffffffffffffffffffffffffffffffffffffffff16815260200190815260200160002081905550610e0d678e3169d712c03a7960c01b612a48565b610e2167094dd58fdc75217c60c01b612a48565b8273ffffffffffffffffffffffffffffffffffffffff163373ffffffffffffffffffffffffffffffffffffffff167f8c5be1e5ebec7d5bd14f71427d1e84f3dd0314c0f7b2291e5b200ac8c7c3b92584604051610e7e9190613a83565b60405180910390a3610e9a67e70b61b9dcb3fe6d60c01b612a48565b610eae670ff05b38d5d80f9c60c01b612a48565b6001905092915050565b6000610ece67d82501f55213c47760c01b612a48565b610ee26797ee502648c1473b60c01b612a48565b610ef6679b553c97653da40060c01b612a48565b600454905090565b600260009054906101000a900460ff1681565b60045481565b6000610f2d670ad08faaaf8a3eed60c01b612a48565b610f4167d561609a9d4b4d9f60c01b612a48565b610f5567b2be2876ec512dd960c01b612a48565b6000600e60008673ffffffffffffffffffffffffffffffffffffffff1673ffffffffffffffffffffffffffffffffffffffff16815260200190815260200160002060003373ffffffffffffffffffffffffffffffffffffffff1673ffffffffffffffffffffffffffffffffffffffff168152602001908152602001600020549050610fea6742fbc330f5ea473660c01b612a48565b610ffe676fb8ecf168cb871760c01b612a48565b611012677ffb082b76f4711d60c01b612a48565b82811015611055576040517f08c379a000000000000000000000000000000000000000000000000000000000815260040161104c906138a8565b60405180910390fd5b61106967a9bf660929b2f97a60c01b612a48565b61107d671600dbf95597b27160c01b612a48565b61109167474d0a8ded809f2d60c01b612a48565b61109c858585612a4b565b6110b067e81f95762d4af3e660c01b612a48565b82816110bc9190613bb6565b600e60008773ffffffffffffffffffffffffffffffffffffffff1673ffffffffffffffffffffffffffffffffffffffff16815260200190815260200160002060003373ffffffffffffffffffffffffffffffffffffffff1673ffffffffffffffffffffffffffffffffffffffff1681526020019081526020016000208190555061115067e30cb288a07100f460c01b612a48565b61116467b0e041ab1fe750ee60c01b612a48565b60019150509392505050565b601281565b600b5481565b61118f6799942fcc55c3176b60c01b612a48565b6111a367bba727c16145f3c960c01b612a48565b6111b7678392d1c2757fd97e60c01b612a48565b6111cb67969c0d0debcaac3c60c01b612a48565b600260009054906101000a900460ff161561121b576040517f08c379a000000000000000000000000000000000000000000000000000000000815260040161121290613888565b60405180910390fd5b61122f67adcaaa58d091c53560c01b612a48565b611243674cd2193706b4abe960c01b612a48565b61125767b4e846824e9890d860c01b612a48565b61126b67811ec91b24d2803960c01b612a48565b600954600d60003373ffffffffffffffffffffffffffffffffffffffff1673ffffffffffffffffffffffffffffffffffffffff1681526020019081526020016000205410156112ef576040517f08c379a00000000000000000000000000000000000000000000000000000000081526004016112e6906139c8565b60405180910390fd5b61130367bee0c6bda57d009d60c01b612a48565b6113176799216e4c092fbbb160c01b612a48565b6001600260006101000a81548160ff02191690831515021790555061134667856be77b59febce860c01b612a48565b600a54426113549190613ad5565b600b8190555061136e67e502a2be4ec1923a60c01b612a48565b600c600081548092919061138190613cc4565b919050555061139a675ed2e8ab3387ae7a60c01b612a48565b6113ae678abdab8cb6caebfb60c01b612a48565b7fa80808a30283fc2c95db95a081ef4462dd38bb7854e6569e34c0b501eed90f4e600b546040516113df9190613a83565b60405180910390a1565b60035481565b61140367ce427294bd4defa160c01b612a48565b611417673ea4377272e64e3860c01b612a48565b61142b670e5d85a142783a9e60c01b612a48565b61143f6716b626f5f059880460c01b612a48565b61145367fe8a12d77d8e522f60c01b612a48565b600b54421115611498576040517f08c379a000000000000000000000000000000000000000000000000000000000815260040161148f90613a48565b60405180910390fd5b6114ac674099d406890003ea60c01b612a48565b6114c0678d8e7d0d918a1ee460c01b612a48565b6114d4679fd4beb0fd3b7a7a60c01b612a48565b6114e8673b4db6f9c28f1f7460c01b612a48565b6000601060003373ffffffffffffffffffffffffffffffffffffffff1673ffffffffffffffffffffffffffffffffffffffff1681526020019081526020016000206000015414801561157e5750600c54601060003373ffffffffffffffffffffffffffffffffffffffff1673ffffffffffffffffffffffffffffffffffffffff1681526020019081526020016000206001015414155b6115bd576040517f08c379a00000000000000000000000000000000000000000000000000000000081526004016115b490613988565b60405180910390fd5b6115d16759a16d8ed131be8c60c01b612a48565b6115e5677e2db054f319c3ad60c01b612a48565b6115f96707d450f15e3624ee60c01b612a48565b61160d678e9ada0550cd526560c01b612a48565b61162167e5bc7a281ca3aeea60c01b612a48565b611635675963b1bb5a3b0e4560c01b612a48565b61164967760dde685c195b6660c01b612a48565b6000600f6000838152602001908152602001600020541461169f576040517f08c379a000000000000000000000000000000000000000000000000000000000815260040161169690613908565b60405180910390fd5b6116b36710e568b871dfcb9a60c01b612a48565b6116c76726e7eefad82d4a4f60c01b612a48565b6116db67878cf20e42a4b39760c01b612a48565b6116ef676a0e826e33e67eb860c01b612a48565b600954600d60003373ffffffffffffffffffffffffffffffffffffffff1673ffffffffffffffffffffffffffffffffffffffff168152602001908152602001600020541015611773576040517f08c379a000000000000000000000000000000000000000000000000000000000815260040161176a90613848565b60405180910390fd5b611787675fade33559cc495f60c01b612a48565b61179b67310054c2978e3c1360c01b612a48565b3073ffffffffffffffffffffffffffffffffffffffff166370a08231336040518263ffffffff1660e01b81526004016117d491906137b5565b60206040518083038186803b1580156117ec57600080fd5b505afa158015611800573d6000803e3d6000fd5b505050506040513d601f19601f820116820180604052508101906118249190613483565b600f600083815260200190815260200160002060008282546118469190613ad5565b92505081905550611861678e2bf9fdf2bf41fd60c01b612a48565b6040518060400160405280828152602001600c54815250601060003373ffffffffffffffffffffffffffffffffffffffff1673ffffffffffffffffffffffffffffffffffffffff16815260200190815260200160002060008201518160000155602082015181600101559050506118e267decd9869a1fdb7c660c01b612a48565b6118f6677c7dcb6c01fb968d60c01b612a48565b601181908060018154018082558091505060019003906000526020600020016000909190919091505561193367fab3a7640e3b08b260c01b612a48565b61194767adcbcb8a63af591a60c01b612a48565b3373ffffffffffffffffffffffffffffffffffffffff167f4d99b957a2bc29a30ebd96a7be8e68fe50a3c701db28a91436490b7d53870ca48260405161198d9190613a83565b60405180910390a250565b60006119ae671f392253fa0d6d7e60c01b612a48565b6119c267e87133918bbe7a1a60c01b612a48565b6119d667147b46dcf01f13f660c01b612a48565b600d60008373ffffffffffffffffffffffffffffffffffffffff1673ffffffffffffffffffffffffffffffffffffffff168152602001908152602001600020549050919050565b611a3167324580bd7cb5373f60c01b612a48565b611a45678968a55192afebf260c01b612a48565b611a5967c682429ad30395e260c01b612a48565b611a6d67d4eb27a49f0ffb8960c01b612a48565b611a816728c06523e28af14060c01b612a48565b600760009054906101000a900473ffffffffffffffffffffffffffffffffffffffff1673ffffffffffffffffffffffffffffffffffffffff163373ffffffffffffffffffffffffffffffffffffffff1614611b11576040517f08c379a0000000000000000000000000000000000000000000000000000000008152600401611b0890613868565b60405180910390fd5b611b256709431577e414532960c01b612a48565b611b3967b3e8db5699fb815f60c01b612a48565b611b4d6728dfd0cd61f5690c60c01b612a48565b611b61674bbe44252de580fe60c01b612a48565b611b756722d8ab05a1eb32f560c01b612a48565b611b896775da303a202f805e60c01b612a48565b611b9d678df656c51bea97fc60c01b612a48565b61271061ffff168110611be5576040517f08c379a0000000000000000000000000000000000000000000000000000000008152600401611bdc906139e8565b60405180910390fd5b611bf9675bf270ebcee3463960c01b612a48565b611c0d6782bd8194ad583cc460c01b612a48565b8060068190555050565b60065481565b60055481565b60095481565b600760009054906101000a900473ffffffffffffffffffffffffffffffffffffffff1681565b600c5481565b600a5481565b60018054611c6890613c92565b80601f0160208091040260200160405190810160405280929190818152602001828054611c9490613c92565b8015611ce15780601f10611cb657610100808354040283529160200191611ce1565b820191906000526020600020905b815481529060010190602001808311611cc457829003601f168201915b505050505081565b60118181548110611cf957600080fd5b906000526020600020016000915090505481565b6000611d23679aa244befa95db8360c01b612a48565b611d37672fc8cfe43d817d1660c01b612a48565b611d4b67d2e51dd36e3b9d8160c01b612a48565b611d5f67a6dd19242279ae1a60c01b612a48565b60003411611da2576040517f08c379a0000000000000000000000000000000000000000000000000000000008152600401611d99906139a8565b60405180910390fd5b611db667afde67001bec8c9d60c01b612a48565b611dca67b9f9367eb7374e7e60c01b612a48565b611dde6781811534212d794560c01b612a48565b600061271061ffff1660065434611df59190613b5c565b611dff9190613b2b565b9050611e1567e0e6ee76e12f06dc60c01b612a48565b611e2967e1d093001fd1fbce60c01b612a48565b60008134611e379190613bb6565b9050611e4d674e428f12336082ed60c01b612a48565b611e6167017fb0337759165a60c01b612a48565b600060055482611e719190613b2b565b9050611e876723bb0176d756606760c01b612a48565b611e9b67e79fad2fc61fc90d60c01b612a48565b611eaf67a1042eed733da41a60c01b612a48565b600454600354611ebf9190613bb6565b811115611f01576040517f08c379a0000000000000000000000000000000000000000000000000000000008152600401611ef8906138e8565b60405180910390fd5b611f15679058c1b2d4044c1060c01b612a48565b611f2967aa7ecbc20ffb4f3260c01b612a48565b611f3d67e731ae2e5011f4a260c01b612a48565b611f473382612e49565b611f5b67e590e0ce11142f4460c01b612a48565b611f6f678691da72642e4fcf60c01b612a48565b6000601060003373ffffffffffffffffffffffffffffffffffffffff1673ffffffffffffffffffffffffffffffffffffffff16815260200190815260200160002060000154141580156120055750600c54601060003373ffffffffffffffffffffffffffffffffffffffff1673ffffffffffffffffffffffffffffffffffffffff16815260200190815260200160002060010154145b156120a35761201e67164f71a5828543eb60c01b612a48565b61203267bb4b38cb7acc03f060c01b612a48565b80600f6000601060003373ffffffffffffffffffffffffffffffffffffffff1673ffffffffffffffffffffffffffffffffffffffff16815260200190815260200160002060000154815260200190815260200160002060008282546120979190613ad5565b925050819055506120b8565b6120b767540876fc21aeb93860c01b612a48565b5b6120cc67dd94bc5339a6a7c160c01b612a48565b6120e067af5c0a17bd41b75260c01b612a48565b6001935050505090565b60006121006776b1c4876c36495860c01b612a48565b61211467e222961f050cfcc760c01b612a48565b6121286759aa5ccc38efa84b60c01b612a48565b612133338484612a4b565b61214767063ae3c9babf405560c01b612a48565b61215b6799d2cb7cd0175bd060c01b612a48565b6001905092915050565b60085481565b61217f67c4164f4e263e900d60c01b612a48565b61219367736a9f065b3584b760c01b612a48565b6121a767e665bd0c20554d5e60c01b612a48565b6121bb6778952de8f57d4e0560c01b612a48565b600b5442116121ff576040517f08c379a00000000000000000000000000000000000000000000000000000000081526004016121f690613928565b60405180910390fd5b6122136767dd0836c61ea7e560c01b612a48565b6122276732eb9877fac9beef60c01b612a48565b61223b670e9f1f36a32113a860c01b612a48565b600061225167253bfb433afe922b60c01b612a48565b61226567fc28e274756cff3760c01b612a48565b600061227b676330543d44d657a360c01b612a48565b61228f67814dfdf2f417438a60c01b612a48565b60006122a56796cad21d2ccd3e4e60c01b612a48565b6122b9673dae592aee34a96660c01b612a48565b60005b601180549050811015612489576122dd675b77a1fa586fd05460c01b612a48565b600f60006011838154811061231b577f4e487b7100000000000000000000000000000000000000000000000000000000600052603260045260246000fd5b9060005260206000200154815260200190815260200160002054925061234b67f3d5070aa373792760c01b612a48565b61235f67963f45cdeca795df60c01b612a48565b838311156123f25761237b6726d2749f0cd4edc560c01b612a48565b61238f677ffcd818840ba21e60c01b612a48565b8293506123a667be5fc42c1de485e260c01b612a48565b601181815481106123e0577f4e487b7100000000000000000000000000000000000000000000000000000000600052603260045260246000fd5b90600052602060002001549150612407565b612406671b061a6ec4b55c2a60c01b612a48565b5b61241b67a0531e81ccc1896a60c01b612a48565b600f600060118381548110612459577f4e487b7100000000000000000000000000000000000000000000000000000000600052603260045260246000fd5b9060005260206000200154815260200190815260200160002060009055808061248190613cc4565b9150506122bc565b5061249e679b1267dacdb40f9f60c01b612a48565b6124b2674a2ceb25513120b960c01b612a48565b6000831461257e576124ce672e47b39672fbd09d60c01b612a48565b6124e267407deee55096f06460c01b612a48565b806005819055506124fd672149cfaf2b23176460c01b612a48565b6000600260006101000a81548160ff02191690831515021790555061252c67360bb9a65f5ba7a560c01b612a48565b61254067fc7fd083eeb783e460c01b612a48565b7fa6dc15bdb68da224c66db4b3838d9a2b205138e8cff6774e57d0af91e196d6226005546040516125719190613a83565b60405180910390a1612593565b612592675499b2bf8e0a0b6560c01b612a48565b5b505050565b60125481565b60006125b467b32a8b605b52836d60c01b612a48565b6125c8672380f5596e85b6f060c01b612a48565b6125dc67352a02e3fd67c9d060c01b612a48565b600f6000838152602001908152602001600020549050919050565b61271081565b600061261367cb45446ca6f5c4a660c01b612a48565b61262767a3c64f05fb99b94060c01b612a48565b61263b672e3198d6b16bcf8060c01b612a48565b600e60008473ffffffffffffffffffffffffffffffffffffffff1673ffffffffffffffffffffffffffffffffffffffff16815260200190815260200160002060008373ffffffffffffffffffffffffffffffffffffffff1673ffffffffffffffffffffffffffffffffffffffff16815260200190815260200160002054905092915050565b60006126d66728f309fa92f6dd4860c01b612a48565b6126ea6737cd1e277df8fee960c01b612a48565b6126fe67ccbe9da2edbf7ba260c01b612a48565b61271267febe3a267145700360c01b612a48565b813073ffffffffffffffffffffffffffffffffffffffff166370a08231336040518263ffffffff1660e01b815260040161274c91906137b5565b60206040518083038186803b15801561276457600080fd5b505afa158015612778573d6000803e3d6000fd5b505050506040513d601f19601f8201168201806040525081019061279c9190613483565b10156127dd576040517f08c379a00000000000000000000000000000000000000000000000000000000081526004016127d490613a28565b60405180910390fd5b6127f167b732e79a5912ce2a60c01b612a48565b6128056744d2f83cad29235a60c01b612a48565b612819677cddf9c5e0cce2c160c01b612a48565b6000600554836128299190613b5c565b905061283f67f2d526dbbffe7e6460c01b612a48565b61285367011c8b6f61e59dc260c01b612a48565b600061271061ffff166006548361286a9190613b5c565b6128749190613b2b565b905061288a67a48e7aaf8fe5dd0460c01b612a48565b61289e678bc2669907cea1fa60c01b612a48565b600081836128ac9190613bb6565b90506128c2676a767099a6bd979c60c01b612a48565b6128d667664677dd97f2c72f60c01b612a48565b6128ea674cf9ba19cd59c65360c01b612a48565b8047101561292d576040517f08c379a000000000000000000000000000000000000000000000000000000000815260040161292490613948565b60405180910390fd5b61294167214354b6e3a4488760c01b612a48565b61295567fa38f028781d948960c01b612a48565b612969678ca3af12cd6ad5f660c01b612a48565b6129733386612ef8565b612987677fe35147b69a7fa860c01b612a48565b61299b6763364121a6e519c960c01b612a48565b6129a53386612fa7565b6129b967df4ad59f19658d8960c01b612a48565b6129cd67f5c2dbff26a016bb60c01b612a48565b3373ffffffffffffffffffffffffffffffffffffffff166108fc829081150290604051600060405180830381858888f19350505050158015612a13573d6000803e3d6000fd5b50612a2867f643664ad317f9f960c01b612a48565b612a3c671c08dd8bcbe486f660c01b612a48565b60019350505050919050565b50565b612a5f677a4b28ca48d73d1360c01b612a48565b612a736780f869844c67ff6660c01b612a48565b612a8767ef407c8c86e5eb5560c01b612a48565b612a9b676637f2a99671415160c01b612a48565b600073ffffffffffffffffffffffffffffffffffffffff168373ffffffffffffffffffffffffffffffffffffffff161415612b0b576040517f08c379a0000000000000000000000000000000000000000000000000000000008152600401612b0290613828565b60405180910390fd5b612b1f67433161e97515cdae60c01b612a48565b612b33675a1724419c9ed29160c01b612a48565b612b4767a27339d023a2bfb060c01b612a48565b612b5b674d63bfc7f1f237ca60c01b612a48565b600073ffffffffffffffffffffffffffffffffffffffff168273ffffffffffffffffffffffffffffffffffffffff161415612bcb576040517f08c379a0000000000000000000000000000000000000000000000000000000008152600401612bc290613968565b60405180910390fd5b612bdf675dd697bb6b674e7660c01b612a48565b612bf367778030810e77d05560c01b612a48565b612c07671fc0a235ed42748960c01b612a48565b612c1b67a4e130e36633e12160c01b612a48565b80600d60008573ffffffffffffffffffffffffffffffffffffffff1673ffffffffffffffffffffffffffffffffffffffff168152602001908152602001600020541015612c9d576040517f08c379a0000000000000000000000000000000000000000000000000000000008152600401612c9490613a28565b60405180910390fd5b612cb167a6386d884cbeaf0460c01b612a48565b612cc56719d8f9cc5de4d84560c01b612a48565b80600d60008573ffffffffffffffffffffffffffffffffffffffff1673ffffffffffffffffffffffffffffffffffffffff1681526020019081526020016000206000828254612d149190613bb6565b92505081905550612d2f67e3225c26285ebaae60c01b612a48565b80600d60008473ffffffffffffffffffffffffffffffffffffffff1673ffffffffffffffffffffffffffffffffffffffff1681526020019081526020016000206000828254612d7e9190613ad5565b92505081905550612d99679b6caecb766a50ee60c01b612a48565b612dad67ba1cfa8277b1ffe760c01b612a48565b612db78382612fa7565b612dcb67b68139650284e2d960c01b612a48565b612ddf67d20e6d9dec1bac0160c01b612a48565b8173ffffffffffffffffffffffffffffffffffffffff168373ffffffffffffffffffffffffffffffffffffffff167fddf252ad1be2c89b69c2b068fc378daa952ba7f163c4a11628f55a4df523b3ef83604051612e3c9190613a83565b60405180910390a3505050565b612e5d67cc804813e8c0634460c01b612a48565b612e71677f6a0dd747e96bff60c01b612a48565b80600d60008473ffffffffffffffffffffffffffffffffffffffff1673ffffffffffffffffffffffffffffffffffffffff1681526020019081526020016000206000828254612ec09190613ad5565b92505081905550612edb67fc5e2a83a8c7246d60c01b612a48565b8060046000828254612eed9190613ad5565b925050819055505050565b612f0c67736ca0b681179fed60c01b612a48565b612f2067edb8bcf6b8a4fc8860c01b612a48565b80600d60008473ffffffffffffffffffffffffffffffffffffffff1673ffffffffffffffffffffffffffffffffffffffff1681526020019081526020016000206000828254612f6f9190613bb6565b92505081905550612f8a6747785a2e2a48981f60c01b612a48565b8060046000828254612f9c9190613bb6565b925050819055505050565b612fbb671708f50080d47a9060c01b612a48565b612fcf67b0ba241eebdc26c260c01b612a48565b612fe367d05164b4e153148960c01b612a48565b6000601060008473ffffffffffffffffffffffffffffffffffffffff1673ffffffffffffffffffffffffffffffffffffffff16815260200190815260200160002060000154141580156130795750600c54601060008473ffffffffffffffffffffffffffffffffffffffff1673ffffffffffffffffffffffffffffffffffffffff16815260200190815260200160002060010154145b156133125761309267c98ebff512ca898060c01b612a48565b6130a6677d78704ccbb817ec60c01b612a48565b6130ba679a8d615a0431fd5060c01b612a48565b6008543073ffffffffffffffffffffffffffffffffffffffff166370a08231846040518263ffffffff1660e01b81526004016130f691906137b5565b60206040518083038186803b15801561310e57600080fd5b505afa158015613122573d6000803e3d6000fd5b505050506040513d601f19601f820116820180604052508101906131469190613483565b10156132785761316067ab002e1c09b512fe60c01b612a48565b61317467d7559b1283267ef060c01b612a48565b3073ffffffffffffffffffffffffffffffffffffffff166370a08231836040518263ffffffff1660e01b81526004016131ad91906137b5565b60206040518083038186803b1580156131c557600080fd5b505afa1580156131d9573d6000803e3d6000fd5b505050506040513d601f19601f820116820180604052508101906131fd9190613483565b816132089190613ad5565b600f6000601060008673ffffffffffffffffffffffffffffffffffffffff1673ffffffffffffffffffffffffffffffffffffffff168152602001908152602001600020600001548152602001908152602001600020600082825461326c9190613bb6565b9250508190555061330d565b61328c676769acbce19f0e5260c01b612a48565b6132a067c12c81be5cafa4f560c01b612a48565b80600f6000601060008673ffffffffffffffffffffffffffffffffffffffff1673ffffffffffffffffffffffffffffffffffffffff16815260200190815260200160002060000154815260200190815260200160002060008282546133059190613bb6565b925050819055505b613327565b613326676f97559d02ee9b2f60c01b612a48565b5b5050565b60008135905061333a81614171565b92915050565b60008135905061334f81614188565b92915050565b60008151905061336481614188565b92915050565b60006020828403121561337c57600080fd5b600061338a8482850161332b565b91505092915050565b600080604083850312156133a657600080fd5b60006133b48582860161332b565b92505060206133c58582860161332b565b9150509250929050565b6000806000606084860312156133e457600080fd5b60006133f28682870161332b565b93505060206134038682870161332b565b925050604061341486828701613340565b9150509250925092565b6000806040838503121561343157600080fd5b600061343f8582860161332b565b925050602061345085828601613340565b9150509250929050565b60006020828403121561346c57600080fd5b600061347a84828501613340565b91505092915050565b60006020828403121561349557600080fd5b60006134a384828501613355565b91505092915050565b6134b581613bfc565b82525050565b6134c481613bea565b82525050565b6134d381613c0e565b82525050565b60006134e482613ab9565b6134ee8185613ac4565b93506134fe818560208601613c5f565b61350781613d9a565b840191505092915050565b600061351f602183613ac4565b915061352a82613dab565b604082019050919050565b6000613542602483613ac4565b915061354d82613dfa565b604082019050919050565b6000613565601383613ac4565b915061357082613e49565b602082019050919050565b6000613588601f83613ac4565b915061359382613e72565b602082019050919050565b60006135ab602183613ac4565b91506135b682613e9b565b604082019050919050565b60006135ce601e83613ac4565b91506135d982613eea565b602082019050919050565b60006135f1602083613ac4565b91506135fc82613f13565b602082019050919050565b6000613614603f83613ac4565b915061361f82613f3c565b604082019050919050565b6000613637601683613ac4565b915061364282613f8b565b602082019050919050565b600061365a602983613ac4565b915061366582613fb4565b604082019050919050565b600061367d601f83613ac4565b915061368882614003565b602082019050919050565b60006136a0601283613ac4565b91506136ab8261402c565b602082019050919050565b60006136c3601e83613ac4565b91506136ce82614055565b602082019050919050565b60006136e6602683613ac4565b91506136f18261407e565b604082019050919050565b6000613709601e83613ac4565b9150613714826140cd565b602082019050919050565b600061372c601c83613ac4565b9150613737826140f6565b602082019050919050565b600061374f601183613ac4565b915061375a8261411f565b602082019050919050565b6000613772601383613ac4565b915061377d82614148565b602082019050919050565b61379181613c1a565b82525050565b6137a081613c48565b82525050565b6137af81613c52565b82525050565b60006020820190506137ca60008301846134bb565b92915050565b60006020820190506137e560008301846134ac565b92915050565b600060208201905061380060008301846134ca565b92915050565b6000602082019050818103600083015261382081846134d9565b905092915050565b6000602082019050818103600083015261384181613512565b9050919050565b6000602082019050818103600083015261386181613535565b9050919050565b6000602082019050818103600083015261388181613558565b9050919050565b600060208201905081810360008301526138a18161357b565b9050919050565b600060208201905081810360008301526138c18161359e565b9050919050565b600060208201905081810360008301526138e1816135c1565b9050919050565b60006020820190508181036000830152613901816135e4565b9050919050565b6000602082019050818103600083015261392181613607565b9050919050565b600060208201905081810360008301526139418161362a565b9050919050565b600060208201905081810360008301526139618161364d565b9050919050565b6000602082019050818103600083015261398181613670565b9050919050565b600060208201905081810360008301526139a181613693565b9050919050565b600060208201905081810360008301526139c1816136b6565b9050919050565b600060208201905081810360008301526139e1816136d9565b9050919050565b60006020820190508181036000830152613a01816136fc565b9050919050565b60006020820190508181036000830152613a218161371f565b9050919050565b60006020820190508181036000830152613a4181613742565b9050919050565b60006020820190508181036000830152613a6181613765565b9050919050565b6000602082019050613a7d6000830184613788565b92915050565b6000602082019050613a986000830184613797565b92915050565b6000602082019050613ab360008301846137a6565b92915050565b600081519050919050565b600082825260208201905092915050565b6000613ae082613c48565b9150613aeb83613c48565b9250827fffffffffffffffffffffffffffffffffffffffffffffffffffffffffffffffff03821115613b2057613b1f613d0d565b5b828201905092915050565b6000613b3682613c48565b9150613b4183613c48565b925082613b5157613b50613d3c565b5b828204905092915050565b6000613b6782613c48565b9150613b7283613c48565b9250817fffffffffffffffffffffffffffffffffffffffffffffffffffffffffffffffff0483118215151615613bab57613baa613d0d565b5b828202905092915050565b6000613bc182613c48565b9150613bcc83613c48565b925082821015613bdf57613bde613d0d565b5b828203905092915050565b6000613bf582613c28565b9050919050565b6000613c0782613c28565b9050919050565b60008115159050919050565b600061ffff82169050919050565b600073ffffffffffffffffffffffffffffffffffffffff82169050919050565b6000819050919050565b600060ff82169050919050565b60005b83811015613c7d578082015181840152602081019050613c62565b83811115613c8c576000848401525b50505050565b60006002820490506001821680613caa57607f821691505b60208210811415613cbe57613cbd613d6b565b5b50919050565b6000613ccf82613c48565b91507fffffffffffffffffffffffffffffffffffffffffffffffffffffffffffffffff821415613d0257613d01613d0d565b5b600182019050919050565b7f4e487b7100000000000000000000000000000000000000000000000000000000600052601160045260246000fd5b7f4e487b7100000000000000000000000000000000000000000000000000000000600052601260045260246000fd5b7f4e487b7100000000000000000000000000000000000000000000000000000000600052602260045260246000fd5b6000601f19601f8301169050919050565b7f43616e6e6f74207472616e736665722066726f6d207a65726f2061646472657360008201527f7300000000000000000000000000000000000000000000000000000000000000602082015250565b7f4e6f7420656e6f75676820746f6b656e7320666f722061646420766f7465207060008201527f7269636500000000000000000000000000000000000000000000000000000000602082015250565b7f43616c6c6572206973206e6f74206f776e657200000000000000000000000000600082015250565b7f5072657669757320766f74696e67206973206e6f74206f766572207965742100600082015250565b7f5472616e7366657220616d6f756e74206578636565647320616c6c6f77616e6360008201527f6500000000000000000000000000000000000000000000000000000000000000602082015250565b7f5468657265206973206e6f2073756368207072696365206c6f74207965740000600082015250565b7f4d617820737570706c79206f6620746f6b656e7320697320746f75636865642e600082015250565b7f536f6d656f6e6520616c7265616479206164646564207468617420707269636560008201527f2c20796f752063616e20766f746520666f72207468617420696e737465616400602082015250565b7f566f74696e67206973206e6f74206f7665722079657400000000000000000000600082015250565b7f436f6e747261637420646f65736e2774206861766520656e6f7567682065746860008201527f657220746f207061790000000000000000000000000000000000000000000000602082015250565b7f43616e6e6f74207472616e7366657220746f207a65726f206164647265737300600082015250565b7f596f7520616c726561647920766f746564210000000000000000000000000000600082015250565b7f53656e6420736f6d6520657468657220746f2062757920746f6b656e732e0000600082015250565b7f4e6f7420656e6f75676820746f6b656e7320666f72207374617274696e67206160008201527f20766f7465210000000000000000000000000000000000000000000000000000602082015250565b7f596f752063616e27742073657420666565206f662077686f6c652073756d0000600082015250565b7f4e6f7420656e6f75676820746f6b656e7320666f7220766f74696e6700000000600082015250565b7f4e6f7420656e6f75676820746f6b656e73000000000000000000000000000000600082015250565b7f566f74696e672074696d65206973206f76657200000000000000000000000000600082015250565b61417a81613bea565b811461418557600080fd5b50565b61419181613c48565b811461419c57600080fd5b5056fea2646970667358221220cdb557ab22130ba95a2a46bc3c14c3ee07ac97d2a42a886f4503f3b0f1dedb5664736f6c63430008040033","opcodes":"PUSH1 0x80 PUSH1 0x40 MSTORE PUSH1 0x0 PUSH1 0x2 PUSH1 0x0 PUSH2 0x100 EXP DUP2 SLOAD DUP2 PUSH1 0xFF MUL NOT AND SWAP1 DUP4 ISZERO ISZERO MUL OR SWAP1 SSTORE POP PUSH1 0x12 PUSH1 0x1 PUSH3 0x2F SWAP2 SWAP1 PUSH3 0x51D JUMP JUMPDEST PUSH1 0x8 SSTORE PUSH1 0x0 PUSH1 0xC SSTORE CALLVALUE DUP1 ISZERO PUSH3 0x44 JUMPI PUSH1 0x0 DUP1 REVERT JUMPDEST POP PUSH1 0x40 MLOAD PUSH3 0x4A4D CODESIZE SUB DUP1 PUSH3 0x4A4D DUP4 CODECOPY DUP2 DUP2 ADD PUSH1 0x40 MSTORE DUP2 ADD SWAP1 PUSH3 0x6A SWAP2 SWAP1 PUSH3 0x363 JUMP JUMPDEST PUSH3 0x86 PUSH8 0x2852FF1431E3BD4 PUSH1 0xC0 SHL PUSH3 0x227 PUSH1 0x20 SHL PUSH1 0x20 SHR JUMP JUMPDEST PUSH3 0xA2 PUSH8 0xCCD92715247B42CE PUSH1 0xC0 SHL PUSH3 0x227 PUSH1 0x20 SHL PUSH1 0x20 SHR JUMP JUMPDEST DUP6 PUSH1 0x0 SWAP1 DUP1 MLOAD SWAP1 PUSH1 0x20 ADD SWAP1 PUSH3 0xBA SWAP3 SWAP2 SWAP1 PUSH3 0x22A JUMP JUMPDEST POP PUSH3 0xD7 PUSH8 0x738DD2934FEDC372 PUSH1 0xC0 SHL PUSH3 0x227 PUSH1 0x20 SHL PUSH1 0x20 SHR JUMP JUMPDEST DUP5 PUSH1 0x1 SWAP1 DUP1 MLOAD SWAP1 PUSH1 0x20 ADD SWAP1 PUSH3 0xEF SWAP3 SWAP2 SWAP1 PUSH3 0x22A JUMP JUMPDEST POP PUSH3 0x10C PUSH8 0x611062C4CC1080E8 PUSH1 0xC0 SHL PUSH3 0x227 PUSH1 0x20 SHL PUSH1 0x20 SHR JUMP JUMPDEST DUP4 PUSH1 0x5 DUP2 SWAP1 SSTORE POP PUSH3 0x12F PUSH8 0xCDD6C07E5F0F5FC8 PUSH1 0xC0 SHL PUSH3 0x227 PUSH1 0x20 SHL PUSH1 0x20 SHR JUMP JUMPDEST DUP3 PUSH1 0x3 DUP2 SWAP1 SSTORE POP PUSH3 0x152 PUSH8 0xCEA804E82882F1E2 PUSH1 0xC0 SHL PUSH3 0x227 PUSH1 0x20 SHL PUSH1 0x20 SHR JUMP JUMPDEST CALLER PUSH1 0x7 PUSH1 0x0 PUSH2 0x100 EXP DUP2 SLOAD DUP2 PUSH20 0xFFFFFFFFFFFFFFFFFFFFFFFFFFFFFFFFFFFFFFFF MUL NOT AND SWAP1 DUP4 PUSH20 0xFFFFFFFFFFFFFFFFFFFFFFFFFFFFFFFFFFFFFFFF AND MUL OR SWAP1 SSTORE POP PUSH3 0x1AF PUSH8 0xB4B50D2F47726533 PUSH1 0xC0 SHL PUSH3 0x227 PUSH1 0x20 SHL PUSH1 0x20 SHR JUMP JUMPDEST DUP2 PUSH1 0xA DUP2 SWAP1 SSTORE POP PUSH3 0x1D2 PUSH8 0xA7FC59F438F7589B PUSH1 0xC0 SHL PUSH3 0x227 PUSH1 0x20 SHL PUSH1 0x20 SHR JUMP JUMPDEST PUSH2 0x2710 PUSH1 0x5 PUSH1 0x3 SLOAD PUSH3 0x1E6 SWAP2 SWAP1 PUSH3 0x65A JUMP JUMPDEST PUSH3 0x1F2 SWAP2 SWAP1 PUSH3 0x48A JUMP JUMPDEST PUSH1 0x9 DUP2 SWAP1 SSTORE POP PUSH3 0x214 PUSH8 0xAC633DF9295AC48D PUSH1 0xC0 SHL PUSH3 0x227 PUSH1 0x20 SHL PUSH1 0x20 SHR JUMP JUMPDEST DUP1 PUSH1 0x6 DUP2 SWAP1 SSTORE POP POP POP POP POP POP POP PUSH3 0x868 JUMP JUMPDEST POP JUMP JUMPDEST DUP3 DUP1 SLOAD PUSH3 0x238 SWAP1 PUSH3 0x708 JUMP JUMPDEST SWAP1 PUSH1 0x0 MSTORE PUSH1 0x20 PUSH1 0x0 KECCAK256 SWAP1 PUSH1 0x1F ADD PUSH1 0x20 SWAP1 DIV DUP2 ADD SWAP3 DUP3 PUSH3 0x25C JUMPI PUSH1 0x0 DUP6 SSTORE PUSH3 0x2A8 JUMP JUMPDEST DUP3 PUSH1 0x1F LT PUSH3 0x277 JUMPI DUP1 MLOAD PUSH1 0xFF NOT AND DUP4 DUP1 ADD OR DUP6 SSTORE PUSH3 0x2A8 JUMP JUMPDEST DUP3 DUP1 ADD PUSH1 0x1 ADD DUP6 SSTORE DUP3 ISZERO PUSH3 0x2A8 JUMPI SWAP2 DUP3 ADD JUMPDEST DUP3 DUP2 GT ISZERO PUSH3 0x2A7 JUMPI DUP3 MLOAD DUP3 SSTORE SWAP2 PUSH1 0x20 ADD SWAP2 SWAP1 PUSH1 0x1 ADD SWAP1 PUSH3 0x28A JUMP JUMPDEST JUMPDEST POP SWAP1 POP PUSH3 0x2B7 SWAP2 SWAP1 PUSH3 0x2BB JUMP JUMPDEST POP SWAP1 JUMP JUMPDEST JUMPDEST DUP1 DUP3 GT ISZERO PUSH3 0x2D6 JUMPI PUSH1 0x0 DUP2 PUSH1 0x0 SWAP1 SSTORE POP PUSH1 0x1 ADD PUSH3 0x2BC JUMP JUMPDEST POP SWAP1 JUMP JUMPDEST PUSH1 0x0 PUSH3 0x2F1 PUSH3 0x2EB DUP5 PUSH3 0x454 JUMP JUMPDEST PUSH3 0x42B JUMP JUMPDEST SWAP1 POP DUP3 DUP2 MSTORE PUSH1 0x20 DUP2 ADD DUP5 DUP5 DUP5 ADD GT ISZERO PUSH3 0x30A JUMPI PUSH1 0x0 DUP1 REVERT JUMPDEST PUSH3 0x317 DUP5 DUP3 DUP6 PUSH3 0x6D2 JUMP JUMPDEST POP SWAP4 SWAP3 POP POP POP JUMP JUMPDEST PUSH1 0x0 DUP3 PUSH1 0x1F DUP4 ADD SLT PUSH3 0x331 JUMPI PUSH1 0x0 DUP1 REVERT JUMPDEST DUP2 MLOAD PUSH3 0x343 DUP5 DUP3 PUSH1 0x20 DUP7 ADD PUSH3 0x2DA JUMP JUMPDEST SWAP2 POP POP SWAP3 SWAP2 POP POP JUMP JUMPDEST PUSH1 0x0 DUP2 MLOAD SWAP1 POP PUSH3 0x35D DUP2 PUSH3 0x84E JUMP JUMPDEST SWAP3 SWAP2 POP POP JUMP JUMPDEST PUSH1 0x0 DUP1 PUSH1 0x0 DUP1 PUSH1 0x0 DUP1 PUSH1 0xC0 DUP8 DUP10 SUB SLT ISZERO PUSH3 0x37D JUMPI PUSH1 0x0 DUP1 REVERT JUMPDEST PUSH1 0x0 DUP8 ADD MLOAD PUSH8 0xFFFFFFFFFFFFFFFF DUP2 GT ISZERO PUSH3 0x398 JUMPI PUSH1 0x0 DUP1 REVERT JUMPDEST PUSH3 0x3A6 DUP10 DUP3 DUP11 ADD PUSH3 0x31F JUMP JUMPDEST SWAP7 POP POP PUSH1 0x20 DUP8 ADD MLOAD PUSH8 0xFFFFFFFFFFFFFFFF DUP2 GT ISZERO PUSH3 0x3C4 JUMPI PUSH1 0x0 DUP1 REVERT JUMPDEST PUSH3 0x3D2 DUP10 DUP3 DUP11 ADD PUSH3 0x31F JUMP JUMPDEST SWAP6 POP POP PUSH1 0x40 PUSH3 0x3E5 DUP10 DUP3 DUP11 ADD PUSH3 0x34C JUMP JUMPDEST SWAP5 POP POP PUSH1 0x60 PUSH3 0x3F8 DUP10 DUP3 DUP11 ADD PUSH3 0x34C JUMP JUMPDEST SWAP4 POP POP PUSH1 0x80 PUSH3 0x40B DUP10 DUP3 DUP11 ADD PUSH3 0x34C JUMP JUMPDEST SWAP3 POP POP PUSH1 0xA0 PUSH3 0x41E DUP10 DUP3 DUP11 ADD PUSH3 0x34C JUMP JUMPDEST SWAP2 POP POP SWAP3 SWAP6 POP SWAP3 SWAP6 POP SWAP3 SWAP6 JUMP JUMPDEST PUSH1 0x0 PUSH3 0x437 PUSH3 0x44A JUMP JUMPDEST SWAP1 POP PUSH3 0x445 DUP3 DUP3 PUSH3 0x73E JUMP JUMPDEST SWAP2 SWAP1 POP JUMP JUMPDEST PUSH1 0x0 PUSH1 0x40 MLOAD SWAP1 POP SWAP1 JUMP JUMPDEST PUSH1 0x0 PUSH8 0xFFFFFFFFFFFFFFFF DUP3 GT ISZERO PUSH3 0x472 JUMPI PUSH3 0x471 PUSH3 0x801 JUMP JUMPDEST JUMPDEST PUSH3 0x47D DUP3 PUSH3 0x830 JUMP JUMPDEST SWAP1 POP PUSH1 0x20 DUP2 ADD SWAP1 POP SWAP2 SWAP1 POP JUMP JUMPDEST PUSH1 0x0 PUSH3 0x497 DUP3 PUSH3 0x6BB JUMP JUMPDEST SWAP2 POP PUSH3 0x4A4 DUP4 PUSH3 0x6BB JUMP JUMPDEST SWAP3 POP DUP3 PUSH3 0x4B7 JUMPI PUSH3 0x4B6 PUSH3 0x7A3 JUMP JUMPDEST JUMPDEST DUP3 DUP3 DIV SWAP1 POP SWAP3 SWAP2 POP POP JUMP JUMPDEST PUSH1 0x0 DUP1 DUP3 SWAP2 POP DUP4 SWAP1 POP JUMPDEST PUSH1 0x1 DUP6 GT ISZERO PUSH3 0x514 JUMPI DUP1 DUP7 DIV DUP2 GT ISZERO PUSH3 0x4EC JUMPI PUSH3 0x4EB PUSH3 0x774 JUMP JUMPDEST JUMPDEST PUSH1 0x1 DUP6 AND ISZERO PUSH3 0x4FC JUMPI DUP1 DUP3 MUL SWAP2 POP JUMPDEST DUP1 DUP2 MUL SWAP1 POP PUSH3 0x50C DUP6 PUSH3 0x841 JUMP JUMPDEST SWAP5 POP PUSH3 0x4CC JUMP JUMPDEST SWAP5 POP SWAP5 SWAP3 POP POP POP JUMP JUMPDEST PUSH1 0x0 PUSH3 0x52A DUP3 PUSH3 0x6BB JUMP JUMPDEST SWAP2 POP PUSH3 0x537 DUP4 PUSH3 0x6C5 JUMP JUMPDEST SWAP3 POP PUSH3 0x566 PUSH32 0xFFFFFFFFFFFFFFFFFFFFFFFFFFFFFFFFFFFFFFFFFFFFFFFFFFFFFFFFFFFFFFFF DUP5 DUP5 PUSH3 0x56E JUMP JUMPDEST SWAP1 POP SWAP3 SWAP2 POP POP JUMP JUMPDEST PUSH1 0x0 DUP3 PUSH3 0x580 JUMPI PUSH1 0x1 SWAP1 POP PUSH3 0x653 JUMP JUMPDEST DUP2 PUSH3 0x590 JUMPI PUSH1 0x0 SWAP1 POP PUSH3 0x653 JUMP JUMPDEST DUP2 PUSH1 0x1 DUP2 EQ PUSH3 0x5A9 JUMPI PUSH1 0x2 DUP2 EQ PUSH3 0x5B4 JUMPI PUSH3 0x5EA JUMP JUMPDEST PUSH1 0x1 SWAP2 POP POP PUSH3 0x653 JUMP JUMPDEST PUSH1 0xFF DUP5 GT ISZERO PUSH3 0x5C9 JUMPI PUSH3 0x5C8 PUSH3 0x774 JUMP JUMPDEST JUMPDEST DUP4 PUSH1 0x2 EXP SWAP2 POP DUP5 DUP3 GT ISZERO PUSH3 0x5E3 JUMPI PUSH3 0x5E2 PUSH3 0x774 JUMP JUMPDEST JUMPDEST POP PUSH3 0x653 JUMP JUMPDEST POP PUSH1 0x20 DUP4 LT PUSH2 0x133 DUP4 LT AND PUSH1 0x4E DUP5 LT PUSH1 0xB DUP5 LT AND OR ISZERO PUSH3 0x624 JUMPI DUP3 DUP3 EXP SWAP1 POP DUP4 DUP2 GT ISZERO PUSH3 0x61E JUMPI PUSH3 0x61D PUSH3 0x774 JUMP JUMPDEST JUMPDEST PUSH3 0x653 JUMP JUMPDEST PUSH3 0x633 DUP5 DUP5 DUP5 PUSH1 0x1 PUSH3 0x4C2 JUMP JUMPDEST SWAP3 POP SWAP1 POP DUP2 DUP5 DIV DUP2 GT ISZERO PUSH3 0x64D JUMPI PUSH3 0x64C PUSH3 0x774 JUMP JUMPDEST JUMPDEST DUP2 DUP2 MUL SWAP1 POP JUMPDEST SWAP4 SWAP3 POP POP POP JUMP JUMPDEST PUSH1 0x0 PUSH3 0x667 DUP3 PUSH3 0x6BB JUMP JUMPDEST SWAP2 POP PUSH3 0x674 DUP4 PUSH3 0x6BB JUMP JUMPDEST SWAP3 POP DUP2 PUSH32 0xFFFFFFFFFFFFFFFFFFFFFFFFFFFFFFFFFFFFFFFFFFFFFFFFFFFFFFFFFFFFFFFF DIV DUP4 GT DUP3 ISZERO ISZERO AND ISZERO PUSH3 0x6B0 JUMPI PUSH3 0x6AF PUSH3 0x774 JUMP JUMPDEST JUMPDEST DUP3 DUP3 MUL SWAP1 POP SWAP3 SWAP2 POP POP JUMP JUMPDEST PUSH1 0x0 DUP2 SWAP1 POP SWAP2 SWAP1 POP JUMP JUMPDEST PUSH1 0x0 PUSH1 0xFF DUP3 AND SWAP1 POP SWAP2 SWAP1 POP JUMP JUMPDEST PUSH1 0x0 JUMPDEST DUP4 DUP2 LT ISZERO PUSH3 0x6F2 JUMPI DUP1 DUP3 ADD MLOAD DUP2 DUP5 ADD MSTORE PUSH1 0x20 DUP2 ADD SWAP1 POP PUSH3 0x6D5 JUMP JUMPDEST DUP4 DUP2 GT ISZERO PUSH3 0x702 JUMPI PUSH1 0x0 DUP5 DUP5 ADD MSTORE JUMPDEST POP POP POP POP JUMP JUMPDEST PUSH1 0x0 PUSH1 0x2 DUP3 DIV SWAP1 POP PUSH1 0x1 DUP3 AND DUP1 PUSH3 0x721 JUMPI PUSH1 0x7F DUP3 AND SWAP2 POP JUMPDEST PUSH1 0x20 DUP3 LT DUP2 EQ ISZERO PUSH3 0x738 JUMPI PUSH3 0x737 PUSH3 0x7D2 JUMP JUMPDEST JUMPDEST POP SWAP2 SWAP1 POP JUMP JUMPDEST PUSH3 0x749 DUP3 PUSH3 0x830 JUMP JUMPDEST DUP2 ADD DUP2 DUP2 LT PUSH8 0xFFFFFFFFFFFFFFFF DUP3 GT OR ISZERO PUSH3 0x76B JUMPI PUSH3 0x76A PUSH3 0x801 JUMP JUMPDEST JUMPDEST DUP1 PUSH1 0x40 MSTORE POP POP POP JUMP JUMPDEST PUSH32 0x4E487B7100000000000000000000000000000000000000000000000000000000 PUSH1 0x0 MSTORE PUSH1 0x11 PUSH1 0x4 MSTORE PUSH1 0x24 PUSH1 0x0 REVERT JUMPDEST PUSH32 0x4E487B7100000000000000000000000000000000000000000000000000000000 PUSH1 0x0 MSTORE PUSH1 0x12 PUSH1 0x4 MSTORE PUSH1 0x24 PUSH1 0x0 REVERT JUMPDEST PUSH32 0x4E487B7100000000000000000000000000000000000000000000000000000000 PUSH1 0x0 MSTORE PUSH1 0x22 PUSH1 0x4 MSTORE PUSH1 0x24 PUSH1 0x0 REVERT JUMPDEST PUSH32 0x4E487B7100000000000000000000000000000000000000000000000000000000 PUSH1 0x0 MSTORE PUSH1 0x41 PUSH1 0x4 MSTORE PUSH1 0x24 PUSH1 0x0 REVERT JUMPDEST PUSH1 0x0 PUSH1 0x1F NOT PUSH1 0x1F DUP4 ADD AND SWAP1 POP SWAP2 SWAP1 POP JUMP JUMPDEST PUSH1 0x0 DUP2 PUSH1 0x1 SHR SWAP1 POP SWAP2 SWAP1 POP JUMP JUMPDEST PUSH3 0x859 DUP2 PUSH3 0x6BB JUMP JUMPDEST DUP2 EQ PUSH3 0x865 JUMPI PUSH1 0x0 DUP1 REVERT JUMPDEST POP JUMP JUMPDEST PUSH2 0x41D5 DUP1 PUSH3 0x878 PUSH1 0x0 CODECOPY PUSH1 0x0 RETURN INVALID PUSH1 0x80 PUSH1 0x40 MSTORE PUSH1 0x4 CALLDATASIZE LT PUSH2 0x1D8 JUMPI PUSH1 0x0 CALLDATALOAD PUSH1 0xE0 SHR DUP1 PUSH4 0x7FF9B596 GT PUSH2 0x102 JUMPI DUP1 PUSH4 0xA9059CBB GT PUSH2 0x95 JUMPI DUP1 PUSH4 0xC745907A GT PUSH2 0x64 JUMPI DUP1 PUSH4 0xC745907A EQ PUSH2 0x685 JUMPI DUP1 PUSH4 0xCC0F1786 EQ PUSH2 0x6C2 JUMPI DUP1 PUSH4 0xDD62ED3E EQ PUSH2 0x6ED JUMPI DUP1 PUSH4 0xE4849B32 EQ PUSH2 0x72A JUMPI PUSH2 0x1D8 JUMP JUMPDEST DUP1 PUSH4 0xA9059CBB EQ PUSH2 0x5DB JUMPI DUP1 PUSH4 0xACE682BA EQ PUSH2 0x618 JUMPI DUP1 PUSH4 0xB9223946 EQ PUSH2 0x643 JUMPI DUP1 PUSH4 0xC1F52604 EQ PUSH2 0x65A JUMPI PUSH2 0x1D8 JUMP JUMPDEST DUP1 PUSH4 0x945837E2 GT PUSH2 0xD1 JUMPI DUP1 PUSH4 0x945837E2 EQ PUSH2 0x52A JUMPI DUP1 PUSH4 0x95D89B41 EQ PUSH2 0x555 JUMPI DUP1 PUSH4 0x9A57C2FC EQ PUSH2 0x580 JUMPI DUP1 PUSH4 0xA6F2AE3A EQ PUSH2 0x5BD JUMPI PUSH2 0x1D8 JUMP JUMPDEST DUP1 PUSH4 0x7FF9B596 EQ PUSH2 0x47E JUMPI DUP1 PUSH4 0x88EDB929 EQ PUSH2 0x4A9 JUMPI DUP1 PUSH4 0x8DA5CB5B EQ PUSH2 0x4D4 JUMPI DUP1 PUSH4 0x9100B5DD EQ PUSH2 0x4FF JUMPI PUSH2 0x1D8 JUMP JUMPDEST DUP1 PUSH4 0x313CE567 GT PUSH2 0x17A JUMPI DUP1 PUSH4 0x59D634B0 GT PUSH2 0x149 JUMPI DUP1 PUSH4 0x59D634B0 EQ PUSH2 0x3C4 JUMPI DUP1 PUSH4 0x70A08231 EQ PUSH2 0x3ED JUMPI DUP1 PUSH4 0x7CE3489B EQ PUSH2 0x42A JUMPI DUP1 PUSH4 0x7FD6F15C EQ PUSH2 0x453 JUMPI PUSH2 0x1D8 JUMP JUMPDEST DUP1 PUSH4 0x313CE567 EQ PUSH2 0x32C JUMPI DUP1 PUSH4 0x4693D70B EQ PUSH2 0x357 JUMPI DUP1 PUSH4 0x4C0A6AF0 EQ PUSH2 0x382 JUMPI DUP1 PUSH4 0x50F7C204 EQ PUSH2 0x399 JUMPI PUSH2 0x1D8 JUMP JUMPDEST DUP1 PUSH4 0x18160DDD GT PUSH2 0x1B6 JUMPI DUP1 PUSH4 0x18160DDD EQ PUSH2 0x26E JUMPI DUP1 PUSH4 0x1BBEF399 EQ PUSH2 0x299 JUMPI DUP1 PUSH4 0x1CA8B6CB EQ PUSH2 0x2C4 JUMPI DUP1 PUSH4 0x23B872DD EQ PUSH2 0x2EF JUMPI PUSH2 0x1D8 JUMP JUMPDEST DUP1 PUSH4 0x121B93F EQ PUSH2 0x1DD JUMPI DUP1 PUSH4 0x6FDDE03 EQ PUSH2 0x206 JUMPI DUP1 PUSH4 0x95EA7B3 EQ PUSH2 0x231 JUMPI JUMPDEST PUSH1 0x0 DUP1 REVERT JUMPDEST CALLVALUE DUP1 ISZERO PUSH2 0x1E9 JUMPI PUSH1 0x0 DUP1 REVERT JUMPDEST POP PUSH2 0x204 PUSH1 0x4 DUP1 CALLDATASIZE SUB DUP2 ADD SWAP1 PUSH2 0x1FF SWAP2 SWAP1 PUSH2 0x345A JUMP JUMPDEST PUSH2 0x767 JUMP JUMPDEST STOP JUMPDEST CALLVALUE DUP1 ISZERO PUSH2 0x212 JUMPI PUSH1 0x0 DUP1 REVERT JUMPDEST POP PUSH2 0x21B PUSH2 0xCC0 JUMP JUMPDEST PUSH1 0x40 MLOAD PUSH2 0x228 SWAP2 SWAP1 PUSH2 0x3806 JUMP JUMPDEST PUSH1 0x40 MLOAD DUP1 SWAP2 SUB SWAP1 RETURN JUMPDEST CALLVALUE DUP1 ISZERO PUSH2 0x23D JUMPI PUSH1 0x0 DUP1 REVERT JUMPDEST POP PUSH2 0x258 PUSH1 0x4 DUP1 CALLDATASIZE SUB DUP2 ADD SWAP1 PUSH2 0x253 SWAP2 SWAP1 PUSH2 0x341E JUMP JUMPDEST PUSH2 0xD4E JUMP JUMPDEST PUSH1 0x40 MLOAD PUSH2 0x265 SWAP2 SWAP1 PUSH2 0x37EB JUMP JUMPDEST PUSH1 0x40 MLOAD DUP1 SWAP2 SUB SWAP1 RETURN JUMPDEST CALLVALUE DUP1 ISZERO PUSH2 0x27A JUMPI PUSH1 0x0 DUP1 REVERT JUMPDEST POP PUSH2 0x283 PUSH2 0xEB8 JUMP JUMPDEST PUSH1 0x40 MLOAD PUSH2 0x290 SWAP2 SWAP1 PUSH2 0x3A83 JUMP JUMPDEST PUSH1 0x40 MLOAD DUP1 SWAP2 SUB SWAP1 RETURN JUMPDEST CALLVALUE DUP1 ISZERO PUSH2 0x2A5 JUMPI PUSH1 0x0 DUP1 REVERT JUMPDEST POP PUSH2 0x2AE PUSH2 0xEFE JUMP JUMPDEST PUSH1 0x40 MLOAD PUSH2 0x2BB SWAP2 SWAP1 PUSH2 0x37EB JUMP JUMPDEST PUSH1 0x40 MLOAD DUP1 SWAP2 SUB SWAP1 RETURN JUMPDEST CALLVALUE DUP1 ISZERO PUSH2 0x2D0 JUMPI PUSH1 0x0 DUP1 REVERT JUMPDEST POP PUSH2 0x2D9 PUSH2 0xF11 JUMP JUMPDEST PUSH1 0x40 MLOAD PUSH2 0x2E6 SWAP2 SWAP1 PUSH2 0x3A83 JUMP JUMPDEST PUSH1 0x40 MLOAD DUP1 SWAP2 SUB SWAP1 RETURN JUMPDEST CALLVALUE DUP1 ISZERO PUSH2 0x2FB JUMPI PUSH1 0x0 DUP1 REVERT JUMPDEST POP PUSH2 0x316 PUSH1 0x4 DUP1 CALLDATASIZE SUB DUP2 ADD SWAP1 PUSH2 0x311 SWAP2 SWAP1 PUSH2 0x33CF JUMP JUMPDEST PUSH2 0xF17 JUMP JUMPDEST PUSH1 0x40 MLOAD PUSH2 0x323 SWAP2 SWAP1 PUSH2 0x37EB JUMP JUMPDEST PUSH1 0x40 MLOAD DUP1 SWAP2 SUB SWAP1 RETURN JUMPDEST CALLVALUE DUP1 ISZERO PUSH2 0x338 JUMPI PUSH1 0x0 DUP1 REVERT JUMPDEST POP PUSH2 0x341 PUSH2 0x1170 JUMP JUMPDEST PUSH1 0x40 MLOAD PUSH2 0x34E SWAP2 SWAP1 PUSH2 0x3A9E JUMP JUMPDEST PUSH1 0x40 MLOAD DUP1 SWAP2 SUB SWAP1 RETURN JUMPDEST CALLVALUE DUP1 ISZERO PUSH2 0x363 JUMPI PUSH1 0x0 DUP1 REVERT JUMPDEST POP PUSH2 0x36C PUSH2 0x1175 JUMP JUMPDEST PUSH1 0x40 MLOAD PUSH2 0x379 SWAP2 SWAP1 PUSH2 0x3A83 JUMP JUMPDEST PUSH1 0x40 MLOAD DUP1 SWAP2 SUB SWAP1 RETURN JUMPDEST CALLVALUE DUP1 ISZERO PUSH2 0x38E JUMPI PUSH1 0x0 DUP1 REVERT JUMPDEST POP PUSH2 0x397 PUSH2 0x117B JUMP JUMPDEST STOP JUMPDEST CALLVALUE DUP1 ISZERO PUSH2 0x3A5 JUMPI PUSH1 0x0 DUP1 REVERT JUMPDEST POP PUSH2 0x3AE PUSH2 0x13E9 JUMP JUMPDEST PUSH1 0x40 MLOAD PUSH2 0x3BB SWAP2 SWAP1 PUSH2 0x3A83 JUMP JUMPDEST PUSH1 0x40 MLOAD DUP1 SWAP2 SUB SWAP1 RETURN JUMPDEST CALLVALUE DUP1 ISZERO PUSH2 0x3D0 JUMPI PUSH1 0x0 DUP1 REVERT JUMPDEST POP PUSH2 0x3EB PUSH1 0x4 DUP1 CALLDATASIZE SUB DUP2 ADD SWAP1 PUSH2 0x3E6 SWAP2 SWAP1 PUSH2 0x345A JUMP JUMPDEST PUSH2 0x13EF JUMP JUMPDEST STOP JUMPDEST CALLVALUE DUP1 ISZERO PUSH2 0x3F9 JUMPI PUSH1 0x0 DUP1 REVERT JUMPDEST POP PUSH2 0x414 PUSH1 0x4 DUP1 CALLDATASIZE SUB DUP2 ADD SWAP1 PUSH2 0x40F SWAP2 SWAP1 PUSH2 0x336A JUMP JUMPDEST PUSH2 0x1998 JUMP JUMPDEST PUSH1 0x40 MLOAD PUSH2 0x421 SWAP2 SWAP1 PUSH2 0x3A83 JUMP JUMPDEST PUSH1 0x40 MLOAD DUP1 SWAP2 SUB SWAP1 RETURN JUMPDEST CALLVALUE DUP1 ISZERO PUSH2 0x436 JUMPI PUSH1 0x0 DUP1 REVERT JUMPDEST POP PUSH2 0x451 PUSH1 0x4 DUP1 CALLDATASIZE SUB DUP2 ADD SWAP1 PUSH2 0x44C SWAP2 SWAP1 PUSH2 0x345A JUMP JUMPDEST PUSH2 0x1A1D JUMP JUMPDEST STOP JUMPDEST CALLVALUE DUP1 ISZERO PUSH2 0x45F JUMPI PUSH1 0x0 DUP1 REVERT JUMPDEST POP PUSH2 0x468 PUSH2 0x1C17 JUMP JUMPDEST PUSH1 0x40 MLOAD PUSH2 0x475 SWAP2 SWAP1 PUSH2 0x3A83 JUMP JUMPDEST PUSH1 0x40 MLOAD DUP1 SWAP2 SUB SWAP1 RETURN JUMPDEST CALLVALUE DUP1 ISZERO PUSH2 0x48A JUMPI PUSH1 0x0 DUP1 REVERT JUMPDEST POP PUSH2 0x493 PUSH2 0x1C1D JUMP JUMPDEST PUSH1 0x40 MLOAD PUSH2 0x4A0 SWAP2 SWAP1 PUSH2 0x3A83 JUMP JUMPDEST PUSH1 0x40 MLOAD DUP1 SWAP2 SUB SWAP1 RETURN JUMPDEST CALLVALUE DUP1 ISZERO PUSH2 0x4B5 JUMPI PUSH1 0x0 DUP1 REVERT JUMPDEST POP PUSH2 0x4BE PUSH2 0x1C23 JUMP JUMPDEST PUSH1 0x40 MLOAD PUSH2 0x4CB SWAP2 SWAP1 PUSH2 0x3A83 JUMP JUMPDEST PUSH1 0x40 MLOAD DUP1 SWAP2 SUB SWAP1 RETURN JUMPDEST CALLVALUE DUP1 ISZERO PUSH2 0x4E0 JUMPI PUSH1 0x0 DUP1 REVERT JUMPDEST POP PUSH2 0x4E9 PUSH2 0x1C29 JUMP JUMPDEST PUSH1 0x40 MLOAD PUSH2 0x4F6 SWAP2 SWAP1 PUSH2 0x37D0 JUMP JUMPDEST PUSH1 0x40 MLOAD DUP1 SWAP2 SUB SWAP1 RETURN JUMPDEST CALLVALUE DUP1 ISZERO PUSH2 0x50B JUMPI PUSH1 0x0 DUP1 REVERT JUMPDEST POP PUSH2 0x514 PUSH2 0x1C4F JUMP JUMPDEST PUSH1 0x40 MLOAD PUSH2 0x521 SWAP2 SWAP1 PUSH2 0x3A83 JUMP JUMPDEST PUSH1 0x40 MLOAD DUP1 SWAP2 SUB SWAP1 RETURN JUMPDEST CALLVALUE DUP1 ISZERO PUSH2 0x536 JUMPI PUSH1 0x0 DUP1 REVERT JUMPDEST POP PUSH2 0x53F PUSH2 0x1C55 JUMP JUMPDEST PUSH1 0x40 MLOAD PUSH2 0x54C SWAP2 SWAP1 PUSH2 0x3A83 JUMP JUMPDEST PUSH1 0x40 MLOAD DUP1 SWAP2 SUB SWAP1 RETURN JUMPDEST CALLVALUE DUP1 ISZERO PUSH2 0x561 JUMPI PUSH1 0x0 DUP1 REVERT JUMPDEST POP PUSH2 0x56A PUSH2 0x1C5B JUMP JUMPDEST PUSH1 0x40 MLOAD PUSH2 0x577 SWAP2 SWAP1 PUSH2 0x3806 JUMP JUMPDEST PUSH1 0x40 MLOAD DUP1 SWAP2 SUB SWAP1 RETURN JUMPDEST CALLVALUE DUP1 ISZERO PUSH2 0x58C JUMPI PUSH1 0x0 DUP1 REVERT JUMPDEST POP PUSH2 0x5A7 PUSH1 0x4 DUP1 CALLDATASIZE SUB DUP2 ADD SWAP1 PUSH2 0x5A2 SWAP2 SWAP1 PUSH2 0x345A JUMP JUMPDEST PUSH2 0x1CE9 JUMP JUMPDEST PUSH1 0x40 MLOAD PUSH2 0x5B4 SWAP2 SWAP1 PUSH2 0x3A83 JUMP JUMPDEST PUSH1 0x40 MLOAD DUP1 SWAP2 SUB SWAP1 RETURN JUMPDEST PUSH2 0x5C5 PUSH2 0x1D0D JUMP JUMPDEST PUSH1 0x40 MLOAD PUSH2 0x5D2 SWAP2 SWAP1 PUSH2 0x37EB JUMP JUMPDEST PUSH1 0x40 MLOAD DUP1 SWAP2 SUB SWAP1 RETURN JUMPDEST CALLVALUE DUP1 ISZERO PUSH2 0x5E7 JUMPI PUSH1 0x0 DUP1 REVERT JUMPDEST POP PUSH2 0x602 PUSH1 0x4 DUP1 CALLDATASIZE SUB DUP2 ADD SWAP1 PUSH2 0x5FD SWAP2 SWAP1 PUSH2 0x341E JUMP JUMPDEST PUSH2 0x20EA JUMP JUMPDEST PUSH1 0x40 MLOAD PUSH2 0x60F SWAP2 SWAP1 PUSH2 0x37EB JUMP JUMPDEST PUSH1 0x40 MLOAD DUP1 SWAP2 SUB SWAP1 RETURN JUMPDEST CALLVALUE DUP1 ISZERO PUSH2 0x624 JUMPI PUSH1 0x0 DUP1 REVERT JUMPDEST POP PUSH2 0x62D PUSH2 0x2165 JUMP JUMPDEST PUSH1 0x40 MLOAD PUSH2 0x63A SWAP2 SWAP1 PUSH2 0x3A83 JUMP JUMPDEST PUSH1 0x40 MLOAD DUP1 SWAP2 SUB SWAP1 RETURN JUMPDEST CALLVALUE DUP1 ISZERO PUSH2 0x64F JUMPI PUSH1 0x0 DUP1 REVERT JUMPDEST POP PUSH2 0x658 PUSH2 0x216B JUMP JUMPDEST STOP JUMPDEST CALLVALUE DUP1 ISZERO PUSH2 0x666 JUMPI PUSH1 0x0 DUP1 REVERT JUMPDEST POP PUSH2 0x66F PUSH2 0x2598 JUMP JUMPDEST PUSH1 0x40 MLOAD PUSH2 0x67C SWAP2 SWAP1 PUSH2 0x3A83 JUMP JUMPDEST PUSH1 0x40 MLOAD DUP1 SWAP2 SUB SWAP1 RETURN JUMPDEST CALLVALUE DUP1 ISZERO PUSH2 0x691 JUMPI PUSH1 0x0 DUP1 REVERT JUMPDEST POP PUSH2 0x6AC PUSH1 0x4 DUP1 CALLDATASIZE SUB DUP2 ADD SWAP1 PUSH2 0x6A7 SWAP2 SWAP1 PUSH2 0x345A JUMP JUMPDEST PUSH2 0x259E JUMP JUMPDEST PUSH1 0x40 MLOAD PUSH2 0x6B9 SWAP2 SWAP1 PUSH2 0x3A83 JUMP JUMPDEST PUSH1 0x40 MLOAD DUP1 SWAP2 SUB SWAP1 RETURN JUMPDEST CALLVALUE DUP1 ISZERO PUSH2 0x6CE JUMPI PUSH1 0x0 DUP1 REVERT JUMPDEST POP PUSH2 0x6D7 PUSH2 0x25F7 JUMP JUMPDEST PUSH1 0x40 MLOAD PUSH2 0x6E4 SWAP2 SWAP1 PUSH2 0x3A68 JUMP JUMPDEST PUSH1 0x40 MLOAD DUP1 SWAP2 SUB SWAP1 RETURN JUMPDEST CALLVALUE DUP1 ISZERO PUSH2 0x6F9 JUMPI PUSH1 0x0 DUP1 REVERT JUMPDEST POP PUSH2 0x714 PUSH1 0x4 DUP1 CALLDATASIZE SUB DUP2 ADD SWAP1 PUSH2 0x70F SWAP2 SWAP1 PUSH2 0x3393 JUMP JUMPDEST PUSH2 0x25FD JUMP JUMPDEST PUSH1 0x40 MLOAD PUSH2 0x721 SWAP2 SWAP1 PUSH2 0x3A83 JUMP JUMPDEST PUSH1 0x40 MLOAD DUP1 SWAP2 SUB SWAP1 RETURN JUMPDEST CALLVALUE DUP1 ISZERO PUSH2 0x736 JUMPI PUSH1 0x0 DUP1 REVERT JUMPDEST POP PUSH2 0x751 PUSH1 0x4 DUP1 CALLDATASIZE SUB DUP2 ADD SWAP1 PUSH2 0x74C SWAP2 SWAP1 PUSH2 0x345A JUMP JUMPDEST PUSH2 0x26C0 JUMP JUMPDEST PUSH1 0x40 MLOAD PUSH2 0x75E SWAP2 SWAP1 PUSH2 0x37EB JUMP JUMPDEST PUSH1 0x40 MLOAD DUP1 SWAP2 SUB SWAP1 RETURN JUMPDEST PUSH2 0x77B PUSH8 0x1D3E399A7A9BCAC1 PUSH1 0xC0 SHL PUSH2 0x2A48 JUMP JUMPDEST PUSH2 0x78F PUSH8 0x3EA4377272E64E38 PUSH1 0xC0 SHL PUSH2 0x2A48 JUMP JUMPDEST PUSH2 0x7A3 PUSH8 0xE5D85A142783A9E PUSH1 0xC0 SHL PUSH2 0x2A48 JUMP JUMPDEST PUSH2 0x7B7 PUSH8 0x16B626F5F0598804 PUSH1 0xC0 SHL PUSH2 0x2A48 JUMP JUMPDEST PUSH2 0x7CB PUSH8 0xFE8A12D77D8E522F PUSH1 0xC0 SHL PUSH2 0x2A48 JUMP JUMPDEST PUSH1 0xB SLOAD TIMESTAMP GT ISZERO PUSH2 0x810 JUMPI PUSH1 0x40 MLOAD PUSH32 0x8C379A000000000000000000000000000000000000000000000000000000000 DUP2 MSTORE PUSH1 0x4 ADD PUSH2 0x807 SWAP1 PUSH2 0x3A48 JUMP JUMPDEST PUSH1 0x40 MLOAD DUP1 SWAP2 SUB SWAP1 REVERT JUMPDEST PUSH2 0x824 PUSH8 0x4099D406890003EA PUSH1 0xC0 SHL PUSH2 0x2A48 JUMP JUMPDEST PUSH2 0x838 PUSH8 0x8D8E7D0D918A1EE4 PUSH1 0xC0 SHL PUSH2 0x2A48 JUMP JUMPDEST PUSH2 0x84C PUSH8 0x9FD4BEB0FD3B7A7A PUSH1 0xC0 SHL PUSH2 0x2A48 JUMP JUMPDEST PUSH2 0x860 PUSH8 0x3B4DB6F9C28F1F74 PUSH1 0xC0 SHL PUSH2 0x2A48 JUMP JUMPDEST PUSH1 0x0 PUSH1 0x10 PUSH1 0x0 CALLER PUSH20 0xFFFFFFFFFFFFFFFFFFFFFFFFFFFFFFFFFFFFFFFF AND PUSH20 0xFFFFFFFFFFFFFFFFFFFFFFFFFFFFFFFFFFFFFFFF AND DUP2 MSTORE PUSH1 0x20 ADD SWAP1 DUP2 MSTORE PUSH1 0x20 ADD PUSH1 0x0 KECCAK256 PUSH1 0x0 ADD SLOAD EQ DUP1 ISZERO PUSH2 0x8F6 JUMPI POP PUSH1 0xC SLOAD PUSH1 0x10 PUSH1 0x0 CALLER PUSH20 0xFFFFFFFFFFFFFFFFFFFFFFFFFFFFFFFFFFFFFFFF AND PUSH20 0xFFFFFFFFFFFFFFFFFFFFFFFFFFFFFFFFFFFFFFFF AND DUP2 MSTORE PUSH1 0x20 ADD SWAP1 DUP2 MSTORE PUSH1 0x20 ADD PUSH1 0x0 KECCAK256 PUSH1 0x1 ADD SLOAD EQ ISZERO JUMPDEST PUSH2 0x935 JUMPI PUSH1 0x40 MLOAD PUSH32 0x8C379A000000000000000000000000000000000000000000000000000000000 DUP2 MSTORE PUSH1 0x4 ADD PUSH2 0x92C SWAP1 PUSH2 0x3988 JUMP JUMPDEST PUSH1 0x40 MLOAD DUP1 SWAP2 SUB SWAP1 REVERT JUMPDEST PUSH2 0x949 PUSH8 0x59A16D8ED131BE8C PUSH1 0xC0 SHL PUSH2 0x2A48 JUMP JUMPDEST PUSH2 0x95D PUSH8 0x7E2DB054F319C3AD PUSH1 0xC0 SHL PUSH2 0x2A48 JUMP JUMPDEST PUSH2 0x971 PUSH8 0xC1CA41ABFC903057 PUSH1 0xC0 SHL PUSH2 0x2A48 JUMP JUMPDEST PUSH2 0x985 PUSH8 0x8C02B0DD87AE262B PUSH1 0xC0 SHL PUSH2 0x2A48 JUMP JUMPDEST PUSH2 0x999 PUSH8 0xB62B98081903216D PUSH1 0xC0 SHL PUSH2 0x2A48 JUMP JUMPDEST PUSH2 0x9AD PUSH8 0x9AAAE741F7B2D6B8 PUSH1 0xC0 SHL PUSH2 0x2A48 JUMP JUMPDEST PUSH2 0x9C1 PUSH8 0x44673D44BE37494A PUSH1 0xC0 SHL PUSH2 0x2A48 JUMP JUMPDEST PUSH1 0x0 PUSH1 0xF PUSH1 0x0 DUP4 DUP2 MSTORE PUSH1 0x20 ADD SWAP1 DUP2 MSTORE PUSH1 0x20 ADD PUSH1 0x0 KECCAK256 SLOAD EQ ISZERO PUSH2 0xA18 JUMPI PUSH1 0x40 MLOAD PUSH32 0x8C379A000000000000000000000000000000000000000000000000000000000 DUP2 MSTORE PUSH1 0x4 ADD PUSH2 0xA0F SWAP1 PUSH2 0x38C8 JUMP JUMPDEST PUSH1 0x40 MLOAD DUP1 SWAP2 SUB SWAP1 REVERT JUMPDEST PUSH2 0xA2C PUSH8 0x83FAD071562B4A16 PUSH1 0xC0 SHL PUSH2 0x2A48 JUMP JUMPDEST PUSH2 0xA40 PUSH8 0x496048AFE1A94A7B PUSH1 0xC0 SHL PUSH2 0x2A48 JUMP JUMPDEST PUSH2 0xA54 PUSH8 0x8AB3034A8EFDE825 PUSH1 0xC0 SHL PUSH2 0x2A48 JUMP JUMPDEST PUSH2 0xA68 PUSH8 0x421D3D4EACBE6BD4 PUSH1 0xC0 SHL PUSH2 0x2A48 JUMP JUMPDEST PUSH1 0x8 SLOAD PUSH1 0xD PUSH1 0x0 CALLER PUSH20 0xFFFFFFFFFFFFFFFFFFFFFFFFFFFFFFFFFFFFFFFF AND PUSH20 0xFFFFFFFFFFFFFFFFFFFFFFFFFFFFFFFFFFFFFFFF AND DUP2 MSTORE PUSH1 0x20 ADD SWAP1 DUP2 MSTORE PUSH1 0x20 ADD PUSH1 0x0 KECCAK256 SLOAD LT ISZERO PUSH2 0xAEC JUMPI PUSH1 0x40 MLOAD PUSH32 0x8C379A000000000000000000000000000000000000000000000000000000000 DUP2 MSTORE PUSH1 0x4 ADD PUSH2 0xAE3 SWAP1 PUSH2 0x3A08 JUMP JUMPDEST PUSH1 0x40 MLOAD DUP1 SWAP2 SUB SWAP1 REVERT JUMPDEST PUSH2 0xB00 PUSH8 0x30A5F92359EE8EC6 PUSH1 0xC0 SHL PUSH2 0x2A48 JUMP JUMPDEST PUSH2 0xB14 PUSH8 0x4228B471D2575CDC PUSH1 0xC0 SHL PUSH2 0x2A48 JUMP JUMPDEST PUSH1 0x40 MLOAD DUP1 PUSH1 0x40 ADD PUSH1 0x40 MSTORE DUP1 DUP3 DUP2 MSTORE PUSH1 0x20 ADD PUSH1 0xC SLOAD DUP2 MSTORE POP PUSH1 0x10 PUSH1 0x0 CALLER PUSH20 0xFFFFFFFFFFFFFFFFFFFFFFFFFFFFFFFFFFFFFFFF AND PUSH20 0xFFFFFFFFFFFFFFFFFFFFFFFFFFFFFFFFFFFFFFFF AND DUP2 MSTORE PUSH1 0x20 ADD SWAP1 DUP2 MSTORE PUSH1 0x20 ADD PUSH1 0x0 KECCAK256 PUSH1 0x0 DUP3 ADD MLOAD DUP2 PUSH1 0x0 ADD SSTORE PUSH1 0x20 DUP3 ADD MLOAD DUP2 PUSH1 0x1 ADD SSTORE SWAP1 POP POP PUSH2 0xB95 PUSH8 0xF120A7FC164E74C8 PUSH1 0xC0 SHL PUSH2 0x2A48 JUMP JUMPDEST ADDRESS PUSH20 0xFFFFFFFFFFFFFFFFFFFFFFFFFFFFFFFFFFFFFFFF AND PUSH4 0x70A08231 CALLER PUSH1 0x40 MLOAD DUP3 PUSH4 0xFFFFFFFF AND PUSH1 0xE0 SHL DUP2 MSTORE PUSH1 0x4 ADD PUSH2 0xBCE SWAP2 SWAP1 PUSH2 0x37B5 JUMP JUMPDEST PUSH1 0x20 PUSH1 0x40 MLOAD DUP1 DUP4 SUB DUP2 DUP7 DUP1 EXTCODESIZE ISZERO DUP1 ISZERO PUSH2 0xBE6 JUMPI PUSH1 0x0 DUP1 REVERT JUMPDEST POP GAS STATICCALL ISZERO DUP1 ISZERO PUSH2 0xBFA JUMPI RETURNDATASIZE PUSH1 0x0 DUP1 RETURNDATACOPY RETURNDATASIZE PUSH1 0x0 REVERT JUMPDEST POP POP POP POP PUSH1 0x40 MLOAD RETURNDATASIZE PUSH1 0x1F NOT PUSH1 0x1F DUP3 ADD AND DUP3 ADD DUP1 PUSH1 0x40 MSTORE POP DUP2 ADD SWAP1 PUSH2 0xC1E SWAP2 SWAP1 PUSH2 0x3483 JUMP JUMPDEST PUSH1 0xF PUSH1 0x0 DUP4 DUP2 MSTORE PUSH1 0x20 ADD SWAP1 DUP2 MSTORE PUSH1 0x20 ADD PUSH1 0x0 KECCAK256 PUSH1 0x0 DUP3 DUP3 SLOAD PUSH2 0xC40 SWAP2 SWAP1 PUSH2 0x3AD5 JUMP JUMPDEST SWAP3 POP POP DUP2 SWAP1 SSTORE POP PUSH2 0xC5B PUSH8 0xEA5476D6EADF8990 PUSH1 0xC0 SHL PUSH2 0x2A48 JUMP JUMPDEST PUSH2 0xC6F PUSH8 0xE2219F198D9787CB PUSH1 0xC0 SHL PUSH2 0x2A48 JUMP JUMPDEST CALLER PUSH20 0xFFFFFFFFFFFFFFFFFFFFFFFFFFFFFFFFFFFFFFFF AND PUSH32 0x4D99B957A2BC29A30EBD96A7BE8E68FE50A3C701DB28A91436490B7D53870CA4 DUP3 PUSH1 0x40 MLOAD PUSH2 0xCB5 SWAP2 SWAP1 PUSH2 0x3A83 JUMP JUMPDEST PUSH1 0x40 MLOAD DUP1 SWAP2 SUB SWAP1 LOG2 POP JUMP JUMPDEST PUSH1 0x0 DUP1 SLOAD PUSH2 0xCCD SWAP1 PUSH2 0x3C92 JUMP JUMPDEST DUP1 PUSH1 0x1F ADD PUSH1 0x20 DUP1 SWAP2 DIV MUL PUSH1 0x20 ADD PUSH1 0x40 MLOAD SWAP1 DUP2 ADD PUSH1 0x40 MSTORE DUP1 SWAP3 SWAP2 SWAP1 DUP2 DUP2 MSTORE PUSH1 0x20 ADD DUP3 DUP1 SLOAD PUSH2 0xCF9 SWAP1 PUSH2 0x3C92 JUMP JUMPDEST DUP1 ISZERO PUSH2 0xD46 JUMPI DUP1 PUSH1 0x1F LT PUSH2 0xD1B JUMPI PUSH2 0x100 DUP1 DUP4 SLOAD DIV MUL DUP4 MSTORE SWAP2 PUSH1 0x20 ADD SWAP2 PUSH2 0xD46 JUMP JUMPDEST DUP3 ADD SWAP2 SWAP1 PUSH1 0x0 MSTORE PUSH1 0x20 PUSH1 0x0 KECCAK256 SWAP1 JUMPDEST DUP2 SLOAD DUP2 MSTORE SWAP1 PUSH1 0x1 ADD SWAP1 PUSH1 0x20 ADD DUP1 DUP4 GT PUSH2 0xD29 JUMPI DUP3 SWAP1 SUB PUSH1 0x1F AND DUP3 ADD SWAP2 JUMPDEST POP POP POP POP POP DUP2 JUMP JUMPDEST PUSH1 0x0 PUSH2 0xD64 PUSH8 0x308EF5E8C0CCA15F PUSH1 0xC0 SHL PUSH2 0x2A48 JUMP JUMPDEST PUSH2 0xD78 PUSH8 0x5A8CF6E7D27B96D0 PUSH1 0xC0 SHL PUSH2 0x2A48 JUMP JUMPDEST DUP2 PUSH1 0xE PUSH1 0x0 CALLER PUSH20 0xFFFFFFFFFFFFFFFFFFFFFFFFFFFFFFFFFFFFFFFF AND PUSH20 0xFFFFFFFFFFFFFFFFFFFFFFFFFFFFFFFFFFFFFFFF AND DUP2 MSTORE PUSH1 0x20 ADD SWAP1 DUP2 MSTORE PUSH1 0x20 ADD PUSH1 0x0 KECCAK256 PUSH1 0x0 DUP6 PUSH20 0xFFFFFFFFFFFFFFFFFFFFFFFFFFFFFFFFFFFFFFFF AND PUSH20 0xFFFFFFFFFFFFFFFFFFFFFFFFFFFFFFFFFFFFFFFF AND DUP2 MSTORE PUSH1 0x20 ADD SWAP1 DUP2 MSTORE PUSH1 0x20 ADD PUSH1 0x0 KECCAK256 DUP2 SWAP1 SSTORE POP PUSH2 0xE0D PUSH8 0x8E3169D712C03A79 PUSH1 0xC0 SHL PUSH2 0x2A48 JUMP JUMPDEST PUSH2 0xE21 PUSH8 0x94DD58FDC75217C PUSH1 0xC0 SHL PUSH2 0x2A48 JUMP JUMPDEST DUP3 PUSH20 0xFFFFFFFFFFFFFFFFFFFFFFFFFFFFFFFFFFFFFFFF AND CALLER PUSH20 0xFFFFFFFFFFFFFFFFFFFFFFFFFFFFFFFFFFFFFFFF AND PUSH32 0x8C5BE1E5EBEC7D5BD14F71427D1E84F3DD0314C0F7B2291E5B200AC8C7C3B925 DUP5 PUSH1 0x40 MLOAD PUSH2 0xE7E SWAP2 SWAP1 PUSH2 0x3A83 JUMP JUMPDEST PUSH1 0x40 MLOAD DUP1 SWAP2 SUB SWAP1 LOG3 PUSH2 0xE9A PUSH8 0xE70B61B9DCB3FE6D PUSH1 0xC0 SHL PUSH2 0x2A48 JUMP JUMPDEST PUSH2 0xEAE PUSH8 0xFF05B38D5D80F9C PUSH1 0xC0 SHL PUSH2 0x2A48 JUMP JUMPDEST PUSH1 0x1 SWAP1 POP SWAP3 SWAP2 POP POP JUMP JUMPDEST PUSH1 0x0 PUSH2 0xECE PUSH8 0xD82501F55213C477 PUSH1 0xC0 SHL PUSH2 0x2A48 JUMP JUMPDEST PUSH2 0xEE2 PUSH8 0x97EE502648C1473B PUSH1 0xC0 SHL PUSH2 0x2A48 JUMP JUMPDEST PUSH2 0xEF6 PUSH8 0x9B553C97653DA400 PUSH1 0xC0 SHL PUSH2 0x2A48 JUMP JUMPDEST PUSH1 0x4 SLOAD SWAP1 POP SWAP1 JUMP JUMPDEST PUSH1 0x2 PUSH1 0x0 SWAP1 SLOAD SWAP1 PUSH2 0x100 EXP SWAP1 DIV PUSH1 0xFF AND DUP2 JUMP JUMPDEST PUSH1 0x4 SLOAD DUP2 JUMP JUMPDEST PUSH1 0x0 PUSH2 0xF2D PUSH8 0xAD08FAAAF8A3EED PUSH1 0xC0 SHL PUSH2 0x2A48 JUMP JUMPDEST PUSH2 0xF41 PUSH8 0xD561609A9D4B4D9F PUSH1 0xC0 SHL PUSH2 0x2A48 JUMP JUMPDEST PUSH2 0xF55 PUSH8 0xB2BE2876EC512DD9 PUSH1 0xC0 SHL PUSH2 0x2A48 JUMP JUMPDEST PUSH1 0x0 PUSH1 0xE PUSH1 0x0 DUP7 PUSH20 0xFFFFFFFFFFFFFFFFFFFFFFFFFFFFFFFFFFFFFFFF AND PUSH20 0xFFFFFFFFFFFFFFFFFFFFFFFFFFFFFFFFFFFFFFFF AND DUP2 MSTORE PUSH1 0x20 ADD SWAP1 DUP2 MSTORE PUSH1 0x20 ADD PUSH1 0x0 KECCAK256 PUSH1 0x0 CALLER PUSH20 0xFFFFFFFFFFFFFFFFFFFFFFFFFFFFFFFFFFFFFFFF AND PUSH20 0xFFFFFFFFFFFFFFFFFFFFFFFFFFFFFFFFFFFFFFFF AND DUP2 MSTORE PUSH1 0x20 ADD SWAP1 DUP2 MSTORE PUSH1 0x20 ADD PUSH1 0x0 KECCAK256 SLOAD SWAP1 POP PUSH2 0xFEA PUSH8 0x42FBC330F5EA4736 PUSH1 0xC0 SHL PUSH2 0x2A48 JUMP JUMPDEST PUSH2 0xFFE PUSH8 0x6FB8ECF168CB8717 PUSH1 0xC0 SHL PUSH2 0x2A48 JUMP JUMPDEST PUSH2 0x1012 PUSH8 0x7FFB082B76F4711D PUSH1 0xC0 SHL PUSH2 0x2A48 JUMP JUMPDEST DUP3 DUP2 LT ISZERO PUSH2 0x1055 JUMPI PUSH1 0x40 MLOAD PUSH32 0x8C379A000000000000000000000000000000000000000000000000000000000 DUP2 MSTORE PUSH1 0x4 ADD PUSH2 0x104C SWAP1 PUSH2 0x38A8 JUMP JUMPDEST PUSH1 0x40 MLOAD DUP1 SWAP2 SUB SWAP1 REVERT JUMPDEST PUSH2 0x1069 PUSH8 0xA9BF660929B2F97A PUSH1 0xC0 SHL PUSH2 0x2A48 JUMP JUMPDEST PUSH2 0x107D PUSH8 0x1600DBF95597B271 PUSH1 0xC0 SHL PUSH2 0x2A48 JUMP JUMPDEST PUSH2 0x1091 PUSH8 0x474D0A8DED809F2D PUSH1 0xC0 SHL PUSH2 0x2A48 JUMP JUMPDEST PUSH2 0x109C DUP6 DUP6 DUP6 PUSH2 0x2A4B JUMP JUMPDEST PUSH2 0x10B0 PUSH8 0xE81F95762D4AF3E6 PUSH1 0xC0 SHL PUSH2 0x2A48 JUMP JUMPDEST DUP3 DUP2 PUSH2 0x10BC SWAP2 SWAP1 PUSH2 0x3BB6 JUMP JUMPDEST PUSH1 0xE PUSH1 0x0 DUP8 PUSH20 0xFFFFFFFFFFFFFFFFFFFFFFFFFFFFFFFFFFFFFFFF AND PUSH20 0xFFFFFFFFFFFFFFFFFFFFFFFFFFFFFFFFFFFFFFFF AND DUP2 MSTORE PUSH1 0x20 ADD SWAP1 DUP2 MSTORE PUSH1 0x20 ADD PUSH1 0x0 KECCAK256 PUSH1 0x0 CALLER PUSH20 0xFFFFFFFFFFFFFFFFFFFFFFFFFFFFFFFFFFFFFFFF AND PUSH20 0xFFFFFFFFFFFFFFFFFFFFFFFFFFFFFFFFFFFFFFFF AND DUP2 MSTORE PUSH1 0x20 ADD SWAP1 DUP2 MSTORE PUSH1 0x20 ADD PUSH1 0x0 KECCAK256 DUP2 SWAP1 SSTORE POP PUSH2 0x1150 PUSH8 0xE30CB288A07100F4 PUSH1 0xC0 SHL PUSH2 0x2A48 JUMP JUMPDEST PUSH2 0x1164 PUSH8 0xB0E041AB1FE750EE PUSH1 0xC0 SHL PUSH2 0x2A48 JUMP JUMPDEST PUSH1 0x1 SWAP2 POP POP SWAP4 SWAP3 POP POP POP JUMP JUMPDEST PUSH1 0x12 DUP2 JUMP JUMPDEST PUSH1 0xB SLOAD DUP2 JUMP JUMPDEST PUSH2 0x118F PUSH8 0x99942FCC55C3176B PUSH1 0xC0 SHL PUSH2 0x2A48 JUMP JUMPDEST PUSH2 0x11A3 PUSH8 0xBBA727C16145F3C9 PUSH1 0xC0 SHL PUSH2 0x2A48 JUMP JUMPDEST PUSH2 0x11B7 PUSH8 0x8392D1C2757FD97E PUSH1 0xC0 SHL PUSH2 0x2A48 JUMP JUMPDEST PUSH2 0x11CB PUSH8 0x969C0D0DEBCAAC3C PUSH1 0xC0 SHL PUSH2 0x2A48 JUMP JUMPDEST PUSH1 0x2 PUSH1 0x0 SWAP1 SLOAD SWAP1 PUSH2 0x100 EXP SWAP1 DIV PUSH1 0xFF AND ISZERO PUSH2 0x121B JUMPI PUSH1 0x40 MLOAD PUSH32 0x8C379A000000000000000000000000000000000000000000000000000000000 DUP2 MSTORE PUSH1 0x4 ADD PUSH2 0x1212 SWAP1 PUSH2 0x3888 JUMP JUMPDEST PUSH1 0x40 MLOAD DUP1 SWAP2 SUB SWAP1 REVERT JUMPDEST PUSH2 0x122F PUSH8 0xADCAAA58D091C535 PUSH1 0xC0 SHL PUSH2 0x2A48 JUMP JUMPDEST PUSH2 0x1243 PUSH8 0x4CD2193706B4ABE9 PUSH1 0xC0 SHL PUSH2 0x2A48 JUMP JUMPDEST PUSH2 0x1257 PUSH8 0xB4E846824E9890D8 PUSH1 0xC0 SHL PUSH2 0x2A48 JUMP JUMPDEST PUSH2 0x126B PUSH8 0x811EC91B24D28039 PUSH1 0xC0 SHL PUSH2 0x2A48 JUMP JUMPDEST PUSH1 0x9 SLOAD PUSH1 0xD PUSH1 0x0 CALLER PUSH20 0xFFFFFFFFFFFFFFFFFFFFFFFFFFFFFFFFFFFFFFFF AND PUSH20 0xFFFFFFFFFFFFFFFFFFFFFFFFFFFFFFFFFFFFFFFF AND DUP2 MSTORE PUSH1 0x20 ADD SWAP1 DUP2 MSTORE PUSH1 0x20 ADD PUSH1 0x0 KECCAK256 SLOAD LT ISZERO PUSH2 0x12EF JUMPI PUSH1 0x40 MLOAD PUSH32 0x8C379A000000000000000000000000000000000000000000000000000000000 DUP2 MSTORE PUSH1 0x4 ADD PUSH2 0x12E6 SWAP1 PUSH2 0x39C8 JUMP JUMPDEST PUSH1 0x40 MLOAD DUP1 SWAP2 SUB SWAP1 REVERT JUMPDEST PUSH2 0x1303 PUSH8 0xBEE0C6BDA57D009D PUSH1 0xC0 SHL PUSH2 0x2A48 JUMP JUMPDEST PUSH2 0x1317 PUSH8 0x99216E4C092FBBB1 PUSH1 0xC0 SHL PUSH2 0x2A48 JUMP JUMPDEST PUSH1 0x1 PUSH1 0x2 PUSH1 0x0 PUSH2 0x100 EXP DUP2 SLOAD DUP2 PUSH1 0xFF MUL NOT AND SWAP1 DUP4 ISZERO ISZERO MUL OR SWAP1 SSTORE POP PUSH2 0x1346 PUSH8 0x856BE77B59FEBCE8 PUSH1 0xC0 SHL PUSH2 0x2A48 JUMP JUMPDEST PUSH1 0xA SLOAD TIMESTAMP PUSH2 0x1354 SWAP2 SWAP1 PUSH2 0x3AD5 JUMP JUMPDEST PUSH1 0xB DUP2 SWAP1 SSTORE POP PUSH2 0x136E PUSH8 0xE502A2BE4EC1923A PUSH1 0xC0 SHL PUSH2 0x2A48 JUMP JUMPDEST PUSH1 0xC PUSH1 0x0 DUP2 SLOAD DUP1 SWAP3 SWAP2 SWAP1 PUSH2 0x1381 SWAP1 PUSH2 0x3CC4 JUMP JUMPDEST SWAP2 SWAP1 POP SSTORE POP PUSH2 0x139A PUSH8 0x5ED2E8AB3387AE7A PUSH1 0xC0 SHL PUSH2 0x2A48 JUMP JUMPDEST PUSH2 0x13AE PUSH8 0x8ABDAB8CB6CAEBFB PUSH1 0xC0 SHL PUSH2 0x2A48 JUMP JUMPDEST PUSH32 0xA80808A30283FC2C95DB95A081EF4462DD38BB7854E6569E34C0B501EED90F4E PUSH1 0xB SLOAD PUSH1 0x40 MLOAD PUSH2 0x13DF SWAP2 SWAP1 PUSH2 0x3A83 JUMP JUMPDEST PUSH1 0x40 MLOAD DUP1 SWAP2 SUB SWAP1 LOG1 JUMP JUMPDEST PUSH1 0x3 SLOAD DUP2 JUMP JUMPDEST PUSH2 0x1403 PUSH8 0xCE427294BD4DEFA1 PUSH1 0xC0 SHL PUSH2 0x2A48 JUMP JUMPDEST PUSH2 0x1417 PUSH8 0x3EA4377272E64E38 PUSH1 0xC0 SHL PUSH2 0x2A48 JUMP JUMPDEST PUSH2 0x142B PUSH8 0xE5D85A142783A9E PUSH1 0xC0 SHL PUSH2 0x2A48 JUMP JUMPDEST PUSH2 0x143F PUSH8 0x16B626F5F0598804 PUSH1 0xC0 SHL PUSH2 0x2A48 JUMP JUMPDEST PUSH2 0x1453 PUSH8 0xFE8A12D77D8E522F PUSH1 0xC0 SHL PUSH2 0x2A48 JUMP JUMPDEST PUSH1 0xB SLOAD TIMESTAMP GT ISZERO PUSH2 0x1498 JUMPI PUSH1 0x40 MLOAD PUSH32 0x8C379A000000000000000000000000000000000000000000000000000000000 DUP2 MSTORE PUSH1 0x4 ADD PUSH2 0x148F SWAP1 PUSH2 0x3A48 JUMP JUMPDEST PUSH1 0x40 MLOAD DUP1 SWAP2 SUB SWAP1 REVERT JUMPDEST PUSH2 0x14AC PUSH8 0x4099D406890003EA PUSH1 0xC0 SHL PUSH2 0x2A48 JUMP JUMPDEST PUSH2 0x14C0 PUSH8 0x8D8E7D0D918A1EE4 PUSH1 0xC0 SHL PUSH2 0x2A48 JUMP JUMPDEST PUSH2 0x14D4 PUSH8 0x9FD4BEB0FD3B7A7A PUSH1 0xC0 SHL PUSH2 0x2A48 JUMP JUMPDEST PUSH2 0x14E8 PUSH8 0x3B4DB6F9C28F1F74 PUSH1 0xC0 SHL PUSH2 0x2A48 JUMP JUMPDEST PUSH1 0x0 PUSH1 0x10 PUSH1 0x0 CALLER PUSH20 0xFFFFFFFFFFFFFFFFFFFFFFFFFFFFFFFFFFFFFFFF AND PUSH20 0xFFFFFFFFFFFFFFFFFFFFFFFFFFFFFFFFFFFFFFFF AND DUP2 MSTORE PUSH1 0x20 ADD SWAP1 DUP2 MSTORE PUSH1 0x20 ADD PUSH1 0x0 KECCAK256 PUSH1 0x0 ADD SLOAD EQ DUP1 ISZERO PUSH2 0x157E JUMPI POP PUSH1 0xC SLOAD PUSH1 0x10 PUSH1 0x0 CALLER PUSH20 0xFFFFFFFFFFFFFFFFFFFFFFFFFFFFFFFFFFFFFFFF AND PUSH20 0xFFFFFFFFFFFFFFFFFFFFFFFFFFFFFFFFFFFFFFFF AND DUP2 MSTORE PUSH1 0x20 ADD SWAP1 DUP2 MSTORE PUSH1 0x20 ADD PUSH1 0x0 KECCAK256 PUSH1 0x1 ADD SLOAD EQ ISZERO JUMPDEST PUSH2 0x15BD JUMPI PUSH1 0x40 MLOAD PUSH32 0x8C379A000000000000000000000000000000000000000000000000000000000 DUP2 MSTORE PUSH1 0x4 ADD PUSH2 0x15B4 SWAP1 PUSH2 0x3988 JUMP JUMPDEST PUSH1 0x40 MLOAD DUP1 SWAP2 SUB SWAP1 REVERT JUMPDEST PUSH2 0x15D1 PUSH8 0x59A16D8ED131BE8C PUSH1 0xC0 SHL PUSH2 0x2A48 JUMP JUMPDEST PUSH2 0x15E5 PUSH8 0x7E2DB054F319C3AD PUSH1 0xC0 SHL PUSH2 0x2A48 JUMP JUMPDEST PUSH2 0x15F9 PUSH8 0x7D450F15E3624EE PUSH1 0xC0 SHL PUSH2 0x2A48 JUMP JUMPDEST PUSH2 0x160D PUSH8 0x8E9ADA0550CD5265 PUSH1 0xC0 SHL PUSH2 0x2A48 JUMP JUMPDEST PUSH2 0x1621 PUSH8 0xE5BC7A281CA3AEEA PUSH1 0xC0 SHL PUSH2 0x2A48 JUMP JUMPDEST PUSH2 0x1635 PUSH8 0x5963B1BB5A3B0E45 PUSH1 0xC0 SHL PUSH2 0x2A48 JUMP JUMPDEST PUSH2 0x1649 PUSH8 0x760DDE685C195B66 PUSH1 0xC0 SHL PUSH2 0x2A48 JUMP JUMPDEST PUSH1 0x0 PUSH1 0xF PUSH1 0x0 DUP4 DUP2 MSTORE PUSH1 0x20 ADD SWAP1 DUP2 MSTORE PUSH1 0x20 ADD PUSH1 0x0 KECCAK256 SLOAD EQ PUSH2 0x169F JUMPI PUSH1 0x40 MLOAD PUSH32 0x8C379A000000000000000000000000000000000000000000000000000000000 DUP2 MSTORE PUSH1 0x4 ADD PUSH2 0x1696 SWAP1 PUSH2 0x3908 JUMP JUMPDEST PUSH1 0x40 MLOAD DUP1 SWAP2 SUB SWAP1 REVERT JUMPDEST PUSH2 0x16B3 PUSH8 0x10E568B871DFCB9A PUSH1 0xC0 SHL PUSH2 0x2A48 JUMP JUMPDEST PUSH2 0x16C7 PUSH8 0x26E7EEFAD82D4A4F PUSH1 0xC0 SHL PUSH2 0x2A48 JUMP JUMPDEST PUSH2 0x16DB PUSH8 0x878CF20E42A4B397 PUSH1 0xC0 SHL PUSH2 0x2A48 JUMP JUMPDEST PUSH2 0x16EF PUSH8 0x6A0E826E33E67EB8 PUSH1 0xC0 SHL PUSH2 0x2A48 JUMP JUMPDEST PUSH1 0x9 SLOAD PUSH1 0xD PUSH1 0x0 CALLER PUSH20 0xFFFFFFFFFFFFFFFFFFFFFFFFFFFFFFFFFFFFFFFF AND PUSH20 0xFFFFFFFFFFFFFFFFFFFFFFFFFFFFFFFFFFFFFFFF AND DUP2 MSTORE PUSH1 0x20 ADD SWAP1 DUP2 MSTORE PUSH1 0x20 ADD PUSH1 0x0 KECCAK256 SLOAD LT ISZERO PUSH2 0x1773 JUMPI PUSH1 0x40 MLOAD PUSH32 0x8C379A000000000000000000000000000000000000000000000000000000000 DUP2 MSTORE PUSH1 0x4 ADD PUSH2 0x176A SWAP1 PUSH2 0x3848 JUMP JUMPDEST PUSH1 0x40 MLOAD DUP1 SWAP2 SUB SWAP1 REVERT JUMPDEST PUSH2 0x1787 PUSH8 0x5FADE33559CC495F PUSH1 0xC0 SHL PUSH2 0x2A48 JUMP JUMPDEST PUSH2 0x179B PUSH8 0x310054C2978E3C13 PUSH1 0xC0 SHL PUSH2 0x2A48 JUMP JUMPDEST ADDRESS PUSH20 0xFFFFFFFFFFFFFFFFFFFFFFFFFFFFFFFFFFFFFFFF AND PUSH4 0x70A08231 CALLER PUSH1 0x40 MLOAD DUP3 PUSH4 0xFFFFFFFF AND PUSH1 0xE0 SHL DUP2 MSTORE PUSH1 0x4 ADD PUSH2 0x17D4 SWAP2 SWAP1 PUSH2 0x37B5 JUMP JUMPDEST PUSH1 0x20 PUSH1 0x40 MLOAD DUP1 DUP4 SUB DUP2 DUP7 DUP1 EXTCODESIZE ISZERO DUP1 ISZERO PUSH2 0x17EC JUMPI PUSH1 0x0 DUP1 REVERT JUMPDEST POP GAS STATICCALL ISZERO DUP1 ISZERO PUSH2 0x1800 JUMPI RETURNDATASIZE PUSH1 0x0 DUP1 RETURNDATACOPY RETURNDATASIZE PUSH1 0x0 REVERT JUMPDEST POP POP POP POP PUSH1 0x40 MLOAD RETURNDATASIZE PUSH1 0x1F NOT PUSH1 0x1F DUP3 ADD AND DUP3 ADD DUP1 PUSH1 0x40 MSTORE POP DUP2 ADD SWAP1 PUSH2 0x1824 SWAP2 SWAP1 PUSH2 0x3483 JUMP JUMPDEST PUSH1 0xF PUSH1 0x0 DUP4 DUP2 MSTORE PUSH1 0x20 ADD SWAP1 DUP2 MSTORE PUSH1 0x20 ADD PUSH1 0x0 KECCAK256 PUSH1 0x0 DUP3 DUP3 SLOAD PUSH2 0x1846 SWAP2 SWAP1 PUSH2 0x3AD5 JUMP JUMPDEST SWAP3 POP POP DUP2 SWAP1 SSTORE POP PUSH2 0x1861 PUSH8 0x8E2BF9FDF2BF41FD PUSH1 0xC0 SHL PUSH2 0x2A48 JUMP JUMPDEST PUSH1 0x40 MLOAD DUP1 PUSH1 0x40 ADD PUSH1 0x40 MSTORE DUP1 DUP3 DUP2 MSTORE PUSH1 0x20 ADD PUSH1 0xC SLOAD DUP2 MSTORE POP PUSH1 0x10 PUSH1 0x0 CALLER PUSH20 0xFFFFFFFFFFFFFFFFFFFFFFFFFFFFFFFFFFFFFFFF AND PUSH20 0xFFFFFFFFFFFFFFFFFFFFFFFFFFFFFFFFFFFFFFFF AND DUP2 MSTORE PUSH1 0x20 ADD SWAP1 DUP2 MSTORE PUSH1 0x20 ADD PUSH1 0x0 KECCAK256 PUSH1 0x0 DUP3 ADD MLOAD DUP2 PUSH1 0x0 ADD SSTORE PUSH1 0x20 DUP3 ADD MLOAD DUP2 PUSH1 0x1 ADD SSTORE SWAP1 POP POP PUSH2 0x18E2 PUSH8 0xDECD9869A1FDB7C6 PUSH1 0xC0 SHL PUSH2 0x2A48 JUMP JUMPDEST PUSH2 0x18F6 PUSH8 0x7C7DCB6C01FB968D PUSH1 0xC0 SHL PUSH2 0x2A48 JUMP JUMPDEST PUSH1 0x11 DUP2 SWAP1 DUP1 PUSH1 0x1 DUP2 SLOAD ADD DUP1 DUP3 SSTORE DUP1 SWAP2 POP POP PUSH1 0x1 SWAP1 SUB SWAP1 PUSH1 0x0 MSTORE PUSH1 0x20 PUSH1 0x0 KECCAK256 ADD PUSH1 0x0 SWAP1 SWAP2 SWAP1 SWAP2 SWAP1 SWAP2 POP SSTORE PUSH2 0x1933 PUSH8 0xFAB3A7640E3B08B2 PUSH1 0xC0 SHL PUSH2 0x2A48 JUMP JUMPDEST PUSH2 0x1947 PUSH8 0xADCBCB8A63AF591A PUSH1 0xC0 SHL PUSH2 0x2A48 JUMP JUMPDEST CALLER PUSH20 0xFFFFFFFFFFFFFFFFFFFFFFFFFFFFFFFFFFFFFFFF AND PUSH32 0x4D99B957A2BC29A30EBD96A7BE8E68FE50A3C701DB28A91436490B7D53870CA4 DUP3 PUSH1 0x40 MLOAD PUSH2 0x198D SWAP2 SWAP1 PUSH2 0x3A83 JUMP JUMPDEST PUSH1 0x40 MLOAD DUP1 SWAP2 SUB SWAP1 LOG2 POP JUMP JUMPDEST PUSH1 0x0 PUSH2 0x19AE PUSH8 0x1F392253FA0D6D7E PUSH1 0xC0 SHL PUSH2 0x2A48 JUMP JUMPDEST PUSH2 0x19C2 PUSH8 0xE87133918BBE7A1A PUSH1 0xC0 SHL PUSH2 0x2A48 JUMP JUMPDEST PUSH2 0x19D6 PUSH8 0x147B46DCF01F13F6 PUSH1 0xC0 SHL PUSH2 0x2A48 JUMP JUMPDEST PUSH1 0xD PUSH1 0x0 DUP4 PUSH20 0xFFFFFFFFFFFFFFFFFFFFFFFFFFFFFFFFFFFFFFFF AND PUSH20 0xFFFFFFFFFFFFFFFFFFFFFFFFFFFFFFFFFFFFFFFF AND DUP2 MSTORE PUSH1 0x20 ADD SWAP1 DUP2 MSTORE PUSH1 0x20 ADD PUSH1 0x0 KECCAK256 SLOAD SWAP1 POP SWAP2 SWAP1 POP JUMP JUMPDEST PUSH2 0x1A31 PUSH8 0x324580BD7CB5373F PUSH1 0xC0 SHL PUSH2 0x2A48 JUMP JUMPDEST PUSH2 0x1A45 PUSH8 0x8968A55192AFEBF2 PUSH1 0xC0 SHL PUSH2 0x2A48 JUMP JUMPDEST PUSH2 0x1A59 PUSH8 0xC682429AD30395E2 PUSH1 0xC0 SHL PUSH2 0x2A48 JUMP JUMPDEST PUSH2 0x1A6D PUSH8 0xD4EB27A49F0FFB89 PUSH1 0xC0 SHL PUSH2 0x2A48 JUMP JUMPDEST PUSH2 0x1A81 PUSH8 0x28C06523E28AF140 PUSH1 0xC0 SHL PUSH2 0x2A48 JUMP JUMPDEST PUSH1 0x7 PUSH1 0x0 SWAP1 SLOAD SWAP1 PUSH2 0x100 EXP SWAP1 DIV PUSH20 0xFFFFFFFFFFFFFFFFFFFFFFFFFFFFFFFFFFFFFFFF AND PUSH20 0xFFFFFFFFFFFFFFFFFFFFFFFFFFFFFFFFFFFFFFFF AND CALLER PUSH20 0xFFFFFFFFFFFFFFFFFFFFFFFFFFFFFFFFFFFFFFFF AND EQ PUSH2 0x1B11 JUMPI PUSH1 0x40 MLOAD PUSH32 0x8C379A000000000000000000000000000000000000000000000000000000000 DUP2 MSTORE PUSH1 0x4 ADD PUSH2 0x1B08 SWAP1 PUSH2 0x3868 JUMP JUMPDEST PUSH1 0x40 MLOAD DUP1 SWAP2 SUB SWAP1 REVERT JUMPDEST PUSH2 0x1B25 PUSH8 0x9431577E4145329 PUSH1 0xC0 SHL PUSH2 0x2A48 JUMP JUMPDEST PUSH2 0x1B39 PUSH8 0xB3E8DB5699FB815F PUSH1 0xC0 SHL PUSH2 0x2A48 JUMP JUMPDEST PUSH2 0x1B4D PUSH8 0x28DFD0CD61F5690C PUSH1 0xC0 SHL PUSH2 0x2A48 JUMP JUMPDEST PUSH2 0x1B61 PUSH8 0x4BBE44252DE580FE PUSH1 0xC0 SHL PUSH2 0x2A48 JUMP JUMPDEST PUSH2 0x1B75 PUSH8 0x22D8AB05A1EB32F5 PUSH1 0xC0 SHL PUSH2 0x2A48 JUMP JUMPDEST PUSH2 0x1B89 PUSH8 0x75DA303A202F805E PUSH1 0xC0 SHL PUSH2 0x2A48 JUMP JUMPDEST PUSH2 0x1B9D PUSH8 0x8DF656C51BEA97FC PUSH1 0xC0 SHL PUSH2 0x2A48 JUMP JUMPDEST PUSH2 0x2710 PUSH2 0xFFFF AND DUP2 LT PUSH2 0x1BE5 JUMPI PUSH1 0x40 MLOAD PUSH32 0x8C379A000000000000000000000000000000000000000000000000000000000 DUP2 MSTORE PUSH1 0x4 ADD PUSH2 0x1BDC SWAP1 PUSH2 0x39E8 JUMP JUMPDEST PUSH1 0x40 MLOAD DUP1 SWAP2 SUB SWAP1 REVERT JUMPDEST PUSH2 0x1BF9 PUSH8 0x5BF270EBCEE34639 PUSH1 0xC0 SHL PUSH2 0x2A48 JUMP JUMPDEST PUSH2 0x1C0D PUSH8 0x82BD8194AD583CC4 PUSH1 0xC0 SHL PUSH2 0x2A48 JUMP JUMPDEST DUP1 PUSH1 0x6 DUP2 SWAP1 SSTORE POP POP JUMP JUMPDEST PUSH1 0x6 SLOAD DUP2 JUMP JUMPDEST PUSH1 0x5 SLOAD DUP2 JUMP JUMPDEST PUSH1 0x9 SLOAD DUP2 JUMP JUMPDEST PUSH1 0x7 PUSH1 0x0 SWAP1 SLOAD SWAP1 PUSH2 0x100 EXP SWAP1 DIV PUSH20 0xFFFFFFFFFFFFFFFFFFFFFFFFFFFFFFFFFFFFFFFF AND DUP2 JUMP JUMPDEST PUSH1 0xC SLOAD DUP2 JUMP JUMPDEST PUSH1 0xA SLOAD DUP2 JUMP JUMPDEST PUSH1 0x1 DUP1 SLOAD PUSH2 0x1C68 SWAP1 PUSH2 0x3C92 JUMP JUMPDEST DUP1 PUSH1 0x1F ADD PUSH1 0x20 DUP1 SWAP2 DIV MUL PUSH1 0x20 ADD PUSH1 0x40 MLOAD SWAP1 DUP2 ADD PUSH1 0x40 MSTORE DUP1 SWAP3 SWAP2 SWAP1 DUP2 DUP2 MSTORE PUSH1 0x20 ADD DUP3 DUP1 SLOAD PUSH2 0x1C94 SWAP1 PUSH2 0x3C92 JUMP JUMPDEST DUP1 ISZERO PUSH2 0x1CE1 JUMPI DUP1 PUSH1 0x1F LT PUSH2 0x1CB6 JUMPI PUSH2 0x100 DUP1 DUP4 SLOAD DIV MUL DUP4 MSTORE SWAP2 PUSH1 0x20 ADD SWAP2 PUSH2 0x1CE1 JUMP JUMPDEST DUP3 ADD SWAP2 SWAP1 PUSH1 0x0 MSTORE PUSH1 0x20 PUSH1 0x0 KECCAK256 SWAP1 JUMPDEST DUP2 SLOAD DUP2 MSTORE SWAP1 PUSH1 0x1 ADD SWAP1 PUSH1 0x20 ADD DUP1 DUP4 GT PUSH2 0x1CC4 JUMPI DUP3 SWAP1 SUB PUSH1 0x1F AND DUP3 ADD SWAP2 JUMPDEST POP POP POP POP POP DUP2 JUMP JUMPDEST PUSH1 0x11 DUP2 DUP2 SLOAD DUP2 LT PUSH2 0x1CF9 JUMPI PUSH1 0x0 DUP1 REVERT JUMPDEST SWAP1 PUSH1 0x0 MSTORE PUSH1 0x20 PUSH1 0x0 KECCAK256 ADD PUSH1 0x0 SWAP2 POP SWAP1 POP SLOAD DUP2 JUMP JUMPDEST PUSH1 0x0 PUSH2 0x1D23 PUSH8 0x9AA244BEFA95DB83 PUSH1 0xC0 SHL PUSH2 0x2A48 JUMP JUMPDEST PUSH2 0x1D37 PUSH8 0x2FC8CFE43D817D16 PUSH1 0xC0 SHL PUSH2 0x2A48 JUMP JUMPDEST PUSH2 0x1D4B PUSH8 0xD2E51DD36E3B9D81 PUSH1 0xC0 SHL PUSH2 0x2A48 JUMP JUMPDEST PUSH2 0x1D5F PUSH8 0xA6DD19242279AE1A PUSH1 0xC0 SHL PUSH2 0x2A48 JUMP JUMPDEST PUSH1 0x0 CALLVALUE GT PUSH2 0x1DA2 JUMPI PUSH1 0x40 MLOAD PUSH32 0x8C379A000000000000000000000000000000000000000000000000000000000 DUP2 MSTORE PUSH1 0x4 ADD PUSH2 0x1D99 SWAP1 PUSH2 0x39A8 JUMP JUMPDEST PUSH1 0x40 MLOAD DUP1 SWAP2 SUB SWAP1 REVERT JUMPDEST PUSH2 0x1DB6 PUSH8 0xAFDE67001BEC8C9D PUSH1 0xC0 SHL PUSH2 0x2A48 JUMP JUMPDEST PUSH2 0x1DCA PUSH8 0xB9F9367EB7374E7E PUSH1 0xC0 SHL PUSH2 0x2A48 JUMP JUMPDEST PUSH2 0x1DDE PUSH8 0x81811534212D7945 PUSH1 0xC0 SHL PUSH2 0x2A48 JUMP JUMPDEST PUSH1 0x0 PUSH2 0x2710 PUSH2 0xFFFF AND PUSH1 0x6 SLOAD CALLVALUE PUSH2 0x1DF5 SWAP2 SWAP1 PUSH2 0x3B5C JUMP JUMPDEST PUSH2 0x1DFF SWAP2 SWAP1 PUSH2 0x3B2B JUMP JUMPDEST SWAP1 POP PUSH2 0x1E15 PUSH8 0xE0E6EE76E12F06DC PUSH1 0xC0 SHL PUSH2 0x2A48 JUMP JUMPDEST PUSH2 0x1E29 PUSH8 0xE1D093001FD1FBCE PUSH1 0xC0 SHL PUSH2 0x2A48 JUMP JUMPDEST PUSH1 0x0 DUP2 CALLVALUE PUSH2 0x1E37 SWAP2 SWAP1 PUSH2 0x3BB6 JUMP JUMPDEST SWAP1 POP PUSH2 0x1E4D PUSH8 0x4E428F12336082ED PUSH1 0xC0 SHL PUSH2 0x2A48 JUMP JUMPDEST PUSH2 0x1E61 PUSH8 0x17FB0337759165A PUSH1 0xC0 SHL PUSH2 0x2A48 JUMP JUMPDEST PUSH1 0x0 PUSH1 0x5 SLOAD DUP3 PUSH2 0x1E71 SWAP2 SWAP1 PUSH2 0x3B2B JUMP JUMPDEST SWAP1 POP PUSH2 0x1E87 PUSH8 0x23BB0176D7566067 PUSH1 0xC0 SHL PUSH2 0x2A48 JUMP JUMPDEST PUSH2 0x1E9B PUSH8 0xE79FAD2FC61FC90D PUSH1 0xC0 SHL PUSH2 0x2A48 JUMP JUMPDEST PUSH2 0x1EAF PUSH8 0xA1042EED733DA41A PUSH1 0xC0 SHL PUSH2 0x2A48 JUMP JUMPDEST PUSH1 0x4 SLOAD PUSH1 0x3 SLOAD PUSH2 0x1EBF SWAP2 SWAP1 PUSH2 0x3BB6 JUMP JUMPDEST DUP2 GT ISZERO PUSH2 0x1F01 JUMPI PUSH1 0x40 MLOAD PUSH32 0x8C379A000000000000000000000000000000000000000000000000000000000 DUP2 MSTORE PUSH1 0x4 ADD PUSH2 0x1EF8 SWAP1 PUSH2 0x38E8 JUMP JUMPDEST PUSH1 0x40 MLOAD DUP1 SWAP2 SUB SWAP1 REVERT JUMPDEST PUSH2 0x1F15 PUSH8 0x9058C1B2D4044C10 PUSH1 0xC0 SHL PUSH2 0x2A48 JUMP JUMPDEST PUSH2 0x1F29 PUSH8 0xAA7ECBC20FFB4F32 PUSH1 0xC0 SHL PUSH2 0x2A48 JUMP JUMPDEST PUSH2 0x1F3D PUSH8 0xE731AE2E5011F4A2 PUSH1 0xC0 SHL PUSH2 0x2A48 JUMP JUMPDEST PUSH2 0x1F47 CALLER DUP3 PUSH2 0x2E49 JUMP JUMPDEST PUSH2 0x1F5B PUSH8 0xE590E0CE11142F44 PUSH1 0xC0 SHL PUSH2 0x2A48 JUMP JUMPDEST PUSH2 0x1F6F PUSH8 0x8691DA72642E4FCF PUSH1 0xC0 SHL PUSH2 0x2A48 JUMP JUMPDEST PUSH1 0x0 PUSH1 0x10 PUSH1 0x0 CALLER PUSH20 0xFFFFFFFFFFFFFFFFFFFFFFFFFFFFFFFFFFFFFFFF AND PUSH20 0xFFFFFFFFFFFFFFFFFFFFFFFFFFFFFFFFFFFFFFFF AND DUP2 MSTORE PUSH1 0x20 ADD SWAP1 DUP2 MSTORE PUSH1 0x20 ADD PUSH1 0x0 KECCAK256 PUSH1 0x0 ADD SLOAD EQ ISZERO DUP1 ISZERO PUSH2 0x2005 JUMPI POP PUSH1 0xC SLOAD PUSH1 0x10 PUSH1 0x0 CALLER PUSH20 0xFFFFFFFFFFFFFFFFFFFFFFFFFFFFFFFFFFFFFFFF AND PUSH20 0xFFFFFFFFFFFFFFFFFFFFFFFFFFFFFFFFFFFFFFFF AND DUP2 MSTORE PUSH1 0x20 ADD SWAP1 DUP2 MSTORE PUSH1 0x20 ADD PUSH1 0x0 KECCAK256 PUSH1 0x1 ADD SLOAD EQ JUMPDEST ISZERO PUSH2 0x20A3 JUMPI PUSH2 0x201E PUSH8 0x164F71A5828543EB PUSH1 0xC0 SHL PUSH2 0x2A48 JUMP JUMPDEST PUSH2 0x2032 PUSH8 0xBB4B38CB7ACC03F0 PUSH1 0xC0 SHL PUSH2 0x2A48 JUMP JUMPDEST DUP1 PUSH1 0xF PUSH1 0x0 PUSH1 0x10 PUSH1 0x0 CALLER PUSH20 0xFFFFFFFFFFFFFFFFFFFFFFFFFFFFFFFFFFFFFFFF AND PUSH20 0xFFFFFFFFFFFFFFFFFFFFFFFFFFFFFFFFFFFFFFFF AND DUP2 MSTORE PUSH1 0x20 ADD SWAP1 DUP2 MSTORE PUSH1 0x20 ADD PUSH1 0x0 KECCAK256 PUSH1 0x0 ADD SLOAD DUP2 MSTORE PUSH1 0x20 ADD SWAP1 DUP2 MSTORE PUSH1 0x20 ADD PUSH1 0x0 KECCAK256 PUSH1 0x0 DUP3 DUP3 SLOAD PUSH2 0x2097 SWAP2 SWAP1 PUSH2 0x3AD5 JUMP JUMPDEST SWAP3 POP POP DUP2 SWAP1 SSTORE POP PUSH2 0x20B8 JUMP JUMPDEST PUSH2 0x20B7 PUSH8 0x540876FC21AEB938 PUSH1 0xC0 SHL PUSH2 0x2A48 JUMP JUMPDEST JUMPDEST PUSH2 0x20CC PUSH8 0xDD94BC5339A6A7C1 PUSH1 0xC0 SHL PUSH2 0x2A48 JUMP JUMPDEST PUSH2 0x20E0 PUSH8 0xAF5C0A17BD41B752 PUSH1 0xC0 SHL PUSH2 0x2A48 JUMP JUMPDEST PUSH1 0x1 SWAP4 POP POP POP POP SWAP1 JUMP JUMPDEST PUSH1 0x0 PUSH2 0x2100 PUSH8 0x76B1C4876C364958 PUSH1 0xC0 SHL PUSH2 0x2A48 JUMP JUMPDEST PUSH2 0x2114 PUSH8 0xE222961F050CFCC7 PUSH1 0xC0 SHL PUSH2 0x2A48 JUMP JUMPDEST PUSH2 0x2128 PUSH8 0x59AA5CCC38EFA84B PUSH1 0xC0 SHL PUSH2 0x2A48 JUMP JUMPDEST PUSH2 0x2133 CALLER DUP5 DUP5 PUSH2 0x2A4B JUMP JUMPDEST PUSH2 0x2147 PUSH8 0x63AE3C9BABF4055 PUSH1 0xC0 SHL PUSH2 0x2A48 JUMP JUMPDEST PUSH2 0x215B PUSH8 0x99D2CB7CD0175BD0 PUSH1 0xC0 SHL PUSH2 0x2A48 JUMP JUMPDEST PUSH1 0x1 SWAP1 POP SWAP3 SWAP2 POP POP JUMP JUMPDEST PUSH1 0x8 SLOAD DUP2 JUMP JUMPDEST PUSH2 0x217F PUSH8 0xC4164F4E263E900D PUSH1 0xC0 SHL PUSH2 0x2A48 JUMP JUMPDEST PUSH2 0x2193 PUSH8 0x736A9F065B3584B7 PUSH1 0xC0 SHL PUSH2 0x2A48 JUMP JUMPDEST PUSH2 0x21A7 PUSH8 0xE665BD0C20554D5E PUSH1 0xC0 SHL PUSH2 0x2A48 JUMP JUMPDEST PUSH2 0x21BB PUSH8 0x78952DE8F57D4E05 PUSH1 0xC0 SHL PUSH2 0x2A48 JUMP JUMPDEST PUSH1 0xB SLOAD TIMESTAMP GT PUSH2 0x21FF JUMPI PUSH1 0x40 MLOAD PUSH32 0x8C379A000000000000000000000000000000000000000000000000000000000 DUP2 MSTORE PUSH1 0x4 ADD PUSH2 0x21F6 SWAP1 PUSH2 0x3928 JUMP JUMPDEST PUSH1 0x40 MLOAD DUP1 SWAP2 SUB SWAP1 REVERT JUMPDEST PUSH2 0x2213 PUSH8 0x67DD0836C61EA7E5 PUSH1 0xC0 SHL PUSH2 0x2A48 JUMP JUMPDEST PUSH2 0x2227 PUSH8 0x32EB9877FAC9BEEF PUSH1 0xC0 SHL PUSH2 0x2A48 JUMP JUMPDEST PUSH2 0x223B PUSH8 0xE9F1F36A32113A8 PUSH1 0xC0 SHL PUSH2 0x2A48 JUMP JUMPDEST PUSH1 0x0 PUSH2 0x2251 PUSH8 0x253BFB433AFE922B PUSH1 0xC0 SHL PUSH2 0x2A48 JUMP JUMPDEST PUSH2 0x2265 PUSH8 0xFC28E274756CFF37 PUSH1 0xC0 SHL PUSH2 0x2A48 JUMP JUMPDEST PUSH1 0x0 PUSH2 0x227B PUSH8 0x6330543D44D657A3 PUSH1 0xC0 SHL PUSH2 0x2A48 JUMP JUMPDEST PUSH2 0x228F PUSH8 0x814DFDF2F417438A PUSH1 0xC0 SHL PUSH2 0x2A48 JUMP JUMPDEST PUSH1 0x0 PUSH2 0x22A5 PUSH8 0x96CAD21D2CCD3E4E PUSH1 0xC0 SHL PUSH2 0x2A48 JUMP JUMPDEST PUSH2 0x22B9 PUSH8 0x3DAE592AEE34A966 PUSH1 0xC0 SHL PUSH2 0x2A48 JUMP JUMPDEST PUSH1 0x0 JUMPDEST PUSH1 0x11 DUP1 SLOAD SWAP1 POP DUP2 LT ISZERO PUSH2 0x2489 JUMPI PUSH2 0x22DD PUSH8 0x5B77A1FA586FD054 PUSH1 0xC0 SHL PUSH2 0x2A48 JUMP JUMPDEST PUSH1 0xF PUSH1 0x0 PUSH1 0x11 DUP4 DUP2 SLOAD DUP2 LT PUSH2 0x231B JUMPI PUSH32 0x4E487B7100000000000000000000000000000000000000000000000000000000 PUSH1 0x0 MSTORE PUSH1 0x32 PUSH1 0x4 MSTORE PUSH1 0x24 PUSH1 0x0 REVERT JUMPDEST SWAP1 PUSH1 0x0 MSTORE PUSH1 0x20 PUSH1 0x0 KECCAK256 ADD SLOAD DUP2 MSTORE PUSH1 0x20 ADD SWAP1 DUP2 MSTORE PUSH1 0x20 ADD PUSH1 0x0 KECCAK256 SLOAD SWAP3 POP PUSH2 0x234B PUSH8 0xF3D5070AA3737927 PUSH1 0xC0 SHL PUSH2 0x2A48 JUMP JUMPDEST PUSH2 0x235F PUSH8 0x963F45CDECA795DF PUSH1 0xC0 SHL PUSH2 0x2A48 JUMP JUMPDEST DUP4 DUP4 GT ISZERO PUSH2 0x23F2 JUMPI PUSH2 0x237B PUSH8 0x26D2749F0CD4EDC5 PUSH1 0xC0 SHL PUSH2 0x2A48 JUMP JUMPDEST PUSH2 0x238F PUSH8 0x7FFCD818840BA21E PUSH1 0xC0 SHL PUSH2 0x2A48 JUMP JUMPDEST DUP3 SWAP4 POP PUSH2 0x23A6 PUSH8 0xBE5FC42C1DE485E2 PUSH1 0xC0 SHL PUSH2 0x2A48 JUMP JUMPDEST PUSH1 0x11 DUP2 DUP2 SLOAD DUP2 LT PUSH2 0x23E0 JUMPI PUSH32 0x4E487B7100000000000000000000000000000000000000000000000000000000 PUSH1 0x0 MSTORE PUSH1 0x32 PUSH1 0x4 MSTORE PUSH1 0x24 PUSH1 0x0 REVERT JUMPDEST SWAP1 PUSH1 0x0 MSTORE PUSH1 0x20 PUSH1 0x0 KECCAK256 ADD SLOAD SWAP2 POP PUSH2 0x2407 JUMP JUMPDEST PUSH2 0x2406 PUSH8 0x1B061A6EC4B55C2A PUSH1 0xC0 SHL PUSH2 0x2A48 JUMP JUMPDEST JUMPDEST PUSH2 0x241B PUSH8 0xA0531E81CCC1896A PUSH1 0xC0 SHL PUSH2 0x2A48 JUMP JUMPDEST PUSH1 0xF PUSH1 0x0 PUSH1 0x11 DUP4 DUP2 SLOAD DUP2 LT PUSH2 0x2459 JUMPI PUSH32 0x4E487B7100000000000000000000000000000000000000000000000000000000 PUSH1 0x0 MSTORE PUSH1 0x32 PUSH1 0x4 MSTORE PUSH1 0x24 PUSH1 0x0 REVERT JUMPDEST SWAP1 PUSH1 0x0 MSTORE PUSH1 0x20 PUSH1 0x0 KECCAK256 ADD SLOAD DUP2 MSTORE PUSH1 0x20 ADD SWAP1 DUP2 MSTORE PUSH1 0x20 ADD PUSH1 0x0 KECCAK256 PUSH1 0x0 SWAP1 SSTORE DUP1 DUP1 PUSH2 0x2481 SWAP1 PUSH2 0x3CC4 JUMP JUMPDEST SWAP2 POP POP PUSH2 0x22BC JUMP JUMPDEST POP PUSH2 0x249E PUSH8 0x9B1267DACDB40F9F PUSH1 0xC0 SHL PUSH2 0x2A48 JUMP JUMPDEST PUSH2 0x24B2 PUSH8 0x4A2CEB25513120B9 PUSH1 0xC0 SHL PUSH2 0x2A48 JUMP JUMPDEST PUSH1 0x0 DUP4 EQ PUSH2 0x257E JUMPI PUSH2 0x24CE PUSH8 0x2E47B39672FBD09D PUSH1 0xC0 SHL PUSH2 0x2A48 JUMP JUMPDEST PUSH2 0x24E2 PUSH8 0x407DEEE55096F064 PUSH1 0xC0 SHL PUSH2 0x2A48 JUMP JUMPDEST DUP1 PUSH1 0x5 DUP2 SWAP1 SSTORE POP PUSH2 0x24FD PUSH8 0x2149CFAF2B231764 PUSH1 0xC0 SHL PUSH2 0x2A48 JUMP JUMPDEST PUSH1 0x0 PUSH1 0x2 PUSH1 0x0 PUSH2 0x100 EXP DUP2 SLOAD DUP2 PUSH1 0xFF MUL NOT AND SWAP1 DUP4 ISZERO ISZERO MUL OR SWAP1 SSTORE POP PUSH2 0x252C PUSH8 0x360BB9A65F5BA7A5 PUSH1 0xC0 SHL PUSH2 0x2A48 JUMP JUMPDEST PUSH2 0x2540 PUSH8 0xFC7FD083EEB783E4 PUSH1 0xC0 SHL PUSH2 0x2A48 JUMP JUMPDEST PUSH32 0xA6DC15BDB68DA224C66DB4B3838D9A2B205138E8CFF6774E57D0AF91E196D622 PUSH1 0x5 SLOAD PUSH1 0x40 MLOAD PUSH2 0x2571 SWAP2 SWAP1 PUSH2 0x3A83 JUMP JUMPDEST PUSH1 0x40 MLOAD DUP1 SWAP2 SUB SWAP1 LOG1 PUSH2 0x2593 JUMP JUMPDEST PUSH2 0x2592 PUSH8 0x5499B2BF8E0A0B65 PUSH1 0xC0 SHL PUSH2 0x2A48 JUMP JUMPDEST JUMPDEST POP POP POP JUMP JUMPDEST PUSH1 0x12 SLOAD DUP2 JUMP JUMPDEST PUSH1 0x0 PUSH2 0x25B4 PUSH8 0xB32A8B605B52836D PUSH1 0xC0 SHL PUSH2 0x2A48 JUMP JUMPDEST PUSH2 0x25C8 PUSH8 0x2380F5596E85B6F0 PUSH1 0xC0 SHL PUSH2 0x2A48 JUMP JUMPDEST PUSH2 0x25DC PUSH8 0x352A02E3FD67C9D0 PUSH1 0xC0 SHL PUSH2 0x2A48 JUMP JUMPDEST PUSH1 0xF PUSH1 0x0 DUP4 DUP2 MSTORE PUSH1 0x20 ADD SWAP1 DUP2 MSTORE PUSH1 0x20 ADD PUSH1 0x0 KECCAK256 SLOAD SWAP1 POP SWAP2 SWAP1 POP JUMP JUMPDEST PUSH2 0x2710 DUP2 JUMP JUMPDEST PUSH1 0x0 PUSH2 0x2613 PUSH8 0xCB45446CA6F5C4A6 PUSH1 0xC0 SHL PUSH2 0x2A48 JUMP JUMPDEST PUSH2 0x2627 PUSH8 0xA3C64F05FB99B940 PUSH1 0xC0 SHL PUSH2 0x2A48 JUMP JUMPDEST PUSH2 0x263B PUSH8 0x2E3198D6B16BCF80 PUSH1 0xC0 SHL PUSH2 0x2A48 JUMP JUMPDEST PUSH1 0xE PUSH1 0x0 DUP5 PUSH20 0xFFFFFFFFFFFFFFFFFFFFFFFFFFFFFFFFFFFFFFFF AND PUSH20 0xFFFFFFFFFFFFFFFFFFFFFFFFFFFFFFFFFFFFFFFF AND DUP2 MSTORE PUSH1 0x20 ADD SWAP1 DUP2 MSTORE PUSH1 0x20 ADD PUSH1 0x0 KECCAK256 PUSH1 0x0 DUP4 PUSH20 0xFFFFFFFFFFFFFFFFFFFFFFFFFFFFFFFFFFFFFFFF AND PUSH20 0xFFFFFFFFFFFFFFFFFFFFFFFFFFFFFFFFFFFFFFFF AND DUP2 MSTORE PUSH1 0x20 ADD SWAP1 DUP2 MSTORE PUSH1 0x20 ADD PUSH1 0x0 KECCAK256 SLOAD SWAP1 POP SWAP3 SWAP2 POP POP JUMP JUMPDEST PUSH1 0x0 PUSH2 0x26D6 PUSH8 0x28F309FA92F6DD48 PUSH1 0xC0 SHL PUSH2 0x2A48 JUMP JUMPDEST PUSH2 0x26EA PUSH8 0x37CD1E277DF8FEE9 PUSH1 0xC0 SHL PUSH2 0x2A48 JUMP JUMPDEST PUSH2 0x26FE PUSH8 0xCCBE9DA2EDBF7BA2 PUSH1 0xC0 SHL PUSH2 0x2A48 JUMP JUMPDEST PUSH2 0x2712 PUSH8 0xFEBE3A2671457003 PUSH1 0xC0 SHL PUSH2 0x2A48 JUMP JUMPDEST DUP2 ADDRESS PUSH20 0xFFFFFFFFFFFFFFFFFFFFFFFFFFFFFFFFFFFFFFFF AND PUSH4 0x70A08231 CALLER PUSH1 0x40 MLOAD DUP3 PUSH4 0xFFFFFFFF AND PUSH1 0xE0 SHL DUP2 MSTORE PUSH1 0x4 ADD PUSH2 0x274C SWAP2 SWAP1 PUSH2 0x37B5 JUMP JUMPDEST PUSH1 0x20 PUSH1 0x40 MLOAD DUP1 DUP4 SUB DUP2 DUP7 DUP1 EXTCODESIZE ISZERO DUP1 ISZERO PUSH2 0x2764 JUMPI PUSH1 0x0 DUP1 REVERT JUMPDEST POP GAS STATICCALL ISZERO DUP1 ISZERO PUSH2 0x2778 JUMPI RETURNDATASIZE PUSH1 0x0 DUP1 RETURNDATACOPY RETURNDATASIZE PUSH1 0x0 REVERT JUMPDEST POP POP POP POP PUSH1 0x40 MLOAD RETURNDATASIZE PUSH1 0x1F NOT PUSH1 0x1F DUP3 ADD AND DUP3 ADD DUP1 PUSH1 0x40 MSTORE POP DUP2 ADD SWAP1 PUSH2 0x279C SWAP2 SWAP1 PUSH2 0x3483 JUMP JUMPDEST LT ISZERO PUSH2 0x27DD JUMPI PUSH1 0x40 MLOAD PUSH32 0x8C379A000000000000000000000000000000000000000000000000000000000 DUP2 MSTORE PUSH1 0x4 ADD PUSH2 0x27D4 SWAP1 PUSH2 0x3A28 JUMP JUMPDEST PUSH1 0x40 MLOAD DUP1 SWAP2 SUB SWAP1 REVERT JUMPDEST PUSH2 0x27F1 PUSH8 0xB732E79A5912CE2A PUSH1 0xC0 SHL PUSH2 0x2A48 JUMP JUMPDEST PUSH2 0x2805 PUSH8 0x44D2F83CAD29235A PUSH1 0xC0 SHL PUSH2 0x2A48 JUMP JUMPDEST PUSH2 0x2819 PUSH8 0x7CDDF9C5E0CCE2C1 PUSH1 0xC0 SHL PUSH2 0x2A48 JUMP JUMPDEST PUSH1 0x0 PUSH1 0x5 SLOAD DUP4 PUSH2 0x2829 SWAP2 SWAP1 PUSH2 0x3B5C JUMP JUMPDEST SWAP1 POP PUSH2 0x283F PUSH8 0xF2D526DBBFFE7E64 PUSH1 0xC0 SHL PUSH2 0x2A48 JUMP JUMPDEST PUSH2 0x2853 PUSH8 0x11C8B6F61E59DC2 PUSH1 0xC0 SHL PUSH2 0x2A48 JUMP JUMPDEST PUSH1 0x0 PUSH2 0x2710 PUSH2 0xFFFF AND PUSH1 0x6 SLOAD DUP4 PUSH2 0x286A SWAP2 SWAP1 PUSH2 0x3B5C JUMP JUMPDEST PUSH2 0x2874 SWAP2 SWAP1 PUSH2 0x3B2B JUMP JUMPDEST SWAP1 POP PUSH2 0x288A PUSH8 0xA48E7AAF8FE5DD04 PUSH1 0xC0 SHL PUSH2 0x2A48 JUMP JUMPDEST PUSH2 0x289E PUSH8 0x8BC2669907CEA1FA PUSH1 0xC0 SHL PUSH2 0x2A48 JUMP JUMPDEST PUSH1 0x0 DUP2 DUP4 PUSH2 0x28AC SWAP2 SWAP1 PUSH2 0x3BB6 JUMP JUMPDEST SWAP1 POP PUSH2 0x28C2 PUSH8 0x6A767099A6BD979C PUSH1 0xC0 SHL PUSH2 0x2A48 JUMP JUMPDEST PUSH2 0x28D6 PUSH8 0x664677DD97F2C72F PUSH1 0xC0 SHL PUSH2 0x2A48 JUMP JUMPDEST PUSH2 0x28EA PUSH8 0x4CF9BA19CD59C653 PUSH1 0xC0 SHL PUSH2 0x2A48 JUMP JUMPDEST DUP1 SELFBALANCE LT ISZERO PUSH2 0x292D JUMPI PUSH1 0x40 MLOAD PUSH32 0x8C379A000000000000000000000000000000000000000000000000000000000 DUP2 MSTORE PUSH1 0x4 ADD PUSH2 0x2924 SWAP1 PUSH2 0x3948 JUMP JUMPDEST PUSH1 0x40 MLOAD DUP1 SWAP2 SUB SWAP1 REVERT JUMPDEST PUSH2 0x2941 PUSH8 0x214354B6E3A44887 PUSH1 0xC0 SHL PUSH2 0x2A48 JUMP JUMPDEST PUSH2 0x2955 PUSH8 0xFA38F028781D9489 PUSH1 0xC0 SHL PUSH2 0x2A48 JUMP JUMPDEST PUSH2 0x2969 PUSH8 0x8CA3AF12CD6AD5F6 PUSH1 0xC0 SHL PUSH2 0x2A48 JUMP JUMPDEST PUSH2 0x2973 CALLER DUP7 PUSH2 0x2EF8 JUMP JUMPDEST PUSH2 0x2987 PUSH8 0x7FE35147B69A7FA8 PUSH1 0xC0 SHL PUSH2 0x2A48 JUMP JUMPDEST PUSH2 0x299B PUSH8 0x63364121A6E519C9 PUSH1 0xC0 SHL PUSH2 0x2A48 JUMP JUMPDEST PUSH2 0x29A5 CALLER DUP7 PUSH2 0x2FA7 JUMP JUMPDEST PUSH2 0x29B9 PUSH8 0xDF4AD59F19658D89 PUSH1 0xC0 SHL PUSH2 0x2A48 JUMP JUMPDEST PUSH2 0x29CD PUSH8 0xF5C2DBFF26A016BB PUSH1 0xC0 SHL PUSH2 0x2A48 JUMP JUMPDEST CALLER PUSH20 0xFFFFFFFFFFFFFFFFFFFFFFFFFFFFFFFFFFFFFFFF AND PUSH2 0x8FC DUP3 SWAP1 DUP2 ISZERO MUL SWAP1 PUSH1 0x40 MLOAD PUSH1 0x0 PUSH1 0x40 MLOAD DUP1 DUP4 SUB DUP2 DUP6 DUP9 DUP9 CALL SWAP4 POP POP POP POP ISZERO DUP1 ISZERO PUSH2 0x2A13 JUMPI RETURNDATASIZE PUSH1 0x0 DUP1 RETURNDATACOPY RETURNDATASIZE PUSH1 0x0 REVERT JUMPDEST POP PUSH2 0x2A28 PUSH8 0xF643664AD317F9F9 PUSH1 0xC0 SHL PUSH2 0x2A48 JUMP JUMPDEST PUSH2 0x2A3C PUSH8 0x1C08DD8BCBE486F6 PUSH1 0xC0 SHL PUSH2 0x2A48 JUMP JUMPDEST PUSH1 0x1 SWAP4 POP POP POP POP SWAP2 SWAP1 POP JUMP JUMPDEST POP JUMP JUMPDEST PUSH2 0x2A5F PUSH8 0x7A4B28CA48D73D13 PUSH1 0xC0 SHL PUSH2 0x2A48 JUMP JUMPDEST PUSH2 0x2A73 PUSH8 0x80F869844C67FF66 PUSH1 0xC0 SHL PUSH2 0x2A48 JUMP JUMPDEST PUSH2 0x2A87 PUSH8 0xEF407C8C86E5EB55 PUSH1 0xC0 SHL PUSH2 0x2A48 JUMP JUMPDEST PUSH2 0x2A9B PUSH8 0x6637F2A996714151 PUSH1 0xC0 SHL PUSH2 0x2A48 JUMP JUMPDEST PUSH1 0x0 PUSH20 0xFFFFFFFFFFFFFFFFFFFFFFFFFFFFFFFFFFFFFFFF AND DUP4 PUSH20 0xFFFFFFFFFFFFFFFFFFFFFFFFFFFFFFFFFFFFFFFF AND EQ ISZERO PUSH2 0x2B0B JUMPI PUSH1 0x40 MLOAD PUSH32 0x8C379A000000000000000000000000000000000000000000000000000000000 DUP2 MSTORE PUSH1 0x4 ADD PUSH2 0x2B02 SWAP1 PUSH2 0x3828 JUMP JUMPDEST PUSH1 0x40 MLOAD DUP1 SWAP2 SUB SWAP1 REVERT JUMPDEST PUSH2 0x2B1F PUSH8 0x433161E97515CDAE PUSH1 0xC0 SHL PUSH2 0x2A48 JUMP JUMPDEST PUSH2 0x2B33 PUSH8 0x5A1724419C9ED291 PUSH1 0xC0 SHL PUSH2 0x2A48 JUMP JUMPDEST PUSH2 0x2B47 PUSH8 0xA27339D023A2BFB0 PUSH1 0xC0 SHL PUSH2 0x2A48 JUMP JUMPDEST PUSH2 0x2B5B PUSH8 0x4D63BFC7F1F237CA PUSH1 0xC0 SHL PUSH2 0x2A48 JUMP JUMPDEST PUSH1 0x0 PUSH20 0xFFFFFFFFFFFFFFFFFFFFFFFFFFFFFFFFFFFFFFFF AND DUP3 PUSH20 0xFFFFFFFFFFFFFFFFFFFFFFFFFFFFFFFFFFFFFFFF AND EQ ISZERO PUSH2 0x2BCB JUMPI PUSH1 0x40 MLOAD PUSH32 0x8C379A000000000000000000000000000000000000000000000000000000000 DUP2 MSTORE PUSH1 0x4 ADD PUSH2 0x2BC2 SWAP1 PUSH2 0x3968 JUMP JUMPDEST PUSH1 0x40 MLOAD DUP1 SWAP2 SUB SWAP1 REVERT JUMPDEST PUSH2 0x2BDF PUSH8 0x5DD697BB6B674E76 PUSH1 0xC0 SHL PUSH2 0x2A48 JUMP JUMPDEST PUSH2 0x2BF3 PUSH8 0x778030810E77D055 PUSH1 0xC0 SHL PUSH2 0x2A48 JUMP JUMPDEST PUSH2 0x2C07 PUSH8 0x1FC0A235ED427489 PUSH1 0xC0 SHL PUSH2 0x2A48 JUMP JUMPDEST PUSH2 0x2C1B PUSH8 0xA4E130E36633E121 PUSH1 0xC0 SHL PUSH2 0x2A48 JUMP JUMPDEST DUP1 PUSH1 0xD PUSH1 0x0 DUP6 PUSH20 0xFFFFFFFFFFFFFFFFFFFFFFFFFFFFFFFFFFFFFFFF AND PUSH20 0xFFFFFFFFFFFFFFFFFFFFFFFFFFFFFFFFFFFFFFFF AND DUP2 MSTORE PUSH1 0x20 ADD SWAP1 DUP2 MSTORE PUSH1 0x20 ADD PUSH1 0x0 KECCAK256 SLOAD LT ISZERO PUSH2 0x2C9D JUMPI PUSH1 0x40 MLOAD PUSH32 0x8C379A000000000000000000000000000000000000000000000000000000000 DUP2 MSTORE PUSH1 0x4 ADD PUSH2 0x2C94 SWAP1 PUSH2 0x3A28 JUMP JUMPDEST PUSH1 0x40 MLOAD DUP1 SWAP2 SUB SWAP1 REVERT JUMPDEST PUSH2 0x2CB1 PUSH8 0xA6386D884CBEAF04 PUSH1 0xC0 SHL PUSH2 0x2A48 JUMP JUMPDEST PUSH2 0x2CC5 PUSH8 0x19D8F9CC5DE4D845 PUSH1 0xC0 SHL PUSH2 0x2A48 JUMP JUMPDEST DUP1 PUSH1 0xD PUSH1 0x0 DUP6 PUSH20 0xFFFFFFFFFFFFFFFFFFFFFFFFFFFFFFFFFFFFFFFF AND PUSH20 0xFFFFFFFFFFFFFFFFFFFFFFFFFFFFFFFFFFFFFFFF AND DUP2 MSTORE PUSH1 0x20 ADD SWAP1 DUP2 MSTORE PUSH1 0x20 ADD PUSH1 0x0 KECCAK256 PUSH1 0x0 DUP3 DUP3 SLOAD PUSH2 0x2D14 SWAP2 SWAP1 PUSH2 0x3BB6 JUMP JUMPDEST SWAP3 POP POP DUP2 SWAP1 SSTORE POP PUSH2 0x2D2F PUSH8 0xE3225C26285EBAAE PUSH1 0xC0 SHL PUSH2 0x2A48 JUMP JUMPDEST DUP1 PUSH1 0xD PUSH1 0x0 DUP5 PUSH20 0xFFFFFFFFFFFFFFFFFFFFFFFFFFFFFFFFFFFFFFFF AND PUSH20 0xFFFFFFFFFFFFFFFFFFFFFFFFFFFFFFFFFFFFFFFF AND DUP2 MSTORE PUSH1 0x20 ADD SWAP1 DUP2 MSTORE PUSH1 0x20 ADD PUSH1 0x0 KECCAK256 PUSH1 0x0 DUP3 DUP3 SLOAD PUSH2 0x2D7E SWAP2 SWAP1 PUSH2 0x3AD5 JUMP JUMPDEST SWAP3 POP POP DUP2 SWAP1 SSTORE POP PUSH2 0x2D99 PUSH8 0x9B6CAECB766A50EE PUSH1 0xC0 SHL PUSH2 0x2A48 JUMP JUMPDEST PUSH2 0x2DAD PUSH8 0xBA1CFA8277B1FFE7 PUSH1 0xC0 SHL PUSH2 0x2A48 JUMP JUMPDEST PUSH2 0x2DB7 DUP4 DUP3 PUSH2 0x2FA7 JUMP JUMPDEST PUSH2 0x2DCB PUSH8 0xB68139650284E2D9 PUSH1 0xC0 SHL PUSH2 0x2A48 JUMP JUMPDEST PUSH2 0x2DDF PUSH8 0xD20E6D9DEC1BAC01 PUSH1 0xC0 SHL PUSH2 0x2A48 JUMP JUMPDEST DUP2 PUSH20 0xFFFFFFFFFFFFFFFFFFFFFFFFFFFFFFFFFFFFFFFF AND DUP4 PUSH20 0xFFFFFFFFFFFFFFFFFFFFFFFFFFFFFFFFFFFFFFFF AND PUSH32 0xDDF252AD1BE2C89B69C2B068FC378DAA952BA7F163C4A11628F55A4DF523B3EF DUP4 PUSH1 0x40 MLOAD PUSH2 0x2E3C SWAP2 SWAP1 PUSH2 0x3A83 JUMP JUMPDEST PUSH1 0x40 MLOAD DUP1 SWAP2 SUB SWAP1 LOG3 POP POP POP JUMP JUMPDEST PUSH2 0x2E5D PUSH8 0xCC804813E8C06344 PUSH1 0xC0 SHL PUSH2 0x2A48 JUMP JUMPDEST PUSH2 0x2E71 PUSH8 0x7F6A0DD747E96BFF PUSH1 0xC0 SHL PUSH2 0x2A48 JUMP JUMPDEST DUP1 PUSH1 0xD PUSH1 0x0 DUP5 PUSH20 0xFFFFFFFFFFFFFFFFFFFFFFFFFFFFFFFFFFFFFFFF AND PUSH20 0xFFFFFFFFFFFFFFFFFFFFFFFFFFFFFFFFFFFFFFFF AND DUP2 MSTORE PUSH1 0x20 ADD SWAP1 DUP2 MSTORE PUSH1 0x20 ADD PUSH1 0x0 KECCAK256 PUSH1 0x0 DUP3 DUP3 SLOAD PUSH2 0x2EC0 SWAP2 SWAP1 PUSH2 0x3AD5 JUMP JUMPDEST SWAP3 POP POP DUP2 SWAP1 SSTORE POP PUSH2 0x2EDB PUSH8 0xFC5E2A83A8C7246D PUSH1 0xC0 SHL PUSH2 0x2A48 JUMP JUMPDEST DUP1 PUSH1 0x4 PUSH1 0x0 DUP3 DUP3 SLOAD PUSH2 0x2EED SWAP2 SWAP1 PUSH2 0x3AD5 JUMP JUMPDEST SWAP3 POP POP DUP2 SWAP1 SSTORE POP POP POP JUMP JUMPDEST PUSH2 0x2F0C PUSH8 0x736CA0B681179FED PUSH1 0xC0 SHL PUSH2 0x2A48 JUMP JUMPDEST PUSH2 0x2F20 PUSH8 0xEDB8BCF6B8A4FC88 PUSH1 0xC0 SHL PUSH2 0x2A48 JUMP JUMPDEST DUP1 PUSH1 0xD PUSH1 0x0 DUP5 PUSH20 0xFFFFFFFFFFFFFFFFFFFFFFFFFFFFFFFFFFFFFFFF AND PUSH20 0xFFFFFFFFFFFFFFFFFFFFFFFFFFFFFFFFFFFFFFFF AND DUP2 MSTORE PUSH1 0x20 ADD SWAP1 DUP2 MSTORE PUSH1 0x20 ADD PUSH1 0x0 KECCAK256 PUSH1 0x0 DUP3 DUP3 SLOAD PUSH2 0x2F6F SWAP2 SWAP1 PUSH2 0x3BB6 JUMP JUMPDEST SWAP3 POP POP DUP2 SWAP1 SSTORE POP PUSH2 0x2F8A PUSH8 0x47785A2E2A48981F PUSH1 0xC0 SHL PUSH2 0x2A48 JUMP JUMPDEST DUP1 PUSH1 0x4 PUSH1 0x0 DUP3 DUP3 SLOAD PUSH2 0x2F9C SWAP2 SWAP1 PUSH2 0x3BB6 JUMP JUMPDEST SWAP3 POP POP DUP2 SWAP1 SSTORE POP POP POP JUMP JUMPDEST PUSH2 0x2FBB PUSH8 0x1708F50080D47A90 PUSH1 0xC0 SHL PUSH2 0x2A48 JUMP JUMPDEST PUSH2 0x2FCF PUSH8 0xB0BA241EEBDC26C2 PUSH1 0xC0 SHL PUSH2 0x2A48 JUMP JUMPDEST PUSH2 0x2FE3 PUSH8 0xD05164B4E1531489 PUSH1 0xC0 SHL PUSH2 0x2A48 JUMP JUMPDEST PUSH1 0x0 PUSH1 0x10 PUSH1 0x0 DUP5 PUSH20 0xFFFFFFFFFFFFFFFFFFFFFFFFFFFFFFFFFFFFFFFF AND PUSH20 0xFFFFFFFFFFFFFFFFFFFFFFFFFFFFFFFFFFFFFFFF AND DUP2 MSTORE PUSH1 0x20 ADD SWAP1 DUP2 MSTORE PUSH1 0x20 ADD PUSH1 0x0 KECCAK256 PUSH1 0x0 ADD SLOAD EQ ISZERO DUP1 ISZERO PUSH2 0x3079 JUMPI POP PUSH1 0xC SLOAD PUSH1 0x10 PUSH1 0x0 DUP5 PUSH20 0xFFFFFFFFFFFFFFFFFFFFFFFFFFFFFFFFFFFFFFFF AND PUSH20 0xFFFFFFFFFFFFFFFFFFFFFFFFFFFFFFFFFFFFFFFF AND DUP2 MSTORE PUSH1 0x20 ADD SWAP1 DUP2 MSTORE PUSH1 0x20 ADD PUSH1 0x0 KECCAK256 PUSH1 0x1 ADD SLOAD EQ JUMPDEST ISZERO PUSH2 0x3312 JUMPI PUSH2 0x3092 PUSH8 0xC98EBFF512CA8980 PUSH1 0xC0 SHL PUSH2 0x2A48 JUMP JUMPDEST PUSH2 0x30A6 PUSH8 0x7D78704CCBB817EC PUSH1 0xC0 SHL PUSH2 0x2A48 JUMP JUMPDEST PUSH2 0x30BA PUSH8 0x9A8D615A0431FD50 PUSH1 0xC0 SHL PUSH2 0x2A48 JUMP JUMPDEST PUSH1 0x8 SLOAD ADDRESS PUSH20 0xFFFFFFFFFFFFFFFFFFFFFFFFFFFFFFFFFFFFFFFF AND PUSH4 0x70A08231 DUP5 PUSH1 0x40 MLOAD DUP3 PUSH4 0xFFFFFFFF AND PUSH1 0xE0 SHL DUP2 MSTORE PUSH1 0x4 ADD PUSH2 0x30F6 SWAP2 SWAP1 PUSH2 0x37B5 JUMP JUMPDEST PUSH1 0x20 PUSH1 0x40 MLOAD DUP1 DUP4 SUB DUP2 DUP7 DUP1 EXTCODESIZE ISZERO DUP1 ISZERO PUSH2 0x310E JUMPI PUSH1 0x0 DUP1 REVERT JUMPDEST POP GAS STATICCALL ISZERO DUP1 ISZERO PUSH2 0x3122 JUMPI RETURNDATASIZE PUSH1 0x0 DUP1 RETURNDATACOPY RETURNDATASIZE PUSH1 0x0 REVERT JUMPDEST POP POP POP POP PUSH1 0x40 MLOAD RETURNDATASIZE PUSH1 0x1F NOT PUSH1 0x1F DUP3 ADD AND DUP3 ADD DUP1 PUSH1 0x40 MSTORE POP DUP2 ADD SWAP1 PUSH2 0x3146 SWAP2 SWAP1 PUSH2 0x3483 JUMP JUMPDEST LT ISZERO PUSH2 0x3278 JUMPI PUSH2 0x3160 PUSH8 0xAB002E1C09B512FE PUSH1 0xC0 SHL PUSH2 0x2A48 JUMP JUMPDEST PUSH2 0x3174 PUSH8 0xD7559B1283267EF0 PUSH1 0xC0 SHL PUSH2 0x2A48 JUMP JUMPDEST ADDRESS PUSH20 0xFFFFFFFFFFFFFFFFFFFFFFFFFFFFFFFFFFFFFFFF AND PUSH4 0x70A08231 DUP4 PUSH1 0x40 MLOAD DUP3 PUSH4 0xFFFFFFFF AND PUSH1 0xE0 SHL DUP2 MSTORE PUSH1 0x4 ADD PUSH2 0x31AD SWAP2 SWAP1 PUSH2 0x37B5 JUMP JUMPDEST PUSH1 0x20 PUSH1 0x40 MLOAD DUP1 DUP4 SUB DUP2 DUP7 DUP1 EXTCODESIZE ISZERO DUP1 ISZERO PUSH2 0x31C5 JUMPI PUSH1 0x0 DUP1 REVERT JUMPDEST POP GAS STATICCALL ISZERO DUP1 ISZERO PUSH2 0x31D9 JUMPI RETURNDATASIZE PUSH1 0x0 DUP1 RETURNDATACOPY RETURNDATASIZE PUSH1 0x0 REVERT JUMPDEST POP POP POP POP PUSH1 0x40 MLOAD RETURNDATASIZE PUSH1 0x1F NOT PUSH1 0x1F DUP3 ADD AND DUP3 ADD DUP1 PUSH1 0x40 MSTORE POP DUP2 ADD SWAP1 PUSH2 0x31FD SWAP2 SWAP1 PUSH2 0x3483 JUMP JUMPDEST DUP2 PUSH2 0x3208 SWAP2 SWAP1 PUSH2 0x3AD5 JUMP JUMPDEST PUSH1 0xF PUSH1 0x0 PUSH1 0x10 PUSH1 0x0 DUP7 PUSH20 0xFFFFFFFFFFFFFFFFFFFFFFFFFFFFFFFFFFFFFFFF AND PUSH20 0xFFFFFFFFFFFFFFFFFFFFFFFFFFFFFFFFFFFFFFFF AND DUP2 MSTORE PUSH1 0x20 ADD SWAP1 DUP2 MSTORE PUSH1 0x20 ADD PUSH1 0x0 KECCAK256 PUSH1 0x0 ADD SLOAD DUP2 MSTORE PUSH1 0x20 ADD SWAP1 DUP2 MSTORE PUSH1 0x20 ADD PUSH1 0x0 KECCAK256 PUSH1 0x0 DUP3 DUP3 SLOAD PUSH2 0x326C SWAP2 SWAP1 PUSH2 0x3BB6 JUMP JUMPDEST SWAP3 POP POP DUP2 SWAP1 SSTORE POP PUSH2 0x330D JUMP JUMPDEST PUSH2 0x328C PUSH8 0x6769ACBCE19F0E52 PUSH1 0xC0 SHL PUSH2 0x2A48 JUMP JUMPDEST PUSH2 0x32A0 PUSH8 0xC12C81BE5CAFA4F5 PUSH1 0xC0 SHL PUSH2 0x2A48 JUMP JUMPDEST DUP1 PUSH1 0xF PUSH1 0x0 PUSH1 0x10 PUSH1 0x0 DUP7 PUSH20 0xFFFFFFFFFFFFFFFFFFFFFFFFFFFFFFFFFFFFFFFF AND PUSH20 0xFFFFFFFFFFFFFFFFFFFFFFFFFFFFFFFFFFFFFFFF AND DUP2 MSTORE PUSH1 0x20 ADD SWAP1 DUP2 MSTORE PUSH1 0x20 ADD PUSH1 0x0 KECCAK256 PUSH1 0x0 ADD SLOAD DUP2 MSTORE PUSH1 0x20 ADD SWAP1 DUP2 MSTORE PUSH1 0x20 ADD PUSH1 0x0 KECCAK256 PUSH1 0x0 DUP3 DUP3 SLOAD PUSH2 0x3305 SWAP2 SWAP1 PUSH2 0x3BB6 JUMP JUMPDEST SWAP3 POP POP DUP2 SWAP1 SSTORE POP JUMPDEST PUSH2 0x3327 JUMP JUMPDEST PUSH2 0x3326 PUSH8 0x6F97559D02EE9B2F PUSH1 0xC0 SHL PUSH2 0x2A48 JUMP JUMPDEST JUMPDEST POP POP JUMP JUMPDEST PUSH1 0x0 DUP2 CALLDATALOAD SWAP1 POP PUSH2 0x333A DUP2 PUSH2 0x4171 JUMP JUMPDEST SWAP3 SWAP2 POP POP JUMP JUMPDEST PUSH1 0x0 DUP2 CALLDATALOAD SWAP1 POP PUSH2 0x334F DUP2 PUSH2 0x4188 JUMP JUMPDEST SWAP3 SWAP2 POP POP JUMP JUMPDEST PUSH1 0x0 DUP2 MLOAD SWAP1 POP PUSH2 0x3364 DUP2 PUSH2 0x4188 JUMP JUMPDEST SWAP3 SWAP2 POP POP JUMP JUMPDEST PUSH1 0x0 PUSH1 0x20 DUP3 DUP5 SUB SLT ISZERO PUSH2 0x337C JUMPI PUSH1 0x0 DUP1 REVERT JUMPDEST PUSH1 0x0 PUSH2 0x338A DUP5 DUP3 DUP6 ADD PUSH2 0x332B JUMP JUMPDEST SWAP2 POP POP SWAP3 SWAP2 POP POP JUMP JUMPDEST PUSH1 0x0 DUP1 PUSH1 0x40 DUP4 DUP6 SUB SLT ISZERO PUSH2 0x33A6 JUMPI PUSH1 0x0 DUP1 REVERT JUMPDEST PUSH1 0x0 PUSH2 0x33B4 DUP6 DUP3 DUP7 ADD PUSH2 0x332B JUMP JUMPDEST SWAP3 POP POP PUSH1 0x20 PUSH2 0x33C5 DUP6 DUP3 DUP7 ADD PUSH2 0x332B JUMP JUMPDEST SWAP2 POP POP SWAP3 POP SWAP3 SWAP1 POP JUMP JUMPDEST PUSH1 0x0 DUP1 PUSH1 0x0 PUSH1 0x60 DUP5 DUP7 SUB SLT ISZERO PUSH2 0x33E4 JUMPI PUSH1 0x0 DUP1 REVERT JUMPDEST PUSH1 0x0 PUSH2 0x33F2 DUP7 DUP3 DUP8 ADD PUSH2 0x332B JUMP JUMPDEST SWAP4 POP POP PUSH1 0x20 PUSH2 0x3403 DUP7 DUP3 DUP8 ADD PUSH2 0x332B JUMP JUMPDEST SWAP3 POP POP PUSH1 0x40 PUSH2 0x3414 DUP7 DUP3 DUP8 ADD PUSH2 0x3340 JUMP JUMPDEST SWAP2 POP POP SWAP3 POP SWAP3 POP SWAP3 JUMP JUMPDEST PUSH1 0x0 DUP1 PUSH1 0x40 DUP4 DUP6 SUB SLT ISZERO PUSH2 0x3431 JUMPI PUSH1 0x0 DUP1 REVERT JUMPDEST PUSH1 0x0 PUSH2 0x343F DUP6 DUP3 DUP7 ADD PUSH2 0x332B JUMP JUMPDEST SWAP3 POP POP PUSH1 0x20 PUSH2 0x3450 DUP6 DUP3 DUP7 ADD PUSH2 0x3340 JUMP JUMPDEST SWAP2 POP POP SWAP3 POP SWAP3 SWAP1 POP JUMP JUMPDEST PUSH1 0x0 PUSH1 0x20 DUP3 DUP5 SUB SLT ISZERO PUSH2 0x346C JUMPI PUSH1 0x0 DUP1 REVERT JUMPDEST PUSH1 0x0 PUSH2 0x347A DUP5 DUP3 DUP6 ADD PUSH2 0x3340 JUMP JUMPDEST SWAP2 POP POP SWAP3 SWAP2 POP POP JUMP JUMPDEST PUSH1 0x0 PUSH1 0x20 DUP3 DUP5 SUB SLT ISZERO PUSH2 0x3495 JUMPI PUSH1 0x0 DUP1 REVERT JUMPDEST PUSH1 0x0 PUSH2 0x34A3 DUP5 DUP3 DUP6 ADD PUSH2 0x3355 JUMP JUMPDEST SWAP2 POP POP SWAP3 SWAP2 POP POP JUMP JUMPDEST PUSH2 0x34B5 DUP2 PUSH2 0x3BFC JUMP JUMPDEST DUP3 MSTORE POP POP JUMP JUMPDEST PUSH2 0x34C4 DUP2 PUSH2 0x3BEA JUMP JUMPDEST DUP3 MSTORE POP POP JUMP JUMPDEST PUSH2 0x34D3 DUP2 PUSH2 0x3C0E JUMP JUMPDEST DUP3 MSTORE POP POP JUMP JUMPDEST PUSH1 0x0 PUSH2 0x34E4 DUP3 PUSH2 0x3AB9 JUMP JUMPDEST PUSH2 0x34EE DUP2 DUP6 PUSH2 0x3AC4 JUMP JUMPDEST SWAP4 POP PUSH2 0x34FE DUP2 DUP6 PUSH1 0x20 DUP7 ADD PUSH2 0x3C5F JUMP JUMPDEST PUSH2 0x3507 DUP2 PUSH2 0x3D9A JUMP JUMPDEST DUP5 ADD SWAP2 POP POP SWAP3 SWAP2 POP POP JUMP JUMPDEST PUSH1 0x0 PUSH2 0x351F PUSH1 0x21 DUP4 PUSH2 0x3AC4 JUMP JUMPDEST SWAP2 POP PUSH2 0x352A DUP3 PUSH2 0x3DAB JUMP JUMPDEST PUSH1 0x40 DUP3 ADD SWAP1 POP SWAP2 SWAP1 POP JUMP JUMPDEST PUSH1 0x0 PUSH2 0x3542 PUSH1 0x24 DUP4 PUSH2 0x3AC4 JUMP JUMPDEST SWAP2 POP PUSH2 0x354D DUP3 PUSH2 0x3DFA JUMP JUMPDEST PUSH1 0x40 DUP3 ADD SWAP1 POP SWAP2 SWAP1 POP JUMP JUMPDEST PUSH1 0x0 PUSH2 0x3565 PUSH1 0x13 DUP4 PUSH2 0x3AC4 JUMP JUMPDEST SWAP2 POP PUSH2 0x3570 DUP3 PUSH2 0x3E49 JUMP JUMPDEST PUSH1 0x20 DUP3 ADD SWAP1 POP SWAP2 SWAP1 POP JUMP JUMPDEST PUSH1 0x0 PUSH2 0x3588 PUSH1 0x1F DUP4 PUSH2 0x3AC4 JUMP JUMPDEST SWAP2 POP PUSH2 0x3593 DUP3 PUSH2 0x3E72 JUMP JUMPDEST PUSH1 0x20 DUP3 ADD SWAP1 POP SWAP2 SWAP1 POP JUMP JUMPDEST PUSH1 0x0 PUSH2 0x35AB PUSH1 0x21 DUP4 PUSH2 0x3AC4 JUMP JUMPDEST SWAP2 POP PUSH2 0x35B6 DUP3 PUSH2 0x3E9B JUMP JUMPDEST PUSH1 0x40 DUP3 ADD SWAP1 POP SWAP2 SWAP1 POP JUMP JUMPDEST PUSH1 0x0 PUSH2 0x35CE PUSH1 0x1E DUP4 PUSH2 0x3AC4 JUMP JUMPDEST SWAP2 POP PUSH2 0x35D9 DUP3 PUSH2 0x3EEA JUMP JUMPDEST PUSH1 0x20 DUP3 ADD SWAP1 POP SWAP2 SWAP1 POP JUMP JUMPDEST PUSH1 0x0 PUSH2 0x35F1 PUSH1 0x20 DUP4 PUSH2 0x3AC4 JUMP JUMPDEST SWAP2 POP PUSH2 0x35FC DUP3 PUSH2 0x3F13 JUMP JUMPDEST PUSH1 0x20 DUP3 ADD SWAP1 POP SWAP2 SWAP1 POP JUMP JUMPDEST PUSH1 0x0 PUSH2 0x3614 PUSH1 0x3F DUP4 PUSH2 0x3AC4 JUMP JUMPDEST SWAP2 POP PUSH2 0x361F DUP3 PUSH2 0x3F3C JUMP JUMPDEST PUSH1 0x40 DUP3 ADD SWAP1 POP SWAP2 SWAP1 POP JUMP JUMPDEST PUSH1 0x0 PUSH2 0x3637 PUSH1 0x16 DUP4 PUSH2 0x3AC4 JUMP JUMPDEST SWAP2 POP PUSH2 0x3642 DUP3 PUSH2 0x3F8B JUMP JUMPDEST PUSH1 0x20 DUP3 ADD SWAP1 POP SWAP2 SWAP1 POP JUMP JUMPDEST PUSH1 0x0 PUSH2 0x365A PUSH1 0x29 DUP4 PUSH2 0x3AC4 JUMP JUMPDEST SWAP2 POP PUSH2 0x3665 DUP3 PUSH2 0x3FB4 JUMP JUMPDEST PUSH1 0x40 DUP3 ADD SWAP1 POP SWAP2 SWAP1 POP JUMP JUMPDEST PUSH1 0x0 PUSH2 0x367D PUSH1 0x1F DUP4 PUSH2 0x3AC4 JUMP JUMPDEST SWAP2 POP PUSH2 0x3688 DUP3 PUSH2 0x4003 JUMP JUMPDEST PUSH1 0x20 DUP3 ADD SWAP1 POP SWAP2 SWAP1 POP JUMP JUMPDEST PUSH1 0x0 PUSH2 0x36A0 PUSH1 0x12 DUP4 PUSH2 0x3AC4 JUMP JUMPDEST SWAP2 POP PUSH2 0x36AB DUP3 PUSH2 0x402C JUMP JUMPDEST PUSH1 0x20 DUP3 ADD SWAP1 POP SWAP2 SWAP1 POP JUMP JUMPDEST PUSH1 0x0 PUSH2 0x36C3 PUSH1 0x1E DUP4 PUSH2 0x3AC4 JUMP JUMPDEST SWAP2 POP PUSH2 0x36CE DUP3 PUSH2 0x4055 JUMP JUMPDEST PUSH1 0x20 DUP3 ADD SWAP1 POP SWAP2 SWAP1 POP JUMP JUMPDEST PUSH1 0x0 PUSH2 0x36E6 PUSH1 0x26 DUP4 PUSH2 0x3AC4 JUMP JUMPDEST SWAP2 POP PUSH2 0x36F1 DUP3 PUSH2 0x407E JUMP JUMPDEST PUSH1 0x40 DUP3 ADD SWAP1 POP SWAP2 SWAP1 POP JUMP JUMPDEST PUSH1 0x0 PUSH2 0x3709 PUSH1 0x1E DUP4 PUSH2 0x3AC4 JUMP JUMPDEST SWAP2 POP PUSH2 0x3714 DUP3 PUSH2 0x40CD JUMP JUMPDEST PUSH1 0x20 DUP3 ADD SWAP1 POP SWAP2 SWAP1 POP JUMP JUMPDEST PUSH1 0x0 PUSH2 0x372C PUSH1 0x1C DUP4 PUSH2 0x3AC4 JUMP JUMPDEST SWAP2 POP PUSH2 0x3737 DUP3 PUSH2 0x40F6 JUMP JUMPDEST PUSH1 0x20 DUP3 ADD SWAP1 POP SWAP2 SWAP1 POP JUMP JUMPDEST PUSH1 0x0 PUSH2 0x374F PUSH1 0x11 DUP4 PUSH2 0x3AC4 JUMP JUMPDEST SWAP2 POP PUSH2 0x375A DUP3 PUSH2 0x411F JUMP JUMPDEST PUSH1 0x20 DUP3 ADD SWAP1 POP SWAP2 SWAP1 POP JUMP JUMPDEST PUSH1 0x0 PUSH2 0x3772 PUSH1 0x13 DUP4 PUSH2 0x3AC4 JUMP JUMPDEST SWAP2 POP PUSH2 0x377D DUP3 PUSH2 0x4148 JUMP JUMPDEST PUSH1 0x20 DUP3 ADD SWAP1 POP SWAP2 SWAP1 POP JUMP JUMPDEST PUSH2 0x3791 DUP2 PUSH2 0x3C1A JUMP JUMPDEST DUP3 MSTORE POP POP JUMP JUMPDEST PUSH2 0x37A0 DUP2 PUSH2 0x3C48 JUMP JUMPDEST DUP3 MSTORE POP POP JUMP JUMPDEST PUSH2 0x37AF DUP2 PUSH2 0x3C52 JUMP JUMPDEST DUP3 MSTORE POP POP JUMP JUMPDEST PUSH1 0x0 PUSH1 0x20 DUP3 ADD SWAP1 POP PUSH2 0x37CA PUSH1 0x0 DUP4 ADD DUP5 PUSH2 0x34BB JUMP JUMPDEST SWAP3 SWAP2 POP POP JUMP JUMPDEST PUSH1 0x0 PUSH1 0x20 DUP3 ADD SWAP1 POP PUSH2 0x37E5 PUSH1 0x0 DUP4 ADD DUP5 PUSH2 0x34AC JUMP JUMPDEST SWAP3 SWAP2 POP POP JUMP JUMPDEST PUSH1 0x0 PUSH1 0x20 DUP3 ADD SWAP1 POP PUSH2 0x3800 PUSH1 0x0 DUP4 ADD DUP5 PUSH2 0x34CA JUMP JUMPDEST SWAP3 SWAP2 POP POP JUMP JUMPDEST PUSH1 0x0 PUSH1 0x20 DUP3 ADD SWAP1 POP DUP2 DUP2 SUB PUSH1 0x0 DUP4 ADD MSTORE PUSH2 0x3820 DUP2 DUP5 PUSH2 0x34D9 JUMP JUMPDEST SWAP1 POP SWAP3 SWAP2 POP POP JUMP JUMPDEST PUSH1 0x0 PUSH1 0x20 DUP3 ADD SWAP1 POP DUP2 DUP2 SUB PUSH1 0x0 DUP4 ADD MSTORE PUSH2 0x3841 DUP2 PUSH2 0x3512 JUMP JUMPDEST SWAP1 POP SWAP2 SWAP1 POP JUMP JUMPDEST PUSH1 0x0 PUSH1 0x20 DUP3 ADD SWAP1 POP DUP2 DUP2 SUB PUSH1 0x0 DUP4 ADD MSTORE PUSH2 0x3861 DUP2 PUSH2 0x3535 JUMP JUMPDEST SWAP1 POP SWAP2 SWAP1 POP JUMP JUMPDEST PUSH1 0x0 PUSH1 0x20 DUP3 ADD SWAP1 POP DUP2 DUP2 SUB PUSH1 0x0 DUP4 ADD MSTORE PUSH2 0x3881 DUP2 PUSH2 0x3558 JUMP JUMPDEST SWAP1 POP SWAP2 SWAP1 POP JUMP JUMPDEST PUSH1 0x0 PUSH1 0x20 DUP3 ADD SWAP1 POP DUP2 DUP2 SUB PUSH1 0x0 DUP4 ADD MSTORE PUSH2 0x38A1 DUP2 PUSH2 0x357B JUMP JUMPDEST SWAP1 POP SWAP2 SWAP1 POP JUMP JUMPDEST PUSH1 0x0 PUSH1 0x20 DUP3 ADD SWAP1 POP DUP2 DUP2 SUB PUSH1 0x0 DUP4 ADD MSTORE PUSH2 0x38C1 DUP2 PUSH2 0x359E JUMP JUMPDEST SWAP1 POP SWAP2 SWAP1 POP JUMP JUMPDEST PUSH1 0x0 PUSH1 0x20 DUP3 ADD SWAP1 POP DUP2 DUP2 SUB PUSH1 0x0 DUP4 ADD MSTORE PUSH2 0x38E1 DUP2 PUSH2 0x35C1 JUMP JUMPDEST SWAP1 POP SWAP2 SWAP1 POP JUMP JUMPDEST PUSH1 0x0 PUSH1 0x20 DUP3 ADD SWAP1 POP DUP2 DUP2 SUB PUSH1 0x0 DUP4 ADD MSTORE PUSH2 0x3901 DUP2 PUSH2 0x35E4 JUMP JUMPDEST SWAP1 POP SWAP2 SWAP1 POP JUMP JUMPDEST PUSH1 0x0 PUSH1 0x20 DUP3 ADD SWAP1 POP DUP2 DUP2 SUB PUSH1 0x0 DUP4 ADD MSTORE PUSH2 0x3921 DUP2 PUSH2 0x3607 JUMP JUMPDEST SWAP1 POP SWAP2 SWAP1 POP JUMP JUMPDEST PUSH1 0x0 PUSH1 0x20 DUP3 ADD SWAP1 POP DUP2 DUP2 SUB PUSH1 0x0 DUP4 ADD MSTORE PUSH2 0x3941 DUP2 PUSH2 0x362A JUMP JUMPDEST SWAP1 POP SWAP2 SWAP1 POP JUMP JUMPDEST PUSH1 0x0 PUSH1 0x20 DUP3 ADD SWAP1 POP DUP2 DUP2 SUB PUSH1 0x0 DUP4 ADD MSTORE PUSH2 0x3961 DUP2 PUSH2 0x364D JUMP JUMPDEST SWAP1 POP SWAP2 SWAP1 POP JUMP JUMPDEST PUSH1 0x0 PUSH1 0x20 DUP3 ADD SWAP1 POP DUP2 DUP2 SUB PUSH1 0x0 DUP4 ADD MSTORE PUSH2 0x3981 DUP2 PUSH2 0x3670 JUMP JUMPDEST SWAP1 POP SWAP2 SWAP1 POP JUMP JUMPDEST PUSH1 0x0 PUSH1 0x20 DUP3 ADD SWAP1 POP DUP2 DUP2 SUB PUSH1 0x0 DUP4 ADD MSTORE PUSH2 0x39A1 DUP2 PUSH2 0x3693 JUMP JUMPDEST SWAP1 POP SWAP2 SWAP1 POP JUMP JUMPDEST PUSH1 0x0 PUSH1 0x20 DUP3 ADD SWAP1 POP DUP2 DUP2 SUB PUSH1 0x0 DUP4 ADD MSTORE PUSH2 0x39C1 DUP2 PUSH2 0x36B6 JUMP JUMPDEST SWAP1 POP SWAP2 SWAP1 POP JUMP JUMPDEST PUSH1 0x0 PUSH1 0x20 DUP3 ADD SWAP1 POP DUP2 DUP2 SUB PUSH1 0x0 DUP4 ADD MSTORE PUSH2 0x39E1 DUP2 PUSH2 0x36D9 JUMP JUMPDEST SWAP1 POP SWAP2 SWAP1 POP JUMP JUMPDEST PUSH1 0x0 PUSH1 0x20 DUP3 ADD SWAP1 POP DUP2 DUP2 SUB PUSH1 0x0 DUP4 ADD MSTORE PUSH2 0x3A01 DUP2 PUSH2 0x36FC JUMP JUMPDEST SWAP1 POP SWAP2 SWAP1 POP JUMP JUMPDEST PUSH1 0x0 PUSH1 0x20 DUP3 ADD SWAP1 POP DUP2 DUP2 SUB PUSH1 0x0 DUP4 ADD MSTORE PUSH2 0x3A21 DUP2 PUSH2 0x371F JUMP JUMPDEST SWAP1 POP SWAP2 SWAP1 POP JUMP JUMPDEST PUSH1 0x0 PUSH1 0x20 DUP3 ADD SWAP1 POP DUP2 DUP2 SUB PUSH1 0x0 DUP4 ADD MSTORE PUSH2 0x3A41 DUP2 PUSH2 0x3742 JUMP JUMPDEST SWAP1 POP SWAP2 SWAP1 POP JUMP JUMPDEST PUSH1 0x0 PUSH1 0x20 DUP3 ADD SWAP1 POP DUP2 DUP2 SUB PUSH1 0x0 DUP4 ADD MSTORE PUSH2 0x3A61 DUP2 PUSH2 0x3765 JUMP JUMPDEST SWAP1 POP SWAP2 SWAP1 POP JUMP JUMPDEST PUSH1 0x0 PUSH1 0x20 DUP3 ADD SWAP1 POP PUSH2 0x3A7D PUSH1 0x0 DUP4 ADD DUP5 PUSH2 0x3788 JUMP JUMPDEST SWAP3 SWAP2 POP POP JUMP JUMPDEST PUSH1 0x0 PUSH1 0x20 DUP3 ADD SWAP1 POP PUSH2 0x3A98 PUSH1 0x0 DUP4 ADD DUP5 PUSH2 0x3797 JUMP JUMPDEST SWAP3 SWAP2 POP POP JUMP JUMPDEST PUSH1 0x0 PUSH1 0x20 DUP3 ADD SWAP1 POP PUSH2 0x3AB3 PUSH1 0x0 DUP4 ADD DUP5 PUSH2 0x37A6 JUMP JUMPDEST SWAP3 SWAP2 POP POP JUMP JUMPDEST PUSH1 0x0 DUP2 MLOAD SWAP1 POP SWAP2 SWAP1 POP JUMP JUMPDEST PUSH1 0x0 DUP3 DUP3 MSTORE PUSH1 0x20 DUP3 ADD SWAP1 POP SWAP3 SWAP2 POP POP JUMP JUMPDEST PUSH1 0x0 PUSH2 0x3AE0 DUP3 PUSH2 0x3C48 JUMP JUMPDEST SWAP2 POP PUSH2 0x3AEB DUP4 PUSH2 0x3C48 JUMP JUMPDEST SWAP3 POP DUP3 PUSH32 0xFFFFFFFFFFFFFFFFFFFFFFFFFFFFFFFFFFFFFFFFFFFFFFFFFFFFFFFFFFFFFFFF SUB DUP3 GT ISZERO PUSH2 0x3B20 JUMPI PUSH2 0x3B1F PUSH2 0x3D0D JUMP JUMPDEST JUMPDEST DUP3 DUP3 ADD SWAP1 POP SWAP3 SWAP2 POP POP JUMP JUMPDEST PUSH1 0x0 PUSH2 0x3B36 DUP3 PUSH2 0x3C48 JUMP JUMPDEST SWAP2 POP PUSH2 0x3B41 DUP4 PUSH2 0x3C48 JUMP JUMPDEST SWAP3 POP DUP3 PUSH2 0x3B51 JUMPI PUSH2 0x3B50 PUSH2 0x3D3C JUMP JUMPDEST JUMPDEST DUP3 DUP3 DIV SWAP1 POP SWAP3 SWAP2 POP POP JUMP JUMPDEST PUSH1 0x0 PUSH2 0x3B67 DUP3 PUSH2 0x3C48 JUMP JUMPDEST SWAP2 POP PUSH2 0x3B72 DUP4 PUSH2 0x3C48 JUMP JUMPDEST SWAP3 POP DUP2 PUSH32 0xFFFFFFFFFFFFFFFFFFFFFFFFFFFFFFFFFFFFFFFFFFFFFFFFFFFFFFFFFFFFFFFF DIV DUP4 GT DUP3 ISZERO ISZERO AND ISZERO PUSH2 0x3BAB JUMPI PUSH2 0x3BAA PUSH2 0x3D0D JUMP JUMPDEST JUMPDEST DUP3 DUP3 MUL SWAP1 POP SWAP3 SWAP2 POP POP JUMP JUMPDEST PUSH1 0x0 PUSH2 0x3BC1 DUP3 PUSH2 0x3C48 JUMP JUMPDEST SWAP2 POP PUSH2 0x3BCC DUP4 PUSH2 0x3C48 JUMP JUMPDEST SWAP3 POP DUP3 DUP3 LT ISZERO PUSH2 0x3BDF JUMPI PUSH2 0x3BDE PUSH2 0x3D0D JUMP JUMPDEST JUMPDEST DUP3 DUP3 SUB SWAP1 POP SWAP3 SWAP2 POP POP JUMP JUMPDEST PUSH1 0x0 PUSH2 0x3BF5 DUP3 PUSH2 0x3C28 JUMP JUMPDEST SWAP1 POP SWAP2 SWAP1 POP JUMP JUMPDEST PUSH1 0x0 PUSH2 0x3C07 DUP3 PUSH2 0x3C28 JUMP JUMPDEST SWAP1 POP SWAP2 SWAP1 POP JUMP JUMPDEST PUSH1 0x0 DUP2 ISZERO ISZERO SWAP1 POP SWAP2 SWAP1 POP JUMP JUMPDEST PUSH1 0x0 PUSH2 0xFFFF DUP3 AND SWAP1 POP SWAP2 SWAP1 POP JUMP JUMPDEST PUSH1 0x0 PUSH20 0xFFFFFFFFFFFFFFFFFFFFFFFFFFFFFFFFFFFFFFFF DUP3 AND SWAP1 POP SWAP2 SWAP1 POP JUMP JUMPDEST PUSH1 0x0 DUP2 SWAP1 POP SWAP2 SWAP1 POP JUMP JUMPDEST PUSH1 0x0 PUSH1 0xFF DUP3 AND SWAP1 POP SWAP2 SWAP1 POP JUMP JUMPDEST PUSH1 0x0 JUMPDEST DUP4 DUP2 LT ISZERO PUSH2 0x3C7D JUMPI DUP1 DUP3 ADD MLOAD DUP2 DUP5 ADD MSTORE PUSH1 0x20 DUP2 ADD SWAP1 POP PUSH2 0x3C62 JUMP JUMPDEST DUP4 DUP2 GT ISZERO PUSH2 0x3C8C JUMPI PUSH1 0x0 DUP5 DUP5 ADD MSTORE JUMPDEST POP POP POP POP JUMP JUMPDEST PUSH1 0x0 PUSH1 0x2 DUP3 DIV SWAP1 POP PUSH1 0x1 DUP3 AND DUP1 PUSH2 0x3CAA JUMPI PUSH1 0x7F DUP3 AND SWAP2 POP JUMPDEST PUSH1 0x20 DUP3 LT DUP2 EQ ISZERO PUSH2 0x3CBE JUMPI PUSH2 0x3CBD PUSH2 0x3D6B JUMP JUMPDEST JUMPDEST POP SWAP2 SWAP1 POP JUMP JUMPDEST PUSH1 0x0 PUSH2 0x3CCF DUP3 PUSH2 0x3C48 JUMP JUMPDEST SWAP2 POP PUSH32 0xFFFFFFFFFFFFFFFFFFFFFFFFFFFFFFFFFFFFFFFFFFFFFFFFFFFFFFFFFFFFFFFF DUP3 EQ ISZERO PUSH2 0x3D02 JUMPI PUSH2 0x3D01 PUSH2 0x3D0D JUMP JUMPDEST JUMPDEST PUSH1 0x1 DUP3 ADD SWAP1 POP SWAP2 SWAP1 POP JUMP JUMPDEST PUSH32 0x4E487B7100000000000000000000000000000000000000000000000000000000 PUSH1 0x0 MSTORE PUSH1 0x11 PUSH1 0x4 MSTORE PUSH1 0x24 PUSH1 0x0 REVERT JUMPDEST PUSH32 0x4E487B7100000000000000000000000000000000000000000000000000000000 PUSH1 0x0 MSTORE PUSH1 0x12 PUSH1 0x4 MSTORE PUSH1 0x24 PUSH1 0x0 REVERT JUMPDEST PUSH32 0x4E487B7100000000000000000000000000000000000000000000000000000000 PUSH1 0x0 MSTORE PUSH1 0x22 PUSH1 0x4 MSTORE PUSH1 0x24 PUSH1 0x0 REVERT JUMPDEST PUSH1 0x0 PUSH1 0x1F NOT PUSH1 0x1F DUP4 ADD AND SWAP1 POP SWAP2 SWAP1 POP JUMP JUMPDEST PUSH32 0x43616E6E6F74207472616E736665722066726F6D207A65726F20616464726573 PUSH1 0x0 DUP3 ADD MSTORE PUSH32 0x7300000000000000000000000000000000000000000000000000000000000000 PUSH1 0x20 DUP3 ADD MSTORE POP JUMP JUMPDEST PUSH32 0x4E6F7420656E6F75676820746F6B656E7320666F722061646420766F74652070 PUSH1 0x0 DUP3 ADD MSTORE PUSH32 0x7269636500000000000000000000000000000000000000000000000000000000 PUSH1 0x20 DUP3 ADD MSTORE POP JUMP JUMPDEST PUSH32 0x43616C6C6572206973206E6F74206F776E657200000000000000000000000000 PUSH1 0x0 DUP3 ADD MSTORE POP JUMP JUMPDEST PUSH32 0x5072657669757320766F74696E67206973206E6F74206F766572207965742100 PUSH1 0x0 DUP3 ADD MSTORE POP JUMP JUMPDEST PUSH32 0x5472616E7366657220616D6F756E74206578636565647320616C6C6F77616E63 PUSH1 0x0 DUP3 ADD MSTORE PUSH32 0x6500000000000000000000000000000000000000000000000000000000000000 PUSH1 0x20 DUP3 ADD MSTORE POP JUMP JUMPDEST PUSH32 0x5468657265206973206E6F2073756368207072696365206C6F74207965740000 PUSH1 0x0 DUP3 ADD MSTORE POP JUMP JUMPDEST PUSH32 0x4D617820737570706C79206F6620746F6B656E7320697320746F75636865642E PUSH1 0x0 DUP3 ADD MSTORE POP JUMP JUMPDEST PUSH32 0x536F6D656F6E6520616C72656164792061646465642074686174207072696365 PUSH1 0x0 DUP3 ADD MSTORE PUSH32 0x2C20796F752063616E20766F746520666F72207468617420696E737465616400 PUSH1 0x20 DUP3 ADD MSTORE POP JUMP JUMPDEST PUSH32 0x566F74696E67206973206E6F74206F7665722079657400000000000000000000 PUSH1 0x0 DUP3 ADD MSTORE POP JUMP JUMPDEST PUSH32 0x436F6E747261637420646F65736E2774206861766520656E6F75676820657468 PUSH1 0x0 DUP3 ADD MSTORE PUSH32 0x657220746F207061790000000000000000000000000000000000000000000000 PUSH1 0x20 DUP3 ADD MSTORE POP JUMP JUMPDEST PUSH32 0x43616E6E6F74207472616E7366657220746F207A65726F206164647265737300 PUSH1 0x0 DUP3 ADD MSTORE POP JUMP JUMPDEST PUSH32 0x596F7520616C726561647920766F746564210000000000000000000000000000 PUSH1 0x0 DUP3 ADD MSTORE POP JUMP JUMPDEST PUSH32 0x53656E6420736F6D6520657468657220746F2062757920746F6B656E732E0000 PUSH1 0x0 DUP3 ADD MSTORE POP JUMP JUMPDEST PUSH32 0x4E6F7420656E6F75676820746F6B656E7320666F72207374617274696E672061 PUSH1 0x0 DUP3 ADD MSTORE PUSH32 0x20766F7465210000000000000000000000000000000000000000000000000000 PUSH1 0x20 DUP3 ADD MSTORE POP JUMP JUMPDEST PUSH32 0x596F752063616E27742073657420666565206F662077686F6C652073756D0000 PUSH1 0x0 DUP3 ADD MSTORE POP JUMP JUMPDEST PUSH32 0x4E6F7420656E6F75676820746F6B656E7320666F7220766F74696E6700000000 PUSH1 0x0 DUP3 ADD MSTORE POP JUMP JUMPDEST PUSH32 0x4E6F7420656E6F75676820746F6B656E73000000000000000000000000000000 PUSH1 0x0 DUP3 ADD MSTORE POP JUMP JUMPDEST PUSH32 0x566F74696E672074696D65206973206F76657200000000000000000000000000 PUSH1 0x0 DUP3 ADD MSTORE POP JUMP JUMPDEST PUSH2 0x417A DUP2 PUSH2 0x3BEA JUMP JUMPDEST DUP2 EQ PUSH2 0x4185 JUMPI PUSH1 0x0 DUP1 REVERT JUMPDEST POP JUMP JUMPDEST PUSH2 0x4191 DUP2 PUSH2 0x3C48 JUMP JUMPDEST DUP2 EQ PUSH2 0x419C JUMPI PUSH1 0x0 DUP1 REVERT JUMPDEST POP JUMP INVALID LOG2 PUSH5 0x6970667358 0x22 SLT KECCAK256 0xCD 0xB5 JUMPI 0xAB 0x22 SGT SIGNEXTEND 0xA9 GAS 0x2A CHAINID 0xBC EXTCODECOPY EQ 0xC3 0xEE SMOD 0xAC SWAP8 0xD2 LOG4 0x2A DUP9 PUSH16 0x4503F3B0F1DEDB5664736F6C63430008 DIV STOP CALLER "},"methodIdentifiers":{"addVotePrice(uint256)":"59d634b0","allowance(address,address)":"dd62ed3e","approve(address,uint256)":"095ea7b3","balanceOf(address)":"70a08231","buy()":"a6f2ae3a","currentVoteId()":"9100b5dd","decimals()":"313ce567","endVote()":"b9223946","feeDecimals()":"cc0f1786","feePercent()":"7fd6f15c","isVoting()":"1bbef399","maxTokenSupply()":"50f7c204","minTokenAmountForAddVotePrice()":"88edb929","minTokenAmountForVoting()":"ace682ba","name()":"06fdde03","owner()":"8da5cb5b","proposedPrices(uint256)":"9a57c2fc","sell(uint256)":"e4849b32","setFeePercent(uint256)":"7ce3489b","startVote()":"4c0a6af0","symbol()":"95d89b41","timeToVote()":"945837e2","tokenPrice()":"7ff9b596","totalOfPrice(uint256)":"c745907a","totalSupply()":"18160ddd","totalTokenSupply()":"1ca8b6cb","transfer(address,uint256)":"a9059cbb","transferFrom(address,address,uint256)":"23b872dd","vote(uint256)":"0121b93f","voteCountdown()":"4693d70b","winningPrice()":"c1f52604"}}}}}