{
  "_format": "hh-sol-artifact-1",
  "contractName": "VotableERC20",
  "sourceName": "contracts/VotableERC20.sol",
  "abi": [
    {
      "inputs": [
        {
          "internalType": "string",
          "name": "_name",
          "type": "string"
        },
        {
          "internalType": "string",
          "name": "_symbol",
          "type": "string"
        },
        {
          "internalType": "uint256",
          "name": "_tokenPrice",
          "type": "uint256"
        },
        {
          "internalType": "uint256",
          "name": "_maxTokenSupply",
          "type": "uint256"
        },
        {
          "internalType": "uint256",
          "name": "_timeToVote",
          "type": "uint256"
        },
        {
          "internalType": "uint256",
          "name": "_feePercent",
          "type": "uint256"
        }
      ],
      "stateMutability": "nonpayable",
      "type": "constructor"
    },
    {
      "anonymous": false,
      "inputs": [
        {
          "indexed": true,
          "internalType": "address",
          "name": "owner",
          "type": "address"
        },
        {
          "indexed": true,
          "internalType": "address",
          "name": "spender",
          "type": "address"
        },
        {
          "indexed": false,
          "internalType": "uint256",
          "name": "value",
          "type": "uint256"
        }
      ],
      "name": "Approval",
      "type": "event"
    },
    {
      "anonymous": false,
      "inputs": [
        {
          "indexed": false,
          "internalType": "uint256",
          "name": "newPrice",
          "type": "uint256"
        }
      ],
      "name": "PriceChanged",
      "type": "event"
    },
    {
      "anonymous": false,
      "inputs": [
        {
          "indexed": true,
          "internalType": "address",
          "name": "from",
          "type": "address"
        },
        {
          "indexed": true,
          "internalType": "address",
          "name": "to",
          "type": "address"
        },
        {
          "indexed": false,
          "internalType": "uint256",
          "name": "value",
          "type": "uint256"
        }
      ],
      "name": "Transfer",
      "type": "event"
    },
    {
      "anonymous": false,
      "inputs": [
        {
          "indexed": false,
          "internalType": "uint256",
          "name": "endTime",
          "type": "uint256"
        }
      ],
      "name": "VoteStarted",
      "type": "event"
    },
    {
      "anonymous": false,
      "inputs": [
        {
          "indexed": true,
          "internalType": "address",
          "name": "voter",
          "type": "address"
        },
        {
          "indexed": false,
          "internalType": "uint256",
          "name": "proposedPrice",
          "type": "uint256"
        }
      ],
      "name": "Voted",
      "type": "event"
    },
    {
      "inputs": [
        {
          "internalType": "uint256",
          "name": "_proposedPrice",
          "type": "uint256"
        }
      ],
      "name": "addVotePrice",
      "outputs": [],
      "stateMutability": "nonpayable",
      "type": "function"
    },
    {
      "inputs": [
        {
          "internalType": "address",
          "name": "_owner",
          "type": "address"
        },
        {
          "internalType": "address",
          "name": "_spender",
          "type": "address"
        }
      ],
      "name": "allowance",
      "outputs": [
        {
          "internalType": "uint256",
          "name": "",
          "type": "uint256"
        }
      ],
      "stateMutability": "view",
      "type": "function"
    },
    {
      "inputs": [
        {
          "internalType": "address",
          "name": "_spender",
          "type": "address"
        },
        {
          "internalType": "uint256",
          "name": "_amount",
          "type": "uint256"
        }
      ],
      "name": "approve",
      "outputs": [
        {
          "internalType": "bool",
          "name": "",
          "type": "bool"
        }
      ],
      "stateMutability": "nonpayable",
      "type": "function"
    },
    {
      "inputs": [
        {
          "internalType": "address",
          "name": "_account",
          "type": "address"
        }
      ],
      "name": "balanceOf",
      "outputs": [
        {
          "internalType": "uint256",
          "name": "",
          "type": "uint256"
        }
      ],
      "stateMutability": "view",
      "type": "function"
    },
    {
      "inputs": [],
      "name": "buy",
      "outputs": [
        {
          "internalType": "bool",
          "name": "",
          "type": "bool"
        }
      ],
      "stateMutability": "payable",
      "type": "function"
    },
    {
      "inputs": [],
      "name": "currentVoteId",
      "outputs": [
        {
          "internalType": "uint256",
          "name": "",
          "type": "uint256"
        }
      ],
      "stateMutability": "view",
      "type": "function"
    },
    {
      "inputs": [],
      "name": "decimals",
      "outputs": [
        {
          "internalType": "uint8",
          "name": "",
          "type": "uint8"
        }
      ],
      "stateMutability": "view",
      "type": "function"
    },
    {
      "inputs": [],
      "name": "endVote",
      "outputs": [],
      "stateMutability": "nonpayable",
      "type": "function"
    },
    {
      "inputs": [],
      "name": "feeDecimals",
      "outputs": [
        {
          "internalType": "uint16",
          "name": "",
          "type": "uint16"
        }
      ],
      "stateMutability": "view",
      "type": "function"
    },
    {
      "inputs": [],
      "name": "feePercent",
      "outputs": [
        {
          "internalType": "uint256",
          "name": "",
          "type": "uint256"
        }
      ],
      "stateMutability": "view",
      "type": "function"
    },
    {
      "inputs": [],
      "name": "isVoting",
      "outputs": [
        {
          "internalType": "bool",
          "name": "",
          "type": "bool"
        }
      ],
      "stateMutability": "view",
      "type": "function"
    },
    {
      "inputs": [],
      "name": "leadingVote",
      "outputs": [
        {
          "internalType": "uint256",
          "name": "votesTotal",
          "type": "uint256"
        },
        {
          "internalType": "uint256",
          "name": "proposedPrice",
          "type": "uint256"
        }
      ],
      "stateMutability": "view",
      "type": "function"
    },
    {
      "inputs": [],
      "name": "maxTokenSupply",
      "outputs": [
        {
          "internalType": "uint256",
          "name": "",
          "type": "uint256"
        }
      ],
      "stateMutability": "view",
      "type": "function"
    },
    {
      "inputs": [],
      "name": "minTokenAmountForAddVotePrice",
      "outputs": [
        {
          "internalType": "uint256",
          "name": "",
          "type": "uint256"
        }
      ],
      "stateMutability": "view",
      "type": "function"
    },
    {
      "inputs": [],
      "name": "minTokenAmountForVoting",
      "outputs": [
        {
          "internalType": "uint256",
          "name": "",
          "type": "uint256"
        }
      ],
      "stateMutability": "view",
      "type": "function"
    },
    {
      "inputs": [],
      "name": "name",
      "outputs": [
        {
          "internalType": "string",
          "name": "",
          "type": "string"
        }
      ],
      "stateMutability": "view",
      "type": "function"
    },
    {
      "inputs": [],
      "name": "owner",
      "outputs": [
        {
          "internalType": "address payable",
          "name": "",
          "type": "address"
        }
      ],
      "stateMutability": "view",
      "type": "function"
    },
    {
      "inputs": [
        {
          "internalType": "uint256",
          "name": "",
          "type": "uint256"
        }
      ],
      "name": "proposedPrices",
      "outputs": [
        {
          "internalType": "uint256",
          "name": "",
          "type": "uint256"
        }
      ],
      "stateMutability": "view",
      "type": "function"
    },
    {
      "inputs": [
        {
          "internalType": "uint256",
          "name": "tokensToSell",
          "type": "uint256"
        }
      ],
      "name": "sell",
      "outputs": [
        {
          "internalType": "bool",
          "name": "",
          "type": "bool"
        }
      ],
      "stateMutability": "nonpayable",
      "type": "function"
    },
    {
      "inputs": [
        {
          "internalType": "uint256",
          "name": "_newFeePercent",
          "type": "uint256"
        }
      ],
      "name": "setFeePercent",
      "outputs": [],
      "stateMutability": "nonpayable",
      "type": "function"
    },
    {
      "inputs": [],
      "name": "startVote",
      "outputs": [],
      "stateMutability": "nonpayable",
      "type": "function"
    },
    {
      "inputs": [],
      "name": "symbol",
      "outputs": [
        {
          "internalType": "string",
          "name": "",
          "type": "string"
        }
      ],
      "stateMutability": "view",
      "type": "function"
    },
    {
      "inputs": [],
      "name": "timeToVote",
      "outputs": [
        {
          "internalType": "uint256",
          "name": "",
          "type": "uint256"
        }
      ],
      "stateMutability": "view",
      "type": "function"
    },
    {
      "inputs": [],
      "name": "tokenPrice",
      "outputs": [
        {
          "internalType": "uint256",
          "name": "",
          "type": "uint256"
        }
      ],
      "stateMutability": "view",
      "type": "function"
    },
    {
      "inputs": [
        {
          "internalType": "uint256",
          "name": "_price",
          "type": "uint256"
        }
      ],
      "name": "totalOfPrice",
      "outputs": [
        {
          "internalType": "uint256",
          "name": "",
          "type": "uint256"
        }
      ],
      "stateMutability": "view",
      "type": "function"
    },
    {
      "inputs": [],
      "name": "totalSupply",
      "outputs": [
        {
          "internalType": "uint256",
          "name": "",
          "type": "uint256"
        }
      ],
      "stateMutability": "view",
      "type": "function"
    },
    {
      "inputs": [],
      "name": "totalTokenSupply",
      "outputs": [
        {
          "internalType": "uint256",
          "name": "",
          "type": "uint256"
        }
      ],
      "stateMutability": "view",
      "type": "function"
    },
    {
      "inputs": [
        {
          "internalType": "address",
          "name": "_to",
          "type": "address"
        },
        {
          "internalType": "uint256",
          "name": "_amount",
          "type": "uint256"
        }
      ],
      "name": "transfer",
      "outputs": [
        {
          "internalType": "bool",
          "name": "",
          "type": "bool"
        }
      ],
      "stateMutability": "nonpayable",
      "type": "function"
    },
    {
      "inputs": [
        {
          "internalType": "address",
          "name": "_from",
          "type": "address"
        },
        {
          "internalType": "address",
          "name": "_to",
          "type": "address"
        },
        {
          "internalType": "uint256",
          "name": "_amount",
          "type": "uint256"
        }
      ],
      "name": "transferFrom",
      "outputs": [
        {
          "internalType": "bool",
          "name": "",
          "type": "bool"
        }
      ],
      "stateMutability": "nonpayable",
      "type": "function"
    },
    {
      "inputs": [
        {
          "internalType": "uint256",
          "name": "_proposedPrice",
          "type": "uint256"
        }
      ],
      "name": "vote",
      "outputs": [],
      "stateMutability": "nonpayable",
      "type": "function"
    },
    {
      "inputs": [],
      "name": "voteCountdown",
      "outputs": [
        {
          "internalType": "uint256",
          "name": "",
          "type": "uint256"
        }
      ],
      "stateMutability": "view",
      "type": "function"
    },
    {
      "inputs": [],
      "name": "winningPrice",
      "outputs": [
        {
          "internalType": "uint256",
          "name": "",
          "type": "uint256"
        }
      ],
      "stateMutability": "view",
      "type": "function"
    }
  ],
  "bytecode": "0x60806040526000600460006101000a81548160ff021916908315150217905550601260016200002f91906200041d565b600a556000600e553480156200004457600080fd5b50604051620038323803806200383283398181016040528101906200006a919062000263565b8560029080519060200190620000829291906200012a565b5084600390805190602001906200009b9291906200012a565b50836007819055508260058190555033600960006101000a81548173ffffffffffffffffffffffffffffffffffffffff021916908373ffffffffffffffffffffffffffffffffffffffff16021790555081600c81905550612710600580546200010591906200055a565b6200011191906200038a565b600b819055508060088190555050505050505062000768565b828054620001389062000608565b90600052602060002090601f0160209004810192826200015c5760008555620001a8565b82601f106200017757805160ff1916838001178555620001a8565b82800160010185558215620001a8579182015b82811115620001a75782518255916020019190600101906200018a565b5b509050620001b79190620001bb565b5090565b5b80821115620001d6576000816000905550600101620001bc565b5090565b6000620001f1620001eb8462000354565b6200032b565b9050828152602081018484840111156200020a57600080fd5b62000217848285620005d2565b509392505050565b600082601f8301126200023157600080fd5b815162000243848260208601620001da565b91505092915050565b6000815190506200025d816200074e565b92915050565b60008060008060008060c087890312156200027d57600080fd5b600087015167ffffffffffffffff8111156200029857600080fd5b620002a689828a016200021f565b965050602087015167ffffffffffffffff811115620002c457600080fd5b620002d289828a016200021f565b9550506040620002e589828a016200024c565b9450506060620002f889828a016200024c565b93505060806200030b89828a016200024c565b92505060a06200031e89828a016200024c565b9150509295509295509295565b6000620003376200034a565b90506200034582826200063e565b919050565b6000604051905090565b600067ffffffffffffffff82111562000372576200037162000701565b5b6200037d8262000730565b9050602081019050919050565b60006200039782620005bb565b9150620003a483620005bb565b925082620003b757620003b6620006a3565b5b828204905092915050565b6000808291508390505b60018511156200041457808604811115620003ec57620003eb62000674565b5b6001851615620003fc5780820291505b80810290506200040c8562000741565b9450620003cc565b94509492505050565b60006200042a82620005bb565b91506200043783620005c5565b9250620004667fffffffffffffffffffffffffffffffffffffffffffffffffffffffffffffffff84846200046e565b905092915050565b60008262000480576001905062000553565b8162000490576000905062000553565b8160018114620004a95760028114620004b457620004ea565b600191505062000553565b60ff841115620004c957620004c862000674565b5b8360020a915084821115620004e357620004e262000674565b5b5062000553565b5060208310610133831016604e8410600b8410161715620005245782820a9050838111156200051e576200051d62000674565b5b62000553565b620005338484846001620003c2565b925090508184048111156200054d576200054c62000674565b5b81810290505b9392505050565b60006200056782620005bb565b91506200057483620005bb565b9250817fffffffffffffffffffffffffffffffffffffffffffffffffffffffffffffffff0483118215151615620005b057620005af62000674565b5b828202905092915050565b6000819050919050565b600060ff82169050919050565b60005b83811015620005f2578082015181840152602081019050620005d5565b8381111562000602576000848401525b50505050565b600060028204905060018216806200062157607f821691505b60208210811415620006385762000637620006d2565b5b50919050565b620006498262000730565b810181811067ffffffffffffffff821117156200066b576200066a62000701565b5b80604052505050565b7f4e487b7100000000000000000000000000000000000000000000000000000000600052601160045260246000fd5b7f4e487b7100000000000000000000000000000000000000000000000000000000600052601260045260246000fd5b7f4e487b7100000000000000000000000000000000000000000000000000000000600052602260045260246000fd5b7f4e487b7100000000000000000000000000000000000000000000000000000000600052604160045260246000fd5b6000601f19601f8301169050919050565b60008160011c9050919050565b6200075981620005bb565b81146200076557600080fd5b50565b6130ba80620007786000396000f3fe6080604052600436106101e35760003560e01c806388edb92911610102578063a9059cbb11610095578063c745907a11610064578063c745907a146106bc578063cc0f1786146106f9578063dd62ed3e14610724578063e4849b3214610761576101e3565b8063a9059cbb14610612578063ace682ba1461064f578063b92239461461067a578063c1f5260414610691576101e3565b8063945837e2116100d1578063945837e21461056157806395d89b411461058c5780639a57c2fc146105b7578063a6f2ae3a146105f4576101e3565b806388edb929146104b45780638da5cb5b146104df57806390a6a56a1461050a5780639100b5dd14610536576101e3565b80634693d70b1161017a57806370a082311161014957806370a08231146103f85780637ce3489b146104355780637fd6f15c1461045e5780637ff9b59614610489576101e3565b80634693d70b146103625780634c0a6af01461038d57806350f7c204146103a457806359d634b0146103cf576101e3565b80631bbef399116101b65780631bbef399146102a45780631ca8b6cb146102cf57806323b872dd146102fa578063313ce56714610337576101e3565b80630121b93f146101e857806306fdde0314610211578063095ea7b31461023c57806318160ddd14610279575b600080fd5b3480156101f457600080fd5b5061020f600480360381019061020a9190612316565b61079e565b005b34801561021d57600080fd5b50610226610b0c565b60405161023391906126c2565b60405180910390f35b34801561024857600080fd5b50610263600480360381019061025e91906122da565b610b9a565b60405161027091906126a7565b60405180910390f35b34801561028557600080fd5b5061028e610c8c565b60405161029b919061293f565b60405180910390f35b3480156102b057600080fd5b506102b9610c96565b6040516102c691906126a7565b60405180910390f35b3480156102db57600080fd5b506102e4610ca9565b6040516102f1919061293f565b60405180910390f35b34801561030657600080fd5b50610321600480360381019061031c919061228b565b610caf565b60405161032e91906126a7565b60405180910390f35b34801561034357600080fd5b5061034c610e17565b6040516103599190612983565b60405180910390f35b34801561036e57600080fd5b50610377610e1c565b604051610384919061293f565b60405180910390f35b34801561039957600080fd5b506103a2610e22565b005b3480156103b057600080fd5b506103b9610f78565b6040516103c6919061293f565b60405180910390f35b3480156103db57600080fd5b506103f660048036038101906103f19190612316565b610f7e565b005b34801561040457600080fd5b5061041f600480360381019061041a9190612226565b611314565b60405161042c919061293f565b60405180910390f35b34801561044157600080fd5b5061045c60048036038101906104579190612316565b61135d565b005b34801561046a57600080fd5b5061047361143f565b604051610480919061293f565b60405180910390f35b34801561049557600080fd5b5061049e611445565b6040516104ab919061293f565b60405180910390f35b3480156104c057600080fd5b506104c961144b565b6040516104d6919061293f565b60405180910390f35b3480156104eb57600080fd5b506104f4611451565b604051610501919061268c565b60405180910390f35b34801561051657600080fd5b5061051f611477565b60405161052d92919061295a565b60405180910390f35b34801561054257600080fd5b5061054b611489565b604051610558919061293f565b60405180910390f35b34801561056d57600080fd5b5061057661148f565b604051610583919061293f565b60405180910390f35b34801561059857600080fd5b506105a1611495565b6040516105ae91906126c2565b60405180910390f35b3480156105c357600080fd5b506105de60048036038101906105d99190612316565b611523565b6040516105eb919061293f565b60405180910390f35b6105fc611547565b60405161060991906126a7565b60405180910390f35b34801561061e57600080fd5b50610639600480360381019061063491906122da565b611746565b60405161064691906126a7565b60405180910390f35b34801561065b57600080fd5b5061066461175d565b604051610671919061293f565b60405180910390f35b34801561068657600080fd5b5061068f611763565b005b34801561069d57600080fd5b506106a661181e565b6040516106b3919061293f565b60405180910390f35b3480156106c857600080fd5b506106e360048036038101906106de9190612316565b611824565b6040516106f0919061293f565b60405180910390f35b34801561070557600080fd5b5061070e611841565b60405161071b9190612924565b60405180910390f35b34801561073057600080fd5b5061074b6004803603810190610746919061224f565b611847565b604051610758919061293f565b60405180910390f35b34801561076d57600080fd5b5061078860048036038101906107839190612316565b6118ce565b60405161079591906126a7565b60405180910390f35b600d544211156107e3576040517f08c379a00000000000000000000000000000000000000000000000000000000081526004016107da90612904565b60405180910390fd5b6000601260003373ffffffffffffffffffffffffffffffffffffffff1673ffffffffffffffffffffffffffffffffffffffff168152602001908152602001600020600001541480156108795750600e54601260003373ffffffffffffffffffffffffffffffffffffffff1673ffffffffffffffffffffffffffffffffffffffff1681526020019081526020016000206001015414155b6108b8576040517f08c379a00000000000000000000000000000000000000000000000000000000081526004016108af90612844565b60405180910390fd5b60006011600083815260200190815260200160002054141561090f576040517f08c379a000000000000000000000000000000000000000000000000000000000815260040161090690612784565b60405180910390fd5b600a54600f60003373ffffffffffffffffffffffffffffffffffffffff1673ffffffffffffffffffffffffffffffffffffffff168152602001908152602001600020541015610993576040517f08c379a000000000000000000000000000000000000000000000000000000000815260040161098a906128c4565b60405180910390fd5b6040518060400160405280828152602001600e54815250601260003373ffffffffffffffffffffffffffffffffffffffff1673ffffffffffffffffffffffffffffffffffffffff16815260200190815260200160002060008201518160000155602082015181600101559050503073ffffffffffffffffffffffffffffffffffffffff166370a08231336040518263ffffffff1660e01b8152600401610a399190612671565b60206040518083038186803b158015610a5157600080fd5b505afa158015610a65573d6000803e3d6000fd5b505050506040513d601f19601f82011682018060405250810190610a89919061233f565b601160008381526020019081526020016000206000828254610aab91906129ba565b92505081905550610abb81611a92565b3373ffffffffffffffffffffffffffffffffffffffff167f4d99b957a2bc29a30ebd96a7be8e68fe50a3c701db28a91436490b7d53870ca482604051610b01919061293f565b60405180910390a250565b60028054610b1990612b77565b80601f0160208091040260200160405190810160405280929190818152602001828054610b4590612b77565b8015610b925780601f10610b6757610100808354040283529160200191610b92565b820191906000526020600020905b815481529060010190602001808311610b7557829003601f168201915b505050505081565b600081601060003373ffffffffffffffffffffffffffffffffffffffff1673ffffffffffffffffffffffffffffffffffffffff16815260200190815260200160002060008573ffffffffffffffffffffffffffffffffffffffff1673ffffffffffffffffffffffffffffffffffffffff168152602001908152602001600020819055508273ffffffffffffffffffffffffffffffffffffffff163373ffffffffffffffffffffffffffffffffffffffff167f8c5be1e5ebec7d5bd14f71427d1e84f3dd0314c0f7b2291e5b200ac8c7c3b92584604051610c7a919061293f565b60405180910390a36001905092915050565b6000600654905090565b600460009054906101000a900460ff1681565b60065481565b600080601060008673ffffffffffffffffffffffffffffffffffffffff1673ffffffffffffffffffffffffffffffffffffffff16815260200190815260200160002060003373ffffffffffffffffffffffffffffffffffffffff1673ffffffffffffffffffffffffffffffffffffffff16815260200190815260200160002054905082811015610d74576040517f08c379a0000000000000000000000000000000000000000000000000000000008152600401610d6b90612764565b60405180910390fd5b610d7f858585611adb565b8281610d8b9190612a9b565b601060008773ffffffffffffffffffffffffffffffffffffffff1673ffffffffffffffffffffffffffffffffffffffff16815260200190815260200160002060003373ffffffffffffffffffffffffffffffffffffffff1673ffffffffffffffffffffffffffffffffffffffff1681526020019081526020016000208190555060019150509392505050565b601281565b600d5481565b600460009054906101000a900460ff1615610e72576040517f08c379a0000000000000000000000000000000000000000000000000000000008152600401610e6990612744565b60405180910390fd5b600b54600f60003373ffffffffffffffffffffffffffffffffffffffff1673ffffffffffffffffffffffffffffffffffffffff168152602001908152602001600020541015610ef6576040517f08c379a0000000000000000000000000000000000000000000000000000000008152600401610eed90612884565b60405180910390fd5b6001600460006101000a81548160ff021916908315150217905550600c5442610f1f91906129ba565b600d81905550600e6000815480929190610f3890612ba9565b91905055507fa80808a30283fc2c95db95a081ef4462dd38bb7854e6569e34c0b501eed90f4e600d54604051610f6e919061293f565b60405180910390a1565b60055481565b600d54421115610fc3576040517f08c379a0000000000000000000000000000000000000000000000000000000008152600401610fba90612904565b60405180910390fd5b6000601260003373ffffffffffffffffffffffffffffffffffffffff1673ffffffffffffffffffffffffffffffffffffffff168152602001908152602001600020600001541480156110595750600e54601260003373ffffffffffffffffffffffffffffffffffffffff1673ffffffffffffffffffffffffffffffffffffffff1681526020019081526020016000206001015414155b611098576040517f08c379a000000000000000000000000000000000000000000000000000000000815260040161108f90612844565b60405180910390fd5b60006011600083815260200190815260200160002054146110ee576040517f08c379a00000000000000000000000000000000000000000000000000000000081526004016110e5906127c4565b60405180910390fd5b600b54600f60003373ffffffffffffffffffffffffffffffffffffffff1673ffffffffffffffffffffffffffffffffffffffff168152602001908152602001600020541015611172576040517f08c379a000000000000000000000000000000000000000000000000000000000815260040161116990612704565b60405180910390fd5b3073ffffffffffffffffffffffffffffffffffffffff166370a08231336040518263ffffffff1660e01b81526004016111ab9190612671565b60206040518083038186803b1580156111c357600080fd5b505afa1580156111d7573d6000803e3d6000fd5b505050506040513d601f19601f820116820180604052508101906111fb919061233f565b60116000838152602001908152602001600020600082825461121d91906129ba565b925050819055506040518060400160405280828152602001600e54815250601260003373ffffffffffffffffffffffffffffffffffffffff1673ffffffffffffffffffffffffffffffffffffffff168152602001908152602001600020600082015181600001556020820151816001015590505060138190806001815401808255809150506001900390600052602060002001600090919091909150556112c381611a92565b3373ffffffffffffffffffffffffffffffffffffffff167f4d99b957a2bc29a30ebd96a7be8e68fe50a3c701db28a91436490b7d53870ca482604051611309919061293f565b60405180910390a250565b6000600f60008373ffffffffffffffffffffffffffffffffffffffff1673ffffffffffffffffffffffffffffffffffffffff168152602001908152602001600020549050919050565b600960009054906101000a900473ffffffffffffffffffffffffffffffffffffffff1673ffffffffffffffffffffffffffffffffffffffff163373ffffffffffffffffffffffffffffffffffffffff16146113ed576040517f08c379a00000000000000000000000000000000000000000000000000000000081526004016113e490612724565b60405180910390fd5b61271061ffff168110611435576040517f08c379a000000000000000000000000000000000000000000000000000000000815260040161142c906128a4565b60405180910390fd5b8060088190555050565b60085481565b60075481565b600b5481565b600960009054906101000a900473ffffffffffffffffffffffffffffffffffffffff1681565b60008060000154908060010154905082565b600e5481565b600c5481565b600380546114a290612b77565b80601f01602080910402602001604051908101604052809291908181526020018280546114ce90612b77565b801561151b5780601f106114f05761010080835404028352916020019161151b565b820191906000526020600020905b8154815290600101906020018083116114fe57829003601f168201915b505050505081565b6013818154811061153357600080fd5b906000526020600020016000915090505481565b600080341161158b576040517f08c379a000000000000000000000000000000000000000000000000000000000815260040161158290612864565b60405180910390fd5b600061271061ffff16600854346115a29190612a41565b6115ac9190612a10565b9050600081346115bc9190612a9b565b90506000600754826115ce9190612a10565b90506006546005546115e09190612a9b565b811115611622576040517f08c379a0000000000000000000000000000000000000000000000000000000008152600401611619906127a4565b60405180910390fd5b61162c3382611d65565b6000601260003373ffffffffffffffffffffffffffffffffffffffff1673ffffffffffffffffffffffffffffffffffffffff16815260200190815260200160002060000154141580156116c25750600e54601260003373ffffffffffffffffffffffffffffffffffffffff1673ffffffffffffffffffffffffffffffffffffffff16815260200190815260200160002060010154145b15611734578060116000601260003373ffffffffffffffffffffffffffffffffffffffff1673ffffffffffffffffffffffffffffffffffffffff168152602001908152602001600020600001548152602001908152602001600020600082825461172c91906129ba565b925050819055505b61173c611dd8565b6001935050505090565b6000611753338484611adb565b6001905092915050565b600a5481565b600d5442116117a7576040517f08c379a000000000000000000000000000000000000000000000000000000000815260040161179e906127e4565b60405180910390fd5b6000600101546007819055506000600460006101000a81548160ff0219169083151502179055506000806000820160009055600182016000905550507fa6dc15bdb68da224c66db4b3838d9a2b205138e8cff6774e57d0af91e196d622600754604051611814919061293f565b60405180910390a1565b60145481565b600060116000838152602001908152602001600020549050919050565b61271081565b6000601060008473ffffffffffffffffffffffffffffffffffffffff1673ffffffffffffffffffffffffffffffffffffffff16815260200190815260200160002060008373ffffffffffffffffffffffffffffffffffffffff1673ffffffffffffffffffffffffffffffffffffffff16815260200190815260200160002054905092915050565b6000813073ffffffffffffffffffffffffffffffffffffffff166370a08231336040518263ffffffff1660e01b815260040161190a9190612671565b60206040518083038186803b15801561192257600080fd5b505afa158015611936573d6000803e3d6000fd5b505050506040513d601f19601f8201168201806040525081019061195a919061233f565b101561199b576040517f08c379a0000000000000000000000000000000000000000000000000000000008152600401611992906128e4565b60405180910390fd5b6000600754836119ab9190612a41565b9050600061271061ffff16600854836119c49190612a41565b6119ce9190612a10565b9050600081836119de9190612a9b565b905080471015611a23576040517f08c379a0000000000000000000000000000000000000000000000000000000008152600401611a1a90612804565b60405180910390fd5b611a2d3386611ed1565b611a373386611f44565b611a3f611dd8565b3373ffffffffffffffffffffffffffffffffffffffff166108fc829081150290604051600060405180830381858888f19350505050158015611a85573d6000803e3d6000fd5b5060019350505050919050565b600080015460116000838152602001908152602001600020541115611ad85760116000828152602001908152602001600020546000800181905550806000600101819055505b50565b600073ffffffffffffffffffffffffffffffffffffffff168373ffffffffffffffffffffffffffffffffffffffff161415611b4b576040517f08c379a0000000000000000000000000000000000000000000000000000000008152600401611b42906126e4565b60405180910390fd5b600073ffffffffffffffffffffffffffffffffffffffff168273ffffffffffffffffffffffffffffffffffffffff161415611bbb576040517f08c379a0000000000000000000000000000000000000000000000000000000008152600401611bb290612824565b60405180910390fd5b80600f60008573ffffffffffffffffffffffffffffffffffffffff1673ffffffffffffffffffffffffffffffffffffffff168152602001908152602001600020541015611c3d576040517f08c379a0000000000000000000000000000000000000000000000000000000008152600401611c34906128e4565b60405180910390fd5b80600f60008573ffffffffffffffffffffffffffffffffffffffff1673ffffffffffffffffffffffffffffffffffffffff1681526020019081526020016000206000828254611c8c9190612a9b565b9250508190555080600f60008473ffffffffffffffffffffffffffffffffffffffff1673ffffffffffffffffffffffffffffffffffffffff1681526020019081526020016000206000828254611ce291906129ba565b92505081905550611cf38382611f44565b611cfb611dd8565b8173ffffffffffffffffffffffffffffffffffffffff168373ffffffffffffffffffffffffffffffffffffffff167fddf252ad1be2c89b69c2b068fc378daa952ba7f163c4a11628f55a4df523b3ef83604051611d58919061293f565b60405180910390a3505050565b80600f60008473ffffffffffffffffffffffffffffffffffffffff1673ffffffffffffffffffffffffffffffffffffffff1681526020019081526020016000206000828254611db491906129ba565b925050819055508060066000828254611dcd91906129ba565b925050819055505050565b6000805b601380549050811015611ea75760008001546011600060138481548110611e2c577f4e487b7100000000000000000000000000000000000000000000000000000000600052603260045260246000fd5b90600052602060002001548152602001908152602001600020541115611e945760138181548110611e86577f4e487b7100000000000000000000000000000000000000000000000000000000600052603260045260246000fd5b906000526020600020015491505b8080611e9f90612ba9565b915050611ddc565b50806000600101819055506011600082815260200190815260200160002054600080018190555050565b80600f60008473ffffffffffffffffffffffffffffffffffffffff1673ffffffffffffffffffffffffffffffffffffffff1681526020019081526020016000206000828254611f209190612a9b565b925050819055508060066000828254611f399190612a9b565b925050819055505050565b6000601260008473ffffffffffffffffffffffffffffffffffffffff1673ffffffffffffffffffffffffffffffffffffffff1681526020019081526020016000206000015414158015611fda5750600e54601260008473ffffffffffffffffffffffffffffffffffffffff1673ffffffffffffffffffffffffffffffffffffffff16815260200190815260200160002060010154145b156121e357600a543073ffffffffffffffffffffffffffffffffffffffff166370a08231846040518263ffffffff1660e01b815260040161201b9190612671565b60206040518083038186803b15801561203357600080fd5b505afa158015612047573d6000803e3d6000fd5b505050506040513d601f19601f8201168201806040525081019061206b919061233f565b1015612175573073ffffffffffffffffffffffffffffffffffffffff166370a08231836040518263ffffffff1660e01b81526004016120aa9190612671565b60206040518083038186803b1580156120c257600080fd5b505afa1580156120d6573d6000803e3d6000fd5b505050506040513d601f19601f820116820180604052508101906120fa919061233f565b8161210591906129ba565b60116000601260008673ffffffffffffffffffffffffffffffffffffffff1673ffffffffffffffffffffffffffffffffffffffff16815260200190815260200160002060000154815260200190815260200160002060008282546121699190612a9b565b925050819055506121e2565b8060116000601260008673ffffffffffffffffffffffffffffffffffffffff1673ffffffffffffffffffffffffffffffffffffffff16815260200190815260200160002060000154815260200190815260200160002060008282546121da9190612a9b565b925050819055505b5b5050565b6000813590506121f681613056565b92915050565b60008135905061220b8161306d565b92915050565b6000815190506122208161306d565b92915050565b60006020828403121561223857600080fd5b6000612246848285016121e7565b91505092915050565b6000806040838503121561226257600080fd5b6000612270858286016121e7565b9250506020612281858286016121e7565b9150509250929050565b6000806000606084860312156122a057600080fd5b60006122ae868287016121e7565b93505060206122bf868287016121e7565b92505060406122d0868287016121fc565b9150509250925092565b600080604083850312156122ed57600080fd5b60006122fb858286016121e7565b925050602061230c858286016121fc565b9150509250929050565b60006020828403121561232857600080fd5b6000612336848285016121fc565b91505092915050565b60006020828403121561235157600080fd5b600061235f84828501612211565b91505092915050565b61237181612ae1565b82525050565b61238081612acf565b82525050565b61238f81612af3565b82525050565b60006123a08261299e565b6123aa81856129a9565b93506123ba818560208601612b44565b6123c381612c7f565b840191505092915050565b60006123db6021836129a9565b91506123e682612c90565b604082019050919050565b60006123fe6024836129a9565b915061240982612cdf565b604082019050919050565b60006124216013836129a9565b915061242c82612d2e565b602082019050919050565b6000612444601f836129a9565b915061244f82612d57565b602082019050919050565b60006124676021836129a9565b915061247282612d80565b604082019050919050565b600061248a601e836129a9565b915061249582612dcf565b602082019050919050565b60006124ad6020836129a9565b91506124b882612df8565b602082019050919050565b60006124d0603f836129a9565b91506124db82612e21565b604082019050919050565b60006124f36016836129a9565b91506124fe82612e70565b602082019050919050565b60006125166029836129a9565b915061252182612e99565b604082019050919050565b6000612539601f836129a9565b915061254482612ee8565b602082019050919050565b600061255c6012836129a9565b915061256782612f11565b602082019050919050565b600061257f601e836129a9565b915061258a82612f3a565b602082019050919050565b60006125a26026836129a9565b91506125ad82612f63565b604082019050919050565b60006125c5601e836129a9565b91506125d082612fb2565b602082019050919050565b60006125e8601c836129a9565b91506125f382612fdb565b602082019050919050565b600061260b6011836129a9565b915061261682613004565b602082019050919050565b600061262e6013836129a9565b91506126398261302d565b602082019050919050565b61264d81612aff565b82525050565b61265c81612b2d565b82525050565b61266b81612b37565b82525050565b60006020820190506126866000830184612377565b92915050565b60006020820190506126a16000830184612368565b92915050565b60006020820190506126bc6000830184612386565b92915050565b600060208201905081810360008301526126dc8184612395565b905092915050565b600060208201905081810360008301526126fd816123ce565b9050919050565b6000602082019050818103600083015261271d816123f1565b9050919050565b6000602082019050818103600083015261273d81612414565b9050919050565b6000602082019050818103600083015261275d81612437565b9050919050565b6000602082019050818103600083015261277d8161245a565b9050919050565b6000602082019050818103600083015261279d8161247d565b9050919050565b600060208201905081810360008301526127bd816124a0565b9050919050565b600060208201905081810360008301526127dd816124c3565b9050919050565b600060208201905081810360008301526127fd816124e6565b9050919050565b6000602082019050818103600083015261281d81612509565b9050919050565b6000602082019050818103600083015261283d8161252c565b9050919050565b6000602082019050818103600083015261285d8161254f565b9050919050565b6000602082019050818103600083015261287d81612572565b9050919050565b6000602082019050818103600083015261289d81612595565b9050919050565b600060208201905081810360008301526128bd816125b8565b9050919050565b600060208201905081810360008301526128dd816125db565b9050919050565b600060208201905081810360008301526128fd816125fe565b9050919050565b6000602082019050818103600083015261291d81612621565b9050919050565b60006020820190506129396000830184612644565b92915050565b60006020820190506129546000830184612653565b92915050565b600060408201905061296f6000830185612653565b61297c6020830184612653565b9392505050565b60006020820190506129986000830184612662565b92915050565b600081519050919050565b600082825260208201905092915050565b60006129c582612b2d565b91506129d083612b2d565b9250827fffffffffffffffffffffffffffffffffffffffffffffffffffffffffffffffff03821115612a0557612a04612bf2565b5b828201905092915050565b6000612a1b82612b2d565b9150612a2683612b2d565b925082612a3657612a35612c21565b5b828204905092915050565b6000612a4c82612b2d565b9150612a5783612b2d565b9250817fffffffffffffffffffffffffffffffffffffffffffffffffffffffffffffffff0483118215151615612a9057612a8f612bf2565b5b828202905092915050565b6000612aa682612b2d565b9150612ab183612b2d565b925082821015612ac457612ac3612bf2565b5b828203905092915050565b6000612ada82612b0d565b9050919050565b6000612aec82612b0d565b9050919050565b60008115159050919050565b600061ffff82169050919050565b600073ffffffffffffffffffffffffffffffffffffffff82169050919050565b6000819050919050565b600060ff82169050919050565b60005b83811015612b62578082015181840152602081019050612b47565b83811115612b71576000848401525b50505050565b60006002820490506001821680612b8f57607f821691505b60208210811415612ba357612ba2612c50565b5b50919050565b6000612bb482612b2d565b91507fffffffffffffffffffffffffffffffffffffffffffffffffffffffffffffffff821415612be757612be6612bf2565b5b600182019050919050565b7f4e487b7100000000000000000000000000000000000000000000000000000000600052601160045260246000fd5b7f4e487b7100000000000000000000000000000000000000000000000000000000600052601260045260246000fd5b7f4e487b7100000000000000000000000000000000000000000000000000000000600052602260045260246000fd5b6000601f19601f8301169050919050565b7f43616e6e6f74207472616e736665722066726f6d207a65726f2061646472657360008201527f7300000000000000000000000000000000000000000000000000000000000000602082015250565b7f4e6f7420656e6f75676820746f6b656e7320666f722061646420766f7465207060008201527f7269636500000000000000000000000000000000000000000000000000000000602082015250565b7f43616c6c6572206973206e6f74206f776e657200000000000000000000000000600082015250565b7f5072657669757320766f74696e67206973206e6f74206f766572207965742100600082015250565b7f5472616e7366657220616d6f756e74206578636565647320616c6c6f77616e6360008201527f6500000000000000000000000000000000000000000000000000000000000000602082015250565b7f5468657265206973206e6f2073756368207072696365206c6f74207965740000600082015250565b7f4d617820737570706c79206f6620746f6b656e7320697320746f75636865642e600082015250565b7f536f6d656f6e6520616c7265616479206164646564207468617420707269636560008201527f2c20796f752063616e20766f746520666f72207468617420696e737465616400602082015250565b7f566f74696e67206973206e6f74206f7665722079657400000000000000000000600082015250565b7f436f6e747261637420646f65736e2774206861766520656e6f7567682065746860008201527f657220746f207061790000000000000000000000000000000000000000000000602082015250565b7f43616e6e6f74207472616e7366657220746f207a65726f206164647265737300600082015250565b7f596f7520616c726561647920766f746564210000000000000000000000000000600082015250565b7f53656e6420736f6d6520657468657220746f2062757920746f6b656e732e0000600082015250565b7f4e6f7420656e6f75676820746f6b656e7320666f72207374617274696e67206160008201527f20766f7465210000000000000000000000000000000000000000000000000000602082015250565b7f596f752063616e27742073657420666565206f662077686f6c652073756d0000600082015250565b7f4e6f7420656e6f75676820746f6b656e7320666f7220766f74696e6700000000600082015250565b7f4e6f7420656e6f75676820746f6b656e73000000000000000000000000000000600082015250565b7f566f74696e672074696d65206973206f76657200000000000000000000000000600082015250565b61305f81612acf565b811461306a57600080fd5b50565b61307681612b2d565b811461308157600080fd5b5056fea26469706673582212209b7f6ddb21aa414d91e410f5aaf156b9966f11bf9f54f63397e4ce3422cb1a2764736f6c63430008040033",
  "linkReferences": {},
  "deployedLinkReferences": {}
}