{
  "_format": "hh-sol-artifact-1",
  "contractName": "VotableERC20",
  "sourceName": "contracts/VotableERC20.sol",
  "abi": [
    {
      "inputs": [
        {
          "internalType": "string",
          "name": "_name",
          "type": "string"
        },
        {
          "internalType": "string",
          "name": "_symbol",
          "type": "string"
        },
        {
          "internalType": "uint256",
          "name": "_tokenPrice",
          "type": "uint256"
        },
        {
          "internalType": "uint256",
          "name": "_maxTokenSupply",
          "type": "uint256"
        },
        {
          "internalType": "uint256",
          "name": "_timeToVote",
          "type": "uint256"
        },
        {
          "internalType": "uint256",
          "name": "_feePercent",
          "type": "uint256"
        }
      ],
      "stateMutability": "nonpayable",
      "type": "constructor"
    },
    {
      "anonymous": false,
      "inputs": [
        {
          "indexed": true,
          "internalType": "address",
          "name": "owner",
          "type": "address"
        },
        {
          "indexed": true,
          "internalType": "address",
          "name": "spender",
          "type": "address"
        },
        {
          "indexed": false,
          "internalType": "uint256",
          "name": "value",
          "type": "uint256"
        }
      ],
      "name": "Approval",
      "type": "event"
    },
    {
      "anonymous": false,
      "inputs": [
        {
          "indexed": false,
          "internalType": "uint256",
          "name": "nodeIndex",
          "type": "uint256"
        },
        {
          "indexed": false,
          "internalType": "uint256",
          "name": "prev",
          "type": "uint256"
        },
        {
          "indexed": false,
          "internalType": "uint256",
          "name": "next",
          "type": "uint256"
        },
        {
          "indexed": false,
          "internalType": "uint256",
          "name": "votePrice",
          "type": "uint256"
        },
        {
          "indexed": false,
          "internalType": "uint256",
          "name": "votesTotal",
          "type": "uint256"
        }
      ],
      "name": "NodeInsert",
      "type": "event"
    },
    {
      "anonymous": false,
      "inputs": [
        {
          "indexed": false,
          "internalType": "uint256",
          "name": "nodeIndex",
          "type": "uint256"
        },
        {
          "indexed": false,
          "internalType": "uint256",
          "name": "newPrev",
          "type": "uint256"
        },
        {
          "indexed": false,
          "internalType": "uint256",
          "name": "newNext",
          "type": "uint256"
        },
        {
          "indexed": false,
          "internalType": "uint256",
          "name": "newVotesTotal",
          "type": "uint256"
        }
      ],
      "name": "NodeMoved",
      "type": "event"
    },
    {
      "anonymous": false,
      "inputs": [
        {
          "indexed": false,
          "internalType": "uint256",
          "name": "newPrice",
          "type": "uint256"
        }
      ],
      "name": "PriceChanged",
      "type": "event"
    },
    {
      "anonymous": false,
      "inputs": [
        {
          "indexed": false,
          "internalType": "uint256",
          "name": "nodeIndex",
          "type": "uint256"
        },
        {
          "indexed": false,
          "internalType": "uint256",
          "name": "newVotesTotal",
          "type": "uint256"
        }
      ],
      "name": "PriceOfNodeChanged",
      "type": "event"
    },
    {
      "anonymous": false,
      "inputs": [
        {
          "indexed": true,
          "internalType": "address",
          "name": "from",
          "type": "address"
        },
        {
          "indexed": true,
          "internalType": "address",
          "name": "to",
          "type": "address"
        },
        {
          "indexed": false,
          "internalType": "uint256",
          "name": "value",
          "type": "uint256"
        }
      ],
      "name": "Transfer",
      "type": "event"
    },
    {
      "anonymous": false,
      "inputs": [
        {
          "indexed": false,
          "internalType": "uint256",
          "name": "endTime",
          "type": "uint256"
        }
      ],
      "name": "VoteStarted",
      "type": "event"
    },
    {
      "anonymous": false,
      "inputs": [
        {
          "indexed": true,
          "internalType": "address",
          "name": "voter",
          "type": "address"
        },
        {
          "indexed": false,
          "internalType": "uint256",
          "name": "proposedPrice",
          "type": "uint256"
        }
      ],
      "name": "Voted",
      "type": "event"
    },
    {
      "inputs": [
        {
          "internalType": "uint256",
          "name": "_proposedPrice",
          "type": "uint256"
        },
        {
          "internalType": "uint256",
          "name": "_prevIndex",
          "type": "uint256"
        },
        {
          "internalType": "uint256",
          "name": "_nextIndex",
          "type": "uint256"
        }
      ],
      "name": "addVotePrice",
      "outputs": [],
      "stateMutability": "nonpayable",
      "type": "function"
    },
    {
      "inputs": [
        {
          "internalType": "address",
          "name": "_owner",
          "type": "address"
        },
        {
          "internalType": "address",
          "name": "_spender",
          "type": "address"
        }
      ],
      "name": "allowance",
      "outputs": [
        {
          "internalType": "uint256",
          "name": "",
          "type": "uint256"
        }
      ],
      "stateMutability": "view",
      "type": "function"
    },
    {
      "inputs": [
        {
          "internalType": "address",
          "name": "_spender",
          "type": "address"
        },
        {
          "internalType": "uint256",
          "name": "_amount",
          "type": "uint256"
        }
      ],
      "name": "approve",
      "outputs": [
        {
          "internalType": "bool",
          "name": "",
          "type": "bool"
        }
      ],
      "stateMutability": "nonpayable",
      "type": "function"
    },
    {
      "inputs": [
        {
          "internalType": "address",
          "name": "_account",
          "type": "address"
        }
      ],
      "name": "balanceOf",
      "outputs": [
        {
          "internalType": "uint256",
          "name": "",
          "type": "uint256"
        }
      ],
      "stateMutability": "view",
      "type": "function"
    },
    {
      "inputs": [],
      "name": "buy",
      "outputs": [],
      "stateMutability": "payable",
      "type": "function"
    },
    {
      "inputs": [],
      "name": "data",
      "outputs": [
        {
          "internalType": "uint256",
          "name": "head",
          "type": "uint256"
        },
        {
          "internalType": "uint256",
          "name": "tail",
          "type": "uint256"
        },
        {
          "internalType": "uint256",
          "name": "size",
          "type": "uint256"
        },
        {
          "internalType": "uint256",
          "name": "indexToUse",
          "type": "uint256"
        },
        {
          "internalType": "uint256",
          "name": "currentVoteId",
          "type": "uint256"
        }
      ],
      "stateMutability": "view",
      "type": "function"
    },
    {
      "inputs": [],
      "name": "decimals",
      "outputs": [
        {
          "internalType": "uint8",
          "name": "",
          "type": "uint8"
        }
      ],
      "stateMutability": "view",
      "type": "function"
    },
    {
      "inputs": [],
      "name": "endVote",
      "outputs": [],
      "stateMutability": "nonpayable",
      "type": "function"
    },
    {
      "inputs": [],
      "name": "feeDecimals",
      "outputs": [
        {
          "internalType": "uint16",
          "name": "",
          "type": "uint16"
        }
      ],
      "stateMutability": "view",
      "type": "function"
    },
    {
      "inputs": [],
      "name": "feePercent",
      "outputs": [
        {
          "internalType": "uint256",
          "name": "",
          "type": "uint256"
        }
      ],
      "stateMutability": "view",
      "type": "function"
    },
    {
      "inputs": [
        {
          "internalType": "address",
          "name": "_voter",
          "type": "address"
        }
      ],
      "name": "isVoterOfCurrentVotes",
      "outputs": [
        {
          "internalType": "bool",
          "name": "",
          "type": "bool"
        }
      ],
      "stateMutability": "view",
      "type": "function"
    },
    {
      "inputs": [],
      "name": "isVoting",
      "outputs": [
        {
          "internalType": "bool",
          "name": "",
          "type": "bool"
        }
      ],
      "stateMutability": "view",
      "type": "function"
    },
    {
      "inputs": [],
      "name": "maxTokenSupply",
      "outputs": [
        {
          "internalType": "uint256",
          "name": "",
          "type": "uint256"
        }
      ],
      "stateMutability": "view",
      "type": "function"
    },
    {
      "inputs": [],
      "name": "minTokenAmountForAddVotePrice",
      "outputs": [
        {
          "internalType": "uint256",
          "name": "",
          "type": "uint256"
        }
      ],
      "stateMutability": "view",
      "type": "function"
    },
    {
      "inputs": [],
      "name": "minTokenAmountForVoting",
      "outputs": [
        {
          "internalType": "uint256",
          "name": "",
          "type": "uint256"
        }
      ],
      "stateMutability": "view",
      "type": "function"
    },
    {
      "inputs": [],
      "name": "name",
      "outputs": [
        {
          "internalType": "string",
          "name": "",
          "type": "string"
        }
      ],
      "stateMutability": "view",
      "type": "function"
    },
    {
      "inputs": [
        {
          "internalType": "uint256",
          "name": "_nodeIndex",
          "type": "uint256"
        }
      ],
      "name": "nodeByIndex",
      "outputs": [
        {
          "components": [
            {
              "components": [
                {
                  "internalType": "uint256",
                  "name": "proposedPrice",
                  "type": "uint256"
                },
                {
                  "internalType": "uint256",
                  "name": "voteId",
                  "type": "uint256"
                },
                {
                  "internalType": "uint256",
                  "name": "votesTotal",
                  "type": "uint256"
                }
              ],
              "internalType": "struct VotableERC20.VoteProposedPrice",
              "name": "voteProposedPrice",
              "type": "tuple"
            },
            {
              "internalType": "uint256",
              "name": "prev",
              "type": "uint256"
            },
            {
              "internalType": "uint256",
              "name": "next",
              "type": "uint256"
            }
          ],
          "internalType": "struct VotableERC20.Node",
          "name": "",
          "type": "tuple"
        }
      ],
      "stateMutability": "view",
      "type": "function"
    },
    {
      "inputs": [],
      "name": "owner",
      "outputs": [
        {
          "internalType": "address payable",
          "name": "",
          "type": "address"
        }
      ],
      "stateMutability": "view",
      "type": "function"
    },
    {
      "inputs": [
        {
          "internalType": "uint256",
          "name": "_tokensToSell",
          "type": "uint256"
        }
      ],
      "name": "sell",
      "outputs": [],
      "stateMutability": "payable",
      "type": "function"
    },
    {
      "inputs": [
        {
          "internalType": "uint256",
          "name": "_newFeePercent",
          "type": "uint256"
        }
      ],
      "name": "setFeePercent",
      "outputs": [],
      "stateMutability": "nonpayable",
      "type": "function"
    },
    {
      "inputs": [],
      "name": "startVote",
      "outputs": [],
      "stateMutability": "nonpayable",
      "type": "function"
    },
    {
      "inputs": [],
      "name": "symbol",
      "outputs": [
        {
          "internalType": "string",
          "name": "",
          "type": "string"
        }
      ],
      "stateMutability": "view",
      "type": "function"
    },
    {
      "inputs": [],
      "name": "timeToVote",
      "outputs": [
        {
          "internalType": "uint256",
          "name": "",
          "type": "uint256"
        }
      ],
      "stateMutability": "view",
      "type": "function"
    },
    {
      "inputs": [],
      "name": "tokenPrice",
      "outputs": [
        {
          "internalType": "uint256",
          "name": "",
          "type": "uint256"
        }
      ],
      "stateMutability": "view",
      "type": "function"
    },
    {
      "inputs": [
        {
          "internalType": "uint256",
          "name": "_price",
          "type": "uint256"
        }
      ],
      "name": "totalOfPrice",
      "outputs": [
        {
          "internalType": "uint256",
          "name": "",
          "type": "uint256"
        }
      ],
      "stateMutability": "view",
      "type": "function"
    },
    {
      "inputs": [],
      "name": "totalSupply",
      "outputs": [
        {
          "internalType": "uint256",
          "name": "",
          "type": "uint256"
        }
      ],
      "stateMutability": "view",
      "type": "function"
    },
    {
      "inputs": [],
      "name": "totalTokenSupply",
      "outputs": [
        {
          "internalType": "uint256",
          "name": "",
          "type": "uint256"
        }
      ],
      "stateMutability": "view",
      "type": "function"
    },
    {
      "inputs": [
        {
          "internalType": "address",
          "name": "_to",
          "type": "address"
        },
        {
          "internalType": "uint256",
          "name": "_amount",
          "type": "uint256"
        }
      ],
      "name": "transfer",
      "outputs": [
        {
          "internalType": "bool",
          "name": "",
          "type": "bool"
        }
      ],
      "stateMutability": "nonpayable",
      "type": "function"
    },
    {
      "inputs": [
        {
          "internalType": "address",
          "name": "_from",
          "type": "address"
        },
        {
          "internalType": "address",
          "name": "_to",
          "type": "address"
        },
        {
          "internalType": "uint256",
          "name": "_amount",
          "type": "uint256"
        }
      ],
      "name": "transferFrom",
      "outputs": [
        {
          "internalType": "bool",
          "name": "",
          "type": "bool"
        }
      ],
      "stateMutability": "nonpayable",
      "type": "function"
    },
    {
      "inputs": [
        {
          "internalType": "uint256",
          "name": "_proposedPrice",
          "type": "uint256"
        },
        {
          "internalType": "uint256",
          "name": "_nodeIndex",
          "type": "uint256"
        },
        {
          "internalType": "uint256",
          "name": "_prevIndex",
          "type": "uint256"
        },
        {
          "internalType": "uint256",
          "name": "_nextIndex",
          "type": "uint256"
        }
      ],
      "name": "vote",
      "outputs": [],
      "stateMutability": "nonpayable",
      "type": "function"
    },
    {
      "inputs": [],
      "name": "voteCountdown",
      "outputs": [
        {
          "internalType": "uint256",
          "name": "",
          "type": "uint256"
        }
      ],
      "stateMutability": "view",
      "type": "function"
    },
    {
      "inputs": [],
      "name": "voteNodes",
      "outputs": [
        {
          "components": [
            {
              "components": [
                {
                  "internalType": "uint256",
                  "name": "proposedPrice",
                  "type": "uint256"
                },
                {
                  "internalType": "uint256",
                  "name": "voteId",
                  "type": "uint256"
                },
                {
                  "internalType": "uint256",
                  "name": "votesTotal",
                  "type": "uint256"
                }
              ],
              "internalType": "struct VotableERC20.VoteProposedPrice",
              "name": "voteProposedPrice",
              "type": "tuple"
            },
            {
              "internalType": "uint256",
              "name": "prev",
              "type": "uint256"
            },
            {
              "internalType": "uint256",
              "name": "next",
              "type": "uint256"
            }
          ],
          "internalType": "struct VotableERC20.Node[]",
          "name": "",
          "type": "tuple[]"
        }
      ],
      "stateMutability": "view",
      "type": "function"
    },
    {
      "inputs": [
        {
          "internalType": "uint256",
          "name": "_nodeIndex",
          "type": "uint256"
        },
        {
          "internalType": "uint256",
          "name": "_prevIndex",
          "type": "uint256"
        },
        {
          "internalType": "uint256",
          "name": "_nextIndex",
          "type": "uint256"
        }
      ],
      "name": "voterBuy",
      "outputs": [],
      "stateMutability": "payable",
      "type": "function"
    },
    {
      "inputs": [
        {
          "internalType": "uint256",
          "name": "_tokensToSell",
          "type": "uint256"
        },
        {
          "internalType": "uint256",
          "name": "_nodeIndex",
          "type": "uint256"
        },
        {
          "internalType": "uint256",
          "name": "_prevIndex",
          "type": "uint256"
        },
        {
          "internalType": "uint256",
          "name": "_nextIndex",
          "type": "uint256"
        }
      ],
      "name": "voterSell",
      "outputs": [],
      "stateMutability": "payable",
      "type": "function"
    }
  ],
  "bytecode": "0x60806040526000600860006101000a81548160ff021916908315150217905550601260016200002f9190620003a4565b600e553480156200003f57600080fd5b50604051620051d5380380620051d58339818101604052810190620000659190620005c3565b85600690805190602001906200007d9291906200015a565b508460079080519060200190620000969291906200015a565b5083600b819055508260098190555033600d60006101000a81548173ffffffffffffffffffffffffffffffffffffffff021916908373ffffffffffffffffffffffffffffffffffffffff1602179055508160108190555061271060056009546200010191906200069d565b6200010d91906200072d565b600f8190555080600c8190555060008060000181905550600080600101819055506000806002018190555060016000600301819055506001600060040181905550505050505050620007ca565b828054620001689062000794565b90600052602060002090601f0160209004810192826200018c5760008555620001d8565b82601f10620001a757805160ff1916838001178555620001d8565b82800160010185558215620001d8579182015b82811115620001d7578251825591602001919060010190620001ba565b5b509050620001e79190620001eb565b5090565b5b8082111562000206576000816000905550600101620001ec565b5090565b7f4e487b7100000000000000000000000000000000000000000000000000000000600052601160045260246000fd5b60008160011c9050919050565b6000808291508390505b6001851115620002985780860481111562000270576200026f6200020a565b5b6001851615620002805780820291505b8081029050620002908562000239565b945062000250565b94509492505050565b600082620002b3576001905062000386565b81620002c3576000905062000386565b8160018114620002dc5760028114620002e7576200031d565b600191505062000386565b60ff841115620002fc57620002fb6200020a565b5b8360020a9150848211156200031657620003156200020a565b5b5062000386565b5060208310610133831016604e8410600b8410161715620003575782820a9050838111156200035157620003506200020a565b5b62000386565b62000366848484600162000246565b9250905081840481111562000380576200037f6200020a565b5b81810290505b9392505050565b6000819050919050565b600060ff82169050919050565b6000620003b1826200038d565b9150620003be8362000397565b9250620003ed7fffffffffffffffffffffffffffffffffffffffffffffffffffffffffffffffff8484620002a1565b905092915050565b6000604051905090565b600080fd5b600080fd5b600080fd5b600080fd5b6000601f19601f8301169050919050565b7f4e487b7100000000000000000000000000000000000000000000000000000000600052604160045260246000fd5b6200045e8262000413565b810181811067ffffffffffffffff8211171562000480576200047f62000424565b5b80604052505050565b600062000495620003f5565b9050620004a3828262000453565b919050565b600067ffffffffffffffff821115620004c657620004c562000424565b5b620004d18262000413565b9050602081019050919050565b60005b83811015620004fe578082015181840152602081019050620004e1565b838111156200050e576000848401525b50505050565b60006200052b6200052584620004a8565b62000489565b9050828152602081018484840111156200054a57620005496200040e565b5b62000557848285620004de565b509392505050565b600082601f83011262000577576200057662000409565b5b81516200058984826020860162000514565b91505092915050565b6200059d816200038d565b8114620005a957600080fd5b50565b600081519050620005bd8162000592565b92915050565b60008060008060008060c08789031215620005e357620005e2620003ff565b5b600087015167ffffffffffffffff81111562000604576200060362000404565b5b6200061289828a016200055f565b965050602087015167ffffffffffffffff81111562000636576200063562000404565b5b6200064489828a016200055f565b95505060406200065789828a01620005ac565b94505060606200066a89828a01620005ac565b93505060806200067d89828a01620005ac565b92505060a06200069089828a01620005ac565b9150509295509295509295565b6000620006aa826200038d565b9150620006b7836200038d565b9250817fffffffffffffffffffffffffffffffffffffffffffffffffffffffffffffffff0483118215151615620006f357620006f26200020a565b5b828202905092915050565b7f4e487b7100000000000000000000000000000000000000000000000000000000600052601260045260246000fd5b60006200073a826200038d565b915062000747836200038d565b9250826200075a5762000759620006fe565b5b828204905092915050565b7f4e487b7100000000000000000000000000000000000000000000000000000000600052602260045260246000fd5b60006002820490506001821680620007ad57607f821691505b60208210811415620007c457620007c362000765565b5b50919050565b6149fb80620007da6000396000f3fe6080604052600436106101f95760003560e01c806373d4a13a1161010d578063a6f2ae3a116100a0578063c0873ef51161006f578063c0873ef5146106e0578063c745907a1461070b578063cc0f178614610748578063dd62ed3e14610773578063e4849b32146107b0576101f9565b8063a6f2ae3a14610657578063a9059cbb14610661578063ace682ba1461069e578063b9223946146106c9576101f9565b806388edb929116100dc57806388edb929146105ab5780638da5cb5b146105d6578063945837e21461060157806395d89b411461062c576101f9565b806373d4a13a146104fd5780637ce3489b1461052c5780637fd6f15c146105555780637ff9b59614610580576101f9565b806329d78527116101905780634c0a6af01161015f5780634c0a6af01461043957806350c911bd1461045057806350f7c2041461046c57806368c9e3881461049757806370a08231146104c0576101f9565b806329d785271461039e578063313ce567146103ba57806336b07768146103e55780634693d70b1461040e576101f9565b806319ce260f116101cc57806319ce260f146102ce5780631bbef3991461030b5780631ca8b6cb1461033657806323b872dd14610361576101f9565b806306fdde03146101fe578063095ea7b31461022957806316fd86b71461026657806318160ddd146102a3575b600080fd5b34801561020a57600080fd5b506102136107cc565b604051610220919061323f565b60405180910390f35b34801561023557600080fd5b50610250600480360381019061024b91906132fa565b61085a565b60405161025d9190613355565b60405180910390f35b34801561027257600080fd5b5061028d60048036038101906102889190613370565b61094c565b60405161029a9190613355565b60405180910390f35b3480156102af57600080fd5b506102b861099e565b6040516102c591906133ac565b60405180910390f35b3480156102da57600080fd5b506102f560048036038101906102f091906133c7565b6109a8565b6040516103029190613487565b60405180910390f35b34801561031757600080fd5b50610320610a1e565b60405161032d9190613355565b60405180910390f35b34801561034257600080fd5b5061034b610a31565b60405161035891906133ac565b60405180910390f35b34801561036d57600080fd5b50610388600480360381019061038391906134a2565b610a37565b6040516103959190613355565b60405180910390f35b6103b860048036038101906103b391906134f5565b610be9565b005b3480156103c657600080fd5b506103cf610d86565b6040516103dc9190613578565b60405180910390f35b3480156103f157600080fd5b5061040c60048036038101906104079190613593565b610d8b565b005b34801561041a57600080fd5b5061042361101f565b60405161043091906133ac565b60405180910390f35b34801561044557600080fd5b5061044e611025565b005b61046a60048036038101906104659190613593565b61117e565b005b34801561047857600080fd5b5061048161131e565b60405161048e91906133ac565b60405180910390f35b3480156104a357600080fd5b506104be60048036038101906104b991906134f5565b611324565b005b3480156104cc57600080fd5b506104e760048036038101906104e29190613370565b611647565b6040516104f491906133ac565b60405180910390f35b34801561050957600080fd5b50610512611690565b6040516105239594939291906135e6565b60405180910390f35b34801561053857600080fd5b50610553600480360381019061054e91906133c7565b6116b4565b005b34801561056157600080fd5b5061056a611796565b60405161057791906133ac565b60405180910390f35b34801561058c57600080fd5b5061059561179c565b6040516105a291906133ac565b60405180910390f35b3480156105b757600080fd5b506105c06117a2565b6040516105cd91906133ac565b60405180910390f35b3480156105e257600080fd5b506105eb6117a8565b6040516105f8919061365a565b60405180910390f35b34801561060d57600080fd5b506106166117ce565b60405161062391906133ac565b60405180910390f35b34801561063857600080fd5b506106416117d4565b60405161064e919061323f565b60405180910390f35b61065f611862565b005b34801561066d57600080fd5b50610688600480360381019061068391906132fa565b6118b6565b6040516106959190613355565b60405180910390f35b3480156106aa57600080fd5b506106b3611916565b6040516106c091906133ac565b60405180910390f35b3480156106d557600080fd5b506106de61191c565b005b3480156106ec57600080fd5b506106f5611a06565b6040516107029190613766565b60405180910390f35b34801561071757600080fd5b50610732600480360381019061072d91906133c7565b611b23565b60405161073f91906133ac565b60405180910390f35b34801561075457600080fd5b5061075d611b56565b60405161076a91906137a5565b60405180910390f35b34801561077f57600080fd5b5061079a600480360381019061079591906137c0565b611b5c565b6040516107a791906133ac565b60405180910390f35b6107ca60048036038101906107c591906133c7565b611be3565b005b600680546107d99061382f565b80601f01602080910402602001604051908101604052809291908181526020018280546108059061382f565b80156108525780601f1061082757610100808354040283529160200191610852565b820191906000526020600020905b81548152906001019060200180831161083557829003601f168201915b505050505081565b600081601360003373ffffffffffffffffffffffffffffffffffffffff1673ffffffffffffffffffffffffffffffffffffffff16815260200190815260200160002060008573ffffffffffffffffffffffffffffffffffffffff1673ffffffffffffffffffffffffffffffffffffffff168152602001908152602001600020819055508273ffffffffffffffffffffffffffffffffffffffff163373ffffffffffffffffffffffffffffffffffffffff167f8c5be1e5ebec7d5bd14f71427d1e84f3dd0314c0f7b2291e5b200ac8c7c3b9258460405161093a91906133ac565b60405180910390a36001905092915050565b60008060040154601460008473ffffffffffffffffffffffffffffffffffffffff1673ffffffffffffffffffffffffffffffffffffffff16815260200190815260200160002060010154149050919050565b6000600a54905090565b6109b061315e565b600060050160008381526020019081526020016000206040518060600160405290816000820160405180606001604052908160008201548152602001600182015481526020016002820154815250508152602001600382015481526020016004820154815250509050919050565b600860009054906101000a900460ff1681565b600a5481565b6000610a423361094c565b15610a82576040517f08c379a0000000000000000000000000000000000000000000000000000000008152600401610a79906138d3565b60405180910390fd5b6000601360008673ffffffffffffffffffffffffffffffffffffffff1673ffffffffffffffffffffffffffffffffffffffff16815260200190815260200160002060003373ffffffffffffffffffffffffffffffffffffffff1673ffffffffffffffffffffffffffffffffffffffff16815260200190815260200160002054905082811015610b46576040517f08c379a0000000000000000000000000000000000000000000000000000000008152600401610b3d90613965565b60405180910390fd5b610b51858585611c38565b8281610b5d91906139b4565b601360008773ffffffffffffffffffffffffffffffffffffffff1673ffffffffffffffffffffffffffffffffffffffff16815260200190815260200160002060003373ffffffffffffffffffffffffffffffffffffffff1673ffffffffffffffffffffffffffffffffffffffff1681526020019081526020016000208190555060019150509392505050565b610bf23361094c565b610c31576040517f08c379a0000000000000000000000000000000000000000000000000000000008152600401610c2890613a34565b60405180910390fd5b600060040154601460003373ffffffffffffffffffffffffffffffffffffffff1673ffffffffffffffffffffffffffffffffffffffff1681526020019081526020016000206001015414610cba576040517f08c379a0000000000000000000000000000000000000000000000000000000008152600401610cb190613ac6565b60405180910390fd5b82601460003373ffffffffffffffffffffffffffffffffffffffff1673ffffffffffffffffffffffffffffffffffffffff1681526020019081526020016000206000015414610d3e576040517f08c379a0000000000000000000000000000000000000000000000000000000008152600401610d3590613b32565b60405180910390fd5b610d4784611eb0565b6000846000600501600086815260200190815260200160002060000160020154610d7191906139b4565b9050610d7f8185858561205a565b5050505050565b601281565b600f54601154421115610dd3576040517f08c379a0000000000000000000000000000000000000000000000000000000008152600401610dca90613b9e565b60405180910390fd5b610ddc3361094c565b15610e1c576040517f08c379a0000000000000000000000000000000000000000000000000000000008152600401610e1390613c0a565b60405180910390fd5b80601260003373ffffffffffffffffffffffffffffffffffffffff1673ffffffffffffffffffffffffffffffffffffffff168152602001908152602001600020541015610e9e576040517f08c379a0000000000000000000000000000000000000000000000000000000008152600401610e9590613c76565b60405180910390fd5b6000604051806060016040528086815260200160006004015481526020013073ffffffffffffffffffffffffffffffffffffffff166370a08231336040518263ffffffff1660e01b8152600401610ef59190613ca5565b60206040518083038186803b158015610f0d57600080fd5b505afa158015610f21573d6000803e3d6000fd5b505050506040513d601f19601f82011682018060405250810190610f459190613cd5565b81525090506000610f5782868661240d565b90506040518060400160405280828152602001600060040154815250601460003373ffffffffffffffffffffffffffffffffffffffff1673ffffffffffffffffffffffffffffffffffffffff16815260200190815260200160002060008201518160000155602082015181600101559050503373ffffffffffffffffffffffffffffffffffffffff167f4d99b957a2bc29a30ebd96a7be8e68fe50a3c701db28a91436490b7d53870ca48760405161100f91906133ac565b60405180910390a2505050505050565b60115481565b600860009054906101000a900460ff1615611075576040517f08c379a000000000000000000000000000000000000000000000000000000000815260040161106c90613d4e565b60405180910390fd5b600f54601260003373ffffffffffffffffffffffffffffffffffffffff1673ffffffffffffffffffffffffffffffffffffffff1681526020019081526020016000205410156110f9576040517f08c379a00000000000000000000000000000000000000000000000000000000081526004016110f090613de0565b60405180910390fd5b6001600860006101000a81548160ff021916908315150217905550601054426111229190613e00565b6011819055506000600401600081548092919061113e90613e56565b91905055507fa80808a30283fc2c95db95a081ef4462dd38bb7854e6569e34c0b501eed90f4e60115460405161117491906133ac565b60405180910390a1565b6111873361094c565b6111c6576040517f08c379a00000000000000000000000000000000000000000000000000000000081526004016111bd90613eeb565b60405180910390fd5b600060040154601460003373ffffffffffffffffffffffffffffffffffffffff1673ffffffffffffffffffffffffffffffffffffffff168152602001908152602001600020600101541461124f576040517f08c379a000000000000000000000000000000000000000000000000000000000815260040161124690613ac6565b60405180910390fd5b82601460003373ffffffffffffffffffffffffffffffffffffffff1673ffffffffffffffffffffffffffffffffffffffff16815260200190815260200160002060000154146112d3576040517f08c379a00000000000000000000000000000000000000000000000000000000081526004016112ca90613b32565b60405180910390fd5b60006112dd61285a565b905060008160006005016000878152602001908152602001600020600001600201546113099190613e00565b90506113178186868661205a565b5050505050565b60095481565b600e5460115442111561136c576040517f08c379a000000000000000000000000000000000000000000000000000000000815260040161136390613b9e565b60405180910390fd5b6113753361094c565b156113b5576040517f08c379a00000000000000000000000000000000000000000000000000000000081526004016113ac90613c0a565b60405180910390fd5b80601260003373ffffffffffffffffffffffffffffffffffffffff1673ffffffffffffffffffffffffffffffffffffffff168152602001908152602001600020541015611437576040517f08c379a000000000000000000000000000000000000000000000000000000000815260040161142e90613c76565b60405180910390fd5b84600060050160008681526020019081526020016000206000016000015414801561148257506000600401546000600501600086815260200190815260200160002060000160010154145b6114c1576040517f08c379a00000000000000000000000000000000000000000000000000000000081526004016114b890613f57565b60405180910390fd5b60003073ffffffffffffffffffffffffffffffffffffffff166370a08231336040518263ffffffff1660e01b81526004016114fc9190613ca5565b60206040518083038186803b15801561151457600080fd5b505afa158015611528573d6000803e3d6000fd5b505050506040513d601f19601f8201168201806040525081019061154c9190613cd5565b60006005016000878152602001908152602001600020600001600201546115739190613e00565b90506115818186868661205a565b6040518060400160405280868152602001600060040154815250601460003373ffffffffffffffffffffffffffffffffffffffff1673ffffffffffffffffffffffffffffffffffffffff16815260200190815260200160002060008201518160000155602082015181600101559050503373ffffffffffffffffffffffffffffffffffffffff167f4d99b957a2bc29a30ebd96a7be8e68fe50a3c701db28a91436490b7d53870ca48760405161163791906133ac565b60405180910390a2505050505050565b6000601260008373ffffffffffffffffffffffffffffffffffffffff1673ffffffffffffffffffffffffffffffffffffffff168152602001908152602001600020549050919050565b60008060000154908060010154908060020154908060030154908060040154905085565b600d60009054906101000a900473ffffffffffffffffffffffffffffffffffffffff1673ffffffffffffffffffffffffffffffffffffffff163373ffffffffffffffffffffffffffffffffffffffff1614611744576040517f08c379a000000000000000000000000000000000000000000000000000000000815260040161173b90613fc3565b60405180910390fd5b61271061ffff16811061178c576040517f08c379a00000000000000000000000000000000000000000000000000000000081526004016117839061402f565b60405180910390fd5b80600c8190555050565b600c5481565b600b5481565b600f5481565b600d60009054906101000a900473ffffffffffffffffffffffffffffffffffffffff1681565b60105481565b600780546117e19061382f565b80601f016020809104026020016040519081016040528092919081815260200182805461180d9061382f565b801561185a5780601f1061182f5761010080835404028352916020019161185a565b820191906000526020600020905b81548152906001019060200180831161183d57829003601f168201915b505050505081565b61186b3361094c565b156118ab576040517f08c379a00000000000000000000000000000000000000000000000000000000081526004016118a2906140c1565b60405180910390fd5b6118b361285a565b50565b60006118c13361094c565b15611901576040517f08c379a00000000000000000000000000000000000000000000000000000000081526004016118f8906138d3565b60405180910390fd5b61190c338484611c38565b6001905092915050565b600e5481565b6011544211611960576040517f08c379a00000000000000000000000000000000000000000000000000000000081526004016119579061412d565b60405180910390fd5b600060050160008060000154815260200190815260200160002060000160000154600b8190555060008060020181905550600080600101819055506000806000018190555060016000600301819055506000600860006101000a81548160ff0219169083151502179055507fa6dc15bdb68da224c66db4b3838d9a2b205138e8cff6774e57d0af91e196d622600b546040516119fc91906133ac565b60405180910390a1565b60606000806002015467ffffffffffffffff811115611a2857611a2761414d565b5b604051908082528060200260200182016040528015611a6157816020015b611a4e61315e565b815260200190600190039081611a465790505b5090506000600190505b6000600201548111611b1b576000600501600082815260200190815260200160002060405180606001604052908160008201604051806060016040529081600082015481526020016001820154815260200160028201548152505081526020016003820154815260200160048201548152505082600183611aec91906139b4565b81518110611afd57611afc61417c565b5b60200260200101819052508080611b1390613e56565b915050611a6b565b508091505090565b600080611b2f83612948565b90506000600501600082815260200190815260200160002060000160020154915050919050565b61271081565b6000601360008473ffffffffffffffffffffffffffffffffffffffff1673ffffffffffffffffffffffffffffffffffffffff16815260200190815260200160002060008373ffffffffffffffffffffffffffffffffffffffff1673ffffffffffffffffffffffffffffffffffffffff16815260200190815260200160002054905092915050565b611bec3361094c565b15611c2c576040517f08c379a0000000000000000000000000000000000000000000000000000000008152600401611c239061421d565b60405180910390fd5b611c3581611eb0565b50565b600073ffffffffffffffffffffffffffffffffffffffff168373ffffffffffffffffffffffffffffffffffffffff161415611ca8576040517f08c379a0000000000000000000000000000000000000000000000000000000008152600401611c9f906142af565b60405180910390fd5b600073ffffffffffffffffffffffffffffffffffffffff168273ffffffffffffffffffffffffffffffffffffffff161415611d18576040517f08c379a0000000000000000000000000000000000000000000000000000000008152600401611d0f9061431b565b60405180910390fd5b80601260008573ffffffffffffffffffffffffffffffffffffffff1673ffffffffffffffffffffffffffffffffffffffff168152602001908152602001600020541015611d9a576040517f08c379a0000000000000000000000000000000000000000000000000000000008152600401611d9190614387565b60405180910390fd5b80601260008573ffffffffffffffffffffffffffffffffffffffff1673ffffffffffffffffffffffffffffffffffffffff1681526020019081526020016000206000828254611de991906139b4565b9250508190555080601260008473ffffffffffffffffffffffffffffffffffffffff1673ffffffffffffffffffffffffffffffffffffffff1681526020019081526020016000206000828254611e3f9190613e00565b925050819055508173ffffffffffffffffffffffffffffffffffffffff168373ffffffffffffffffffffffffffffffffffffffff167fddf252ad1be2c89b69c2b068fc378daa952ba7f163c4a11628f55a4df523b3ef83604051611ea391906133ac565b60405180910390a3505050565b803073ffffffffffffffffffffffffffffffffffffffff166370a08231336040518263ffffffff1660e01b8152600401611eea9190613ca5565b60206040518083038186803b158015611f0257600080fd5b505afa158015611f16573d6000803e3d6000fd5b505050506040513d601f19601f82011682018060405250810190611f3a9190613cd5565b1015611f7b576040517f08c379a0000000000000000000000000000000000000000000000000000000008152600401611f7290614387565b60405180910390fd5b6000600b5482611f8b91906143a7565b9050600061271061ffff16600c5483611fa491906143a7565b611fae9190614430565b905060008183611fbe91906139b4565b905080471015612003576040517f08c379a0000000000000000000000000000000000000000000000000000000008152600401611ffa906144d3565b60405180910390fd5b61200d3385612a22565b3373ffffffffffffffffffffffffffffffffffffffff166108fc829081150290604051600060405180830381858888f19350505050158015612053573d6000803e3d6000fd5b5050505050565b600080600501600085815260200190815260200160002090508481600001600201819055506000600401548160000160010154146120cd576040517f08c379a00000000000000000000000000000000000000000000000000000000081526004016120c49061453f565b60405180910390fd5b6120d8818484612a95565b1561211c577f3d771448983a0094894466993b7dfb3baf803fa847f7f9b5db4f1de44aa48232848660405161210e92919061455f565b60405180910390a150612407565b6121268383612bf1565b6121308185612e85565b60016000600201541480156121455750600184145b156121505750612407565b600083141561220757846000600501600084815260200190815260200160002060000160020154118015612188575081600060010154145b6121c7576040517f08c379a00000000000000000000000000000000000000000000000000000000081526004016121be906145fa565b60405180910390fd5b83600060010181905550818160040181905550600081600301819055508360006005016000848152602001908152602001600020600301819055506123c8565b60008214156122bc5784600060050160008581526020019081526020016000206000016002015410801561223e5750826000800154145b61227d576040517f08c379a0000000000000000000000000000000000000000000000000000000008152600401612274906145fa565b60405180910390fd5b836000800181905550828160030181905550600081600401819055508360006005016000858152602001908152602001600020600401819055506123c7565b8460006005016000858152602001908152602001600020600001600201541061231a576040517f08c379a0000000000000000000000000000000000000000000000000000000008152600401612311906145fa565b60405180910390fd5b84600060050160008481526020019081526020016000206000016002015411612378576040517f08c379a000000000000000000000000000000000000000000000000000000000815260040161236f906145fa565b60405180910390fd5b8281600301819055508181600401819055508360006005016000858152602001908152602001600020600401819055508360006005016000848152602001908152602001600020600301819055505b5b7f1d3c25516a06a1b7955a4f7fddcb88ca86aa4694bb1065aa2b95cd03b5014ea6848484886040516123fd949392919061461a565b60405180910390a1505b50505050565b60006124198383612bf1565b61242161315e565b600080600201541480156124355750600084145b80156124415750600083145b1561247f5760016000600101819055506001600080018190555060405180606001604052808681526020016000815260200160008152509050612745565b600084141561254e57846040015160006005016000858152602001908152602001600020600001600201541180156124bb575082600060010154145b6124fa576040517f08c379a00000000000000000000000000000000000000000000000000000000081526004016124f1906145fa565b60405180910390fd5b60006003015460006005016000858152602001908152602001600020600301819055506000600301546000600101819055506040518060600160405280868152602001858152602001848152509050612744565b600083141561261b57846040015160006005016000868152602001908152602001600020600001600201541080156125895750836000800154145b6125c8576040517f08c379a00000000000000000000000000000000000000000000000000000000081526004016125bf906145fa565b60405180910390fd5b600060030154600060050160008681526020019081526020016000206004018190555060006003015460008001819055506040518060600160405280868152602001858152602001848152509050612743565b846040015160006005016000868152602001908152602001600020600001600201541061267d576040517f08c379a0000000000000000000000000000000000000000000000000000000008152600401612674906145fa565b60405180910390fd5b84604001516000600501600085815260200190815260200160002060000160020154116126df576040517f08c379a00000000000000000000000000000000000000000000000000000000081526004016126d6906145fa565b60405180910390fd5b6040518060600160405280868152602001858152602001848152509050600060030154600060050160008681526020019081526020016000206004018190555060006003015460006005016000858152602001908152602001600020600301819055505b5b5b6000600201600081548092919061275b90613e56565b919050555080600060050160008060030154815260200190815260200160002060008201518160000160008201518160000155602082015181600101556040820151816002015550506020820151816003015560408201518160040155905050600060030160008154809291906127d190613e56565b91905055507fcf9e76fe5312cb51013c03601d9ee9a3dcf030d09dc6d0b1ab40000cd4a2088e600160006003015461280991906139b4565b826020015183604001518460000151600001518560000151604001516040516128369594939291906135e6565b60405180910390a1600160006003015461285091906139b4565b9150509392505050565b600080341161289e576040517f08c379a0000000000000000000000000000000000000000000000000000000008152600401612895906146ab565b60405180910390fd5b600061271061ffff16600c54346128b591906143a7565b6128bf9190614430565b9050600081346128cf91906139b4565b90506000600b54826128e19190614430565b9050600a546009546128f391906139b4565b811115612935576040517f08c379a000000000000000000000000000000000000000000000000000000000815260040161292c90614717565b60405180910390fd5b61293f33826130eb565b80935050505090565b600080600190505b60008060050160008381526020019081526020016000206004015414158015612995575082600060050160008381526020019081526020016000206000016000015414155b156129bb5760006005016000828152602001908152602001600020600401549050612950565b82600060050160008381526020019081526020016000206000016000015414612a19576040517f08c379a0000000000000000000000000000000000000000000000000000000008152600401612a10906147a9565b60405180910390fd5b80915050919050565b80601260008473ffffffffffffffffffffffffffffffffffffffff1673ffffffffffffffffffffffffffffffffffffffff1681526020019081526020016000206000828254612a7191906139b4565b9250508190555080600a6000828254612a8a91906139b4565b925050819055505050565b6000818460040154148015612aad5750828460030154145b15612be55760008460040154148015612aca575060008460030154145b8015612adc5750600160006002015411155b15612aea5760019050612bea565b60008460040154148015612b2457508360000160020154600060050160008660030154815260200190815260200160002060000160020154105b15612b325760019050612bea565b60008460030154148015612b6c57508360000160020154600060050160008660040154815260200190815260200160002060000160020154115b15612b7a5760019050612bea565b8360000160020154600060050160008660040154815260200190815260200160002060000160020154118015612bd657508360000160020154600060050160008660030154815260200190815260200160002060000160020154105b15612be45760019050612bea565b5b600090505b9392505050565b808214158015612c075750600160006002015410155b80612c305750600082148015612c1d5750600081145b8015612c2f5750600160006002015411155b5b612c6f576040517f08c379a0000000000000000000000000000000000000000000000000000000008152600401612c6690614815565b60405180910390fd5b60008060020154148015612c835750600082145b8015612c8f5750600081145b15612c9957612e81565b60008214158015612cab575060008114155b8015612cb75750808214155b15612d775780600060050160008481526020019081526020016000206004015414612d17576040517f08c379a0000000000000000000000000000000000000000000000000000000008152600401612d0e90614881565b60405180910390fd5b81600060050160008381526020019081526020016000206003015414612d72576040517f08c379a0000000000000000000000000000000000000000000000000000000008152600401612d6990614881565b60405180910390fd5b612e80565b60008214158015612d885750600081145b15612dfc57600080600501600084815260200190815260200160002060040154148015612db85750816000800154145b612df7576040517f08c379a0000000000000000000000000000000000000000000000000000000008152600401612dee90614913565b60405180910390fd5b612e7f565b600082148015612e0d575060008114155b15612e7e57600080600501600083815260200190815260200160002060030154148015612e3e575080600060010154145b612e7d576040517f08c379a0000000000000000000000000000000000000000000000000000000008152600401612e74906149a5565b60405180910390fd5b5b5b5b5b5050565b60008260000160020154905060016000600201541415612ea557506130e7565b60008360030154148015612ed8575060006005016000846004015481526020019081526020016000206000016002015481115b15612f7557600080600501600085600401548152602001908152602001600020600301819055508260040154600060010181905550806000600501600080600501600087600401548152602001908152602001600020600401548152602001908152602001600020600001600201541115612f7057816000600501600085600401548152602001908152602001600020600401819055505b6130e5565b60008360040154148015612fa8575060006005016000846003015481526020019081526020016000206000016002015481105b1561304457600080600501600085600301548152602001908152602001600020600401819055508260030154600080018190555080600060050160008060050160008760030154815260200190815260200160002060030154815260200190815260200160002060000160020154101561303f57816000600501600085600301548152602001908152602001600020600301819055505b6130e4565b600060050160008460040154815260200190815260200160002060000160020154811180613091575060006005016000846003015481526020019081526020016000206000016002015481105b156130e357826004015460006005016000856003015481526020019081526020016000206004018190555082600301546000600501600085600401548152602001908152602001600020600301819055505b5b5b505b5050565b80601260008473ffffffffffffffffffffffffffffffffffffffff1673ffffffffffffffffffffffffffffffffffffffff168152602001908152602001600020600082825461313a9190613e00565b9250508190555080600a60008282546131539190613e00565b925050819055505050565b6040518060600160405280613171613185565b815260200160008152602001600081525090565b60405180606001604052806000815260200160008152602001600081525090565b600081519050919050565b600082825260208201905092915050565b60005b838110156131e05780820151818401526020810190506131c5565b838111156131ef576000848401525b50505050565b6000601f19601f8301169050919050565b6000613211826131a6565b61321b81856131b1565b935061322b8185602086016131c2565b613234816131f5565b840191505092915050565b600060208201905081810360008301526132598184613206565b905092915050565b600080fd5b600073ffffffffffffffffffffffffffffffffffffffff82169050919050565b600061329182613266565b9050919050565b6132a181613286565b81146132ac57600080fd5b50565b6000813590506132be81613298565b92915050565b6000819050919050565b6132d7816132c4565b81146132e257600080fd5b50565b6000813590506132f4816132ce565b92915050565b6000806040838503121561331157613310613261565b5b600061331f858286016132af565b9250506020613330858286016132e5565b9150509250929050565b60008115159050919050565b61334f8161333a565b82525050565b600060208201905061336a6000830184613346565b92915050565b60006020828403121561338657613385613261565b5b6000613394848285016132af565b91505092915050565b6133a6816132c4565b82525050565b60006020820190506133c1600083018461339d565b92915050565b6000602082840312156133dd576133dc613261565b5b60006133eb848285016132e5565b91505092915050565b6133fd816132c4565b82525050565b60608201600082015161341960008501826133f4565b50602082015161342c60208501826133f4565b50604082015161343f60408501826133f4565b50505050565b60a08201600082015161345b6000850182613403565b50602082015161346e60608501826133f4565b50604082015161348160808501826133f4565b50505050565b600060a08201905061349c6000830184613445565b92915050565b6000806000606084860312156134bb576134ba613261565b5b60006134c9868287016132af565b93505060206134da868287016132af565b92505060406134eb868287016132e5565b9150509250925092565b6000806000806080858703121561350f5761350e613261565b5b600061351d878288016132e5565b945050602061352e878288016132e5565b935050604061353f878288016132e5565b9250506060613550878288016132e5565b91505092959194509250565b600060ff82169050919050565b6135728161355c565b82525050565b600060208201905061358d6000830184613569565b92915050565b6000806000606084860312156135ac576135ab613261565b5b60006135ba868287016132e5565b93505060206135cb868287016132e5565b92505060406135dc868287016132e5565b9150509250925092565b600060a0820190506135fb600083018861339d565b613608602083018761339d565b613615604083018661339d565b613622606083018561339d565b61362f608083018461339d565b9695505050505050565b600061364482613266565b9050919050565b61365481613639565b82525050565b600060208201905061366f600083018461364b565b92915050565b600081519050919050565b600082825260208201905092915050565b6000819050602082019050919050565b60a0820160008201516136b76000850182613403565b5060208201516136ca60608501826133f4565b5060408201516136dd60808501826133f4565b50505050565b60006136ef83836136a1565b60a08301905092915050565b6000602082019050919050565b600061371382613675565b61371d8185613680565b935061372883613691565b8060005b8381101561375957815161374088826136e3565b975061374b836136fb565b92505060018101905061372c565b5085935050505092915050565b600060208201905081810360008301526137808184613708565b905092915050565b600061ffff82169050919050565b61379f81613788565b82525050565b60006020820190506137ba6000830184613796565b92915050565b600080604083850312156137d7576137d6613261565b5b60006137e5858286016132af565b92505060206137f6858286016132af565b9150509250929050565b7f4e487b7100000000000000000000000000000000000000000000000000000000600052602260045260246000fd5b6000600282049050600182168061384757607f821691505b6020821081141561385b5761385a613800565b5b50919050565b7f55736520766f7465725472616e7366657220696620796f7520616c726561647960008201527f20766f7465642100000000000000000000000000000000000000000000000000602082015250565b60006138bd6027836131b1565b91506138c882613861565b604082019050919050565b600060208201905081810360008301526138ec816138b0565b9050919050565b7f5472616e7366657220616d6f756e74206578636565647320616c6c6f77616e6360008201527f6500000000000000000000000000000000000000000000000000000000000000602082015250565b600061394f6021836131b1565b915061395a826138f3565b604082019050919050565b6000602082019050818103600083015261397e81613942565b9050919050565b7f4e487b7100000000000000000000000000000000000000000000000000000000600052601160045260246000fd5b60006139bf826132c4565b91506139ca836132c4565b9250828210156139dd576139dc613985565b5b828203905092915050565b7f5573652073656c6c20696620796f75206e6f7420766f74656421000000000000600082015250565b6000613a1e601a836131b1565b9150613a29826139e8565b602082019050919050565b60006020820190508181036000830152613a4d81613a11565b9050919050565b7f596f7520617265206e6f7420766f746572206f6620637572726e657420766f7460008201527f6500000000000000000000000000000000000000000000000000000000000000602082015250565b6000613ab06021836131b1565b9150613abb82613a54565b604082019050919050565b60006020820190508181036000830152613adf81613aa3565b9050919050565b7f596f7520617265206e6f7420696e2074686973206e6f64650000000000000000600082015250565b6000613b1c6018836131b1565b9150613b2782613ae6565b602082019050919050565b60006020820190508181036000830152613b4b81613b0f565b9050919050565b7f566f74696e672074696d65206973206f76657200000000000000000000000000600082015250565b6000613b886013836131b1565b9150613b9382613b52565b602082019050919050565b60006020820190508181036000830152613bb781613b7b565b9050919050565b7f596f7520616c726561647920766f746564210000000000000000000000000000600082015250565b6000613bf46012836131b1565b9150613bff82613bbe565b602082019050919050565b60006020820190508181036000830152613c2381613be7565b9050919050565b7f4e6f7420656e6f75676820746f6b656e7320746f20766f746500000000000000600082015250565b6000613c606019836131b1565b9150613c6b82613c2a565b602082019050919050565b60006020820190508181036000830152613c8f81613c53565b9050919050565b613c9f81613286565b82525050565b6000602082019050613cba6000830184613c96565b92915050565b600081519050613ccf816132ce565b92915050565b600060208284031215613ceb57613cea613261565b5b6000613cf984828501613cc0565b91505092915050565b7f5072657669757320766f74696e67206973206e6f74206f766572207965742100600082015250565b6000613d38601f836131b1565b9150613d4382613d02565b602082019050919050565b60006020820190508181036000830152613d6781613d2b565b9050919050565b7f4e6f7420656e6f75676820746f6b656e7320666f72207374617274696e67206160008201527f20766f7465210000000000000000000000000000000000000000000000000000602082015250565b6000613dca6026836131b1565b9150613dd582613d6e565b604082019050919050565b60006020820190508181036000830152613df981613dbd565b9050919050565b6000613e0b826132c4565b9150613e16836132c4565b9250827fffffffffffffffffffffffffffffffffffffffffffffffffffffffffffffffff03821115613e4b57613e4a613985565b5b828201905092915050565b6000613e61826132c4565b91507fffffffffffffffffffffffffffffffffffffffffffffffffffffffffffffffff821415613e9457613e93613985565b5b600182019050919050565b7f5573652062757920696620796f75206e6f7420766f7465642100000000000000600082015250565b6000613ed56019836131b1565b9150613ee082613e9f565b602082019050919050565b60006020820190508181036000830152613f0481613ec8565b9050919050565b7f57726f6e67206e6f646520696e64657800000000000000000000000000000000600082015250565b6000613f416010836131b1565b9150613f4c82613f0b565b602082019050919050565b60006020820190508181036000830152613f7081613f34565b9050919050565b7f43616c6c6572206973206e6f74206f776e657200000000000000000000000000600082015250565b6000613fad6013836131b1565b9150613fb882613f77565b602082019050919050565b60006020820190508181036000830152613fdc81613fa0565b9050919050565b7f596f752063616e27742073657420666565206f662077686f6c652073756d0000600082015250565b6000614019601e836131b1565b915061402482613fe3565b602082019050919050565b600060208201905081810360008301526140488161400c565b9050919050565b7f55736520766f74657242757920696620796f7520616c726561647920766f746560008201527f6421000000000000000000000000000000000000000000000000000000000000602082015250565b60006140ab6022836131b1565b91506140b68261404f565b604082019050919050565b600060208201905081810360008301526140da8161409e565b9050919050565b7f566f74696e67206973206e6f74206f7665722079657400000000000000000000600082015250565b60006141176016836131b1565b9150614122826140e1565b602082019050919050565b600060208201905081810360008301526141468161410a565b9050919050565b7f4e487b7100000000000000000000000000000000000000000000000000000000600052604160045260246000fd5b7f4e487b7100000000000000000000000000000000000000000000000000000000600052603260045260246000fd5b7f55736520766f74657253656c6c20696620796f7520616c726561647920766f7460008201527f6564210000000000000000000000000000000000000000000000000000000000602082015250565b60006142076023836131b1565b9150614212826141ab565b604082019050919050565b60006020820190508181036000830152614236816141fa565b9050919050565b7f43616e6e6f74207472616e736665722066726f6d207a65726f2061646472657360008201527f7300000000000000000000000000000000000000000000000000000000000000602082015250565b60006142996021836131b1565b91506142a48261423d565b604082019050919050565b600060208201905081810360008301526142c88161428c565b9050919050565b7f43616e6e6f74207472616e7366657220746f207a65726f206164647265737300600082015250565b6000614305601f836131b1565b9150614310826142cf565b602082019050919050565b60006020820190508181036000830152614334816142f8565b9050919050565b7f4e6f7420656e6f75676820746f6b656e73000000000000000000000000000000600082015250565b60006143716011836131b1565b915061437c8261433b565b602082019050919050565b600060208201905081810360008301526143a081614364565b9050919050565b60006143b2826132c4565b91506143bd836132c4565b9250817fffffffffffffffffffffffffffffffffffffffffffffffffffffffffffffffff04831182151516156143f6576143f5613985565b5b828202905092915050565b7f4e487b7100000000000000000000000000000000000000000000000000000000600052601260045260246000fd5b600061443b826132c4565b9150614446836132c4565b92508261445657614455614401565b5b828204905092915050565b7f436f6e747261637420646f65736e2774206861766520656e6f7567682065746860008201527f657220746f207061790000000000000000000000000000000000000000000000602082015250565b60006144bd6029836131b1565b91506144c882614461565b604082019050919050565b600060208201905081810360008301526144ec816144b0565b9050919050565b7f4e6f6465206973206e6f742076616c6964000000000000000000000000000000600082015250565b60006145296011836131b1565b9150614534826144f3565b602082019050919050565b600060208201905081810360008301526145588161451c565b9050919050565b6000604082019050614574600083018561339d565b614581602083018461339d565b9392505050565b7f4e657874206e6f6465206c657373207468616e206e6f646520796f752074727960008201527f696e6720746f2061646421000000000000000000000000000000000000000000602082015250565b60006145e4602b836131b1565b91506145ef82614588565b604082019050919050565b60006020820190508181036000830152614613816145d7565b9050919050565b600060808201905061462f600083018761339d565b61463c602083018661339d565b614649604083018561339d565b614656606083018461339d565b95945050505050565b7f53656e6420736f6d6520657468657220746f2062757920746f6b656e732e0000600082015250565b6000614695601e836131b1565b91506146a08261465f565b602082019050919050565b600060208201905081810360008301526146c481614688565b9050919050565b7f4d617820737570706c79206f6620746f6b656e7320697320746f75636865642e600082015250565b60006147016020836131b1565b915061470c826146cb565b602082019050919050565b60006020820190508181036000830152614730816146f4565b9050919050565b7f50726f706f736564207072696365206973206e6f7420657869737420696e206c60008201527f6973742100000000000000000000000000000000000000000000000000000000602082015250565b60006147936024836131b1565b915061479e82614737565b604082019050919050565b600060208201905081810360008301526147c281614786565b9050919050565b7f5072657620616e64206e6578742061726520657175616c000000000000000000600082015250565b60006147ff6017836131b1565b915061480a826147c9565b602082019050919050565b6000602082019050818103600083015261482e816147f2565b9050919050565b7f4e65787420616e64207072657620696e646578206e6f742072656c6174656421600082015250565b600061486b6020836131b1565b915061487682614835565b602082019050919050565b6000602082019050818103600083015261489a8161485e565b9050919050565b7f43616e74206265207461696c206265636f7573652063757272656e742074616960008201527f6c206c6f77657200000000000000000000000000000000000000000000000000602082015250565b60006148fd6027836131b1565b9150614908826148a1565b604082019050919050565b6000602082019050818103600083015261492c816148f0565b9050919050565b7f43616e742062652068656164206265636f7573652063757272656e742068656160008201527f6420686967686572000000000000000000000000000000000000000000000000602082015250565b600061498f6028836131b1565b915061499a82614933565b604082019050919050565b600060208201905081810360008301526149be81614982565b905091905056fea264697066735822122004c316abc2091e2941be71300f39d43851e8987c56eb8eda90593bf38ee95b4064736f6c63430008090033",
  "linkReferences": {},
  "deployedLinkReferences": {}
}