{
  "_format": "hh-sol-artifact-1",
  "contractName": "VotableERC20",
  "sourceName": "contracts/VotableERC20.sol",
  "abi": [
    {
      "inputs": [
        {
          "internalType": "string",
          "name": "_name",
          "type": "string"
        },
        {
          "internalType": "uint256",
          "name": "_tokenPrice",
          "type": "uint256"
        },
        {
          "internalType": "uint256",
          "name": "_maxTokenSupply",
          "type": "uint256"
        },
        {
          "internalType": "uint256",
          "name": "_timeToVote",
          "type": "uint256"
        },
        {
          "internalType": "uint256",
          "name": "_feePercent",
          "type": "uint256"
        }
      ],
      "stateMutability": "nonpayable",
      "type": "constructor"
    },
    {
      "anonymous": false,
      "inputs": [
        {
          "indexed": true,
          "internalType": "address",
          "name": "owner",
          "type": "address"
        },
        {
          "indexed": true,
          "internalType": "address",
          "name": "spender",
          "type": "address"
        },
        {
          "indexed": false,
          "internalType": "uint256",
          "name": "value",
          "type": "uint256"
        }
      ],
      "name": "Approval",
      "type": "event"
    },
    {
      "anonymous": false,
      "inputs": [
        {
          "indexed": false,
          "internalType": "uint256",
          "name": "newPrice",
          "type": "uint256"
        }
      ],
      "name": "PriceChanged",
      "type": "event"
    },
    {
      "anonymous": false,
      "inputs": [
        {
          "indexed": true,
          "internalType": "address",
          "name": "from",
          "type": "address"
        },
        {
          "indexed": true,
          "internalType": "address",
          "name": "to",
          "type": "address"
        },
        {
          "indexed": false,
          "internalType": "uint256",
          "name": "value",
          "type": "uint256"
        }
      ],
      "name": "Transfer",
      "type": "event"
    },
    {
      "anonymous": false,
      "inputs": [
        {
          "indexed": false,
          "internalType": "uint256",
          "name": "endTime",
          "type": "uint256"
        }
      ],
      "name": "VoteStarted",
      "type": "event"
    },
    {
      "anonymous": false,
      "inputs": [
        {
          "indexed": true,
          "internalType": "address",
          "name": "voter",
          "type": "address"
        },
        {
          "indexed": false,
          "internalType": "uint256",
          "name": "proposedPrice",
          "type": "uint256"
        }
      ],
      "name": "Voted",
      "type": "event"
    },
    {
      "inputs": [
        {
          "internalType": "address",
          "name": "_owner",
          "type": "address"
        },
        {
          "internalType": "address",
          "name": "_spender",
          "type": "address"
        }
      ],
      "name": "allowance",
      "outputs": [
        {
          "internalType": "uint256",
          "name": "",
          "type": "uint256"
        }
      ],
      "stateMutability": "view",
      "type": "function"
    },
    {
      "inputs": [
        {
          "internalType": "address",
          "name": "_spender",
          "type": "address"
        },
        {
          "internalType": "uint256",
          "name": "_amount",
          "type": "uint256"
        }
      ],
      "name": "approve",
      "outputs": [
        {
          "internalType": "bool",
          "name": "",
          "type": "bool"
        }
      ],
      "stateMutability": "nonpayable",
      "type": "function"
    },
    {
      "inputs": [
        {
          "internalType": "address",
          "name": "_account",
          "type": "address"
        }
      ],
      "name": "balanceOf",
      "outputs": [
        {
          "internalType": "uint256",
          "name": "",
          "type": "uint256"
        }
      ],
      "stateMutability": "view",
      "type": "function"
    },
    {
      "inputs": [],
      "name": "buy",
      "outputs": [
        {
          "internalType": "bool",
          "name": "",
          "type": "bool"
        }
      ],
      "stateMutability": "payable",
      "type": "function"
    },
    {
      "inputs": [],
      "name": "decimals",
      "outputs": [
        {
          "internalType": "uint8",
          "name": "",
          "type": "uint8"
        }
      ],
      "stateMutability": "view",
      "type": "function"
    },
    {
      "inputs": [],
      "name": "endVote",
      "outputs": [],
      "stateMutability": "nonpayable",
      "type": "function"
    },
    {
      "inputs": [],
      "name": "feePercent",
      "outputs": [
        {
          "internalType": "uint256",
          "name": "",
          "type": "uint256"
        }
      ],
      "stateMutability": "view",
      "type": "function"
    },
    {
      "inputs": [],
      "name": "maxTokenSupply",
      "outputs": [
        {
          "internalType": "uint256",
          "name": "",
          "type": "uint256"
        }
      ],
      "stateMutability": "view",
      "type": "function"
    },
    {
      "inputs": [],
      "name": "minTokenAmount",
      "outputs": [
        {
          "internalType": "uint256",
          "name": "",
          "type": "uint256"
        }
      ],
      "stateMutability": "view",
      "type": "function"
    },
    {
      "inputs": [],
      "name": "minTokenAmountForVoting",
      "outputs": [
        {
          "internalType": "uint256",
          "name": "",
          "type": "uint256"
        }
      ],
      "stateMutability": "view",
      "type": "function"
    },
    {
      "inputs": [],
      "name": "name",
      "outputs": [
        {
          "internalType": "string",
          "name": "",
          "type": "string"
        }
      ],
      "stateMutability": "view",
      "type": "function"
    },
    {
      "inputs": [],
      "name": "owner",
      "outputs": [
        {
          "internalType": "address payable",
          "name": "",
          "type": "address"
        }
      ],
      "stateMutability": "view",
      "type": "function"
    },
    {
      "inputs": [
        {
          "internalType": "uint256",
          "name": "",
          "type": "uint256"
        }
      ],
      "name": "proposedPrices",
      "outputs": [
        {
          "internalType": "uint256",
          "name": "",
          "type": "uint256"
        }
      ],
      "stateMutability": "view",
      "type": "function"
    },
    {
      "inputs": [
        {
          "internalType": "uint256",
          "name": "tokensToSell",
          "type": "uint256"
        }
      ],
      "name": "sell",
      "outputs": [
        {
          "internalType": "bool",
          "name": "",
          "type": "bool"
        }
      ],
      "stateMutability": "nonpayable",
      "type": "function"
    },
    {
      "inputs": [],
      "name": "startVote",
      "outputs": [],
      "stateMutability": "nonpayable",
      "type": "function"
    },
    {
      "inputs": [],
      "name": "timeToVote",
      "outputs": [
        {
          "internalType": "uint256",
          "name": "",
          "type": "uint256"
        }
      ],
      "stateMutability": "view",
      "type": "function"
    },
    {
      "inputs": [],
      "name": "tokenPrice",
      "outputs": [
        {
          "internalType": "uint256",
          "name": "",
          "type": "uint256"
        }
      ],
      "stateMutability": "view",
      "type": "function"
    },
    {
      "inputs": [],
      "name": "totalSupply",
      "outputs": [
        {
          "internalType": "uint256",
          "name": "",
          "type": "uint256"
        }
      ],
      "stateMutability": "view",
      "type": "function"
    },
    {
      "inputs": [],
      "name": "totalTokenSupply",
      "outputs": [
        {
          "internalType": "uint256",
          "name": "",
          "type": "uint256"
        }
      ],
      "stateMutability": "view",
      "type": "function"
    },
    {
      "inputs": [
        {
          "internalType": "address",
          "name": "_to",
          "type": "address"
        },
        {
          "internalType": "uint256",
          "name": "_amount",
          "type": "uint256"
        }
      ],
      "name": "transfer",
      "outputs": [
        {
          "internalType": "bool",
          "name": "",
          "type": "bool"
        }
      ],
      "stateMutability": "nonpayable",
      "type": "function"
    },
    {
      "inputs": [
        {
          "internalType": "address",
          "name": "_from",
          "type": "address"
        },
        {
          "internalType": "address",
          "name": "_to",
          "type": "address"
        },
        {
          "internalType": "uint256",
          "name": "_amount",
          "type": "uint256"
        }
      ],
      "name": "transferFrom",
      "outputs": [
        {
          "internalType": "bool",
          "name": "",
          "type": "bool"
        }
      ],
      "stateMutability": "nonpayable",
      "type": "function"
    },
    {
      "inputs": [
        {
          "internalType": "uint256",
          "name": "_proposedPrice",
          "type": "uint256"
        }
      ],
      "name": "vote",
      "outputs": [
        {
          "internalType": "bool",
          "name": "",
          "type": "bool"
        }
      ],
      "stateMutability": "nonpayable",
      "type": "function"
    },
    {
      "inputs": [],
      "name": "voteCountdown",
      "outputs": [
        {
          "internalType": "uint256",
          "name": "",
          "type": "uint256"
        }
      ],
      "stateMutability": "view",
      "type": "function"
    },
    {
      "inputs": [
        {
          "internalType": "address",
          "name": "",
          "type": "address"
        }
      ],
      "name": "votes",
      "outputs": [
        {
          "internalType": "uint256",
          "name": "",
          "type": "uint256"
        }
      ],
      "stateMutability": "view",
      "type": "function"
    },
    {
      "inputs": [],
      "name": "winningPrice",
      "outputs": [
        {
          "internalType": "uint256",
          "name": "",
          "type": "uint256"
        }
      ],
      "stateMutability": "view",
      "type": "function"
    }
  ],
  "bytecode": "0x60806040523480156200001157600080fd5b506040516200271938038062002719833981810160405281019062000037919062000217565b84600090805190602001906200004f929190620000de565b50836003819055508260018190555033600560006101000a81548173ffffffffffffffffffffffffffffffffffffffff021916908373ffffffffffffffffffffffffffffffffffffffff160217905550816007819055506127106005600154620000ba919062000349565b620000c6919062000311565b6006819055508060048190555050505050506200053d565b828054620000ec90620003ea565b90600052602060002090601f0160209004810192826200011057600085556200015c565b82601f106200012b57805160ff19168380011785556200015c565b828001600101855582156200015c579182015b828111156200015b5782518255916020019190600101906200013e565b5b5090506200016b91906200016f565b5090565b5b808211156200018a57600081600090555060010162000170565b5090565b6000620001a56200019f84620002db565b620002b2565b905082815260208101848484011115620001be57600080fd5b620001cb848285620003b4565b509392505050565b600082601f830112620001e557600080fd5b8151620001f78482602086016200018e565b91505092915050565b600081519050620002118162000523565b92915050565b600080600080600060a086880312156200023057600080fd5b600086015167ffffffffffffffff8111156200024b57600080fd5b6200025988828901620001d3565b95505060206200026c8882890162000200565b94505060406200027f8882890162000200565b9350506060620002928882890162000200565b9250506080620002a58882890162000200565b9150509295509295909350565b6000620002be620002d1565b9050620002cc828262000420565b919050565b6000604051905090565b600067ffffffffffffffff821115620002f957620002f8620004e3565b5b620003048262000512565b9050602081019050919050565b60006200031e82620003aa565b91506200032b83620003aa565b9250826200033e576200033d62000485565b5b828204905092915050565b60006200035682620003aa565b91506200036383620003aa565b9250817fffffffffffffffffffffffffffffffffffffffffffffffffffffffffffffffff04831182151516156200039f576200039e62000456565b5b828202905092915050565b6000819050919050565b60005b83811015620003d4578082015181840152602081019050620003b7565b83811115620003e4576000848401525b50505050565b600060028204905060018216806200040357607f821691505b602082108114156200041a5762000419620004b4565b5b50919050565b6200042b8262000512565b810181811067ffffffffffffffff821117156200044d576200044c620004e3565b5b80604052505050565b7f4e487b7100000000000000000000000000000000000000000000000000000000600052601160045260246000fd5b7f4e487b7100000000000000000000000000000000000000000000000000000000600052601260045260246000fd5b7f4e487b7100000000000000000000000000000000000000000000000000000000600052602260045260246000fd5b7f4e487b7100000000000000000000000000000000000000000000000000000000600052604160045260246000fd5b6000601f19601f8301169050919050565b6200052e81620003aa565b81146200053a57600080fd5b50565b6121cc806200054d6000396000f3fe6080604052600436106101665760003560e01c80637ff9b596116100d1578063a9059cbb1161008a578063c1f5260411610064578063c1f5260414610529578063d8bff5a514610554578063dd62ed3e14610591578063e4849b32146105ce57610166565b8063a9059cbb146104aa578063ace682ba146104e7578063b92239461461051257610166565b80637ff9b596146103a35780638da5cb5b146103ce5780639294a030146103f9578063945837e2146104245780639a57c2fc1461044f578063a6f2ae3a1461048c57610166565b8063313ce56711610123578063313ce567146102a35780634693d70b146102ce5780634c0a6af0146102f957806350f7c2041461031057806370a082311461033b5780637fd6f15c1461037857610166565b80630121b93f1461016b57806306fdde03146101a8578063095ea7b3146101d357806318160ddd146102105780631ca8b6cb1461023b57806323b872dd14610266575b600080fd5b34801561017757600080fd5b50610192600480360381019061018d9190611632565b61060b565b60405161019f919061188f565b60405180910390f35b3480156101b457600080fd5b506101bd6107da565b6040516101ca91906118aa565b60405180910390f35b3480156101df57600080fd5b506101fa60048036038101906101f591906115f6565b610868565b604051610207919061188f565b60405180910390f35b34801561021c57600080fd5b5061022561095a565b6040516102329190611a4c565b60405180910390f35b34801561024757600080fd5b50610250610964565b60405161025d9190611a4c565b60405180910390f35b34801561027257600080fd5b5061028d600480360381019061028891906115a7565b61096a565b60405161029a919061188f565b60405180910390f35b3480156102af57600080fd5b506102b8610ad2565b6040516102c59190611a67565b60405180910390f35b3480156102da57600080fd5b506102e3610ad7565b6040516102f09190611a4c565b60405180910390f35b34801561030557600080fd5b5061030e610add565b005b34801561031c57600080fd5b50610325610c40565b6040516103329190611a4c565b60405180910390f35b34801561034757600080fd5b50610362600480360381019061035d9190611542565b610c46565b60405161036f9190611a4c565b60405180910390f35b34801561038457600080fd5b5061038d610c8f565b60405161039a9190611a4c565b60405180910390f35b3480156103af57600080fd5b506103b8610c95565b6040516103c59190611a4c565b60405180910390f35b3480156103da57600080fd5b506103e3610c9b565b6040516103f09190611874565b60405180910390f35b34801561040557600080fd5b5061040e610cc1565b60405161041b9190611a4c565b60405180910390f35b34801561043057600080fd5b50610439610ccb565b6040516104469190611a4c565b60405180910390f35b34801561045b57600080fd5b5061047660048036038101906104719190611632565b610cd1565b6040516104839190611a4c565b60405180910390f35b610494610ce9565b6040516104a1919061188f565b60405180910390f35b3480156104b657600080fd5b506104d160048036038101906104cc91906115f6565b610e68565b6040516104de919061188f565b60405180910390f35b3480156104f357600080fd5b506104fc610e7f565b6040516105099190611a4c565b60405180910390f35b34801561051e57600080fd5b50610527610e85565b005b34801561053557600080fd5b5061053e611002565b60405161054b9190611a4c565b60405180910390f35b34801561056057600080fd5b5061057b60048036038101906105769190611542565b611008565b6040516105889190611a4c565b60405180910390f35b34801561059d57600080fd5b506105b860048036038101906105b3919061156b565b611020565b6040516105c59190611a4c565b60405180910390f35b3480156105da57600080fd5b506105f560048036038101906105f09190611632565b6110a7565b604051610602919061188f565b60405180910390f35b6000600854421115610652576040517f08c379a000000000000000000000000000000000000000000000000000000000815260040161064990611a2c565b60405180910390fd5b600654600960003373ffffffffffffffffffffffffffffffffffffffff1673ffffffffffffffffffffffffffffffffffffffff1681526020019081526020016000205410156106d6576040517f08c379a00000000000000000000000000000000000000000000000000000000081526004016106cd906119ec565b60405180910390fd5b81600b60003373ffffffffffffffffffffffffffffffffffffffff1673ffffffffffffffffffffffffffffffffffffffff16815260200190815260200160002081905550600960003373ffffffffffffffffffffffffffffffffffffffff1673ffffffffffffffffffffffffffffffffffffffff16815260200190815260200160002054600c6000848152602001908152602001600020600082825461077c9190611a9e565b925050819055503373ffffffffffffffffffffffffffffffffffffffff167f4d99b957a2bc29a30ebd96a7be8e68fe50a3c701db28a91436490b7d53870ca4836040516107c99190611a4c565b60405180910390a260019050919050565b600080546107e790611dbe565b80601f016020809104026020016040519081016040528092919081815260200182805461081390611dbe565b80156108605780601f1061083557610100808354040283529160200191610860565b820191906000526020600020905b81548152906001019060200180831161084357829003601f168201915b505050505081565b600081600a60003373ffffffffffffffffffffffffffffffffffffffff1673ffffffffffffffffffffffffffffffffffffffff16815260200190815260200160002060008573ffffffffffffffffffffffffffffffffffffffff1673ffffffffffffffffffffffffffffffffffffffff168152602001908152602001600020819055508273ffffffffffffffffffffffffffffffffffffffff163373ffffffffffffffffffffffffffffffffffffffff167f8c5be1e5ebec7d5bd14f71427d1e84f3dd0314c0f7b2291e5b200ac8c7c3b925846040516109489190611a4c565b60405180910390a36001905092915050565b6000600254905090565b60025481565b600080600a60008673ffffffffffffffffffffffffffffffffffffffff1673ffffffffffffffffffffffffffffffffffffffff16815260200190815260200160002060003373ffffffffffffffffffffffffffffffffffffffff1673ffffffffffffffffffffffffffffffffffffffff16815260200190815260200160002054905082811015610a2f576040517f08c379a0000000000000000000000000000000000000000000000000000000008152600401610a269061190c565b60405180910390fd5b610a3a8585856112a0565b8281610a469190611cf0565b600a60008773ffffffffffffffffffffffffffffffffffffffff1673ffffffffffffffffffffffffffffffffffffffff16815260200190815260200160002060003373ffffffffffffffffffffffffffffffffffffffff1673ffffffffffffffffffffffffffffffffffffffff1681526020019081526020016000208190555060019150509392505050565b601281565b60085481565b600560009054906101000a900473ffffffffffffffffffffffffffffffffffffffff1673ffffffffffffffffffffffffffffffffffffffff163373ffffffffffffffffffffffffffffffffffffffff1614610b6d576040517f08c379a0000000000000000000000000000000000000000000000000000000008152600401610b64906118ec565b60405180910390fd5b600654600960003373ffffffffffffffffffffffffffffffffffffffff1673ffffffffffffffffffffffffffffffffffffffff168152602001908152602001600020541015610bf1576040517f08c379a0000000000000000000000000000000000000000000000000000000008152600401610be89061196c565b60405180910390fd5b60075442610bff9190611a9e565b6008819055507fa80808a30283fc2c95db95a081ef4462dd38bb7854e6569e34c0b501eed90f4e600854604051610c369190611a4c565b60405180910390a1565b60015481565b6000600960008373ffffffffffffffffffffffffffffffffffffffff1673ffffffffffffffffffffffffffffffffffffffff168152602001908152602001600020549050919050565b60045481565b60035481565b600560009054906101000a900473ffffffffffffffffffffffffffffffffffffffff1681565b6000600654905090565b60075481565b600c6020528060005260406000206000915090505481565b6000803411610d2d576040517f08c379a0000000000000000000000000000000000000000000000000000000008152600401610d24906119cc565b60405180910390fd5b6000606460045434610d3f9190611c96565b610d499190611af4565b905060008134610d599190611cf0565b905060006003546012600a610d6e9190611b78565b83610d799190611c96565b610d839190611af4565b90506012600a610d939190611b78565b600254600154610da39190611cf0565b610dad9190611c96565b811115610def576040517f08c379a0000000000000000000000000000000000000000000000000000000008152600401610de69061192c565b60405180910390fd5b80600960003373ffffffffffffffffffffffffffffffffffffffff1673ffffffffffffffffffffffffffffffffffffffff1681526020019081526020016000206000828254610e3e9190611a9e565b925050819055508060026000828254610e579190611a9e565b925050819055506001935050505090565b6000610e753384846112a0565b6001905092915050565b60065481565b600560009054906101000a900473ffffffffffffffffffffffffffffffffffffffff1673ffffffffffffffffffffffffffffffffffffffff163373ffffffffffffffffffffffffffffffffffffffff1614610f15576040517f08c379a0000000000000000000000000000000000000000000000000000000008152600401610f0c906118ec565b60405180910390fd5b6008544211610f59576040517f08c379a0000000000000000000000000000000000000000000000000000000008152600401610f509061194c565b60405180910390fd5b6000806000600190505b6002548111610fb45782600c6000838152602001908152602001600020541115610fa157600c60008281526020019081526020016000205492508091505b8080610fac90611df0565b915050610f63565b5080600d81905550600d546003819055507fa6dc15bdb68da224c66db4b3838d9a2b205138e8cff6774e57d0af91e196d622600d54604051610ff69190611a4c565b60405180910390a15050565b600d5481565b600b6020528060005260406000206000915090505481565b6000600a60008473ffffffffffffffffffffffffffffffffffffffff1673ffffffffffffffffffffffffffffffffffffffff16815260200190815260200160002060008373ffffffffffffffffffffffffffffffffffffffff1673ffffffffffffffffffffffffffffffffffffffff16815260200190815260200160002054905092915050565b600081600960003373ffffffffffffffffffffffffffffffffffffffff1673ffffffffffffffffffffffffffffffffffffffff16815260200190815260200160002054101561112b576040517f08c379a000000000000000000000000000000000000000000000000000000000815260040161112290611a0c565b60405180910390fd5b60006012600a61113b9190611b78565b600354846111499190611c96565b6111539190611af4565b905060006064600454836111679190611c96565b6111719190611af4565b9050600081836111819190611cf0565b9050804710156111c6576040517f08c379a00000000000000000000000000000000000000000000000000000000081526004016111bd9061198c565b60405180910390fd5b6012600a6111d49190611b78565b856111df9190611c96565b600960003373ffffffffffffffffffffffffffffffffffffffff1673ffffffffffffffffffffffffffffffffffffffff168152602001908152602001600020600082825461122d9190611cf0565b9250508190555084600260008282546112469190611cf0565b925050819055503373ffffffffffffffffffffffffffffffffffffffff166108fc829081150290604051600060405180830381858888f19350505050158015611293573d6000803e3d6000fd5b5060019350505050919050565b600073ffffffffffffffffffffffffffffffffffffffff168373ffffffffffffffffffffffffffffffffffffffff161415611310576040517f08c379a0000000000000000000000000000000000000000000000000000000008152600401611307906118cc565b60405180910390fd5b600073ffffffffffffffffffffffffffffffffffffffff168273ffffffffffffffffffffffffffffffffffffffff161415611380576040517f08c379a0000000000000000000000000000000000000000000000000000000008152600401611377906119ac565b60405180910390fd5b80600960008573ffffffffffffffffffffffffffffffffffffffff1673ffffffffffffffffffffffffffffffffffffffff168152602001908152602001600020541015611402576040517f08c379a00000000000000000000000000000000000000000000000000000000081526004016113f990611a0c565b60405180910390fd5b80600960008573ffffffffffffffffffffffffffffffffffffffff1673ffffffffffffffffffffffffffffffffffffffff16815260200190815260200160002060008282546114519190611cf0565b9250508190555080600960008473ffffffffffffffffffffffffffffffffffffffff1673ffffffffffffffffffffffffffffffffffffffff16815260200190815260200160002060008282546114a79190611a9e565b925050819055508173ffffffffffffffffffffffffffffffffffffffff168373ffffffffffffffffffffffffffffffffffffffff167fddf252ad1be2c89b69c2b068fc378daa952ba7f163c4a11628f55a4df523b3ef8360405161150b9190611a4c565b60405180910390a3505050565b60008135905061152781612168565b92915050565b60008135905061153c8161217f565b92915050565b60006020828403121561155457600080fd5b600061156284828501611518565b91505092915050565b6000806040838503121561157e57600080fd5b600061158c85828601611518565b925050602061159d85828601611518565b9150509250929050565b6000806000606084860312156115bc57600080fd5b60006115ca86828701611518565b93505060206115db86828701611518565b92505060406115ec8682870161152d565b9150509250925092565b6000806040838503121561160957600080fd5b600061161785828601611518565b92505060206116288582860161152d565b9150509250929050565b60006020828403121561164457600080fd5b60006116528482850161152d565b91505092915050565b61166481611d36565b82525050565b61167381611d48565b82525050565b600061168482611a82565b61168e8185611a8d565b935061169e818560208601611d8b565b6116a781611ec6565b840191505092915050565b60006116bf602183611a8d565b91506116ca82611ee4565b604082019050919050565b60006116e2601383611a8d565b91506116ed82611f33565b602082019050919050565b6000611705602183611a8d565b915061171082611f5c565b604082019050919050565b6000611728602083611a8d565b915061173382611fab565b602082019050919050565b600061174b601683611a8d565b915061175682611fd4565b602082019050919050565b600061176e602583611a8d565b915061177982611ffd565b604082019050919050565b6000611791602983611a8d565b915061179c8261204c565b604082019050919050565b60006117b4601f83611a8d565b91506117bf8261209b565b602082019050919050565b60006117d7601e83611a8d565b91506117e2826120c4565b602082019050919050565b60006117fa601c83611a8d565b9150611805826120ed565b602082019050919050565b600061181d601183611a8d565b915061182882612116565b602082019050919050565b6000611840601383611a8d565b915061184b8261213f565b602082019050919050565b61185f81611d74565b82525050565b61186e81611d7e565b82525050565b6000602082019050611889600083018461165b565b92915050565b60006020820190506118a4600083018461166a565b92915050565b600060208201905081810360008301526118c48184611679565b905092915050565b600060208201905081810360008301526118e5816116b2565b9050919050565b60006020820190508181036000830152611905816116d5565b9050919050565b60006020820190508181036000830152611925816116f8565b9050919050565b600060208201905081810360008301526119458161171b565b9050919050565b600060208201905081810360008301526119658161173e565b9050919050565b6000602082019050818103600083015261198581611761565b9050919050565b600060208201905081810360008301526119a581611784565b9050919050565b600060208201905081810360008301526119c5816117a7565b9050919050565b600060208201905081810360008301526119e5816117ca565b9050919050565b60006020820190508181036000830152611a05816117ed565b9050919050565b60006020820190508181036000830152611a2581611810565b9050919050565b60006020820190508181036000830152611a4581611833565b9050919050565b6000602082019050611a616000830184611856565b92915050565b6000602082019050611a7c6000830184611865565b92915050565b600081519050919050565b600082825260208201905092915050565b6000611aa982611d74565b9150611ab483611d74565b9250827fffffffffffffffffffffffffffffffffffffffffffffffffffffffffffffffff03821115611ae957611ae8611e39565b5b828201905092915050565b6000611aff82611d74565b9150611b0a83611d74565b925082611b1a57611b19611e68565b5b828204905092915050565b6000808291508390505b6001851115611b6f57808604811115611b4b57611b4a611e39565b5b6001851615611b5a5780820291505b8081029050611b6885611ed7565b9450611b2f565b94509492505050565b6000611b8382611d74565b9150611b8e83611d7e565b9250611bbb7fffffffffffffffffffffffffffffffffffffffffffffffffffffffffffffffff8484611bc3565b905092915050565b600082611bd35760019050611c8f565b81611be15760009050611c8f565b8160018114611bf75760028114611c0157611c30565b6001915050611c8f565b60ff841115611c1357611c12611e39565b5b8360020a915084821115611c2a57611c29611e39565b5b50611c8f565b5060208310610133831016604e8410600b8410161715611c655782820a905083811115611c6057611c5f611e39565b5b611c8f565b611c728484846001611b25565b92509050818404811115611c8957611c88611e39565b5b81810290505b9392505050565b6000611ca182611d74565b9150611cac83611d74565b9250817fffffffffffffffffffffffffffffffffffffffffffffffffffffffffffffffff0483118215151615611ce557611ce4611e39565b5b828202905092915050565b6000611cfb82611d74565b9150611d0683611d74565b925082821015611d1957611d18611e39565b5b828203905092915050565b6000611d2f82611d54565b9050919050565b6000611d4182611d54565b9050919050565b60008115159050919050565b600073ffffffffffffffffffffffffffffffffffffffff82169050919050565b6000819050919050565b600060ff82169050919050565b60005b83811015611da9578082015181840152602081019050611d8e565b83811115611db8576000848401525b50505050565b60006002820490506001821680611dd657607f821691505b60208210811415611dea57611de9611e97565b5b50919050565b6000611dfb82611d74565b91507fffffffffffffffffffffffffffffffffffffffffffffffffffffffffffffffff821415611e2e57611e2d611e39565b5b600182019050919050565b7f4e487b7100000000000000000000000000000000000000000000000000000000600052601160045260246000fd5b7f4e487b7100000000000000000000000000000000000000000000000000000000600052601260045260246000fd5b7f4e487b7100000000000000000000000000000000000000000000000000000000600052602260045260246000fd5b6000601f19601f8301169050919050565b60008160011c9050919050565b7f43616e6e6f74207472616e736665722066726f6d207a65726f2061646472657360008201527f7300000000000000000000000000000000000000000000000000000000000000602082015250565b7f43616c6c6572206973206e6f74206f776e657200000000000000000000000000600082015250565b7f5472616e7366657220616d6f756e74206578636565647320616c6c6f77616e6360008201527f6500000000000000000000000000000000000000000000000000000000000000602082015250565b7f4d617820737570706c79206f6620746f6b656e7320697320746f75636865642e600082015250565b7f566f74696e67206973206e6f74206f7665722079657400000000000000000000600082015250565b7f4e6f7420656e6f75676820746f6b656e7320666f72207374617274696e67206160008201527f20766f7465000000000000000000000000000000000000000000000000000000602082015250565b7f436f6e747261637420646f65736e2774206861766520656e6f7567682065746860008201527f657220746f207061790000000000000000000000000000000000000000000000602082015250565b7f43616e6e6f74207472616e7366657220746f207a65726f206164647265737300600082015250565b7f53656e6420736f6d6520657468657220746f2062757920746f6b656e732e0000600082015250565b7f4e6f7420656e6f75676820746f6b656e7320666f7220766f74696e6700000000600082015250565b7f4e6f7420656e6f75676820746f6b656e73000000000000000000000000000000600082015250565b7f566f74696e672074696d65206973206f76657200000000000000000000000000600082015250565b61217181611d24565b811461217c57600080fd5b50565b61218881611d74565b811461219357600080fd5b5056fea26469706673582212201b440caae19d87d7c67495ff70c4b8a93c6c1634d2eca99ca5263cb555228c0864736f6c63430008040033",
  "linkReferences": {},
  "deployedLinkReferences": {}
}