{
  "_format": "hh-sol-artifact-1",
  "contractName": "VotableERC20",
  "sourceName": "contracts/VotableERC20.sol",
  "abi": [
    {
      "inputs": [
        {
          "internalType": "string",
          "name": "_name",
          "type": "string"
        },
        {
          "internalType": "string",
          "name": "_symbol",
          "type": "string"
        },
        {
          "internalType": "uint256",
          "name": "_tokenPrice",
          "type": "uint256"
        },
        {
          "internalType": "uint256",
          "name": "_maxTokenSupply",
          "type": "uint256"
        },
        {
          "internalType": "uint256",
          "name": "_timeToVote",
          "type": "uint256"
        },
        {
          "internalType": "uint256",
          "name": "_feePercent",
          "type": "uint256"
        }
      ],
      "stateMutability": "nonpayable",
      "type": "constructor"
    },
    {
      "anonymous": false,
      "inputs": [
        {
          "indexed": true,
          "internalType": "address",
          "name": "owner",
          "type": "address"
        },
        {
          "indexed": true,
          "internalType": "address",
          "name": "spender",
          "type": "address"
        },
        {
          "indexed": false,
          "internalType": "uint256",
          "name": "value",
          "type": "uint256"
        }
      ],
      "name": "Approval",
      "type": "event"
    },
    {
      "anonymous": false,
      "inputs": [
        {
          "indexed": false,
          "internalType": "uint256",
          "name": "newPrice",
          "type": "uint256"
        }
      ],
      "name": "PriceChanged",
      "type": "event"
    },
    {
      "anonymous": false,
      "inputs": [
        {
          "indexed": true,
          "internalType": "address",
          "name": "from",
          "type": "address"
        },
        {
          "indexed": true,
          "internalType": "address",
          "name": "to",
          "type": "address"
        },
        {
          "indexed": false,
          "internalType": "uint256",
          "name": "value",
          "type": "uint256"
        }
      ],
      "name": "Transfer",
      "type": "event"
    },
    {
      "anonymous": false,
      "inputs": [
        {
          "indexed": false,
          "internalType": "uint256",
          "name": "endTime",
          "type": "uint256"
        }
      ],
      "name": "VoteStarted",
      "type": "event"
    },
    {
      "anonymous": false,
      "inputs": [
        {
          "indexed": true,
          "internalType": "address",
          "name": "voter",
          "type": "address"
        },
        {
          "indexed": false,
          "internalType": "uint256",
          "name": "proposedPrice",
          "type": "uint256"
        }
      ],
      "name": "Voted",
      "type": "event"
    },
    {
      "inputs": [
        {
          "internalType": "uint256",
          "name": "_proposedPrice",
          "type": "uint256"
        }
      ],
      "name": "addVotePrice",
      "outputs": [],
      "stateMutability": "nonpayable",
      "type": "function"
    },
    {
      "inputs": [
        {
          "internalType": "address",
          "name": "_owner",
          "type": "address"
        },
        {
          "internalType": "address",
          "name": "_spender",
          "type": "address"
        }
      ],
      "name": "allowance",
      "outputs": [
        {
          "internalType": "uint256",
          "name": "",
          "type": "uint256"
        }
      ],
      "stateMutability": "view",
      "type": "function"
    },
    {
      "inputs": [
        {
          "internalType": "address",
          "name": "_spender",
          "type": "address"
        },
        {
          "internalType": "uint256",
          "name": "_amount",
          "type": "uint256"
        }
      ],
      "name": "approve",
      "outputs": [
        {
          "internalType": "bool",
          "name": "",
          "type": "bool"
        }
      ],
      "stateMutability": "nonpayable",
      "type": "function"
    },
    {
      "inputs": [
        {
          "internalType": "address",
          "name": "_account",
          "type": "address"
        }
      ],
      "name": "balanceOf",
      "outputs": [
        {
          "internalType": "uint256",
          "name": "",
          "type": "uint256"
        }
      ],
      "stateMutability": "view",
      "type": "function"
    },
    {
      "inputs": [],
      "name": "buy",
      "outputs": [
        {
          "internalType": "bool",
          "name": "",
          "type": "bool"
        }
      ],
      "stateMutability": "payable",
      "type": "function"
    },
    {
      "inputs": [],
      "name": "currentVoteId",
      "outputs": [
        {
          "internalType": "uint256",
          "name": "",
          "type": "uint256"
        }
      ],
      "stateMutability": "view",
      "type": "function"
    },
    {
      "inputs": [],
      "name": "decimals",
      "outputs": [
        {
          "internalType": "uint8",
          "name": "",
          "type": "uint8"
        }
      ],
      "stateMutability": "view",
      "type": "function"
    },
    {
      "inputs": [],
      "name": "endVote",
      "outputs": [],
      "stateMutability": "nonpayable",
      "type": "function"
    },
    {
      "inputs": [],
      "name": "feeDecimals",
      "outputs": [
        {
          "internalType": "uint16",
          "name": "",
          "type": "uint16"
        }
      ],
      "stateMutability": "view",
      "type": "function"
    },
    {
      "inputs": [],
      "name": "feePercent",
      "outputs": [
        {
          "internalType": "uint256",
          "name": "",
          "type": "uint256"
        }
      ],
      "stateMutability": "view",
      "type": "function"
    },
    {
      "inputs": [],
      "name": "isVoting",
      "outputs": [
        {
          "internalType": "bool",
          "name": "",
          "type": "bool"
        }
      ],
      "stateMutability": "view",
      "type": "function"
    },
    {
      "inputs": [],
      "name": "maxTokenSupply",
      "outputs": [
        {
          "internalType": "uint256",
          "name": "",
          "type": "uint256"
        }
      ],
      "stateMutability": "view",
      "type": "function"
    },
    {
      "inputs": [],
      "name": "minTokenAmountForAddVotePrice",
      "outputs": [
        {
          "internalType": "uint256",
          "name": "",
          "type": "uint256"
        }
      ],
      "stateMutability": "view",
      "type": "function"
    },
    {
      "inputs": [],
      "name": "minTokenAmountForVoting",
      "outputs": [
        {
          "internalType": "uint256",
          "name": "",
          "type": "uint256"
        }
      ],
      "stateMutability": "view",
      "type": "function"
    },
    {
      "inputs": [],
      "name": "name",
      "outputs": [
        {
          "internalType": "string",
          "name": "",
          "type": "string"
        }
      ],
      "stateMutability": "view",
      "type": "function"
    },
    {
      "inputs": [],
      "name": "owner",
      "outputs": [
        {
          "internalType": "address payable",
          "name": "",
          "type": "address"
        }
      ],
      "stateMutability": "view",
      "type": "function"
    },
    {
      "inputs": [
        {
          "internalType": "uint256",
          "name": "",
          "type": "uint256"
        }
      ],
      "name": "proposedPrices",
      "outputs": [
        {
          "internalType": "uint256",
          "name": "",
          "type": "uint256"
        }
      ],
      "stateMutability": "view",
      "type": "function"
    },
    {
      "inputs": [
        {
          "internalType": "uint256",
          "name": "tokensToSell",
          "type": "uint256"
        }
      ],
      "name": "sell",
      "outputs": [
        {
          "internalType": "bool",
          "name": "",
          "type": "bool"
        }
      ],
      "stateMutability": "nonpayable",
      "type": "function"
    },
    {
      "inputs": [
        {
          "internalType": "uint256",
          "name": "_newFeePercent",
          "type": "uint256"
        }
      ],
      "name": "setFeePercent",
      "outputs": [],
      "stateMutability": "nonpayable",
      "type": "function"
    },
    {
      "inputs": [],
      "name": "startVote",
      "outputs": [],
      "stateMutability": "nonpayable",
      "type": "function"
    },
    {
      "inputs": [],
      "name": "symbol",
      "outputs": [
        {
          "internalType": "string",
          "name": "",
          "type": "string"
        }
      ],
      "stateMutability": "view",
      "type": "function"
    },
    {
      "inputs": [],
      "name": "timeToVote",
      "outputs": [
        {
          "internalType": "uint256",
          "name": "",
          "type": "uint256"
        }
      ],
      "stateMutability": "view",
      "type": "function"
    },
    {
      "inputs": [],
      "name": "tokenPrice",
      "outputs": [
        {
          "internalType": "uint256",
          "name": "",
          "type": "uint256"
        }
      ],
      "stateMutability": "view",
      "type": "function"
    },
    {
      "inputs": [
        {
          "internalType": "uint256",
          "name": "_price",
          "type": "uint256"
        }
      ],
      "name": "totalOfPrice",
      "outputs": [
        {
          "internalType": "uint256",
          "name": "",
          "type": "uint256"
        }
      ],
      "stateMutability": "view",
      "type": "function"
    },
    {
      "inputs": [],
      "name": "totalSupply",
      "outputs": [
        {
          "internalType": "uint256",
          "name": "",
          "type": "uint256"
        }
      ],
      "stateMutability": "view",
      "type": "function"
    },
    {
      "inputs": [],
      "name": "totalTokenSupply",
      "outputs": [
        {
          "internalType": "uint256",
          "name": "",
          "type": "uint256"
        }
      ],
      "stateMutability": "view",
      "type": "function"
    },
    {
      "inputs": [
        {
          "internalType": "address",
          "name": "_to",
          "type": "address"
        },
        {
          "internalType": "uint256",
          "name": "_amount",
          "type": "uint256"
        }
      ],
      "name": "transfer",
      "outputs": [
        {
          "internalType": "bool",
          "name": "",
          "type": "bool"
        }
      ],
      "stateMutability": "nonpayable",
      "type": "function"
    },
    {
      "inputs": [
        {
          "internalType": "address",
          "name": "_from",
          "type": "address"
        },
        {
          "internalType": "address",
          "name": "_to",
          "type": "address"
        },
        {
          "internalType": "uint256",
          "name": "_amount",
          "type": "uint256"
        }
      ],
      "name": "transferFrom",
      "outputs": [
        {
          "internalType": "bool",
          "name": "",
          "type": "bool"
        }
      ],
      "stateMutability": "nonpayable",
      "type": "function"
    },
    {
      "inputs": [
        {
          "internalType": "uint256",
          "name": "_proposedPrice",
          "type": "uint256"
        }
      ],
      "name": "vote",
      "outputs": [],
      "stateMutability": "nonpayable",
      "type": "function"
    },
    {
      "inputs": [],
      "name": "voteCountdown",
      "outputs": [
        {
          "internalType": "uint256",
          "name": "",
          "type": "uint256"
        }
      ],
      "stateMutability": "view",
      "type": "function"
    },
    {
      "inputs": [],
      "name": "winningPrice",
      "outputs": [
        {
          "internalType": "uint256",
          "name": "",
          "type": "uint256"
        }
      ],
      "stateMutability": "view",
      "type": "function"
    }
  ],
  "bytecode": "0x60806040526000600260006101000a81548160ff021916908315150217905550601260016200002f91906200041e565b6008556000600c553480156200004457600080fd5b506040516200377b3803806200377b83398181016040528101906200006a919062000264565b8560009080519060200190620000829291906200012b565b5084600190805190602001906200009b9291906200012b565b50836005819055508260038190555033600760006101000a81548173ffffffffffffffffffffffffffffffffffffffff021916908373ffffffffffffffffffffffffffffffffffffffff16021790555081600a8190555061271060056003546200010691906200055b565b6200011291906200038b565b6009819055508060068190555050505050505062000769565b828054620001399062000609565b90600052602060002090601f0160209004810192826200015d5760008555620001a9565b82601f106200017857805160ff1916838001178555620001a9565b82800160010185558215620001a9579182015b82811115620001a85782518255916020019190600101906200018b565b5b509050620001b89190620001bc565b5090565b5b80821115620001d7576000816000905550600101620001bd565b5090565b6000620001f2620001ec8462000355565b6200032c565b9050828152602081018484840111156200020b57600080fd5b62000218848285620005d3565b509392505050565b600082601f8301126200023257600080fd5b815162000244848260208601620001db565b91505092915050565b6000815190506200025e816200074f565b92915050565b60008060008060008060c087890312156200027e57600080fd5b600087015167ffffffffffffffff8111156200029957600080fd5b620002a789828a0162000220565b965050602087015167ffffffffffffffff811115620002c557600080fd5b620002d389828a0162000220565b9550506040620002e689828a016200024d565b9450506060620002f989828a016200024d565b93505060806200030c89828a016200024d565b92505060a06200031f89828a016200024d565b9150509295509295509295565b6000620003386200034b565b90506200034682826200063f565b919050565b6000604051905090565b600067ffffffffffffffff82111562000373576200037262000702565b5b6200037e8262000731565b9050602081019050919050565b60006200039882620005bc565b9150620003a583620005bc565b925082620003b857620003b7620006a4565b5b828204905092915050565b6000808291508390505b60018511156200041557808604811115620003ed57620003ec62000675565b5b6001851615620003fd5780820291505b80810290506200040d8562000742565b9450620003cd565b94509492505050565b60006200042b82620005bc565b91506200043883620005c6565b9250620004677fffffffffffffffffffffffffffffffffffffffffffffffffffffffffffffffff84846200046f565b905092915050565b60008262000481576001905062000554565b8162000491576000905062000554565b8160018114620004aa5760028114620004b557620004eb565b600191505062000554565b60ff841115620004ca57620004c962000675565b5b8360020a915084821115620004e457620004e362000675565b5b5062000554565b5060208310610133831016604e8410600b8410161715620005255782820a9050838111156200051f576200051e62000675565b5b62000554565b620005348484846001620003c3565b925090508184048111156200054e576200054d62000675565b5b81810290505b9392505050565b60006200056882620005bc565b91506200057583620005bc565b9250817fffffffffffffffffffffffffffffffffffffffffffffffffffffffffffffffff0483118215151615620005b157620005b062000675565b5b828202905092915050565b6000819050919050565b600060ff82169050919050565b60005b83811015620005f3578082015181840152602081019050620005d6565b8381111562000603576000848401525b50505050565b600060028204905060018216806200062257607f821691505b60208210811415620006395762000638620006d3565b5b50919050565b6200064a8262000731565b810181811067ffffffffffffffff821117156200066c576200066b62000702565b5b80604052505050565b7f4e487b7100000000000000000000000000000000000000000000000000000000600052601160045260246000fd5b7f4e487b7100000000000000000000000000000000000000000000000000000000600052601260045260246000fd5b7f4e487b7100000000000000000000000000000000000000000000000000000000600052602260045260246000fd5b7f4e487b7100000000000000000000000000000000000000000000000000000000600052604160045260246000fd5b6000601f19601f8301169050919050565b60008160011c9050919050565b6200075a81620005bc565b81146200076657600080fd5b50565b61300280620007796000396000f3fe6080604052600436106101d85760003560e01c80637ff9b59611610102578063a9059cbb11610095578063c745907a11610064578063c745907a14610685578063cc0f1786146106c2578063dd62ed3e146106ed578063e4849b321461072a576101d8565b8063a9059cbb146105db578063ace682ba14610618578063b922394614610643578063c1f526041461065a576101d8565b8063945837e2116100d1578063945837e21461052a57806395d89b41146105555780639a57c2fc14610580578063a6f2ae3a146105bd576101d8565b80637ff9b5961461047e57806388edb929146104a95780638da5cb5b146104d45780639100b5dd146104ff576101d8565b8063313ce5671161017a57806359d634b01161014957806359d634b0146103c457806370a08231146103ed5780637ce3489b1461042a5780637fd6f15c14610453576101d8565b8063313ce5671461032c5780634693d70b146103575780634c0a6af01461038257806350f7c20414610399576101d8565b806318160ddd116101b657806318160ddd1461026e5780631bbef399146102995780631ca8b6cb146102c457806323b872dd146102ef576101d8565b80630121b93f146101dd57806306fdde0314610206578063095ea7b314610231575b600080fd5b3480156101e957600080fd5b5061020460048036038101906101ff9190612287565b610767565b005b34801561021257600080fd5b5061021b610acc565b6040516102289190612633565b60405180910390f35b34801561023d57600080fd5b506102586004803603810190610253919061224b565b610b5a565b6040516102659190612618565b60405180910390f35b34801561027a57600080fd5b50610283610c4c565b60405161029091906128b0565b60405180910390f35b3480156102a557600080fd5b506102ae610c56565b6040516102bb9190612618565b60405180910390f35b3480156102d057600080fd5b506102d9610c69565b6040516102e691906128b0565b60405180910390f35b3480156102fb57600080fd5b50610316600480360381019061031191906121fc565b610c6f565b6040516103239190612618565b60405180910390f35b34801561033857600080fd5b50610341610dd7565b60405161034e91906128cb565b60405180910390f35b34801561036357600080fd5b5061036c610ddc565b60405161037991906128b0565b60405180910390f35b34801561038e57600080fd5b50610397610de2565b005b3480156103a557600080fd5b506103ae610f38565b6040516103bb91906128b0565b60405180910390f35b3480156103d057600080fd5b506103eb60048036038101906103e69190612287565b610f3e565b005b3480156103f957600080fd5b50610414600480360381019061040f9190612197565b6112cb565b60405161042191906128b0565b60405180910390f35b34801561043657600080fd5b50610451600480360381019061044c9190612287565b611314565b005b34801561045f57600080fd5b506104686113f6565b60405161047591906128b0565b60405180910390f35b34801561048a57600080fd5b506104936113fc565b6040516104a091906128b0565b60405180910390f35b3480156104b557600080fd5b506104be611402565b6040516104cb91906128b0565b60405180910390f35b3480156104e057600080fd5b506104e9611408565b6040516104f691906125fd565b60405180910390f35b34801561050b57600080fd5b5061051461142e565b60405161052191906128b0565b60405180910390f35b34801561053657600080fd5b5061053f611434565b60405161054c91906128b0565b60405180910390f35b34801561056157600080fd5b5061056a61143a565b6040516105779190612633565b60405180910390f35b34801561058c57600080fd5b506105a760048036038101906105a29190612287565b6114c8565b6040516105b491906128b0565b60405180910390f35b6105c56114ec565b6040516105d29190612618565b60405180910390f35b3480156105e757600080fd5b5061060260048036038101906105fd919061224b565b6116e3565b60405161060f9190612618565b60405180910390f35b34801561062457600080fd5b5061062d6116fa565b60405161063a91906128b0565b60405180910390f35b34801561064f57600080fd5b50610658611700565b005b34801561066657600080fd5b5061066f6118e1565b60405161067c91906128b0565b60405180910390f35b34801561069157600080fd5b506106ac60048036038101906106a79190612287565b6118e7565b6040516106b991906128b0565b60405180910390f35b3480156106ce57600080fd5b506106d7611904565b6040516106e49190612895565b60405180910390f35b3480156106f957600080fd5b50610714600480360381019061070f91906121c0565b61190a565b60405161072191906128b0565b60405180910390f35b34801561073657600080fd5b50610751600480360381019061074c9190612287565b611991565b60405161075e9190612618565b60405180910390f35b600b544211156107ac576040517f08c379a00000000000000000000000000000000000000000000000000000000081526004016107a390612875565b60405180910390fd5b6000601060003373ffffffffffffffffffffffffffffffffffffffff1673ffffffffffffffffffffffffffffffffffffffff168152602001908152602001600020600001541480156108425750600c54601060003373ffffffffffffffffffffffffffffffffffffffff1673ffffffffffffffffffffffffffffffffffffffff1681526020019081526020016000206001015414155b610881576040517f08c379a0000000000000000000000000000000000000000000000000000000008152600401610878906127b5565b60405180910390fd5b6000600f60008381526020019081526020016000205414156108d8576040517f08c379a00000000000000000000000000000000000000000000000000000000081526004016108cf906126f5565b60405180910390fd5b600854600d60003373ffffffffffffffffffffffffffffffffffffffff1673ffffffffffffffffffffffffffffffffffffffff16815260200190815260200160002054101561095c576040517f08c379a000000000000000000000000000000000000000000000000000000000815260040161095390612835565b60405180910390fd5b6040518060400160405280828152602001600c54815250601060003373ffffffffffffffffffffffffffffffffffffffff1673ffffffffffffffffffffffffffffffffffffffff16815260200190815260200160002060008201518160000155602082015181600101559050503073ffffffffffffffffffffffffffffffffffffffff166370a08231336040518263ffffffff1660e01b8152600401610a0291906125e2565b60206040518083038186803b158015610a1a57600080fd5b505afa158015610a2e573d6000803e3d6000fd5b505050506040513d601f19601f82011682018060405250810190610a5291906122b0565b600f60008381526020019081526020016000206000828254610a749190612902565b925050819055503373ffffffffffffffffffffffffffffffffffffffff167f4d99b957a2bc29a30ebd96a7be8e68fe50a3c701db28a91436490b7d53870ca482604051610ac191906128b0565b60405180910390a250565b60008054610ad990612abf565b80601f0160208091040260200160405190810160405280929190818152602001828054610b0590612abf565b8015610b525780601f10610b2757610100808354040283529160200191610b52565b820191906000526020600020905b815481529060010190602001808311610b3557829003601f168201915b505050505081565b600081600e60003373ffffffffffffffffffffffffffffffffffffffff1673ffffffffffffffffffffffffffffffffffffffff16815260200190815260200160002060008573ffffffffffffffffffffffffffffffffffffffff1673ffffffffffffffffffffffffffffffffffffffff168152602001908152602001600020819055508273ffffffffffffffffffffffffffffffffffffffff163373ffffffffffffffffffffffffffffffffffffffff167f8c5be1e5ebec7d5bd14f71427d1e84f3dd0314c0f7b2291e5b200ac8c7c3b92584604051610c3a91906128b0565b60405180910390a36001905092915050565b6000600454905090565b600260009054906101000a900460ff1681565b60045481565b600080600e60008673ffffffffffffffffffffffffffffffffffffffff1673ffffffffffffffffffffffffffffffffffffffff16815260200190815260200160002060003373ffffffffffffffffffffffffffffffffffffffff1673ffffffffffffffffffffffffffffffffffffffff16815260200190815260200160002054905082811015610d34576040517f08c379a0000000000000000000000000000000000000000000000000000000008152600401610d2b906126d5565b60405180910390fd5b610d3f858585611b4d565b8281610d4b91906129e3565b600e60008773ffffffffffffffffffffffffffffffffffffffff1673ffffffffffffffffffffffffffffffffffffffff16815260200190815260200160002060003373ffffffffffffffffffffffffffffffffffffffff1673ffffffffffffffffffffffffffffffffffffffff1681526020019081526020016000208190555060019150509392505050565b601281565b600b5481565b600260009054906101000a900460ff1615610e32576040517f08c379a0000000000000000000000000000000000000000000000000000000008152600401610e29906126b5565b60405180910390fd5b600954600d60003373ffffffffffffffffffffffffffffffffffffffff1673ffffffffffffffffffffffffffffffffffffffff168152602001908152602001600020541015610eb6576040517f08c379a0000000000000000000000000000000000000000000000000000000008152600401610ead906127f5565b60405180910390fd5b6001600260006101000a81548160ff021916908315150217905550600a5442610edf9190612902565b600b81905550600c6000815480929190610ef890612af1565b91905055507fa80808a30283fc2c95db95a081ef4462dd38bb7854e6569e34c0b501eed90f4e600b54604051610f2e91906128b0565b60405180910390a1565b60035481565b600b54421115610f83576040517f08c379a0000000000000000000000000000000000000000000000000000000008152600401610f7a90612875565b60405180910390fd5b6000601060003373ffffffffffffffffffffffffffffffffffffffff1673ffffffffffffffffffffffffffffffffffffffff168152602001908152602001600020600001541480156110195750600c54601060003373ffffffffffffffffffffffffffffffffffffffff1673ffffffffffffffffffffffffffffffffffffffff1681526020019081526020016000206001015414155b611058576040517f08c379a000000000000000000000000000000000000000000000000000000000815260040161104f906127b5565b60405180910390fd5b6000600f600083815260200190815260200160002054146110ae576040517f08c379a00000000000000000000000000000000000000000000000000000000081526004016110a590612735565b60405180910390fd5b600954600d60003373ffffffffffffffffffffffffffffffffffffffff1673ffffffffffffffffffffffffffffffffffffffff168152602001908152602001600020541015611132576040517f08c379a000000000000000000000000000000000000000000000000000000000815260040161112990612675565b60405180910390fd5b3073ffffffffffffffffffffffffffffffffffffffff166370a08231336040518263ffffffff1660e01b815260040161116b91906125e2565b60206040518083038186803b15801561118357600080fd5b505afa158015611197573d6000803e3d6000fd5b505050506040513d601f19601f820116820180604052508101906111bb91906122b0565b600f600083815260200190815260200160002060008282546111dd9190612902565b925050819055506040518060400160405280828152602001600c54815250601060003373ffffffffffffffffffffffffffffffffffffffff1673ffffffffffffffffffffffffffffffffffffffff168152602001908152602001600020600082015181600001556020820151816001015590505060118190806001815401808255809150506001900390600052602060002001600090919091909150553373ffffffffffffffffffffffffffffffffffffffff167f4d99b957a2bc29a30ebd96a7be8e68fe50a3c701db28a91436490b7d53870ca4826040516112c091906128b0565b60405180910390a250565b6000600d60008373ffffffffffffffffffffffffffffffffffffffff1673ffffffffffffffffffffffffffffffffffffffff168152602001908152602001600020549050919050565b600760009054906101000a900473ffffffffffffffffffffffffffffffffffffffff1673ffffffffffffffffffffffffffffffffffffffff163373ffffffffffffffffffffffffffffffffffffffff16146113a4576040517f08c379a000000000000000000000000000000000000000000000000000000000815260040161139b90612695565b60405180910390fd5b61271061ffff1681106113ec576040517f08c379a00000000000000000000000000000000000000000000000000000000081526004016113e390612815565b60405180910390fd5b8060068190555050565b60065481565b60055481565b60095481565b600760009054906101000a900473ffffffffffffffffffffffffffffffffffffffff1681565b600c5481565b600a5481565b6001805461144790612abf565b80601f016020809104026020016040519081016040528092919081815260200182805461147390612abf565b80156114c05780601f10611495576101008083540402835291602001916114c0565b820191906000526020600020905b8154815290600101906020018083116114a357829003601f168201915b505050505081565b601181815481106114d857600080fd5b906000526020600020016000915090505481565b6000803411611530576040517f08c379a0000000000000000000000000000000000000000000000000000000008152600401611527906127d5565b60405180910390fd5b600061271061ffff16600654346115479190612989565b6115519190612958565b90506000813461156191906129e3565b90506000600554826115739190612958565b905060045460035461158591906129e3565b8111156115c7576040517f08c379a00000000000000000000000000000000000000000000000000000000081526004016115be90612715565b60405180910390fd5b6115d13382611dcf565b6000601060003373ffffffffffffffffffffffffffffffffffffffff1673ffffffffffffffffffffffffffffffffffffffff16815260200190815260200160002060000154141580156116675750600c54601060003373ffffffffffffffffffffffffffffffffffffffff1673ffffffffffffffffffffffffffffffffffffffff16815260200190815260200160002060010154145b156116d95780600f6000601060003373ffffffffffffffffffffffffffffffffffffffff1673ffffffffffffffffffffffffffffffffffffffff16815260200190815260200160002060000154815260200190815260200160002060008282546116d19190612902565b925050819055505b6001935050505090565b60006116f0338484611b4d565b6001905092915050565b60085481565b600b544211611744576040517f08c379a000000000000000000000000000000000000000000000000000000000815260040161173b90612755565b60405180910390fd5b600080600080600090505b60118054905081101561187757600f60006011838154811061179a577f4e487b7100000000000000000000000000000000000000000000000000000000600052603260045260246000fd5b906000526020600020015481526020019081526020016000205492508383111561180957829350601181815481106117fb577f4e487b7100000000000000000000000000000000000000000000000000000000600052603260045260246000fd5b906000526020600020015491505b600f600060118381548110611847577f4e487b7100000000000000000000000000000000000000000000000000000000600052603260045260246000fd5b9060005260206000200154815260200190815260200160002060009055808061186f90612af1565b91505061174f565b50600083146118dc57806005819055506000600260006101000a81548160ff0219169083151502179055507fa6dc15bdb68da224c66db4b3838d9a2b205138e8cff6774e57d0af91e196d6226005546040516118d391906128b0565b60405180910390a15b505050565b60125481565b6000600f6000838152602001908152602001600020549050919050565b61271081565b6000600e60008473ffffffffffffffffffffffffffffffffffffffff1673ffffffffffffffffffffffffffffffffffffffff16815260200190815260200160002060008373ffffffffffffffffffffffffffffffffffffffff1673ffffffffffffffffffffffffffffffffffffffff16815260200190815260200160002054905092915050565b6000813073ffffffffffffffffffffffffffffffffffffffff166370a08231336040518263ffffffff1660e01b81526004016119cd91906125e2565b60206040518083038186803b1580156119e557600080fd5b505afa1580156119f9573d6000803e3d6000fd5b505050506040513d601f19601f82011682018060405250810190611a1d91906122b0565b1015611a5e576040517f08c379a0000000000000000000000000000000000000000000000000000000008152600401611a5590612855565b60405180910390fd5b600060055483611a6e9190612989565b9050600061271061ffff1660065483611a879190612989565b611a919190612958565b905060008183611aa191906129e3565b905080471015611ae6576040517f08c379a0000000000000000000000000000000000000000000000000000000008152600401611add90612775565b60405180910390fd5b611af03386611e42565b611afa3386611eb5565b3373ffffffffffffffffffffffffffffffffffffffff166108fc829081150290604051600060405180830381858888f19350505050158015611b40573d6000803e3d6000fd5b5060019350505050919050565b600073ffffffffffffffffffffffffffffffffffffffff168373ffffffffffffffffffffffffffffffffffffffff161415611bbd576040517f08c379a0000000000000000000000000000000000000000000000000000000008152600401611bb490612655565b60405180910390fd5b600073ffffffffffffffffffffffffffffffffffffffff168273ffffffffffffffffffffffffffffffffffffffff161415611c2d576040517f08c379a0000000000000000000000000000000000000000000000000000000008152600401611c2490612795565b60405180910390fd5b80600d60008573ffffffffffffffffffffffffffffffffffffffff1673ffffffffffffffffffffffffffffffffffffffff168152602001908152602001600020541015611caf576040517f08c379a0000000000000000000000000000000000000000000000000000000008152600401611ca690612855565b60405180910390fd5b80600d60008573ffffffffffffffffffffffffffffffffffffffff1673ffffffffffffffffffffffffffffffffffffffff1681526020019081526020016000206000828254611cfe91906129e3565b9250508190555080600d60008473ffffffffffffffffffffffffffffffffffffffff1673ffffffffffffffffffffffffffffffffffffffff1681526020019081526020016000206000828254611d549190612902565b92505081905550611d658382611eb5565b8173ffffffffffffffffffffffffffffffffffffffff168373ffffffffffffffffffffffffffffffffffffffff167fddf252ad1be2c89b69c2b068fc378daa952ba7f163c4a11628f55a4df523b3ef83604051611dc291906128b0565b60405180910390a3505050565b80600d60008473ffffffffffffffffffffffffffffffffffffffff1673ffffffffffffffffffffffffffffffffffffffff1681526020019081526020016000206000828254611e1e9190612902565b925050819055508060046000828254611e379190612902565b925050819055505050565b80600d60008473ffffffffffffffffffffffffffffffffffffffff1673ffffffffffffffffffffffffffffffffffffffff1681526020019081526020016000206000828254611e9191906129e3565b925050819055508060046000828254611eaa91906129e3565b925050819055505050565b6000601060008473ffffffffffffffffffffffffffffffffffffffff1673ffffffffffffffffffffffffffffffffffffffff1681526020019081526020016000206000015414158015611f4b5750600c54601060008473ffffffffffffffffffffffffffffffffffffffff1673ffffffffffffffffffffffffffffffffffffffff16815260200190815260200160002060010154145b15612154576008543073ffffffffffffffffffffffffffffffffffffffff166370a08231846040518263ffffffff1660e01b8152600401611f8c91906125e2565b60206040518083038186803b158015611fa457600080fd5b505afa158015611fb8573d6000803e3d6000fd5b505050506040513d601f19601f82011682018060405250810190611fdc91906122b0565b10156120e6573073ffffffffffffffffffffffffffffffffffffffff166370a08231836040518263ffffffff1660e01b815260040161201b91906125e2565b60206040518083038186803b15801561203357600080fd5b505afa158015612047573d6000803e3d6000fd5b505050506040513d601f19601f8201168201806040525081019061206b91906122b0565b816120769190612902565b600f6000601060008673ffffffffffffffffffffffffffffffffffffffff1673ffffffffffffffffffffffffffffffffffffffff16815260200190815260200160002060000154815260200190815260200160002060008282546120da91906129e3565b92505081905550612153565b80600f6000601060008673ffffffffffffffffffffffffffffffffffffffff1673ffffffffffffffffffffffffffffffffffffffff168152602001908152602001600020600001548152602001908152602001600020600082825461214b91906129e3565b925050819055505b5b5050565b60008135905061216781612f9e565b92915050565b60008135905061217c81612fb5565b92915050565b60008151905061219181612fb5565b92915050565b6000602082840312156121a957600080fd5b60006121b784828501612158565b91505092915050565b600080604083850312156121d357600080fd5b60006121e185828601612158565b92505060206121f285828601612158565b9150509250929050565b60008060006060848603121561221157600080fd5b600061221f86828701612158565b935050602061223086828701612158565b92505060406122418682870161216d565b9150509250925092565b6000806040838503121561225e57600080fd5b600061226c85828601612158565b925050602061227d8582860161216d565b9150509250929050565b60006020828403121561229957600080fd5b60006122a78482850161216d565b91505092915050565b6000602082840312156122c257600080fd5b60006122d084828501612182565b91505092915050565b6122e281612a29565b82525050565b6122f181612a17565b82525050565b61230081612a3b565b82525050565b6000612311826128e6565b61231b81856128f1565b935061232b818560208601612a8c565b61233481612bc7565b840191505092915050565b600061234c6021836128f1565b915061235782612bd8565b604082019050919050565b600061236f6024836128f1565b915061237a82612c27565b604082019050919050565b60006123926013836128f1565b915061239d82612c76565b602082019050919050565b60006123b5601f836128f1565b91506123c082612c9f565b602082019050919050565b60006123d86021836128f1565b91506123e382612cc8565b604082019050919050565b60006123fb601e836128f1565b915061240682612d17565b602082019050919050565b600061241e6020836128f1565b915061242982612d40565b602082019050919050565b6000612441603f836128f1565b915061244c82612d69565b604082019050919050565b60006124646016836128f1565b915061246f82612db8565b602082019050919050565b60006124876029836128f1565b915061249282612de1565b604082019050919050565b60006124aa601f836128f1565b91506124b582612e30565b602082019050919050565b60006124cd6012836128f1565b91506124d882612e59565b602082019050919050565b60006124f0601e836128f1565b91506124fb82612e82565b602082019050919050565b60006125136026836128f1565b915061251e82612eab565b604082019050919050565b6000612536601e836128f1565b915061254182612efa565b602082019050919050565b6000612559601c836128f1565b915061256482612f23565b602082019050919050565b600061257c6011836128f1565b915061258782612f4c565b602082019050919050565b600061259f6013836128f1565b91506125aa82612f75565b602082019050919050565b6125be81612a47565b82525050565b6125cd81612a75565b82525050565b6125dc81612a7f565b82525050565b60006020820190506125f760008301846122e8565b92915050565b600060208201905061261260008301846122d9565b92915050565b600060208201905061262d60008301846122f7565b92915050565b6000602082019050818103600083015261264d8184612306565b905092915050565b6000602082019050818103600083015261266e8161233f565b9050919050565b6000602082019050818103600083015261268e81612362565b9050919050565b600060208201905081810360008301526126ae81612385565b9050919050565b600060208201905081810360008301526126ce816123a8565b9050919050565b600060208201905081810360008301526126ee816123cb565b9050919050565b6000602082019050818103600083015261270e816123ee565b9050919050565b6000602082019050818103600083015261272e81612411565b9050919050565b6000602082019050818103600083015261274e81612434565b9050919050565b6000602082019050818103600083015261276e81612457565b9050919050565b6000602082019050818103600083015261278e8161247a565b9050919050565b600060208201905081810360008301526127ae8161249d565b9050919050565b600060208201905081810360008301526127ce816124c0565b9050919050565b600060208201905081810360008301526127ee816124e3565b9050919050565b6000602082019050818103600083015261280e81612506565b9050919050565b6000602082019050818103600083015261282e81612529565b9050919050565b6000602082019050818103600083015261284e8161254c565b9050919050565b6000602082019050818103600083015261286e8161256f565b9050919050565b6000602082019050818103600083015261288e81612592565b9050919050565b60006020820190506128aa60008301846125b5565b92915050565b60006020820190506128c560008301846125c4565b92915050565b60006020820190506128e060008301846125d3565b92915050565b600081519050919050565b600082825260208201905092915050565b600061290d82612a75565b915061291883612a75565b9250827fffffffffffffffffffffffffffffffffffffffffffffffffffffffffffffffff0382111561294d5761294c612b3a565b5b828201905092915050565b600061296382612a75565b915061296e83612a75565b92508261297e5761297d612b69565b5b828204905092915050565b600061299482612a75565b915061299f83612a75565b9250817fffffffffffffffffffffffffffffffffffffffffffffffffffffffffffffffff04831182151516156129d8576129d7612b3a565b5b828202905092915050565b60006129ee82612a75565b91506129f983612a75565b925082821015612a0c57612a0b612b3a565b5b828203905092915050565b6000612a2282612a55565b9050919050565b6000612a3482612a55565b9050919050565b60008115159050919050565b600061ffff82169050919050565b600073ffffffffffffffffffffffffffffffffffffffff82169050919050565b6000819050919050565b600060ff82169050919050565b60005b83811015612aaa578082015181840152602081019050612a8f565b83811115612ab9576000848401525b50505050565b60006002820490506001821680612ad757607f821691505b60208210811415612aeb57612aea612b98565b5b50919050565b6000612afc82612a75565b91507fffffffffffffffffffffffffffffffffffffffffffffffffffffffffffffffff821415612b2f57612b2e612b3a565b5b600182019050919050565b7f4e487b7100000000000000000000000000000000000000000000000000000000600052601160045260246000fd5b7f4e487b7100000000000000000000000000000000000000000000000000000000600052601260045260246000fd5b7f4e487b7100000000000000000000000000000000000000000000000000000000600052602260045260246000fd5b6000601f19601f8301169050919050565b7f43616e6e6f74207472616e736665722066726f6d207a65726f2061646472657360008201527f7300000000000000000000000000000000000000000000000000000000000000602082015250565b7f4e6f7420656e6f75676820746f6b656e7320666f722061646420766f7465207060008201527f7269636500000000000000000000000000000000000000000000000000000000602082015250565b7f43616c6c6572206973206e6f74206f776e657200000000000000000000000000600082015250565b7f5072657669757320766f74696e67206973206e6f74206f766572207965742100600082015250565b7f5472616e7366657220616d6f756e74206578636565647320616c6c6f77616e6360008201527f6500000000000000000000000000000000000000000000000000000000000000602082015250565b7f5468657265206973206e6f2073756368207072696365206c6f74207965740000600082015250565b7f4d617820737570706c79206f6620746f6b656e7320697320746f75636865642e600082015250565b7f536f6d656f6e6520616c7265616479206164646564207468617420707269636560008201527f2c20796f752063616e20766f746520666f72207468617420696e737465616400602082015250565b7f566f74696e67206973206e6f74206f7665722079657400000000000000000000600082015250565b7f436f6e747261637420646f65736e2774206861766520656e6f7567682065746860008201527f657220746f207061790000000000000000000000000000000000000000000000602082015250565b7f43616e6e6f74207472616e7366657220746f207a65726f206164647265737300600082015250565b7f596f7520616c726561647920766f746564210000000000000000000000000000600082015250565b7f53656e6420736f6d6520657468657220746f2062757920746f6b656e732e0000600082015250565b7f4e6f7420656e6f75676820746f6b656e7320666f72207374617274696e67206160008201527f20766f7465210000000000000000000000000000000000000000000000000000602082015250565b7f596f752063616e27742073657420666565206f662077686f6c652073756d0000600082015250565b7f4e6f7420656e6f75676820746f6b656e7320666f7220766f74696e6700000000600082015250565b7f4e6f7420656e6f75676820746f6b656e73000000000000000000000000000000600082015250565b7f566f74696e672074696d65206973206f76657200000000000000000000000000600082015250565b612fa781612a17565b8114612fb257600080fd5b50565b612fbe81612a75565b8114612fc957600080fd5b5056fea26469706673582212209fd43c5f45c06b97817ea25c5f7e429fb0d3d7c38bf98a383783c8b13db9a68064736f6c63430008040033",
  "linkReferences": {},
  "deployedLinkReferences": {}
}