{
  "_format": "hh-sol-artifact-1",
  "contractName": "VotableERC20",
  "sourceName": "contracts/VotableERC20.sol",
  "abi": [
    {
      "inputs": [
        {
          "internalType": "string",
          "name": "_name",
          "type": "string"
        },
        {
          "internalType": "string",
          "name": "_symbol",
          "type": "string"
        },
        {
          "internalType": "uint256",
          "name": "_tokenPrice",
          "type": "uint256"
        },
        {
          "internalType": "uint256",
          "name": "_maxTokenSupply",
          "type": "uint256"
        },
        {
          "internalType": "uint256",
          "name": "_timeToVote",
          "type": "uint256"
        },
        {
          "internalType": "uint256",
          "name": "_feePercent",
          "type": "uint256"
        }
      ],
      "stateMutability": "nonpayable",
      "type": "constructor"
    },
    {
      "anonymous": false,
      "inputs": [
        {
          "indexed": true,
          "internalType": "address",
          "name": "owner",
          "type": "address"
        },
        {
          "indexed": true,
          "internalType": "address",
          "name": "spender",
          "type": "address"
        },
        {
          "indexed": false,
          "internalType": "uint256",
          "name": "value",
          "type": "uint256"
        }
      ],
      "name": "Approval",
      "type": "event"
    },
    {
      "anonymous": false,
      "inputs": [
        {
          "indexed": false,
          "internalType": "uint256",
          "name": "newPrice",
          "type": "uint256"
        }
      ],
      "name": "PriceChanged",
      "type": "event"
    },
    {
      "anonymous": false,
      "inputs": [
        {
          "indexed": true,
          "internalType": "address",
          "name": "from",
          "type": "address"
        },
        {
          "indexed": true,
          "internalType": "address",
          "name": "to",
          "type": "address"
        },
        {
          "indexed": false,
          "internalType": "uint256",
          "name": "value",
          "type": "uint256"
        }
      ],
      "name": "Transfer",
      "type": "event"
    },
    {
      "anonymous": false,
      "inputs": [
        {
          "indexed": false,
          "internalType": "uint256",
          "name": "endTime",
          "type": "uint256"
        }
      ],
      "name": "VoteStarted",
      "type": "event"
    },
    {
      "anonymous": false,
      "inputs": [
        {
          "indexed": true,
          "internalType": "address",
          "name": "voter",
          "type": "address"
        },
        {
          "indexed": false,
          "internalType": "uint256",
          "name": "proposedPrice",
          "type": "uint256"
        }
      ],
      "name": "Voted",
      "type": "event"
    },
    {
      "inputs": [
        {
          "internalType": "uint256",
          "name": "_proposedPrice",
          "type": "uint256"
        },
        {
          "internalType": "uint256",
          "name": "_prevIndex",
          "type": "uint256"
        },
        {
          "internalType": "uint256",
          "name": "_nextIndex",
          "type": "uint256"
        }
      ],
      "name": "addVotePrice",
      "outputs": [],
      "stateMutability": "nonpayable",
      "type": "function"
    },
    {
      "inputs": [
        {
          "internalType": "address",
          "name": "_owner",
          "type": "address"
        },
        {
          "internalType": "address",
          "name": "_spender",
          "type": "address"
        }
      ],
      "name": "allowance",
      "outputs": [
        {
          "internalType": "uint256",
          "name": "",
          "type": "uint256"
        }
      ],
      "stateMutability": "view",
      "type": "function"
    },
    {
      "inputs": [
        {
          "internalType": "address",
          "name": "_spender",
          "type": "address"
        },
        {
          "internalType": "uint256",
          "name": "_amount",
          "type": "uint256"
        }
      ],
      "name": "approve",
      "outputs": [
        {
          "internalType": "bool",
          "name": "",
          "type": "bool"
        }
      ],
      "stateMutability": "nonpayable",
      "type": "function"
    },
    {
      "inputs": [
        {
          "internalType": "address",
          "name": "_account",
          "type": "address"
        }
      ],
      "name": "balanceOf",
      "outputs": [
        {
          "internalType": "uint256",
          "name": "",
          "type": "uint256"
        }
      ],
      "stateMutability": "view",
      "type": "function"
    },
    {
      "inputs": [],
      "name": "buy",
      "outputs": [],
      "stateMutability": "payable",
      "type": "function"
    },
    {
      "inputs": [],
      "name": "data",
      "outputs": [
        {
          "internalType": "uint256",
          "name": "head",
          "type": "uint256"
        },
        {
          "internalType": "uint256",
          "name": "tail",
          "type": "uint256"
        },
        {
          "internalType": "uint256",
          "name": "size",
          "type": "uint256"
        },
        {
          "internalType": "uint256",
          "name": "indexToUse",
          "type": "uint256"
        },
        {
          "internalType": "uint256",
          "name": "currentVoteId",
          "type": "uint256"
        }
      ],
      "stateMutability": "view",
      "type": "function"
    },
    {
      "inputs": [],
      "name": "decimals",
      "outputs": [
        {
          "internalType": "uint8",
          "name": "",
          "type": "uint8"
        }
      ],
      "stateMutability": "view",
      "type": "function"
    },
    {
      "inputs": [],
      "name": "endVote",
      "outputs": [],
      "stateMutability": "nonpayable",
      "type": "function"
    },
    {
      "inputs": [],
      "name": "feeDecimals",
      "outputs": [
        {
          "internalType": "uint16",
          "name": "",
          "type": "uint16"
        }
      ],
      "stateMutability": "view",
      "type": "function"
    },
    {
      "inputs": [],
      "name": "feePercent",
      "outputs": [
        {
          "internalType": "uint256",
          "name": "",
          "type": "uint256"
        }
      ],
      "stateMutability": "view",
      "type": "function"
    },
    {
      "inputs": [
        {
          "internalType": "address",
          "name": "_voter",
          "type": "address"
        }
      ],
      "name": "isVoterOfCurrentVotes",
      "outputs": [
        {
          "internalType": "bool",
          "name": "",
          "type": "bool"
        }
      ],
      "stateMutability": "view",
      "type": "function"
    },
    {
      "inputs": [],
      "name": "isVoting",
      "outputs": [
        {
          "internalType": "bool",
          "name": "",
          "type": "bool"
        }
      ],
      "stateMutability": "view",
      "type": "function"
    },
    {
      "inputs": [],
      "name": "maxTokenSupply",
      "outputs": [
        {
          "internalType": "uint256",
          "name": "",
          "type": "uint256"
        }
      ],
      "stateMutability": "view",
      "type": "function"
    },
    {
      "inputs": [],
      "name": "minTokenAmountForAddVotePrice",
      "outputs": [
        {
          "internalType": "uint256",
          "name": "",
          "type": "uint256"
        }
      ],
      "stateMutability": "view",
      "type": "function"
    },
    {
      "inputs": [],
      "name": "minTokenAmountForVoting",
      "outputs": [
        {
          "internalType": "uint256",
          "name": "",
          "type": "uint256"
        }
      ],
      "stateMutability": "view",
      "type": "function"
    },
    {
      "inputs": [],
      "name": "name",
      "outputs": [
        {
          "internalType": "string",
          "name": "",
          "type": "string"
        }
      ],
      "stateMutability": "view",
      "type": "function"
    },
    {
      "inputs": [],
      "name": "owner",
      "outputs": [
        {
          "internalType": "address payable",
          "name": "",
          "type": "address"
        }
      ],
      "stateMutability": "view",
      "type": "function"
    },
    {
      "inputs": [
        {
          "internalType": "uint256",
          "name": "_tokensToSell",
          "type": "uint256"
        }
      ],
      "name": "sell",
      "outputs": [],
      "stateMutability": "payable",
      "type": "function"
    },
    {
      "inputs": [
        {
          "internalType": "uint256",
          "name": "_newFeePercent",
          "type": "uint256"
        }
      ],
      "name": "setFeePercent",
      "outputs": [],
      "stateMutability": "nonpayable",
      "type": "function"
    },
    {
      "inputs": [],
      "name": "startVote",
      "outputs": [],
      "stateMutability": "nonpayable",
      "type": "function"
    },
    {
      "inputs": [],
      "name": "symbol",
      "outputs": [
        {
          "internalType": "string",
          "name": "",
          "type": "string"
        }
      ],
      "stateMutability": "view",
      "type": "function"
    },
    {
      "inputs": [],
      "name": "timeToVote",
      "outputs": [
        {
          "internalType": "uint256",
          "name": "",
          "type": "uint256"
        }
      ],
      "stateMutability": "view",
      "type": "function"
    },
    {
      "inputs": [],
      "name": "tokenPrice",
      "outputs": [
        {
          "internalType": "uint256",
          "name": "",
          "type": "uint256"
        }
      ],
      "stateMutability": "view",
      "type": "function"
    },
    {
      "inputs": [
        {
          "internalType": "uint256",
          "name": "_price",
          "type": "uint256"
        }
      ],
      "name": "totalOfPrice",
      "outputs": [
        {
          "internalType": "uint256",
          "name": "",
          "type": "uint256"
        }
      ],
      "stateMutability": "view",
      "type": "function"
    },
    {
      "inputs": [],
      "name": "totalSupply",
      "outputs": [
        {
          "internalType": "uint256",
          "name": "",
          "type": "uint256"
        }
      ],
      "stateMutability": "view",
      "type": "function"
    },
    {
      "inputs": [],
      "name": "totalTokenSupply",
      "outputs": [
        {
          "internalType": "uint256",
          "name": "",
          "type": "uint256"
        }
      ],
      "stateMutability": "view",
      "type": "function"
    },
    {
      "inputs": [
        {
          "internalType": "address",
          "name": "_to",
          "type": "address"
        },
        {
          "internalType": "uint256",
          "name": "_amount",
          "type": "uint256"
        }
      ],
      "name": "transfer",
      "outputs": [
        {
          "internalType": "bool",
          "name": "",
          "type": "bool"
        }
      ],
      "stateMutability": "nonpayable",
      "type": "function"
    },
    {
      "inputs": [
        {
          "internalType": "address",
          "name": "_from",
          "type": "address"
        },
        {
          "internalType": "address",
          "name": "_to",
          "type": "address"
        },
        {
          "internalType": "uint256",
          "name": "_amount",
          "type": "uint256"
        }
      ],
      "name": "transferFrom",
      "outputs": [
        {
          "internalType": "bool",
          "name": "",
          "type": "bool"
        }
      ],
      "stateMutability": "nonpayable",
      "type": "function"
    },
    {
      "inputs": [
        {
          "internalType": "uint256",
          "name": "_proposedPrice",
          "type": "uint256"
        },
        {
          "internalType": "uint256",
          "name": "_nodeIndex",
          "type": "uint256"
        },
        {
          "internalType": "uint256",
          "name": "_prevIndex",
          "type": "uint256"
        },
        {
          "internalType": "uint256",
          "name": "_nextIndex",
          "type": "uint256"
        }
      ],
      "name": "vote",
      "outputs": [],
      "stateMutability": "nonpayable",
      "type": "function"
    },
    {
      "inputs": [],
      "name": "voteCountdown",
      "outputs": [
        {
          "internalType": "uint256",
          "name": "",
          "type": "uint256"
        }
      ],
      "stateMutability": "view",
      "type": "function"
    },
    {
      "inputs": [],
      "name": "voteNodes",
      "outputs": [
        {
          "components": [
            {
              "components": [
                {
                  "internalType": "uint256",
                  "name": "proposedPrice",
                  "type": "uint256"
                },
                {
                  "internalType": "uint256",
                  "name": "voteId",
                  "type": "uint256"
                },
                {
                  "internalType": "uint256",
                  "name": "votesTotal",
                  "type": "uint256"
                }
              ],
              "internalType": "struct VotableERC20.VoteProposedPrice",
              "name": "voteProposedPrice",
              "type": "tuple"
            },
            {
              "internalType": "uint256",
              "name": "prev",
              "type": "uint256"
            },
            {
              "internalType": "uint256",
              "name": "next",
              "type": "uint256"
            }
          ],
          "internalType": "struct VotableERC20.Node[]",
          "name": "",
          "type": "tuple[]"
        }
      ],
      "stateMutability": "view",
      "type": "function"
    },
    {
      "inputs": [
        {
          "internalType": "uint256",
          "name": "_nodeIndex",
          "type": "uint256"
        },
        {
          "internalType": "uint256",
          "name": "_prevIndex",
          "type": "uint256"
        },
        {
          "internalType": "uint256",
          "name": "_nextIndex",
          "type": "uint256"
        }
      ],
      "name": "voterBuy",
      "outputs": [],
      "stateMutability": "payable",
      "type": "function"
    },
    {
      "inputs": [
        {
          "internalType": "uint256",
          "name": "_tokensToSell",
          "type": "uint256"
        },
        {
          "internalType": "uint256",
          "name": "_nodeIndex",
          "type": "uint256"
        },
        {
          "internalType": "uint256",
          "name": "_prevIndex",
          "type": "uint256"
        },
        {
          "internalType": "uint256",
          "name": "_nextIndex",
          "type": "uint256"
        }
      ],
      "name": "voterSell",
      "outputs": [],
      "stateMutability": "payable",
      "type": "function"
    }
  ],
  "bytecode": "0x60806040526000600860006101000a81548160ff021916908315150217905550601260016200002f91906200044d565b600e553480156200003f57600080fd5b5060405162004b6338038062004b63833981810160405281019062000065919062000293565b85600690805190602001906200007d9291906200015a565b508460079080519060200190620000969291906200015a565b5083600b819055508260098190555033600d60006101000a81548173ffffffffffffffffffffffffffffffffffffffff021916908373ffffffffffffffffffffffffffffffffffffffff1602179055508160108190555061271060056009546200010191906200058a565b6200010d9190620003ba565b600f8190555080600c819055506000806000018190555060008060010181905550600080600201819055506001600060030181905550600160006004018190555050505050505062000798565b828054620001689062000638565b90600052602060002090601f0160209004810192826200018c5760008555620001d8565b82601f10620001a757805160ff1916838001178555620001d8565b82800160010185558215620001d8579182015b82811115620001d7578251825591602001919060010190620001ba565b5b509050620001e79190620001eb565b5090565b5b8082111562000206576000816000905550600101620001ec565b5090565b6000620002216200021b8462000384565b6200035b565b9050828152602081018484840111156200023a57600080fd5b6200024784828562000602565b509392505050565b600082601f8301126200026157600080fd5b8151620002738482602086016200020a565b91505092915050565b6000815190506200028d816200077e565b92915050565b60008060008060008060c08789031215620002ad57600080fd5b600087015167ffffffffffffffff811115620002c857600080fd5b620002d689828a016200024f565b965050602087015167ffffffffffffffff811115620002f457600080fd5b6200030289828a016200024f565b95505060406200031589828a016200027c565b94505060606200032889828a016200027c565b93505060806200033b89828a016200027c565b92505060a06200034e89828a016200027c565b9150509295509295509295565b6000620003676200037a565b90506200037582826200066e565b919050565b6000604051905090565b600067ffffffffffffffff821115620003a257620003a162000731565b5b620003ad8262000760565b9050602081019050919050565b6000620003c782620005eb565b9150620003d483620005eb565b925082620003e757620003e6620006d3565b5b828204905092915050565b6000808291508390505b600185111562000444578086048111156200041c576200041b620006a4565b5b60018516156200042c5780820291505b80810290506200043c8562000771565b9450620003fc565b94509492505050565b60006200045a82620005eb565b91506200046783620005f5565b9250620004967fffffffffffffffffffffffffffffffffffffffffffffffffffffffffffffffff84846200049e565b905092915050565b600082620004b0576001905062000583565b81620004c0576000905062000583565b8160018114620004d95760028114620004e4576200051a565b600191505062000583565b60ff841115620004f957620004f8620006a4565b5b8360020a915084821115620005135762000512620006a4565b5b5062000583565b5060208310610133831016604e8410600b8410161715620005545782820a9050838111156200054e576200054d620006a4565b5b62000583565b620005638484846001620003f2565b925090508184048111156200057d576200057c620006a4565b5b81810290505b9392505050565b60006200059782620005eb565b9150620005a483620005eb565b9250817fffffffffffffffffffffffffffffffffffffffffffffffffffffffffffffffff0483118215151615620005e057620005df620006a4565b5b828202905092915050565b6000819050919050565b600060ff82169050919050565b60005b838110156200062257808201518184015260208101905062000605565b8381111562000632576000848401525b50505050565b600060028204905060018216806200065157607f821691505b6020821081141562000668576200066762000702565b5b50919050565b620006798262000760565b810181811067ffffffffffffffff821117156200069b576200069a62000731565b5b80604052505050565b7f4e487b7100000000000000000000000000000000000000000000000000000000600052601160045260246000fd5b7f4e487b7100000000000000000000000000000000000000000000000000000000600052601260045260246000fd5b7f4e487b7100000000000000000000000000000000000000000000000000000000600052602260045260246000fd5b7f4e487b7100000000000000000000000000000000000000000000000000000000600052604160045260246000fd5b6000601f19601f8301169050919050565b60008160011c9050919050565b6200078981620005eb565b81146200079557600080fd5b50565b6143bb80620007a86000396000f3fe6080604052600436106101ee5760003560e01c806373d4a13a1161010d578063a6f2ae3a116100a0578063c0873ef51161006f578063c0873ef514610698578063c745907a146106c3578063cc0f178614610700578063dd62ed3e1461072b578063e4849b3214610768576101ee565b8063a6f2ae3a1461060f578063a9059cbb14610619578063ace682ba14610656578063b922394614610681576101ee565b806388edb929116100dc57806388edb929146105635780638da5cb5b1461058e578063945837e2146105b957806395d89b41146105e4576101ee565b806373d4a13a146104b55780637ce3489b146104e45780637fd6f15c1461050d5780637ff9b59614610538576101ee565b8063313ce5671161018557806350c911bd1161015457806350c911bd1461040857806350f7c2041461042457806368c9e3881461044f57806370a0823114610478576101ee565b8063313ce5671461037257806336b077681461039d5780634693d70b146103c65780634c0a6af0146103f1576101ee565b80631bbef399116101c15780631bbef399146102c35780631ca8b6cb146102ee57806323b872dd1461031957806329d7852714610356576101ee565b806306fdde03146101f3578063095ea7b31461021e57806316fd86b71461025b57806318160ddd14610298575b600080fd5b3480156101ff57600080fd5b50610208610784565b6040516102159190613510565b60405180910390f35b34801561022a57600080fd5b5061024560048036038101906102409190612da7565b610812565b60405161025291906134f5565b60405180910390f35b34801561026757600080fd5b50610282600480360381019061027d9190612cf3565b610904565b60405161028f91906134f5565b60405180910390f35b3480156102a457600080fd5b506102ad610956565b6040516102ba919061390d565b60405180910390f35b3480156102cf57600080fd5b506102d8610960565b6040516102e591906134f5565b60405180910390f35b3480156102fa57600080fd5b50610303610973565b604051610310919061390d565b60405180910390f35b34801561032557600080fd5b50610340600480360381019061033b9190612d58565b610979565b60405161034d91906134f5565b60405180910390f35b610370600480360381019061036b9190612e84565b610b2b565b005b34801561037e57600080fd5b50610387610cc8565b604051610394919061397b565b60405180910390f35b3480156103a957600080fd5b506103c460048036038101906103bf9190612e35565b610ccd565b005b3480156103d257600080fd5b506103db610f61565b6040516103e8919061390d565b60405180910390f35b3480156103fd57600080fd5b50610406610f67565b005b610422600480360381019061041d9190612e35565b6110c0565b005b34801561043057600080fd5b50610439611260565b604051610446919061390d565b60405180910390f35b34801561045b57600080fd5b5061047660048036038101906104719190612e84565b611266565b005b34801561048457600080fd5b5061049f600480360381019061049a9190612cf3565b611589565b6040516104ac919061390d565b60405180910390f35b3480156104c157600080fd5b506104ca6115d2565b6040516104db959493929190613928565b60405180910390f35b3480156104f057600080fd5b5061050b60048036038101906105069190612de3565b6115f6565b005b34801561051957600080fd5b506105226116d8565b60405161052f919061390d565b60405180910390f35b34801561054457600080fd5b5061054d6116de565b60405161055a919061390d565b60405180910390f35b34801561056f57600080fd5b506105786116e4565b604051610585919061390d565b60405180910390f35b34801561059a57600080fd5b506105a36116ea565b6040516105b091906134b8565b60405180910390f35b3480156105c557600080fd5b506105ce611710565b6040516105db919061390d565b60405180910390f35b3480156105f057600080fd5b506105f9611716565b6040516106069190613510565b60405180910390f35b6106176117a4565b005b34801561062557600080fd5b50610640600480360381019061063b9190612da7565b6117f8565b60405161064d91906134f5565b60405180910390f35b34801561066257600080fd5b5061066b611858565b604051610678919061390d565b60405180910390f35b34801561068d57600080fd5b5061069661185e565b005b3480156106a457600080fd5b506106ad611948565b6040516106ba91906134d3565b60405180910390f35b3480156106cf57600080fd5b506106ea60048036038101906106e59190612de3565b611ab1565b6040516106f7919061390d565b60405180910390f35b34801561070c57600080fd5b50610715611ae4565b60405161072291906138f2565b60405180910390f35b34801561073757600080fd5b50610752600480360381019061074d9190612d1c565b611aea565b60405161075f919061390d565b60405180910390f35b610782600480360381019061077d9190612de3565b611b71565b005b6006805461079190613ba8565b80601f01602080910402602001604051908101604052809291908181526020018280546107bd90613ba8565b801561080a5780601f106107df5761010080835404028352916020019161080a565b820191906000526020600020905b8154815290600101906020018083116107ed57829003601f168201915b505050505081565b600081601360003373ffffffffffffffffffffffffffffffffffffffff1673ffffffffffffffffffffffffffffffffffffffff16815260200190815260200160002060008573ffffffffffffffffffffffffffffffffffffffff1673ffffffffffffffffffffffffffffffffffffffff168152602001908152602001600020819055508273ffffffffffffffffffffffffffffffffffffffff163373ffffffffffffffffffffffffffffffffffffffff167f8c5be1e5ebec7d5bd14f71427d1e84f3dd0314c0f7b2291e5b200ac8c7c3b925846040516108f2919061390d565b60405180910390a36001905092915050565b60008060040154601460008473ffffffffffffffffffffffffffffffffffffffff1673ffffffffffffffffffffffffffffffffffffffff16815260200190815260200160002060010154149050919050565b6000600a54905090565b600860009054906101000a900460ff1681565b600a5481565b600061098433610904565b156109c4576040517f08c379a00000000000000000000000000000000000000000000000000000000081526004016109bb90613752565b60405180910390fd5b6000601360008673ffffffffffffffffffffffffffffffffffffffff1673ffffffffffffffffffffffffffffffffffffffff16815260200190815260200160002060003373ffffffffffffffffffffffffffffffffffffffff1673ffffffffffffffffffffffffffffffffffffffff16815260200190815260200160002054905082811015610a88576040517f08c379a0000000000000000000000000000000000000000000000000000000008152600401610a7f906135f2565b60405180910390fd5b610a93858585611bc6565b8281610a9f9190613acc565b601360008773ffffffffffffffffffffffffffffffffffffffff1673ffffffffffffffffffffffffffffffffffffffff16815260200190815260200160002060003373ffffffffffffffffffffffffffffffffffffffff1673ffffffffffffffffffffffffffffffffffffffff1681526020019081526020016000208190555060019150509392505050565b610b3433610904565b610b73576040517f08c379a0000000000000000000000000000000000000000000000000000000008152600401610b6a90613592565b60405180910390fd5b600060040154601460003373ffffffffffffffffffffffffffffffffffffffff1673ffffffffffffffffffffffffffffffffffffffff1681526020019081526020016000206001015414610bfc576040517f08c379a0000000000000000000000000000000000000000000000000000000008152600401610bf3906137b2565b60405180910390fd5b82601460003373ffffffffffffffffffffffffffffffffffffffff1673ffffffffffffffffffffffffffffffffffffffff1681526020019081526020016000206000015414610c80576040517f08c379a0000000000000000000000000000000000000000000000000000000008152600401610c7790613832565b60405180910390fd5b610c8984611e3e565b6000846000600501600086815260200190815260200160002060000160020154610cb39190613acc565b9050610cc181858585611fe8565b5050505050565b601281565b600f54601154421115610d15576040517f08c379a0000000000000000000000000000000000000000000000000000000008152600401610d0c906138d2565b60405180910390fd5b610d1e33610904565b15610d5e576040517f08c379a0000000000000000000000000000000000000000000000000000000008152600401610d55906137f2565b60405180910390fd5b80601260003373ffffffffffffffffffffffffffffffffffffffff1673ffffffffffffffffffffffffffffffffffffffff168152602001908152602001600020541015610de0576040517f08c379a0000000000000000000000000000000000000000000000000000000008152600401610dd790613872565b60405180910390fd5b6000604051806060016040528086815260200160006004015481526020013073ffffffffffffffffffffffffffffffffffffffff166370a08231336040518263ffffffff1660e01b8152600401610e37919061349d565b60206040518083038186803b158015610e4f57600080fd5b505afa158015610e63573d6000803e3d6000fd5b505050506040513d601f19601f82011682018060405250810190610e879190612e0c565b81525090506000610e99828686612282565b90506040518060400160405280828152602001600060040154815250601460003373ffffffffffffffffffffffffffffffffffffffff1673ffffffffffffffffffffffffffffffffffffffff16815260200190815260200160002060008201518160000155602082015181600101559050503373ffffffffffffffffffffffffffffffffffffffff167f4d99b957a2bc29a30ebd96a7be8e68fe50a3c701db28a91436490b7d53870ca487604051610f51919061390d565b60405180910390a2505050505050565b60115481565b600860009054906101000a900460ff1615610fb7576040517f08c379a0000000000000000000000000000000000000000000000000000000008152600401610fae906135d2565b60405180910390fd5b600f54601260003373ffffffffffffffffffffffffffffffffffffffff1673ffffffffffffffffffffffffffffffffffffffff16815260200190815260200160002054101561103b576040517f08c379a000000000000000000000000000000000000000000000000000000000815260040161103290613852565b60405180910390fd5b6001600860006101000a81548160ff0219169083151502179055506010544261106491906139eb565b6011819055506000600401600081548092919061108090613bda565b91905055507fa80808a30283fc2c95db95a081ef4462dd38bb7854e6569e34c0b501eed90f4e6011546040516110b6919061390d565b60405180910390a1565b6110c933610904565b611108576040517f08c379a00000000000000000000000000000000000000000000000000000000081526004016110ff906136b2565b60405180910390fd5b600060040154601460003373ffffffffffffffffffffffffffffffffffffffff1673ffffffffffffffffffffffffffffffffffffffff1681526020019081526020016000206001015414611191576040517f08c379a0000000000000000000000000000000000000000000000000000000008152600401611188906137b2565b60405180910390fd5b82601460003373ffffffffffffffffffffffffffffffffffffffff1673ffffffffffffffffffffffffffffffffffffffff1681526020019081526020016000206000015414611215576040517f08c379a000000000000000000000000000000000000000000000000000000000815260040161120c90613832565b60405180910390fd5b600061121f612667565b9050600081600060050160008781526020019081526020016000206000016002015461124b91906139eb565b905061125981868686611fe8565b5050505050565b60095481565b600e546011544211156112ae576040517f08c379a00000000000000000000000000000000000000000000000000000000081526004016112a5906138d2565b60405180910390fd5b6112b733610904565b156112f7576040517f08c379a00000000000000000000000000000000000000000000000000000000081526004016112ee906137f2565b60405180910390fd5b80601260003373ffffffffffffffffffffffffffffffffffffffff1673ffffffffffffffffffffffffffffffffffffffff168152602001908152602001600020541015611379576040517f08c379a000000000000000000000000000000000000000000000000000000000815260040161137090613872565b60405180910390fd5b8460006005016000868152602001908152602001600020600001600001541480156113c457506000600401546000600501600086815260200190815260200160002060000160010154145b611403576040517f08c379a00000000000000000000000000000000000000000000000000000000081526004016113fa90613772565b60405180910390fd5b60003073ffffffffffffffffffffffffffffffffffffffff166370a08231336040518263ffffffff1660e01b815260040161143e919061349d565b60206040518083038186803b15801561145657600080fd5b505afa15801561146a573d6000803e3d6000fd5b505050506040513d601f19601f8201168201806040525081019061148e9190612e0c565b60006005016000878152602001908152602001600020600001600201546114b591906139eb565b90506114c381868686611fe8565b6040518060400160405280868152602001600060040154815250601460003373ffffffffffffffffffffffffffffffffffffffff1673ffffffffffffffffffffffffffffffffffffffff16815260200190815260200160002060008201518160000155602082015181600101559050503373ffffffffffffffffffffffffffffffffffffffff167f4d99b957a2bc29a30ebd96a7be8e68fe50a3c701db28a91436490b7d53870ca487604051611579919061390d565b60405180910390a2505050505050565b6000601260008373ffffffffffffffffffffffffffffffffffffffff1673ffffffffffffffffffffffffffffffffffffffff168152602001908152602001600020549050919050565b60008060000154908060010154908060020154908060030154908060040154905085565b600d60009054906101000a900473ffffffffffffffffffffffffffffffffffffffff1673ffffffffffffffffffffffffffffffffffffffff163373ffffffffffffffffffffffffffffffffffffffff1614611686576040517f08c379a000000000000000000000000000000000000000000000000000000000815260040161167d906135b2565b60405180910390fd5b61271061ffff1681106116ce576040517f08c379a00000000000000000000000000000000000000000000000000000000081526004016116c590613892565b60405180910390fd5b80600c8190555050565b600c5481565b600b5481565b600f5481565b600d60009054906101000a900473ffffffffffffffffffffffffffffffffffffffff1681565b60105481565b6007805461172390613ba8565b80601f016020809104026020016040519081016040528092919081815260200182805461174f90613ba8565b801561179c5780601f106117715761010080835404028352916020019161179c565b820191906000526020600020905b81548152906001019060200180831161177f57829003601f168201915b505050505081565b6117ad33610904565b156117ed576040517f08c379a00000000000000000000000000000000000000000000000000000000081526004016117e490613712565b60405180910390fd5b6117f5612667565b50565b600061180333610904565b15611843576040517f08c379a000000000000000000000000000000000000000000000000000000000815260040161183a90613752565b60405180910390fd5b61184e338484611bc6565b6001905092915050565b600e5481565b60115442116118a2576040517f08c379a000000000000000000000000000000000000000000000000000000000815260040161189990613732565b60405180910390fd5b600060050160008060000154815260200190815260200160002060000160000154600b8190555060008060020181905550600080600101819055506000806000018190555060016000600301819055506000600860006101000a81548160ff0219169083151502179055507fa6dc15bdb68da224c66db4b3838d9a2b205138e8cff6774e57d0af91e196d622600b5460405161193e919061390d565b60405180910390a1565b60606000806002015467ffffffffffffffff811115611990577f4e487b7100000000000000000000000000000000000000000000000000000000600052604160045260246000fd5b6040519080825280602002602001820160405280156119c957816020015b6119b6612c6c565b8152602001906001900390816119ae5790505b5090506000600190505b6000600201548111611aa9576000600501600082815260200190815260200160002060405180606001604052908160008201604051806060016040529081600082015481526020016001820154815260200160028201548152505081526020016003820154815260200160048201548152505082600183611a549190613acc565b81518110611a8b577f4e487b7100000000000000000000000000000000000000000000000000000000600052603260045260246000fd5b60200260200101819052508080611aa190613bda565b9150506119d3565b508091505090565b600080611abd83612755565b90506000600501600082815260200190815260200160002060000160020154915050919050565b61271081565b6000601360008473ffffffffffffffffffffffffffffffffffffffff1673ffffffffffffffffffffffffffffffffffffffff16815260200190815260200160002060008373ffffffffffffffffffffffffffffffffffffffff1673ffffffffffffffffffffffffffffffffffffffff16815260200190815260200160002054905092915050565b611b7a33610904565b15611bba576040517f08c379a0000000000000000000000000000000000000000000000000000000008152600401611bb190613632565b60405180910390fd5b611bc381611e3e565b50565b600073ffffffffffffffffffffffffffffffffffffffff168373ffffffffffffffffffffffffffffffffffffffff161415611c36576040517f08c379a0000000000000000000000000000000000000000000000000000000008152600401611c2d90613532565b60405180910390fd5b600073ffffffffffffffffffffffffffffffffffffffff168273ffffffffffffffffffffffffffffffffffffffff161415611ca6576040517f08c379a0000000000000000000000000000000000000000000000000000000008152600401611c9d906137d2565b60405180910390fd5b80601260008573ffffffffffffffffffffffffffffffffffffffff1673ffffffffffffffffffffffffffffffffffffffff168152602001908152602001600020541015611d28576040517f08c379a0000000000000000000000000000000000000000000000000000000008152600401611d1f906138b2565b60405180910390fd5b80601260008573ffffffffffffffffffffffffffffffffffffffff1673ffffffffffffffffffffffffffffffffffffffff1681526020019081526020016000206000828254611d779190613acc565b9250508190555080601260008473ffffffffffffffffffffffffffffffffffffffff1673ffffffffffffffffffffffffffffffffffffffff1681526020019081526020016000206000828254611dcd91906139eb565b925050819055508173ffffffffffffffffffffffffffffffffffffffff168373ffffffffffffffffffffffffffffffffffffffff167fddf252ad1be2c89b69c2b068fc378daa952ba7f163c4a11628f55a4df523b3ef83604051611e31919061390d565b60405180910390a3505050565b803073ffffffffffffffffffffffffffffffffffffffff166370a08231336040518263ffffffff1660e01b8152600401611e78919061349d565b60206040518083038186803b158015611e9057600080fd5b505afa158015611ea4573d6000803e3d6000fd5b505050506040513d601f19601f82011682018060405250810190611ec89190612e0c565b1015611f09576040517f08c379a0000000000000000000000000000000000000000000000000000000008152600401611f00906138b2565b60405180910390fd5b6000600b5482611f199190613a72565b9050600061271061ffff16600c5483611f329190613a72565b611f3c9190613a41565b905060008183611f4c9190613acc565b905080471015611f91576040517f08c379a0000000000000000000000000000000000000000000000000000000008152600401611f8890613792565b60405180910390fd5b611f9b3385612821565b3373ffffffffffffffffffffffffffffffffffffffff166108fc829081150290604051600060405180830381858888f19350505050158015611fe1573d6000803e3d6000fd5b5050505050565b6000806005016000858152602001908152602001600020905060006004015481600001600101541461204f576040517f08c379a000000000000000000000000000000000000000000000000000000000815260040161204690613652565b60405180910390fd5b6120598383612894565b6120638186612aba565b60016000600201541480156120785750600184145b156120825761226f565b6000831415612110578460006005016000848152602001908152602001600020600001600201541180156120b95750816000800154145b6120f8576040517f08c379a00000000000000000000000000000000000000000000000000000000081526004016120ef906136d2565b60405180910390fd5b8360006001018190555081816004018190555061226e565b600082141561219e57846000600501600085815260200190815260200160002060000160020154108015612148575082600060010154145b612187576040517f08c379a000000000000000000000000000000000000000000000000000000000815260040161217e906136d2565b60405180910390fd5b83600080018190555082816003018190555061226d565b846000600501600085815260200190815260200160002060000160020154106121fc576040517f08c379a00000000000000000000000000000000000000000000000000000000081526004016121f3906136d2565b60405180910390fd5b8460006005016000848152602001908152602001600020600001600201541161225a576040517f08c379a0000000000000000000000000000000000000000000000000000000008152600401612251906136d2565b60405180910390fd5b8281600301819055508181600401819055505b5b5b8481600001600201819055505050505050565b600061228e8383612894565b612296612c6c565b600080600201541480156122aa5750600084145b80156122b65750600083145b156122f457600160006001018190555060016000800181905550604051806060016040528086815260200160008152602001600081525090506125ba565b60008414156123c35784604001516000600501600085815260200190815260200160002060000160020154118015612330575082600060010154145b61236f576040517f08c379a0000000000000000000000000000000000000000000000000000000008152600401612366906136d2565b60405180910390fd5b600060030154600060050160008581526020019081526020016000206003018190555060006003015460006001018190555060405180606001604052808681526020018581526020018481525090506125b9565b600083141561249057846040015160006005016000868152602001908152602001600020600001600201541080156123fe5750836000800154145b61243d576040517f08c379a0000000000000000000000000000000000000000000000000000000008152600401612434906136d2565b60405180910390fd5b6000600301546000600501600086815260200190815260200160002060040181905550600060030154600080018190555060405180606001604052808681526020018581526020018481525090506125b8565b84604001516000600501600086815260200190815260200160002060000160020154106124f2576040517f08c379a00000000000000000000000000000000000000000000000000000000081526004016124e9906136d2565b60405180910390fd5b8460400151600060050160008581526020019081526020016000206000016002015411612554576040517f08c379a000000000000000000000000000000000000000000000000000000000815260040161254b906136d2565b60405180910390fd5b6040518060600160405280868152602001858152602001848152509050600060030154600060050160008681526020019081526020016000206004018190555060006003015460006005016000858152602001908152602001600020600301819055505b5b5b600060020160008154809291906125d090613bda565b9190505550806000600501600080600301548152602001908152602001600020600082015181600001600082015181600001556020820151816001015560408201518160020155505060208201518160030155604082015181600401559050506000600301600081548092919061264690613bda565b9190505550600160006003015461265d9190613acc565b9150509392505050565b60008034116126ab576040517f08c379a00000000000000000000000000000000000000000000000000000000081526004016126a290613812565b60405180910390fd5b600061271061ffff16600c54346126c29190613a72565b6126cc9190613a41565b9050600081346126dc9190613acc565b90506000600b54826126ee9190613a41565b9050600a546009546127009190613acc565b811115612742576040517f08c379a000000000000000000000000000000000000000000000000000000000815260040161273990613692565b60405180910390fd5b61274c3382612bf9565b80935050505090565b600080600090505b600080600501600083815260200190815260200160002060040154141580156127a2575082600060050160008381526020019081526020016000206000016000015414155b156127ba5780806127b290613bda565b91505061275d565b82600060050160008381526020019081526020016000206000016000015414612818576040517f08c379a000000000000000000000000000000000000000000000000000000000815260040161280f90613572565b60405180910390fd5b80915050919050565b80601260008473ffffffffffffffffffffffffffffffffffffffff1673ffffffffffffffffffffffffffffffffffffffff16815260200190815260200160002060008282546128709190613acc565b9250508190555080600a60008282546128899190613acc565b925050819055505050565b80821415806128a7575060008060020154145b6128e6576040517f08c379a00000000000000000000000000000000000000000000000000000000081526004016128dd906136f2565b60405180910390fd5b600080600201541480156128fa5750600082145b80156129065750600081145b1561291057612ab6565b60008214158015612922575060008114155b801561292e5750808214155b156129ac5760006005016000828152602001908152602001600020600301546000600501600084815260200190815260200160002060040154146129a7576040517f08c379a000000000000000000000000000000000000000000000000000000000815260040161299e90613552565b60405180910390fd5b612ab5565b600082141580156129bd5750600081145b15612a32576000806005016000848152602001908152602001600020600301541480156129ee575081600060010154145b612a2d576040517f08c379a0000000000000000000000000000000000000000000000000000000008152600401612a2490613612565b60405180910390fd5b612ab4565b600082148015612a43575060008114155b15612ab357600080600501600083815260200190815260200160002060040154148015612a735750806000800154145b612ab2576040517f08c379a0000000000000000000000000000000000000000000000000000000008152600401612aa990613672565b60405180910390fd5b5b5b5b5b5050565b60016000600201541415612acd57612bf5565b60008260030154148015612b00575060006005016000836004015481526020019081526020016000206000016002015481115b15612b3a57600080600501600084600401548152602001908152602001600020600301819055508160040154600060010181905550612bf4565b60008260040154148015612b6d575060006005016000836003015481526020019081526020016000206000016002015481105b15612ba6576000806005016000846003015481526020019081526020016000206004018190555081600301546000800181905550612bf3565b816004015460006005016000846003015481526020019081526020016000206004018190555081600301546000600501600084600401548152602001908152602001600020600301819055505b5b5b5050565b80601260008473ffffffffffffffffffffffffffffffffffffffff1673ffffffffffffffffffffffffffffffffffffffff1681526020019081526020016000206000828254612c4891906139eb565b9250508190555080600a6000828254612c6191906139eb565b925050819055505050565b6040518060600160405280612c7f612c93565b815260200160008152602001600081525090565b60405180606001604052806000815260200160008152602001600081525090565b600081359050612cc381614357565b92915050565b600081359050612cd88161436e565b92915050565b600081519050612ced8161436e565b92915050565b600060208284031215612d0557600080fd5b6000612d1384828501612cb4565b91505092915050565b60008060408385031215612d2f57600080fd5b6000612d3d85828601612cb4565b9250506020612d4e85828601612cb4565b9150509250929050565b600080600060608486031215612d6d57600080fd5b6000612d7b86828701612cb4565b9350506020612d8c86828701612cb4565b9250506040612d9d86828701612cc9565b9150509250925092565b60008060408385031215612dba57600080fd5b6000612dc885828601612cb4565b9250506020612dd985828601612cc9565b9150509250929050565b600060208284031215612df557600080fd5b6000612e0384828501612cc9565b91505092915050565b600060208284031215612e1e57600080fd5b6000612e2c84828501612cde565b91505092915050565b600080600060608486031215612e4a57600080fd5b6000612e5886828701612cc9565b9350506020612e6986828701612cc9565b9250506040612e7a86828701612cc9565b9150509250925092565b60008060008060808587031215612e9a57600080fd5b6000612ea887828801612cc9565b9450506020612eb987828801612cc9565b9350506040612eca87828801612cc9565b9250506060612edb87828801612cc9565b91505092959194509250565b6000612ef383836133dd565b60a08301905092915050565b612f0881613b12565b82525050565b612f1781613b00565b82525050565b6000612f28826139a6565b612f3281856139c9565b9350612f3d83613996565b8060005b83811015612f6e578151612f558882612ee7565b9750612f60836139bc565b925050600181019050612f41565b5085935050505092915050565b612f8481613b24565b82525050565b6000612f95826139b1565b612f9f81856139da565b9350612faf818560208601613b75565b612fb881613cb0565b840191505092915050565b6000612fd06021836139da565b9150612fdb82613cc1565b604082019050919050565b6000612ff36020836139da565b9150612ffe82613d10565b602082019050919050565b60006130166024836139da565b915061302182613d39565b604082019050919050565b6000613039601a836139da565b915061304482613d88565b602082019050919050565b600061305c6013836139da565b915061306782613db1565b602082019050919050565b600061307f601f836139da565b915061308a82613dda565b602082019050919050565b60006130a26021836139da565b91506130ad82613e03565b604082019050919050565b60006130c56028836139da565b91506130d082613e52565b604082019050919050565b60006130e86023836139da565b91506130f382613ea1565b604082019050919050565b600061310b6011836139da565b915061311682613ef0565b602082019050919050565b600061312e6027836139da565b915061313982613f19565b604082019050919050565b60006131516020836139da565b915061315c82613f68565b602082019050919050565b60006131746019836139da565b915061317f82613f91565b602082019050919050565b6000613197602b836139da565b91506131a282613fba565b604082019050919050565b60006131ba6017836139da565b91506131c582614009565b602082019050919050565b60006131dd6022836139da565b91506131e882614032565b604082019050919050565b60006132006016836139da565b915061320b82614081565b602082019050919050565b60006132236027836139da565b915061322e826140aa565b604082019050919050565b60006132466010836139da565b9150613251826140f9565b602082019050919050565b60006132696029836139da565b915061327482614122565b604082019050919050565b600061328c6021836139da565b915061329782614171565b604082019050919050565b60006132af601f836139da565b91506132ba826141c0565b602082019050919050565b60006132d26012836139da565b91506132dd826141e9565b602082019050919050565b60006132f5601e836139da565b915061330082614212565b602082019050919050565b60006133186018836139da565b91506133238261423b565b602082019050919050565b600061333b6026836139da565b915061334682614264565b604082019050919050565b600061335e6019836139da565b9150613369826142b3565b602082019050919050565b6000613381601e836139da565b915061338c826142dc565b602082019050919050565b60006133a46011836139da565b91506133af82614305565b602082019050919050565b60006133c76013836139da565b91506133d28261432e565b602082019050919050565b60a0820160008201516133f3600085018261341f565b5060208201516134066060850182613470565b5060408201516134196080850182613470565b50505050565b6060820160008201516134356000850182613470565b5060208201516134486020850182613470565b50604082015161345b6040850182613470565b50505050565b61346a81613b30565b82525050565b61347981613b5e565b82525050565b61348881613b5e565b82525050565b61349781613b68565b82525050565b60006020820190506134b26000830184612f0e565b92915050565b60006020820190506134cd6000830184612eff565b92915050565b600060208201905081810360008301526134ed8184612f1d565b905092915050565b600060208201905061350a6000830184612f7b565b92915050565b6000602082019050818103600083015261352a8184612f8a565b905092915050565b6000602082019050818103600083015261354b81612fc3565b9050919050565b6000602082019050818103600083015261356b81612fe6565b9050919050565b6000602082019050818103600083015261358b81613009565b9050919050565b600060208201905081810360008301526135ab8161302c565b9050919050565b600060208201905081810360008301526135cb8161304f565b9050919050565b600060208201905081810360008301526135eb81613072565b9050919050565b6000602082019050818103600083015261360b81613095565b9050919050565b6000602082019050818103600083015261362b816130b8565b9050919050565b6000602082019050818103600083015261364b816130db565b9050919050565b6000602082019050818103600083015261366b816130fe565b9050919050565b6000602082019050818103600083015261368b81613121565b9050919050565b600060208201905081810360008301526136ab81613144565b9050919050565b600060208201905081810360008301526136cb81613167565b9050919050565b600060208201905081810360008301526136eb8161318a565b9050919050565b6000602082019050818103600083015261370b816131ad565b9050919050565b6000602082019050818103600083015261372b816131d0565b9050919050565b6000602082019050818103600083015261374b816131f3565b9050919050565b6000602082019050818103600083015261376b81613216565b9050919050565b6000602082019050818103600083015261378b81613239565b9050919050565b600060208201905081810360008301526137ab8161325c565b9050919050565b600060208201905081810360008301526137cb8161327f565b9050919050565b600060208201905081810360008301526137eb816132a2565b9050919050565b6000602082019050818103600083015261380b816132c5565b9050919050565b6000602082019050818103600083015261382b816132e8565b9050919050565b6000602082019050818103600083015261384b8161330b565b9050919050565b6000602082019050818103600083015261386b8161332e565b9050919050565b6000602082019050818103600083015261388b81613351565b9050919050565b600060208201905081810360008301526138ab81613374565b9050919050565b600060208201905081810360008301526138cb81613397565b9050919050565b600060208201905081810360008301526138eb816133ba565b9050919050565b60006020820190506139076000830184613461565b92915050565b6000602082019050613922600083018461347f565b92915050565b600060a08201905061393d600083018861347f565b61394a602083018761347f565b613957604083018661347f565b613964606083018561347f565b613971608083018461347f565b9695505050505050565b6000602082019050613990600083018461348e565b92915050565b6000819050602082019050919050565b600081519050919050565b600081519050919050565b6000602082019050919050565b600082825260208201905092915050565b600082825260208201905092915050565b60006139f682613b5e565b9150613a0183613b5e565b9250827fffffffffffffffffffffffffffffffffffffffffffffffffffffffffffffffff03821115613a3657613a35613c23565b5b828201905092915050565b6000613a4c82613b5e565b9150613a5783613b5e565b925082613a6757613a66613c52565b5b828204905092915050565b6000613a7d82613b5e565b9150613a8883613b5e565b9250817fffffffffffffffffffffffffffffffffffffffffffffffffffffffffffffffff0483118215151615613ac157613ac0613c23565b5b828202905092915050565b6000613ad782613b5e565b9150613ae283613b5e565b925082821015613af557613af4613c23565b5b828203905092915050565b6000613b0b82613b3e565b9050919050565b6000613b1d82613b3e565b9050919050565b60008115159050919050565b600061ffff82169050919050565b600073ffffffffffffffffffffffffffffffffffffffff82169050919050565b6000819050919050565b600060ff82169050919050565b60005b83811015613b93578082015181840152602081019050613b78565b83811115613ba2576000848401525b50505050565b60006002820490506001821680613bc057607f821691505b60208210811415613bd457613bd3613c81565b5b50919050565b6000613be582613b5e565b91507fffffffffffffffffffffffffffffffffffffffffffffffffffffffffffffffff821415613c1857613c17613c23565b5b600182019050919050565b7f4e487b7100000000000000000000000000000000000000000000000000000000600052601160045260246000fd5b7f4e487b7100000000000000000000000000000000000000000000000000000000600052601260045260246000fd5b7f4e487b7100000000000000000000000000000000000000000000000000000000600052602260045260246000fd5b6000601f19601f8301169050919050565b7f43616e6e6f74207472616e736665722066726f6d207a65726f2061646472657360008201527f7300000000000000000000000000000000000000000000000000000000000000602082015250565b7f4e65787420616e64207072657620696e646578206e6f742072656c6174656421600082015250565b7f50726f706f736564207072696365206973206e6f7420657869737420696e206c60008201527f6973742100000000000000000000000000000000000000000000000000000000602082015250565b7f5573652073656c6c20696620796f75206e6f7420766f74656421000000000000600082015250565b7f43616c6c6572206973206e6f74206f776e657200000000000000000000000000600082015250565b7f5072657669757320766f74696e67206973206e6f74206f766572207965742100600082015250565b7f5472616e7366657220616d6f756e74206578636565647320616c6c6f77616e6360008201527f6500000000000000000000000000000000000000000000000000000000000000602082015250565b7f43616e742062652068656164206265636f7573652063757272656e742068656160008201527f6420686967686572000000000000000000000000000000000000000000000000602082015250565b7f55736520766f74657253656c6c20696620796f7520616c726561647920766f7460008201527f6564210000000000000000000000000000000000000000000000000000000000602082015250565b7f4e6f6465206973206e6f742076616c6964000000000000000000000000000000600082015250565b7f43616e74206265207461696c206265636f7573652063757272656e742074616960008201527f6c206c6f77657200000000000000000000000000000000000000000000000000602082015250565b7f4d617820737570706c79206f6620746f6b656e7320697320746f75636865642e600082015250565b7f5573652062757920696620796f75206e6f7420766f7465642100000000000000600082015250565b7f4e657874206e6f6465206c657373207468616e206e6f646520796f752074727960008201527f696e6720746f2061646421000000000000000000000000000000000000000000602082015250565b7f5072657620616e64206e6578742061726520657175616c000000000000000000600082015250565b7f55736520766f74657242757920696620796f7520616c726561647920766f746560008201527f6421000000000000000000000000000000000000000000000000000000000000602082015250565b7f566f74696e67206973206e6f74206f7665722079657400000000000000000000600082015250565b7f55736520766f7465725472616e7366657220696620796f7520616c726561647960008201527f20766f7465642100000000000000000000000000000000000000000000000000602082015250565b7f57726f6e67206e6f646520696e64657800000000000000000000000000000000600082015250565b7f436f6e747261637420646f65736e2774206861766520656e6f7567682065746860008201527f657220746f207061790000000000000000000000000000000000000000000000602082015250565b7f596f7520617265206e6f7420766f746572206f6620637572726e657420766f7460008201527f6500000000000000000000000000000000000000000000000000000000000000602082015250565b7f43616e6e6f74207472616e7366657220746f207a65726f206164647265737300600082015250565b7f596f7520616c726561647920766f746564210000000000000000000000000000600082015250565b7f53656e6420736f6d6520657468657220746f2062757920746f6b656e732e0000600082015250565b7f596f7520617265206e6f7420696e2074686973206e6f64650000000000000000600082015250565b7f4e6f7420656e6f75676820746f6b656e7320666f72207374617274696e67206160008201527f20766f7465210000000000000000000000000000000000000000000000000000602082015250565b7f4e6f7420656e6f75676820746f6b656e7320746f20766f746500000000000000600082015250565b7f596f752063616e27742073657420666565206f662077686f6c652073756d0000600082015250565b7f4e6f7420656e6f75676820746f6b656e73000000000000000000000000000000600082015250565b7f566f74696e672074696d65206973206f76657200000000000000000000000000600082015250565b61436081613b00565b811461436b57600080fd5b50565b61437781613b5e565b811461438257600080fd5b5056fea2646970667358221220d61738269a6a490d0589c7ec27931fcbd74eed88695b71d6a205b02cf2a1b34864736f6c63430008040033",
  "linkReferences": {},
  "deployedLinkReferences": {}
}