{
  "_format": "hh-sol-artifact-1",
  "contractName": "VotableERC20",
  "sourceName": "contracts/VotableERC20.sol",
  "abi": [
    {
      "inputs": [
        {
          "internalType": "string",
          "name": "_name",
          "type": "string"
        },
        {
          "internalType": "string",
          "name": "_symbol",
          "type": "string"
        },
        {
          "internalType": "uint256",
          "name": "_tokenPrice",
          "type": "uint256"
        },
        {
          "internalType": "uint256",
          "name": "_maxTokenSupply",
          "type": "uint256"
        },
        {
          "internalType": "uint256",
          "name": "_timeToVote",
          "type": "uint256"
        },
        {
          "internalType": "uint256",
          "name": "_feePercent",
          "type": "uint256"
        }
      ],
      "stateMutability": "nonpayable",
      "type": "constructor"
    },
    {
      "anonymous": false,
      "inputs": [
        {
          "indexed": true,
          "internalType": "address",
          "name": "owner",
          "type": "address"
        },
        {
          "indexed": true,
          "internalType": "address",
          "name": "spender",
          "type": "address"
        },
        {
          "indexed": false,
          "internalType": "uint256",
          "name": "value",
          "type": "uint256"
        }
      ],
      "name": "Approval",
      "type": "event"
    },
    {
      "anonymous": false,
      "inputs": [
        {
          "indexed": false,
          "internalType": "uint256",
          "name": "nodeIndex",
          "type": "uint256"
        },
        {
          "indexed": false,
          "internalType": "uint256",
          "name": "prev",
          "type": "uint256"
        },
        {
          "indexed": false,
          "internalType": "uint256",
          "name": "next",
          "type": "uint256"
        },
        {
          "indexed": false,
          "internalType": "uint256",
          "name": "votePrice",
          "type": "uint256"
        },
        {
          "indexed": false,
          "internalType": "uint256",
          "name": "votesTotal",
          "type": "uint256"
        }
      ],
      "name": "NodeInsert",
      "type": "event"
    },
    {
      "anonymous": false,
      "inputs": [
        {
          "indexed": false,
          "internalType": "uint256",
          "name": "nodeIndex",
          "type": "uint256"
        },
        {
          "indexed": false,
          "internalType": "uint256",
          "name": "newPrev",
          "type": "uint256"
        },
        {
          "indexed": false,
          "internalType": "uint256",
          "name": "newNext",
          "type": "uint256"
        },
        {
          "indexed": false,
          "internalType": "uint256",
          "name": "newVotesTotal",
          "type": "uint256"
        }
      ],
      "name": "NodeMoved",
      "type": "event"
    },
    {
      "anonymous": false,
      "inputs": [
        {
          "indexed": false,
          "internalType": "uint256",
          "name": "newPrice",
          "type": "uint256"
        }
      ],
      "name": "PriceChanged",
      "type": "event"
    },
    {
      "anonymous": false,
      "inputs": [
        {
          "indexed": true,
          "internalType": "address",
          "name": "from",
          "type": "address"
        },
        {
          "indexed": true,
          "internalType": "address",
          "name": "to",
          "type": "address"
        },
        {
          "indexed": false,
          "internalType": "uint256",
          "name": "value",
          "type": "uint256"
        }
      ],
      "name": "Transfer",
      "type": "event"
    },
    {
      "anonymous": false,
      "inputs": [
        {
          "indexed": false,
          "internalType": "uint256",
          "name": "endTime",
          "type": "uint256"
        }
      ],
      "name": "VoteStarted",
      "type": "event"
    },
    {
      "anonymous": false,
      "inputs": [
        {
          "indexed": true,
          "internalType": "address",
          "name": "voter",
          "type": "address"
        },
        {
          "indexed": false,
          "internalType": "uint256",
          "name": "proposedPrice",
          "type": "uint256"
        }
      ],
      "name": "Voted",
      "type": "event"
    },
    {
      "inputs": [
        {
          "internalType": "uint256",
          "name": "_proposedPrice",
          "type": "uint256"
        },
        {
          "internalType": "uint256",
          "name": "_prevIndex",
          "type": "uint256"
        },
        {
          "internalType": "uint256",
          "name": "_nextIndex",
          "type": "uint256"
        }
      ],
      "name": "addVotePrice",
      "outputs": [],
      "stateMutability": "nonpayable",
      "type": "function"
    },
    {
      "inputs": [
        {
          "internalType": "address",
          "name": "_owner",
          "type": "address"
        },
        {
          "internalType": "address",
          "name": "_spender",
          "type": "address"
        }
      ],
      "name": "allowance",
      "outputs": [
        {
          "internalType": "uint256",
          "name": "",
          "type": "uint256"
        }
      ],
      "stateMutability": "view",
      "type": "function"
    },
    {
      "inputs": [
        {
          "internalType": "address",
          "name": "_spender",
          "type": "address"
        },
        {
          "internalType": "uint256",
          "name": "_amount",
          "type": "uint256"
        }
      ],
      "name": "approve",
      "outputs": [
        {
          "internalType": "bool",
          "name": "",
          "type": "bool"
        }
      ],
      "stateMutability": "nonpayable",
      "type": "function"
    },
    {
      "inputs": [
        {
          "internalType": "address",
          "name": "_account",
          "type": "address"
        }
      ],
      "name": "balanceOf",
      "outputs": [
        {
          "internalType": "uint256",
          "name": "",
          "type": "uint256"
        }
      ],
      "stateMutability": "view",
      "type": "function"
    },
    {
      "inputs": [],
      "name": "buy",
      "outputs": [],
      "stateMutability": "payable",
      "type": "function"
    },
    {
      "inputs": [],
      "name": "data",
      "outputs": [
        {
          "internalType": "uint256",
          "name": "head",
          "type": "uint256"
        },
        {
          "internalType": "uint256",
          "name": "tail",
          "type": "uint256"
        },
        {
          "internalType": "uint256",
          "name": "size",
          "type": "uint256"
        },
        {
          "internalType": "uint256",
          "name": "indexToUse",
          "type": "uint256"
        },
        {
          "internalType": "uint256",
          "name": "currentVoteId",
          "type": "uint256"
        }
      ],
      "stateMutability": "view",
      "type": "function"
    },
    {
      "inputs": [],
      "name": "decimals",
      "outputs": [
        {
          "internalType": "uint8",
          "name": "",
          "type": "uint8"
        }
      ],
      "stateMutability": "view",
      "type": "function"
    },
    {
      "inputs": [],
      "name": "endVote",
      "outputs": [],
      "stateMutability": "nonpayable",
      "type": "function"
    },
    {
      "inputs": [],
      "name": "feeDecimals",
      "outputs": [
        {
          "internalType": "uint16",
          "name": "",
          "type": "uint16"
        }
      ],
      "stateMutability": "view",
      "type": "function"
    },
    {
      "inputs": [],
      "name": "feePercent",
      "outputs": [
        {
          "internalType": "uint256",
          "name": "",
          "type": "uint256"
        }
      ],
      "stateMutability": "view",
      "type": "function"
    },
    {
      "inputs": [
        {
          "internalType": "address",
          "name": "_voter",
          "type": "address"
        }
      ],
      "name": "isVoterOfCurrentVotes",
      "outputs": [
        {
          "internalType": "bool",
          "name": "",
          "type": "bool"
        }
      ],
      "stateMutability": "view",
      "type": "function"
    },
    {
      "inputs": [],
      "name": "isVoting",
      "outputs": [
        {
          "internalType": "bool",
          "name": "",
          "type": "bool"
        }
      ],
      "stateMutability": "view",
      "type": "function"
    },
    {
      "inputs": [],
      "name": "maxTokenSupply",
      "outputs": [
        {
          "internalType": "uint256",
          "name": "",
          "type": "uint256"
        }
      ],
      "stateMutability": "view",
      "type": "function"
    },
    {
      "inputs": [],
      "name": "minTokenAmountForAddVotePrice",
      "outputs": [
        {
          "internalType": "uint256",
          "name": "",
          "type": "uint256"
        }
      ],
      "stateMutability": "view",
      "type": "function"
    },
    {
      "inputs": [],
      "name": "minTokenAmountForVoting",
      "outputs": [
        {
          "internalType": "uint256",
          "name": "",
          "type": "uint256"
        }
      ],
      "stateMutability": "view",
      "type": "function"
    },
    {
      "inputs": [],
      "name": "name",
      "outputs": [
        {
          "internalType": "string",
          "name": "",
          "type": "string"
        }
      ],
      "stateMutability": "view",
      "type": "function"
    },
    {
      "inputs": [],
      "name": "owner",
      "outputs": [
        {
          "internalType": "address payable",
          "name": "",
          "type": "address"
        }
      ],
      "stateMutability": "view",
      "type": "function"
    },
    {
      "inputs": [
        {
          "internalType": "uint256",
          "name": "_tokensToSell",
          "type": "uint256"
        }
      ],
      "name": "sell",
      "outputs": [],
      "stateMutability": "payable",
      "type": "function"
    },
    {
      "inputs": [
        {
          "internalType": "uint256",
          "name": "_newFeePercent",
          "type": "uint256"
        }
      ],
      "name": "setFeePercent",
      "outputs": [],
      "stateMutability": "nonpayable",
      "type": "function"
    },
    {
      "inputs": [],
      "name": "startVote",
      "outputs": [],
      "stateMutability": "nonpayable",
      "type": "function"
    },
    {
      "inputs": [],
      "name": "symbol",
      "outputs": [
        {
          "internalType": "string",
          "name": "",
          "type": "string"
        }
      ],
      "stateMutability": "view",
      "type": "function"
    },
    {
      "inputs": [],
      "name": "timeToVote",
      "outputs": [
        {
          "internalType": "uint256",
          "name": "",
          "type": "uint256"
        }
      ],
      "stateMutability": "view",
      "type": "function"
    },
    {
      "inputs": [],
      "name": "tokenPrice",
      "outputs": [
        {
          "internalType": "uint256",
          "name": "",
          "type": "uint256"
        }
      ],
      "stateMutability": "view",
      "type": "function"
    },
    {
      "inputs": [
        {
          "internalType": "uint256",
          "name": "_price",
          "type": "uint256"
        }
      ],
      "name": "totalOfPrice",
      "outputs": [
        {
          "internalType": "uint256",
          "name": "",
          "type": "uint256"
        }
      ],
      "stateMutability": "view",
      "type": "function"
    },
    {
      "inputs": [],
      "name": "totalSupply",
      "outputs": [
        {
          "internalType": "uint256",
          "name": "",
          "type": "uint256"
        }
      ],
      "stateMutability": "view",
      "type": "function"
    },
    {
      "inputs": [],
      "name": "totalTokenSupply",
      "outputs": [
        {
          "internalType": "uint256",
          "name": "",
          "type": "uint256"
        }
      ],
      "stateMutability": "view",
      "type": "function"
    },
    {
      "inputs": [
        {
          "internalType": "address",
          "name": "_to",
          "type": "address"
        },
        {
          "internalType": "uint256",
          "name": "_amount",
          "type": "uint256"
        }
      ],
      "name": "transfer",
      "outputs": [
        {
          "internalType": "bool",
          "name": "",
          "type": "bool"
        }
      ],
      "stateMutability": "nonpayable",
      "type": "function"
    },
    {
      "inputs": [
        {
          "internalType": "address",
          "name": "_from",
          "type": "address"
        },
        {
          "internalType": "address",
          "name": "_to",
          "type": "address"
        },
        {
          "internalType": "uint256",
          "name": "_amount",
          "type": "uint256"
        }
      ],
      "name": "transferFrom",
      "outputs": [
        {
          "internalType": "bool",
          "name": "",
          "type": "bool"
        }
      ],
      "stateMutability": "nonpayable",
      "type": "function"
    },
    {
      "inputs": [
        {
          "internalType": "uint256",
          "name": "_proposedPrice",
          "type": "uint256"
        },
        {
          "internalType": "uint256",
          "name": "_nodeIndex",
          "type": "uint256"
        },
        {
          "internalType": "uint256",
          "name": "_prevIndex",
          "type": "uint256"
        },
        {
          "internalType": "uint256",
          "name": "_nextIndex",
          "type": "uint256"
        }
      ],
      "name": "vote",
      "outputs": [],
      "stateMutability": "nonpayable",
      "type": "function"
    },
    {
      "inputs": [],
      "name": "voteCountdown",
      "outputs": [
        {
          "internalType": "uint256",
          "name": "",
          "type": "uint256"
        }
      ],
      "stateMutability": "view",
      "type": "function"
    },
    {
      "inputs": [],
      "name": "voteNodes",
      "outputs": [
        {
          "components": [
            {
              "components": [
                {
                  "internalType": "uint256",
                  "name": "proposedPrice",
                  "type": "uint256"
                },
                {
                  "internalType": "uint256",
                  "name": "voteId",
                  "type": "uint256"
                },
                {
                  "internalType": "uint256",
                  "name": "votesTotal",
                  "type": "uint256"
                }
              ],
              "internalType": "struct VotableERC20.VoteProposedPrice",
              "name": "voteProposedPrice",
              "type": "tuple"
            },
            {
              "internalType": "uint256",
              "name": "prev",
              "type": "uint256"
            },
            {
              "internalType": "uint256",
              "name": "next",
              "type": "uint256"
            }
          ],
          "internalType": "struct VotableERC20.Node[]",
          "name": "",
          "type": "tuple[]"
        }
      ],
      "stateMutability": "view",
      "type": "function"
    },
    {
      "inputs": [
        {
          "internalType": "uint256",
          "name": "_nodeIndex",
          "type": "uint256"
        },
        {
          "internalType": "uint256",
          "name": "_prevIndex",
          "type": "uint256"
        },
        {
          "internalType": "uint256",
          "name": "_nextIndex",
          "type": "uint256"
        }
      ],
      "name": "voterBuy",
      "outputs": [],
      "stateMutability": "payable",
      "type": "function"
    },
    {
      "inputs": [
        {
          "internalType": "uint256",
          "name": "_tokensToSell",
          "type": "uint256"
        },
        {
          "internalType": "uint256",
          "name": "_nodeIndex",
          "type": "uint256"
        },
        {
          "internalType": "uint256",
          "name": "_prevIndex",
          "type": "uint256"
        },
        {
          "internalType": "uint256",
          "name": "_nextIndex",
          "type": "uint256"
        }
      ],
      "name": "voterSell",
      "outputs": [],
      "stateMutability": "payable",
      "type": "function"
    }
  ],
  "bytecode": "0x60806040526000600860006101000a81548160ff021916908315150217905550601260016200002f91906200044d565b600e553480156200003f57600080fd5b5060405162004e6938038062004e69833981810160405281019062000065919062000293565b85600690805190602001906200007d9291906200015a565b508460079080519060200190620000969291906200015a565b5083600b819055508260098190555033600d60006101000a81548173ffffffffffffffffffffffffffffffffffffffff021916908373ffffffffffffffffffffffffffffffffffffffff1602179055508160108190555061271060056009546200010191906200058a565b6200010d9190620003ba565b600f8190555080600c819055506000806000018190555060008060010181905550600080600201819055506001600060030181905550600160006004018190555050505050505062000798565b828054620001689062000638565b90600052602060002090601f0160209004810192826200018c5760008555620001d8565b82601f10620001a757805160ff1916838001178555620001d8565b82800160010185558215620001d8579182015b82811115620001d7578251825591602001919060010190620001ba565b5b509050620001e79190620001eb565b5090565b5b8082111562000206576000816000905550600101620001ec565b5090565b6000620002216200021b8462000384565b6200035b565b9050828152602081018484840111156200023a57600080fd5b6200024784828562000602565b509392505050565b600082601f8301126200026157600080fd5b8151620002738482602086016200020a565b91505092915050565b6000815190506200028d816200077e565b92915050565b60008060008060008060c08789031215620002ad57600080fd5b600087015167ffffffffffffffff811115620002c857600080fd5b620002d689828a016200024f565b965050602087015167ffffffffffffffff811115620002f457600080fd5b6200030289828a016200024f565b95505060406200031589828a016200027c565b94505060606200032889828a016200027c565b93505060806200033b89828a016200027c565b92505060a06200034e89828a016200027c565b9150509295509295509295565b6000620003676200037a565b90506200037582826200066e565b919050565b6000604051905090565b600067ffffffffffffffff821115620003a257620003a162000731565b5b620003ad8262000760565b9050602081019050919050565b6000620003c782620005eb565b9150620003d483620005eb565b925082620003e757620003e6620006d3565b5b828204905092915050565b6000808291508390505b600185111562000444578086048111156200041c576200041b620006a4565b5b60018516156200042c5780820291505b80810290506200043c8562000771565b9450620003fc565b94509492505050565b60006200045a82620005eb565b91506200046783620005f5565b9250620004967fffffffffffffffffffffffffffffffffffffffffffffffffffffffffffffffff84846200049e565b905092915050565b600082620004b0576001905062000583565b81620004c0576000905062000583565b8160018114620004d95760028114620004e4576200051a565b600191505062000583565b60ff841115620004f957620004f8620006a4565b5b8360020a915084821115620005135762000512620006a4565b5b5062000583565b5060208310610133831016604e8410600b8410161715620005545782820a9050838111156200054e576200054d620006a4565b5b62000583565b620005638484846001620003f2565b925090508184048111156200057d576200057c620006a4565b5b81810290505b9392505050565b60006200059782620005eb565b9150620005a483620005eb565b9250817fffffffffffffffffffffffffffffffffffffffffffffffffffffffffffffffff0483118215151615620005e057620005df620006a4565b5b828202905092915050565b6000819050919050565b600060ff82169050919050565b60005b838110156200062257808201518184015260208101905062000605565b8381111562000632576000848401525b50505050565b600060028204905060018216806200065157607f821691505b6020821081141562000668576200066762000702565b5b50919050565b620006798262000760565b810181811067ffffffffffffffff821117156200069b576200069a62000731565b5b80604052505050565b7f4e487b7100000000000000000000000000000000000000000000000000000000600052601160045260246000fd5b7f4e487b7100000000000000000000000000000000000000000000000000000000600052601260045260246000fd5b7f4e487b7100000000000000000000000000000000000000000000000000000000600052602260045260246000fd5b7f4e487b7100000000000000000000000000000000000000000000000000000000600052604160045260246000fd5b6000601f19601f8301169050919050565b60008160011c9050919050565b6200078981620005eb565b81146200079557600080fd5b50565b6146c180620007a86000396000f3fe6080604052600436106101ee5760003560e01c806373d4a13a1161010d578063a6f2ae3a116100a0578063c0873ef51161006f578063c0873ef514610698578063c745907a146106c3578063cc0f178614610700578063dd62ed3e1461072b578063e4849b3214610768576101ee565b8063a6f2ae3a1461060f578063a9059cbb14610619578063ace682ba14610656578063b922394614610681576101ee565b806388edb929116100dc57806388edb929146105635780638da5cb5b1461058e578063945837e2146105b957806395d89b41146105e4576101ee565b806373d4a13a146104b55780637ce3489b146104e45780637fd6f15c1461050d5780637ff9b59614610538576101ee565b8063313ce5671161018557806350c911bd1161015457806350c911bd1461040857806350f7c2041461042457806368c9e3881461044f57806370a0823114610478576101ee565b8063313ce5671461037257806336b077681461039d5780634693d70b146103c65780634c0a6af0146103f1576101ee565b80631bbef399116101c15780631bbef399146102c35780631ca8b6cb146102ee57806323b872dd1461031957806329d7852714610356576101ee565b806306fdde03146101f3578063095ea7b31461021e57806316fd86b71461025b57806318160ddd14610298575b600080fd5b3480156101ff57600080fd5b50610208610784565b60405161021591906137d1565b60405180910390f35b34801561022a57600080fd5b5061024560048036038101906102409190613068565b610812565b60405161025291906137b6565b60405180910390f35b34801561026757600080fd5b50610282600480360381019061027d9190612fb4565b610904565b60405161028f91906137b6565b60405180910390f35b3480156102a457600080fd5b506102ad610956565b6040516102ba9190613bce565b60405180910390f35b3480156102cf57600080fd5b506102d8610960565b6040516102e591906137b6565b60405180910390f35b3480156102fa57600080fd5b50610303610973565b6040516103109190613bce565b60405180910390f35b34801561032557600080fd5b50610340600480360381019061033b9190613019565b610979565b60405161034d91906137b6565b60405180910390f35b610370600480360381019061036b9190613145565b610b2b565b005b34801561037e57600080fd5b50610387610cc8565b6040516103949190613c81565b60405180910390f35b3480156103a957600080fd5b506103c460048036038101906103bf91906130f6565b610ccd565b005b3480156103d257600080fd5b506103db610f61565b6040516103e89190613bce565b60405180910390f35b3480156103fd57600080fd5b50610406610f67565b005b610422600480360381019061041d91906130f6565b6110c0565b005b34801561043057600080fd5b50610439611260565b6040516104469190613bce565b60405180910390f35b34801561045b57600080fd5b5061047660048036038101906104719190613145565b611266565b005b34801561048457600080fd5b5061049f600480360381019061049a9190612fb4565b611589565b6040516104ac9190613bce565b60405180910390f35b3480156104c157600080fd5b506104ca6115d2565b6040516104db959493929190613c2e565b60405180910390f35b3480156104f057600080fd5b5061050b600480360381019061050691906130a4565b6115f6565b005b34801561051957600080fd5b506105226116d8565b60405161052f9190613bce565b60405180910390f35b34801561054457600080fd5b5061054d6116de565b60405161055a9190613bce565b60405180910390f35b34801561056f57600080fd5b506105786116e4565b6040516105859190613bce565b60405180910390f35b34801561059a57600080fd5b506105a36116ea565b6040516105b09190613779565b60405180910390f35b3480156105c557600080fd5b506105ce611710565b6040516105db9190613bce565b60405180910390f35b3480156105f057600080fd5b506105f9611716565b60405161060691906137d1565b60405180910390f35b6106176117a4565b005b34801561062557600080fd5b50610640600480360381019061063b9190613068565b6117f8565b60405161064d91906137b6565b60405180910390f35b34801561066257600080fd5b5061066b611858565b6040516106789190613bce565b60405180910390f35b34801561068d57600080fd5b5061069661185e565b005b3480156106a457600080fd5b506106ad611948565b6040516106ba9190613794565b60405180910390f35b3480156106cf57600080fd5b506106ea60048036038101906106e591906130a4565b611ab1565b6040516106f79190613bce565b60405180910390f35b34801561070c57600080fd5b50610715611ae4565b6040516107229190613bb3565b60405180910390f35b34801561073757600080fd5b50610752600480360381019061074d9190612fdd565b611aea565b60405161075f9190613bce565b60405180910390f35b610782600480360381019061077d91906130a4565b611b71565b005b6006805461079190613eae565b80601f01602080910402602001604051908101604052809291908181526020018280546107bd90613eae565b801561080a5780601f106107df5761010080835404028352916020019161080a565b820191906000526020600020905b8154815290600101906020018083116107ed57829003601f168201915b505050505081565b600081601360003373ffffffffffffffffffffffffffffffffffffffff1673ffffffffffffffffffffffffffffffffffffffff16815260200190815260200160002060008573ffffffffffffffffffffffffffffffffffffffff1673ffffffffffffffffffffffffffffffffffffffff168152602001908152602001600020819055508273ffffffffffffffffffffffffffffffffffffffff163373ffffffffffffffffffffffffffffffffffffffff167f8c5be1e5ebec7d5bd14f71427d1e84f3dd0314c0f7b2291e5b200ac8c7c3b925846040516108f29190613bce565b60405180910390a36001905092915050565b60008060040154601460008473ffffffffffffffffffffffffffffffffffffffff1673ffffffffffffffffffffffffffffffffffffffff16815260200190815260200160002060010154149050919050565b6000600a54905090565b600860009054906101000a900460ff1681565b600a5481565b600061098433610904565b156109c4576040517f08c379a00000000000000000000000000000000000000000000000000000000081526004016109bb90613a13565b60405180910390fd5b6000601360008673ffffffffffffffffffffffffffffffffffffffff1673ffffffffffffffffffffffffffffffffffffffff16815260200190815260200160002060003373ffffffffffffffffffffffffffffffffffffffff1673ffffffffffffffffffffffffffffffffffffffff16815260200190815260200160002054905082811015610a88576040517f08c379a0000000000000000000000000000000000000000000000000000000008152600401610a7f906138b3565b60405180910390fd5b610a93858585611bc6565b8281610a9f9190613dd2565b601360008773ffffffffffffffffffffffffffffffffffffffff1673ffffffffffffffffffffffffffffffffffffffff16815260200190815260200160002060003373ffffffffffffffffffffffffffffffffffffffff1673ffffffffffffffffffffffffffffffffffffffff1681526020019081526020016000208190555060019150509392505050565b610b3433610904565b610b73576040517f08c379a0000000000000000000000000000000000000000000000000000000008152600401610b6a90613853565b60405180910390fd5b600060040154601460003373ffffffffffffffffffffffffffffffffffffffff1673ffffffffffffffffffffffffffffffffffffffff1681526020019081526020016000206001015414610bfc576040517f08c379a0000000000000000000000000000000000000000000000000000000008152600401610bf390613a73565b60405180910390fd5b82601460003373ffffffffffffffffffffffffffffffffffffffff1673ffffffffffffffffffffffffffffffffffffffff1681526020019081526020016000206000015414610c80576040517f08c379a0000000000000000000000000000000000000000000000000000000008152600401610c7790613af3565b60405180910390fd5b610c8984611e3e565b6000846000600501600086815260200190815260200160002060000160020154610cb39190613dd2565b9050610cc181858585611fe8565b5050505050565b601281565b600f54601154421115610d15576040517f08c379a0000000000000000000000000000000000000000000000000000000008152600401610d0c90613b93565b60405180910390fd5b610d1e33610904565b15610d5e576040517f08c379a0000000000000000000000000000000000000000000000000000000008152600401610d5590613ab3565b60405180910390fd5b80601260003373ffffffffffffffffffffffffffffffffffffffff1673ffffffffffffffffffffffffffffffffffffffff168152602001908152602001600020541015610de0576040517f08c379a0000000000000000000000000000000000000000000000000000000008152600401610dd790613b33565b60405180910390fd5b6000604051806060016040528086815260200160006004015481526020013073ffffffffffffffffffffffffffffffffffffffff166370a08231336040518263ffffffff1660e01b8152600401610e37919061375e565b60206040518083038186803b158015610e4f57600080fd5b505afa158015610e63573d6000803e3d6000fd5b505050506040513d601f19601f82011682018060405250810190610e8791906130cd565b81525090506000610e99828686612338565b90506040518060400160405280828152602001600060040154815250601460003373ffffffffffffffffffffffffffffffffffffffff1673ffffffffffffffffffffffffffffffffffffffff16815260200190815260200160002060008201518160000155602082015181600101559050503373ffffffffffffffffffffffffffffffffffffffff167f4d99b957a2bc29a30ebd96a7be8e68fe50a3c701db28a91436490b7d53870ca487604051610f519190613bce565b60405180910390a2505050505050565b60115481565b600860009054906101000a900460ff1615610fb7576040517f08c379a0000000000000000000000000000000000000000000000000000000008152600401610fae90613893565b60405180910390fd5b600f54601260003373ffffffffffffffffffffffffffffffffffffffff1673ffffffffffffffffffffffffffffffffffffffff16815260200190815260200160002054101561103b576040517f08c379a000000000000000000000000000000000000000000000000000000000815260040161103290613b13565b60405180910390fd5b6001600860006101000a81548160ff021916908315150217905550601054426110649190613cf1565b6011819055506000600401600081548092919061108090613ee0565b91905055507fa80808a30283fc2c95db95a081ef4462dd38bb7854e6569e34c0b501eed90f4e6011546040516110b69190613bce565b60405180910390a1565b6110c933610904565b611108576040517f08c379a00000000000000000000000000000000000000000000000000000000081526004016110ff90613973565b60405180910390fd5b600060040154601460003373ffffffffffffffffffffffffffffffffffffffff1673ffffffffffffffffffffffffffffffffffffffff1681526020019081526020016000206001015414611191576040517f08c379a000000000000000000000000000000000000000000000000000000000815260040161118890613a73565b60405180910390fd5b82601460003373ffffffffffffffffffffffffffffffffffffffff1673ffffffffffffffffffffffffffffffffffffffff1681526020019081526020016000206000015414611215576040517f08c379a000000000000000000000000000000000000000000000000000000000815260040161120c90613af3565b60405180910390fd5b600061121f612785565b9050600081600060050160008781526020019081526020016000206000016002015461124b9190613cf1565b905061125981868686611fe8565b5050505050565b60095481565b600e546011544211156112ae576040517f08c379a00000000000000000000000000000000000000000000000000000000081526004016112a590613b93565b60405180910390fd5b6112b733610904565b156112f7576040517f08c379a00000000000000000000000000000000000000000000000000000000081526004016112ee90613ab3565b60405180910390fd5b80601260003373ffffffffffffffffffffffffffffffffffffffff1673ffffffffffffffffffffffffffffffffffffffff168152602001908152602001600020541015611379576040517f08c379a000000000000000000000000000000000000000000000000000000000815260040161137090613b33565b60405180910390fd5b8460006005016000868152602001908152602001600020600001600001541480156113c457506000600401546000600501600086815260200190815260200160002060000160010154145b611403576040517f08c379a00000000000000000000000000000000000000000000000000000000081526004016113fa90613a33565b60405180910390fd5b60003073ffffffffffffffffffffffffffffffffffffffff166370a08231336040518263ffffffff1660e01b815260040161143e919061375e565b60206040518083038186803b15801561145657600080fd5b505afa15801561146a573d6000803e3d6000fd5b505050506040513d601f19601f8201168201806040525081019061148e91906130cd565b60006005016000878152602001908152602001600020600001600201546114b59190613cf1565b90506114c381868686611fe8565b6040518060400160405280868152602001600060040154815250601460003373ffffffffffffffffffffffffffffffffffffffff1673ffffffffffffffffffffffffffffffffffffffff16815260200190815260200160002060008201518160000155602082015181600101559050503373ffffffffffffffffffffffffffffffffffffffff167f4d99b957a2bc29a30ebd96a7be8e68fe50a3c701db28a91436490b7d53870ca4876040516115799190613bce565b60405180910390a2505050505050565b6000601260008373ffffffffffffffffffffffffffffffffffffffff1673ffffffffffffffffffffffffffffffffffffffff168152602001908152602001600020549050919050565b60008060000154908060010154908060020154908060030154908060040154905085565b600d60009054906101000a900473ffffffffffffffffffffffffffffffffffffffff1673ffffffffffffffffffffffffffffffffffffffff163373ffffffffffffffffffffffffffffffffffffffff1614611686576040517f08c379a000000000000000000000000000000000000000000000000000000000815260040161167d90613873565b60405180910390fd5b61271061ffff1681106116ce576040517f08c379a00000000000000000000000000000000000000000000000000000000081526004016116c590613b53565b60405180910390fd5b80600c8190555050565b600c5481565b600b5481565b600f5481565b600d60009054906101000a900473ffffffffffffffffffffffffffffffffffffffff1681565b60105481565b6007805461172390613eae565b80601f016020809104026020016040519081016040528092919081815260200182805461174f90613eae565b801561179c5780601f106117715761010080835404028352916020019161179c565b820191906000526020600020905b81548152906001019060200180831161177f57829003601f168201915b505050505081565b6117ad33610904565b156117ed576040517f08c379a00000000000000000000000000000000000000000000000000000000081526004016117e4906139d3565b60405180910390fd5b6117f5612785565b50565b600061180333610904565b15611843576040517f08c379a000000000000000000000000000000000000000000000000000000000815260040161183a90613a13565b60405180910390fd5b61184e338484611bc6565b6001905092915050565b600e5481565b60115442116118a2576040517f08c379a0000000000000000000000000000000000000000000000000000000008152600401611899906139f3565b60405180910390fd5b600060050160008060000154815260200190815260200160002060000160000154600b8190555060008060020181905550600080600101819055506000806000018190555060016000600301819055506000600860006101000a81548160ff0219169083151502179055507fa6dc15bdb68da224c66db4b3838d9a2b205138e8cff6774e57d0af91e196d622600b5460405161193e9190613bce565b60405180910390a1565b60606000806002015467ffffffffffffffff811115611990577f4e487b7100000000000000000000000000000000000000000000000000000000600052604160045260246000fd5b6040519080825280602002602001820160405280156119c957816020015b6119b6612f2d565b8152602001906001900390816119ae5790505b5090506000600190505b6000600201548111611aa9576000600501600082815260200190815260200160002060405180606001604052908160008201604051806060016040529081600082015481526020016001820154815260200160028201548152505081526020016003820154815260200160048201548152505082600183611a549190613dd2565b81518110611a8b577f4e487b7100000000000000000000000000000000000000000000000000000000600052603260045260246000fd5b60200260200101819052508080611aa190613ee0565b9150506119d3565b508091505090565b600080611abd83612873565b90506000600501600082815260200190815260200160002060000160020154915050919050565b61271081565b6000601360008473ffffffffffffffffffffffffffffffffffffffff1673ffffffffffffffffffffffffffffffffffffffff16815260200190815260200160002060008373ffffffffffffffffffffffffffffffffffffffff1673ffffffffffffffffffffffffffffffffffffffff16815260200190815260200160002054905092915050565b611b7a33610904565b15611bba576040517f08c379a0000000000000000000000000000000000000000000000000000000008152600401611bb1906138f3565b60405180910390fd5b611bc381611e3e565b50565b600073ffffffffffffffffffffffffffffffffffffffff168373ffffffffffffffffffffffffffffffffffffffff161415611c36576040517f08c379a0000000000000000000000000000000000000000000000000000000008152600401611c2d906137f3565b60405180910390fd5b600073ffffffffffffffffffffffffffffffffffffffff168273ffffffffffffffffffffffffffffffffffffffff161415611ca6576040517f08c379a0000000000000000000000000000000000000000000000000000000008152600401611c9d90613a93565b60405180910390fd5b80601260008573ffffffffffffffffffffffffffffffffffffffff1673ffffffffffffffffffffffffffffffffffffffff168152602001908152602001600020541015611d28576040517f08c379a0000000000000000000000000000000000000000000000000000000008152600401611d1f90613b73565b60405180910390fd5b80601260008573ffffffffffffffffffffffffffffffffffffffff1673ffffffffffffffffffffffffffffffffffffffff1681526020019081526020016000206000828254611d779190613dd2565b9250508190555080601260008473ffffffffffffffffffffffffffffffffffffffff1673ffffffffffffffffffffffffffffffffffffffff1681526020019081526020016000206000828254611dcd9190613cf1565b925050819055508173ffffffffffffffffffffffffffffffffffffffff168373ffffffffffffffffffffffffffffffffffffffff167fddf252ad1be2c89b69c2b068fc378daa952ba7f163c4a11628f55a4df523b3ef83604051611e319190613bce565b60405180910390a3505050565b803073ffffffffffffffffffffffffffffffffffffffff166370a08231336040518263ffffffff1660e01b8152600401611e78919061375e565b60206040518083038186803b158015611e9057600080fd5b505afa158015611ea4573d6000803e3d6000fd5b505050506040513d601f19601f82011682018060405250810190611ec891906130cd565b1015611f09576040517f08c379a0000000000000000000000000000000000000000000000000000000008152600401611f0090613b73565b60405180910390fd5b6000600b5482611f199190613d78565b9050600061271061ffff16600c5483611f329190613d78565b611f3c9190613d47565b905060008183611f4c9190613dd2565b905080471015611f91576040517f08c379a0000000000000000000000000000000000000000000000000000000008152600401611f8890613a53565b60405180910390fd5b611f9b338561294d565b3373ffffffffffffffffffffffffffffffffffffffff166108fc829081150290604051600060405180830381858888f19350505050158015611fe1573d6000803e3d6000fd5b5050505050565b6000806005016000858152602001908152602001600020905084816000016002018190555060006004015481600001600101541461205b576040517f08c379a000000000000000000000000000000000000000000000000000000000815260040161205290613913565b60405180910390fd5b61206583836129c0565b61206f8185612c54565b60016000600201541480156120845750600184145b1561208f5750612332565b600083141561213b578460006005016000848152602001908152602001600020600001600201541180156120c65750816000800154145b612105576040517f08c379a00000000000000000000000000000000000000000000000000000000081526004016120fc90613993565b60405180910390fd5b836000600101819055508181600401819055508360006005016000848152602001908152602001600020600301819055506122f3565b60008214156121e757846000600501600085815260200190815260200160002060000160020154108015612173575082600060010154145b6121b2576040517f08c379a00000000000000000000000000000000000000000000000000000000081526004016121a990613993565b60405180910390fd5b8360008001819055508281600301819055508360006005016000858152602001908152602001600020600401819055506122f2565b84600060050160008581526020019081526020016000206000016002015410612245576040517f08c379a000000000000000000000000000000000000000000000000000000000815260040161223c90613993565b60405180910390fd5b846000600501600084815260200190815260200160002060000160020154116122a3576040517f08c379a000000000000000000000000000000000000000000000000000000000815260040161229a90613993565b60405180910390fd5b8281600301819055508181600401819055508360006005016000858152602001908152602001600020600401819055508360006005016000848152602001908152602001600020600301819055505b5b7f1d3c25516a06a1b7955a4f7fddcb88ca86aa4694bb1065aa2b95cd03b5014ea6848484886040516123289493929190613be9565b60405180910390a1505b50505050565b600061234483836129c0565b61234c612f2d565b600080600201541480156123605750600084145b801561236c5750600083145b156123aa5760016000600101819055506001600080018190555060405180606001604052808681526020016000815260200160008152509050612670565b600084141561247957846040015160006005016000858152602001908152602001600020600001600201541180156123e6575082600060010154145b612425576040517f08c379a000000000000000000000000000000000000000000000000000000000815260040161241c90613993565b60405180910390fd5b6000600301546000600501600085815260200190815260200160002060030181905550600060030154600060010181905550604051806060016040528086815260200185815260200184815250905061266f565b600083141561254657846040015160006005016000868152602001908152602001600020600001600201541080156124b45750836000800154145b6124f3576040517f08c379a00000000000000000000000000000000000000000000000000000000081526004016124ea90613993565b60405180910390fd5b60006003015460006005016000868152602001908152602001600020600401819055506000600301546000800181905550604051806060016040528086815260200185815260200184815250905061266e565b84604001516000600501600086815260200190815260200160002060000160020154106125a8576040517f08c379a000000000000000000000000000000000000000000000000000000000815260040161259f90613993565b60405180910390fd5b846040015160006005016000858152602001908152602001600020600001600201541161260a576040517f08c379a000000000000000000000000000000000000000000000000000000000815260040161260190613993565b60405180910390fd5b6040518060600160405280868152602001858152602001848152509050600060030154600060050160008681526020019081526020016000206004018190555060006003015460006005016000858152602001908152602001600020600301819055505b5b5b6000600201600081548092919061268690613ee0565b919050555080600060050160008060030154815260200190815260200160002060008201518160000160008201518160000155602082015181600101556040820151816002015550506020820151816003015560408201518160040155905050600060030160008154809291906126fc90613ee0565b91905055507fcf9e76fe5312cb51013c03601d9ee9a3dcf030d09dc6d0b1ab40000cd4a2088e60016000600301546127349190613dd2565b82602001518360400151846000015160000151856000015160400151604051612761959493929190613c2e565b60405180910390a1600160006003015461277b9190613dd2565b9150509392505050565b60008034116127c9576040517f08c379a00000000000000000000000000000000000000000000000000000000081526004016127c090613ad3565b60405180910390fd5b600061271061ffff16600c54346127e09190613d78565b6127ea9190613d47565b9050600081346127fa9190613dd2565b90506000600b548261280c9190613d47565b9050600a5460095461281e9190613dd2565b811115612860576040517f08c379a000000000000000000000000000000000000000000000000000000000815260040161285790613953565b60405180910390fd5b61286a3382612eba565b80935050505090565b600080600190505b600080600501600083815260200190815260200160002060040154141580156128c0575082600060050160008381526020019081526020016000206000016000015414155b156128e6576000600501600082815260200190815260200160002060040154905061287b565b82600060050160008381526020019081526020016000206000016000015414612944576040517f08c379a000000000000000000000000000000000000000000000000000000000815260040161293b90613833565b60405180910390fd5b80915050919050565b80601260008473ffffffffffffffffffffffffffffffffffffffff1673ffffffffffffffffffffffffffffffffffffffff168152602001908152602001600020600082825461299c9190613dd2565b9250508190555080600a60008282546129b59190613dd2565b925050819055505050565b8082141580156129d65750600160006002015410155b806129ff57506000821480156129ec5750600081145b80156129fe5750600160006002015411155b5b612a3e576040517f08c379a0000000000000000000000000000000000000000000000000000000008152600401612a35906139b3565b60405180910390fd5b60008060020154148015612a525750600082145b8015612a5e5750600081145b15612a6857612c50565b60008214158015612a7a575060008114155b8015612a865750808214155b15612b465780600060050160008481526020019081526020016000206004015414612ae6576040517f08c379a0000000000000000000000000000000000000000000000000000000008152600401612add90613813565b60405180910390fd5b81600060050160008381526020019081526020016000206003015414612b41576040517f08c379a0000000000000000000000000000000000000000000000000000000008152600401612b3890613813565b60405180910390fd5b612c4f565b60008214158015612b575750600081145b15612bcc57600080600501600084815260200190815260200160002060030154148015612b88575081600060010154145b612bc7576040517f08c379a0000000000000000000000000000000000000000000000000000000008152600401612bbe90613933565b60405180910390fd5b612c4e565b600082148015612bdd575060008114155b15612c4d57600080600501600083815260200190815260200160002060040154148015612c0d5750806000800154145b612c4c576040517f08c379a0000000000000000000000000000000000000000000000000000000008152600401612c43906138d3565b60405180910390fd5b5b5b5b5b5050565b60008260000160020154905060016000600201541415612c745750612eb6565b60008360030154148015612ca7575060006005016000846004015481526020019081526020016000206000016002015481115b15612d4457600080600501600085600401548152602001908152602001600020600301819055508260040154600060010181905550806000600501600080600501600087600401548152602001908152602001600020600401548152602001908152602001600020600001600201541115612d3f57816000600501600085600401548152602001908152602001600020600401819055505b612eb4565b60008360040154148015612d77575060006005016000846003015481526020019081526020016000206000016002015481105b15612e13576000806005016000856003015481526020019081526020016000206004018190555082600301546000800181905550806000600501600080600501600087600301548152602001908152602001600020600301548152602001908152602001600020600001600201541015612e0e57816000600501600085600301548152602001908152602001600020600301819055505b612eb3565b600060050160008460040154815260200190815260200160002060000160020154811180612e60575060006005016000846003015481526020019081526020016000206000016002015481105b15612eb257826004015460006005016000856003015481526020019081526020016000206004018190555082600301546000600501600085600401548152602001908152602001600020600301819055505b5b5b505b5050565b80601260008473ffffffffffffffffffffffffffffffffffffffff1673ffffffffffffffffffffffffffffffffffffffff1681526020019081526020016000206000828254612f099190613cf1565b9250508190555080600a6000828254612f229190613cf1565b925050819055505050565b6040518060600160405280612f40612f54565b815260200160008152602001600081525090565b60405180606001604052806000815260200160008152602001600081525090565b600081359050612f848161465d565b92915050565b600081359050612f9981614674565b92915050565b600081519050612fae81614674565b92915050565b600060208284031215612fc657600080fd5b6000612fd484828501612f75565b91505092915050565b60008060408385031215612ff057600080fd5b6000612ffe85828601612f75565b925050602061300f85828601612f75565b9150509250929050565b60008060006060848603121561302e57600080fd5b600061303c86828701612f75565b935050602061304d86828701612f75565b925050604061305e86828701612f8a565b9150509250925092565b6000806040838503121561307b57600080fd5b600061308985828601612f75565b925050602061309a85828601612f8a565b9150509250929050565b6000602082840312156130b657600080fd5b60006130c484828501612f8a565b91505092915050565b6000602082840312156130df57600080fd5b60006130ed84828501612f9f565b91505092915050565b60008060006060848603121561310b57600080fd5b600061311986828701612f8a565b935050602061312a86828701612f8a565b925050604061313b86828701612f8a565b9150509250925092565b6000806000806080858703121561315b57600080fd5b600061316987828801612f8a565b945050602061317a87828801612f8a565b935050604061318b87828801612f8a565b925050606061319c87828801612f8a565b91505092959194509250565b60006131b4838361369e565b60a08301905092915050565b6131c981613e18565b82525050565b6131d881613e06565b82525050565b60006131e982613cac565b6131f38185613ccf565b93506131fe83613c9c565b8060005b8381101561322f57815161321688826131a8565b975061322183613cc2565b925050600181019050613202565b5085935050505092915050565b61324581613e2a565b82525050565b600061325682613cb7565b6132608185613ce0565b9350613270818560208601613e7b565b61327981613fb6565b840191505092915050565b6000613291602183613ce0565b915061329c82613fc7565b604082019050919050565b60006132b4602083613ce0565b91506132bf82614016565b602082019050919050565b60006132d7602483613ce0565b91506132e28261403f565b604082019050919050565b60006132fa601a83613ce0565b91506133058261408e565b602082019050919050565b600061331d601383613ce0565b9150613328826140b7565b602082019050919050565b6000613340601f83613ce0565b915061334b826140e0565b602082019050919050565b6000613363602183613ce0565b915061336e82614109565b604082019050919050565b6000613386602883613ce0565b915061339182614158565b604082019050919050565b60006133a9602383613ce0565b91506133b4826141a7565b604082019050919050565b60006133cc601183613ce0565b91506133d7826141f6565b602082019050919050565b60006133ef602783613ce0565b91506133fa8261421f565b604082019050919050565b6000613412602083613ce0565b915061341d8261426e565b602082019050919050565b6000613435601983613ce0565b915061344082614297565b602082019050919050565b6000613458602b83613ce0565b9150613463826142c0565b604082019050919050565b600061347b601783613ce0565b91506134868261430f565b602082019050919050565b600061349e602283613ce0565b91506134a982614338565b604082019050919050565b60006134c1601683613ce0565b91506134cc82614387565b602082019050919050565b60006134e4602783613ce0565b91506134ef826143b0565b604082019050919050565b6000613507601083613ce0565b9150613512826143ff565b602082019050919050565b600061352a602983613ce0565b915061353582614428565b604082019050919050565b600061354d602183613ce0565b915061355882614477565b604082019050919050565b6000613570601f83613ce0565b915061357b826144c6565b602082019050919050565b6000613593601283613ce0565b915061359e826144ef565b602082019050919050565b60006135b6601e83613ce0565b91506135c182614518565b602082019050919050565b60006135d9601883613ce0565b91506135e482614541565b602082019050919050565b60006135fc602683613ce0565b91506136078261456a565b604082019050919050565b600061361f601983613ce0565b915061362a826145b9565b602082019050919050565b6000613642601e83613ce0565b915061364d826145e2565b602082019050919050565b6000613665601183613ce0565b91506136708261460b565b602082019050919050565b6000613688601383613ce0565b915061369382614634565b602082019050919050565b60a0820160008201516136b460008501826136e0565b5060208201516136c76060850182613731565b5060408201516136da6080850182613731565b50505050565b6060820160008201516136f66000850182613731565b5060208201516137096020850182613731565b50604082015161371c6040850182613731565b50505050565b61372b81613e36565b82525050565b61373a81613e64565b82525050565b61374981613e64565b82525050565b61375881613e6e565b82525050565b600060208201905061377360008301846131cf565b92915050565b600060208201905061378e60008301846131c0565b92915050565b600060208201905081810360008301526137ae81846131de565b905092915050565b60006020820190506137cb600083018461323c565b92915050565b600060208201905081810360008301526137eb818461324b565b905092915050565b6000602082019050818103600083015261380c81613284565b9050919050565b6000602082019050818103600083015261382c816132a7565b9050919050565b6000602082019050818103600083015261384c816132ca565b9050919050565b6000602082019050818103600083015261386c816132ed565b9050919050565b6000602082019050818103600083015261388c81613310565b9050919050565b600060208201905081810360008301526138ac81613333565b9050919050565b600060208201905081810360008301526138cc81613356565b9050919050565b600060208201905081810360008301526138ec81613379565b9050919050565b6000602082019050818103600083015261390c8161339c565b9050919050565b6000602082019050818103600083015261392c816133bf565b9050919050565b6000602082019050818103600083015261394c816133e2565b9050919050565b6000602082019050818103600083015261396c81613405565b9050919050565b6000602082019050818103600083015261398c81613428565b9050919050565b600060208201905081810360008301526139ac8161344b565b9050919050565b600060208201905081810360008301526139cc8161346e565b9050919050565b600060208201905081810360008301526139ec81613491565b9050919050565b60006020820190508181036000830152613a0c816134b4565b9050919050565b60006020820190508181036000830152613a2c816134d7565b9050919050565b60006020820190508181036000830152613a4c816134fa565b9050919050565b60006020820190508181036000830152613a6c8161351d565b9050919050565b60006020820190508181036000830152613a8c81613540565b9050919050565b60006020820190508181036000830152613aac81613563565b9050919050565b60006020820190508181036000830152613acc81613586565b9050919050565b60006020820190508181036000830152613aec816135a9565b9050919050565b60006020820190508181036000830152613b0c816135cc565b9050919050565b60006020820190508181036000830152613b2c816135ef565b9050919050565b60006020820190508181036000830152613b4c81613612565b9050919050565b60006020820190508181036000830152613b6c81613635565b9050919050565b60006020820190508181036000830152613b8c81613658565b9050919050565b60006020820190508181036000830152613bac8161367b565b9050919050565b6000602082019050613bc86000830184613722565b92915050565b6000602082019050613be36000830184613740565b92915050565b6000608082019050613bfe6000830187613740565b613c0b6020830186613740565b613c186040830185613740565b613c256060830184613740565b95945050505050565b600060a082019050613c436000830188613740565b613c506020830187613740565b613c5d6040830186613740565b613c6a6060830185613740565b613c776080830184613740565b9695505050505050565b6000602082019050613c96600083018461374f565b92915050565b6000819050602082019050919050565b600081519050919050565b600081519050919050565b6000602082019050919050565b600082825260208201905092915050565b600082825260208201905092915050565b6000613cfc82613e64565b9150613d0783613e64565b9250827fffffffffffffffffffffffffffffffffffffffffffffffffffffffffffffffff03821115613d3c57613d3b613f29565b5b828201905092915050565b6000613d5282613e64565b9150613d5d83613e64565b925082613d6d57613d6c613f58565b5b828204905092915050565b6000613d8382613e64565b9150613d8e83613e64565b9250817fffffffffffffffffffffffffffffffffffffffffffffffffffffffffffffffff0483118215151615613dc757613dc6613f29565b5b828202905092915050565b6000613ddd82613e64565b9150613de883613e64565b925082821015613dfb57613dfa613f29565b5b828203905092915050565b6000613e1182613e44565b9050919050565b6000613e2382613e44565b9050919050565b60008115159050919050565b600061ffff82169050919050565b600073ffffffffffffffffffffffffffffffffffffffff82169050919050565b6000819050919050565b600060ff82169050919050565b60005b83811015613e99578082015181840152602081019050613e7e565b83811115613ea8576000848401525b50505050565b60006002820490506001821680613ec657607f821691505b60208210811415613eda57613ed9613f87565b5b50919050565b6000613eeb82613e64565b91507fffffffffffffffffffffffffffffffffffffffffffffffffffffffffffffffff821415613f1e57613f1d613f29565b5b600182019050919050565b7f4e487b7100000000000000000000000000000000000000000000000000000000600052601160045260246000fd5b7f4e487b7100000000000000000000000000000000000000000000000000000000600052601260045260246000fd5b7f4e487b7100000000000000000000000000000000000000000000000000000000600052602260045260246000fd5b6000601f19601f8301169050919050565b7f43616e6e6f74207472616e736665722066726f6d207a65726f2061646472657360008201527f7300000000000000000000000000000000000000000000000000000000000000602082015250565b7f4e65787420616e64207072657620696e646578206e6f742072656c6174656421600082015250565b7f50726f706f736564207072696365206973206e6f7420657869737420696e206c60008201527f6973742100000000000000000000000000000000000000000000000000000000602082015250565b7f5573652073656c6c20696620796f75206e6f7420766f74656421000000000000600082015250565b7f43616c6c6572206973206e6f74206f776e657200000000000000000000000000600082015250565b7f5072657669757320766f74696e67206973206e6f74206f766572207965742100600082015250565b7f5472616e7366657220616d6f756e74206578636565647320616c6c6f77616e6360008201527f6500000000000000000000000000000000000000000000000000000000000000602082015250565b7f43616e742062652068656164206265636f7573652063757272656e742068656160008201527f6420686967686572000000000000000000000000000000000000000000000000602082015250565b7f55736520766f74657253656c6c20696620796f7520616c726561647920766f7460008201527f6564210000000000000000000000000000000000000000000000000000000000602082015250565b7f4e6f6465206973206e6f742076616c6964000000000000000000000000000000600082015250565b7f43616e74206265207461696c206265636f7573652063757272656e742074616960008201527f6c206c6f77657200000000000000000000000000000000000000000000000000602082015250565b7f4d617820737570706c79206f6620746f6b656e7320697320746f75636865642e600082015250565b7f5573652062757920696620796f75206e6f7420766f7465642100000000000000600082015250565b7f4e657874206e6f6465206c657373207468616e206e6f646520796f752074727960008201527f696e6720746f2061646421000000000000000000000000000000000000000000602082015250565b7f5072657620616e64206e6578742061726520657175616c000000000000000000600082015250565b7f55736520766f74657242757920696620796f7520616c726561647920766f746560008201527f6421000000000000000000000000000000000000000000000000000000000000602082015250565b7f566f74696e67206973206e6f74206f7665722079657400000000000000000000600082015250565b7f55736520766f7465725472616e7366657220696620796f7520616c726561647960008201527f20766f7465642100000000000000000000000000000000000000000000000000602082015250565b7f57726f6e67206e6f646520696e64657800000000000000000000000000000000600082015250565b7f436f6e747261637420646f65736e2774206861766520656e6f7567682065746860008201527f657220746f207061790000000000000000000000000000000000000000000000602082015250565b7f596f7520617265206e6f7420766f746572206f6620637572726e657420766f7460008201527f6500000000000000000000000000000000000000000000000000000000000000602082015250565b7f43616e6e6f74207472616e7366657220746f207a65726f206164647265737300600082015250565b7f596f7520616c726561647920766f746564210000000000000000000000000000600082015250565b7f53656e6420736f6d6520657468657220746f2062757920746f6b656e732e0000600082015250565b7f596f7520617265206e6f7420696e2074686973206e6f64650000000000000000600082015250565b7f4e6f7420656e6f75676820746f6b656e7320666f72207374617274696e67206160008201527f20766f7465210000000000000000000000000000000000000000000000000000602082015250565b7f4e6f7420656e6f75676820746f6b656e7320746f20766f746500000000000000600082015250565b7f596f752063616e27742073657420666565206f662077686f6c652073756d0000600082015250565b7f4e6f7420656e6f75676820746f6b656e73000000000000000000000000000000600082015250565b7f566f74696e672074696d65206973206f76657200000000000000000000000000600082015250565b61466681613e06565b811461467157600080fd5b50565b61467d81613e64565b811461468857600080fd5b5056fea26469706673582212209ca6928cfd410dbcb68c511752a9e70b0e4d6331c30dd0391ed5559d6407706c64736f6c63430008040033",
  "linkReferences": {},
  "deployedLinkReferences": {}
}